{
	"ERC721/ERC721SC1.sol": {
		"ERC721SC1": {
			"abi": [
				{
					"inputs": [
						{
							"internalType": "address",
							"name": "initialOwner",
							"type": "address"
						}
					],
					"stateMutability": "nonpayable",
					"type": "constructor"
				},
				{
					"inputs": [],
					"name": "ERC721EnumerableForbiddenBatchMint",
					"type": "error"
				},
				{
					"inputs": [
						{
							"internalType": "address",
							"name": "sender",
							"type": "address"
						},
						{
							"internalType": "uint256",
							"name": "tokenId",
							"type": "uint256"
						},
						{
							"internalType": "address",
							"name": "owner",
							"type": "address"
						}
					],
					"name": "ERC721IncorrectOwner",
					"type": "error"
				},
				{
					"inputs": [
						{
							"internalType": "address",
							"name": "operator",
							"type": "address"
						},
						{
							"internalType": "uint256",
							"name": "tokenId",
							"type": "uint256"
						}
					],
					"name": "ERC721InsufficientApproval",
					"type": "error"
				},
				{
					"inputs": [
						{
							"internalType": "address",
							"name": "approver",
							"type": "address"
						}
					],
					"name": "ERC721InvalidApprover",
					"type": "error"
				},
				{
					"inputs": [
						{
							"internalType": "address",
							"name": "operator",
							"type": "address"
						}
					],
					"name": "ERC721InvalidOperator",
					"type": "error"
				},
				{
					"inputs": [
						{
							"internalType": "address",
							"name": "owner",
							"type": "address"
						}
					],
					"name": "ERC721InvalidOwner",
					"type": "error"
				},
				{
					"inputs": [
						{
							"internalType": "address",
							"name": "receiver",
							"type": "address"
						}
					],
					"name": "ERC721InvalidReceiver",
					"type": "error"
				},
				{
					"inputs": [
						{
							"internalType": "address",
							"name": "sender",
							"type": "address"
						}
					],
					"name": "ERC721InvalidSender",
					"type": "error"
				},
				{
					"inputs": [
						{
							"internalType": "uint256",
							"name": "tokenId",
							"type": "uint256"
						}
					],
					"name": "ERC721NonexistentToken",
					"type": "error"
				},
				{
					"inputs": [
						{
							"internalType": "address",
							"name": "owner",
							"type": "address"
						},
						{
							"internalType": "uint256",
							"name": "index",
							"type": "uint256"
						}
					],
					"name": "ERC721OutOfBoundsIndex",
					"type": "error"
				},
				{
					"inputs": [],
					"name": "EnforcedPause",
					"type": "error"
				},
				{
					"inputs": [],
					"name": "ExpectedPause",
					"type": "error"
				},
				{
					"inputs": [
						{
							"internalType": "address",
							"name": "owner",
							"type": "address"
						}
					],
					"name": "OwnableInvalidOwner",
					"type": "error"
				},
				{
					"inputs": [
						{
							"internalType": "address",
							"name": "account",
							"type": "address"
						}
					],
					"name": "OwnableUnauthorizedAccount",
					"type": "error"
				},
				{
					"anonymous": false,
					"inputs": [
						{
							"indexed": true,
							"internalType": "address",
							"name": "owner",
							"type": "address"
						},
						{
							"indexed": true,
							"internalType": "address",
							"name": "approved",
							"type": "address"
						},
						{
							"indexed": true,
							"internalType": "uint256",
							"name": "tokenId",
							"type": "uint256"
						}
					],
					"name": "Approval",
					"type": "event"
				},
				{
					"anonymous": false,
					"inputs": [
						{
							"indexed": true,
							"internalType": "address",
							"name": "owner",
							"type": "address"
						},
						{
							"indexed": true,
							"internalType": "address",
							"name": "operator",
							"type": "address"
						},
						{
							"indexed": false,
							"internalType": "bool",
							"name": "approved",
							"type": "bool"
						}
					],
					"name": "ApprovalForAll",
					"type": "event"
				},
				{
					"anonymous": false,
					"inputs": [
						{
							"indexed": true,
							"internalType": "address",
							"name": "previousOwner",
							"type": "address"
						},
						{
							"indexed": true,
							"internalType": "address",
							"name": "newOwner",
							"type": "address"
						}
					],
					"name": "OwnershipTransferred",
					"type": "event"
				},
				{
					"anonymous": false,
					"inputs": [
						{
							"indexed": false,
							"internalType": "address",
							"name": "account",
							"type": "address"
						}
					],
					"name": "Paused",
					"type": "event"
				},
				{
					"anonymous": false,
					"inputs": [
						{
							"indexed": true,
							"internalType": "address",
							"name": "from",
							"type": "address"
						},
						{
							"indexed": true,
							"internalType": "address",
							"name": "to",
							"type": "address"
						},
						{
							"indexed": true,
							"internalType": "uint256",
							"name": "tokenId",
							"type": "uint256"
						}
					],
					"name": "Transfer",
					"type": "event"
				},
				{
					"anonymous": false,
					"inputs": [
						{
							"indexed": false,
							"internalType": "address",
							"name": "account",
							"type": "address"
						}
					],
					"name": "Unpaused",
					"type": "event"
				},
				{
					"inputs": [
						{
							"internalType": "address",
							"name": "",
							"type": "address"
						}
					],
					"name": "allowList",
					"outputs": [
						{
							"internalType": "bool",
							"name": "",
							"type": "bool"
						}
					],
					"stateMutability": "view",
					"type": "function"
				},
				{
					"inputs": [],
					"name": "allowListMint",
					"outputs": [],
					"stateMutability": "payable",
					"type": "function"
				},
				{
					"inputs": [],
					"name": "allowListMintOpen",
					"outputs": [
						{
							"internalType": "bool",
							"name": "",
							"type": "bool"
						}
					],
					"stateMutability": "view",
					"type": "function"
				},
				{
					"inputs": [
						{
							"internalType": "address",
							"name": "to",
							"type": "address"
						},
						{
							"internalType": "uint256",
							"name": "tokenId",
							"type": "uint256"
						}
					],
					"name": "approve",
					"outputs": [],
					"stateMutability": "nonpayable",
					"type": "function"
				},
				{
					"inputs": [
						{
							"internalType": "address",
							"name": "owner",
							"type": "address"
						}
					],
					"name": "balanceOf",
					"outputs": [
						{
							"internalType": "uint256",
							"name": "",
							"type": "uint256"
						}
					],
					"stateMutability": "view",
					"type": "function"
				},
				{
					"inputs": [
						{
							"internalType": "bool",
							"name": "_publicMintOpen",
							"type": "bool"
						},
						{
							"internalType": "bool",
							"name": "_allowListMintOpen",
							"type": "bool"
						}
					],
					"name": "editMintWindows",
					"outputs": [],
					"stateMutability": "nonpayable",
					"type": "function"
				},
				{
					"inputs": [
						{
							"internalType": "uint256",
							"name": "tokenId",
							"type": "uint256"
						}
					],
					"name": "getApproved",
					"outputs": [
						{
							"internalType": "address",
							"name": "",
							"type": "address"
						}
					],
					"stateMutability": "view",
					"type": "function"
				},
				{
					"inputs": [],
					"name": "ipfsUri",
					"outputs": [
						{
							"internalType": "string",
							"name": "",
							"type": "string"
						}
					],
					"stateMutability": "view",
					"type": "function"
				},
				{
					"inputs": [
						{
							"internalType": "address",
							"name": "owner",
							"type": "address"
						},
						{
							"internalType": "address",
							"name": "operator",
							"type": "address"
						}
					],
					"name": "isApprovedForAll",
					"outputs": [
						{
							"internalType": "bool",
							"name": "",
							"type": "bool"
						}
					],
					"stateMutability": "view",
					"type": "function"
				},
				{
					"inputs": [],
					"name": "name",
					"outputs": [
						{
							"internalType": "string",
							"name": "",
							"type": "string"
						}
					],
					"stateMutability": "view",
					"type": "function"
				},
				{
					"inputs": [],
					"name": "owner",
					"outputs": [
						{
							"internalType": "address",
							"name": "",
							"type": "address"
						}
					],
					"stateMutability": "view",
					"type": "function"
				},
				{
					"inputs": [
						{
							"internalType": "uint256",
							"name": "tokenId",
							"type": "uint256"
						}
					],
					"name": "ownerOf",
					"outputs": [
						{
							"internalType": "address",
							"name": "",
							"type": "address"
						}
					],
					"stateMutability": "view",
					"type": "function"
				},
				{
					"inputs": [],
					"name": "pause",
					"outputs": [],
					"stateMutability": "nonpayable",
					"type": "function"
				},
				{
					"inputs": [],
					"name": "paused",
					"outputs": [
						{
							"internalType": "bool",
							"name": "",
							"type": "bool"
						}
					],
					"stateMutability": "view",
					"type": "function"
				},
				{
					"inputs": [],
					"name": "publicMint",
					"outputs": [],
					"stateMutability": "payable",
					"type": "function"
				},
				{
					"inputs": [],
					"name": "publicMintOpen",
					"outputs": [
						{
							"internalType": "bool",
							"name": "",
							"type": "bool"
						}
					],
					"stateMutability": "view",
					"type": "function"
				},
				{
					"inputs": [],
					"name": "renounceOwnership",
					"outputs": [],
					"stateMutability": "nonpayable",
					"type": "function"
				},
				{
					"inputs": [
						{
							"internalType": "address",
							"name": "from",
							"type": "address"
						},
						{
							"internalType": "address",
							"name": "to",
							"type": "address"
						},
						{
							"internalType": "uint256",
							"name": "tokenId",
							"type": "uint256"
						}
					],
					"name": "safeTransferFrom",
					"outputs": [],
					"stateMutability": "nonpayable",
					"type": "function"
				},
				{
					"inputs": [
						{
							"internalType": "address",
							"name": "from",
							"type": "address"
						},
						{
							"internalType": "address",
							"name": "to",
							"type": "address"
						},
						{
							"internalType": "uint256",
							"name": "tokenId",
							"type": "uint256"
						},
						{
							"internalType": "bytes",
							"name": "data",
							"type": "bytes"
						}
					],
					"name": "safeTransferFrom",
					"outputs": [],
					"stateMutability": "nonpayable",
					"type": "function"
				},
				{
					"inputs": [
						{
							"internalType": "address[]",
							"name": "addresses",
							"type": "address[]"
						}
					],
					"name": "setAllowlist",
					"outputs": [],
					"stateMutability": "nonpayable",
					"type": "function"
				},
				{
					"inputs": [
						{
							"internalType": "address",
							"name": "operator",
							"type": "address"
						},
						{
							"internalType": "bool",
							"name": "approved",
							"type": "bool"
						}
					],
					"name": "setApprovalForAll",
					"outputs": [],
					"stateMutability": "nonpayable",
					"type": "function"
				},
				{
					"inputs": [
						{
							"internalType": "bytes4",
							"name": "interfaceId",
							"type": "bytes4"
						}
					],
					"name": "supportsInterface",
					"outputs": [
						{
							"internalType": "bool",
							"name": "",
							"type": "bool"
						}
					],
					"stateMutability": "view",
					"type": "function"
				},
				{
					"inputs": [],
					"name": "symbol",
					"outputs": [
						{
							"internalType": "string",
							"name": "",
							"type": "string"
						}
					],
					"stateMutability": "view",
					"type": "function"
				},
				{
					"inputs": [
						{
							"internalType": "uint256",
							"name": "index",
							"type": "uint256"
						}
					],
					"name": "tokenByIndex",
					"outputs": [
						{
							"internalType": "uint256",
							"name": "",
							"type": "uint256"
						}
					],
					"stateMutability": "view",
					"type": "function"
				},
				{
					"inputs": [
						{
							"internalType": "address",
							"name": "owner",
							"type": "address"
						},
						{
							"internalType": "uint256",
							"name": "index",
							"type": "uint256"
						}
					],
					"name": "tokenOfOwnerByIndex",
					"outputs": [
						{
							"internalType": "uint256",
							"name": "",
							"type": "uint256"
						}
					],
					"stateMutability": "view",
					"type": "function"
				},
				{
					"inputs": [
						{
							"internalType": "uint256",
							"name": "tokenId",
							"type": "uint256"
						}
					],
					"name": "tokenURI",
					"outputs": [
						{
							"internalType": "string",
							"name": "",
							"type": "string"
						}
					],
					"stateMutability": "view",
					"type": "function"
				},
				{
					"inputs": [],
					"name": "totalSupply",
					"outputs": [
						{
							"internalType": "uint256",
							"name": "",
							"type": "uint256"
						}
					],
					"stateMutability": "view",
					"type": "function"
				},
				{
					"inputs": [
						{
							"internalType": "address",
							"name": "from",
							"type": "address"
						},
						{
							"internalType": "address",
							"name": "to",
							"type": "address"
						},
						{
							"internalType": "uint256",
							"name": "tokenId",
							"type": "uint256"
						}
					],
					"name": "transferFrom",
					"outputs": [],
					"stateMutability": "nonpayable",
					"type": "function"
				},
				{
					"inputs": [
						{
							"internalType": "address",
							"name": "newOwner",
							"type": "address"
						}
					],
					"name": "transferOwnership",
					"outputs": [],
					"stateMutability": "nonpayable",
					"type": "function"
				},
				{
					"inputs": [],
					"name": "unpause",
					"outputs": [],
					"stateMutability": "nonpayable",
					"type": "function"
				},
				{
					"inputs": [
						{
							"internalType": "address",
							"name": "_address",
							"type": "address"
						}
					],
					"name": "withdrawFunds",
					"outputs": [],
					"stateMutability": "nonpayable",
					"type": "function"
				}
			],
			"devdoc": {
				"errors": {
					"ERC721EnumerableForbiddenBatchMint()": [
						{
							"details": "Batch mint is not allowed."
						}
					],
					"ERC721IncorrectOwner(address,uint256,address)": [
						{
							"details": "Indicates an error related to the ownership over a particular token. Used in transfers.",
							"params": {
								"owner": "Address of the current owner of a token.",
								"sender": "Address whose tokens are being transferred.",
								"tokenId": "Identifier number of a token."
							}
						}
					],
					"ERC721InsufficientApproval(address,uint256)": [
						{
							"details": "Indicates a failure with the `operator`’s approval. Used in transfers.",
							"params": {
								"operator": "Address that may be allowed to operate on tokens without being their owner.",
								"tokenId": "Identifier number of a token."
							}
						}
					],
					"ERC721InvalidApprover(address)": [
						{
							"details": "Indicates a failure with the `approver` of a token to be approved. Used in approvals.",
							"params": {
								"approver": "Address initiating an approval operation."
							}
						}
					],
					"ERC721InvalidOperator(address)": [
						{
							"details": "Indicates a failure with the `operator` to be approved. Used in approvals.",
							"params": {
								"operator": "Address that may be allowed to operate on tokens without being their owner."
							}
						}
					],
					"ERC721InvalidOwner(address)": [
						{
							"details": "Indicates that an address can't be an owner. For example, `address(0)` is a forbidden owner in EIP-20. Used in balance queries.",
							"params": {
								"owner": "Address of the current owner of a token."
							}
						}
					],
					"ERC721InvalidReceiver(address)": [
						{
							"details": "Indicates a failure with the token `receiver`. Used in transfers.",
							"params": {
								"receiver": "Address to which tokens are being transferred."
							}
						}
					],
					"ERC721InvalidSender(address)": [
						{
							"details": "Indicates a failure with the token `sender`. Used in transfers.",
							"params": {
								"sender": "Address whose tokens are being transferred."
							}
						}
					],
					"ERC721NonexistentToken(uint256)": [
						{
							"details": "Indicates a `tokenId` whose `owner` is the zero address.",
							"params": {
								"tokenId": "Identifier number of a token."
							}
						}
					],
					"ERC721OutOfBoundsIndex(address,uint256)": [
						{
							"details": "An `owner`'s token query was out of bounds for `index`. NOTE: The owner being `address(0)` indicates a global out of bounds index."
						}
					],
					"EnforcedPause()": [
						{
							"details": "The operation failed because the contract is paused."
						}
					],
					"ExpectedPause()": [
						{
							"details": "The operation failed because the contract is not paused."
						}
					],
					"OwnableInvalidOwner(address)": [
						{
							"details": "The owner is not a valid owner account. (eg. `address(0)`)"
						}
					],
					"OwnableUnauthorizedAccount(address)": [
						{
							"details": "The caller account is not authorized to perform an operation."
						}
					]
				},
				"events": {
					"Approval(address,address,uint256)": {
						"details": "Emitted when `owner` enables `approved` to manage the `tokenId` token."
					},
					"ApprovalForAll(address,address,bool)": {
						"details": "Emitted when `owner` enables or disables (`approved`) `operator` to manage all of its assets."
					},
					"Paused(address)": {
						"details": "Emitted when the pause is triggered by `account`."
					},
					"Transfer(address,address,uint256)": {
						"details": "Emitted when `tokenId` token is transferred from `from` to `to`."
					},
					"Unpaused(address)": {
						"details": "Emitted when the pause is lifted by `account`."
					}
				},
				"kind": "dev",
				"methods": {
					"approve(address,uint256)": {
						"details": "See {IERC721-approve}."
					},
					"balanceOf(address)": {
						"details": "See {IERC721-balanceOf}."
					},
					"getApproved(uint256)": {
						"details": "See {IERC721-getApproved}."
					},
					"isApprovedForAll(address,address)": {
						"details": "See {IERC721-isApprovedForAll}."
					},
					"name()": {
						"details": "See {IERC721Metadata-name}."
					},
					"owner()": {
						"details": "Returns the address of the current owner."
					},
					"ownerOf(uint256)": {
						"details": "See {IERC721-ownerOf}."
					},
					"paused()": {
						"details": "Returns true if the contract is paused, and false otherwise."
					},
					"renounceOwnership()": {
						"details": "Leaves the contract without owner. It will not be possible to call `onlyOwner` functions. Can only be called by the current owner. NOTE: Renouncing ownership will leave the contract without an owner, thereby disabling any functionality that is only available to the owner."
					},
					"safeTransferFrom(address,address,uint256)": {
						"details": "See {IERC721-safeTransferFrom}."
					},
					"safeTransferFrom(address,address,uint256,bytes)": {
						"details": "See {IERC721-safeTransferFrom}."
					},
					"setApprovalForAll(address,bool)": {
						"details": "See {IERC721-setApprovalForAll}."
					},
					"symbol()": {
						"details": "See {IERC721Metadata-symbol}."
					},
					"tokenByIndex(uint256)": {
						"details": "See {IERC721Enumerable-tokenByIndex}."
					},
					"tokenOfOwnerByIndex(address,uint256)": {
						"details": "See {IERC721Enumerable-tokenOfOwnerByIndex}."
					},
					"tokenURI(uint256)": {
						"details": "See {IERC721Metadata-tokenURI}."
					},
					"totalSupply()": {
						"details": "See {IERC721Enumerable-totalSupply}."
					},
					"transferFrom(address,address,uint256)": {
						"details": "See {IERC721-transferFrom}."
					},
					"transferOwnership(address)": {
						"details": "Transfers ownership of the contract to a new account (`newOwner`). Can only be called by the current owner."
					}
				},
				"version": 1
			},
			"evm": {
				"assembly": "    /* \"ERC721/ERC721SC1.sol\":334:4223  contract ERC721SC1 is ERC721, ERC721Enumerable, ERC721Pausable, Ownable {... */\n  mstore(0x40, 0x80)\n    /* \"ERC721/ERC721SC1.sol\":491:495  1000 */\n  0x03e8\n    /* \"ERC721/ERC721SC1.sol\":471:495  uint256 maxSupply = 1000 */\n  0x0c\n  sstore\n    /* \"ERC721/ERC721SC1.sol\":532:536  1000 */\n  0x03e8\n    /* \"ERC721/ERC721SC1.sol\":503:536  uint256 allowListMaxSupply = 1000 */\n  0x0d\n  sstore\n    /* \"ERC721/ERC721SC1.sol\":667:672  false */\n  0x00\n    /* \"ERC721/ERC721SC1.sol\":638:672  bool public publicMintOpen = false */\n  0x0f\n  exp(0x0100, 0x00)\n  dup2\n  sload\n  dup2\n  0xff\n  mul\n  not\n  and\n  swap1\n  dup4\n  iszero\n  iszero\n  mul\n  or\n  swap1\n  sstore\n  pop\n    /* \"ERC721/ERC721SC1.sol\":712:717  false */\n  0x00\n    /* \"ERC721/ERC721SC1.sol\":680:717  bool public allowListMintOpen = false */\n  0x0f\n  exp(0x0100, 0x01)\n  dup2\n  sload\n  dup2\n  0xff\n  mul\n  not\n  and\n  swap1\n  dup4\n  iszero\n  iszero\n  mul\n  or\n  swap1\n  sstore\n  pop\n    /* \"ERC721/ERC721SC1.sol\":786:894  constructor(address initialOwner)... */\n  callvalue\n  dup1\n  iszero\n  tag_1\n  jumpi\n  0x00\n  dup1\n  revert\ntag_1:\n  pop\n  mload(0x40)\n  sub(codesize, bytecodeSize)\n  dup1\n  bytecodeSize\n  dup4\n  codecopy\n  dup2\n  dup2\n  add\n  0x40\n  mstore\n  dup2\n  add\n  swap1\n  tag_2\n  swap2\n  swap1\n  tag_3\n  jump\t// in\ntag_2:\n    /* \"ERC721/ERC721SC1.sol\":873:885  initialOwner */\n  dup1\n    /* \"@openzeppelin/contracts/token/ERC721/ERC721.sol\":1381:1494  constructor(string memory name_, string memory symbol_) {... */\n  mload(0x40)\n  dup1\n  0x40\n  add\n  0x40\n  mstore\n  dup1\n  0x09\n  dup2\n  mstore\n  0x20\n  add\n  0x4552433732315343310000000000000000000000000000000000000000000000\n  dup2\n  mstore\n  pop\n  mload(0x40)\n  dup1\n  0x40\n  add\n  0x40\n  mstore\n  dup1\n  0x03\n  dup2\n  mstore\n  0x20\n  add\n  0x5343310000000000000000000000000000000000000000000000000000000000\n  dup2\n  mstore\n  pop\n    /* \"@openzeppelin/contracts/token/ERC721/ERC721.sol\":1455:1460  name_ */\n  dup2\n    /* \"@openzeppelin/contracts/token/ERC721/ERC721.sol\":1447:1452  _name */\n  0x00\n    /* \"@openzeppelin/contracts/token/ERC721/ERC721.sol\":1447:1460  _name = name_ */\n  swap1\n  dup2\n  tag_9\n  swap2\n  swap1\n  tag_10\n  jump\t// in\ntag_9:\n  pop\n    /* \"@openzeppelin/contracts/token/ERC721/ERC721.sol\":1480:1487  symbol_ */\n  dup1\n    /* \"@openzeppelin/contracts/token/ERC721/ERC721.sol\":1470:1477  _symbol */\n  0x01\n    /* \"@openzeppelin/contracts/token/ERC721/ERC721.sol\":1470:1487  _symbol = symbol_ */\n  swap1\n  dup2\n  tag_11\n  swap2\n  swap1\n  tag_10\n  jump\t// in\ntag_11:\n  pop\n    /* \"@openzeppelin/contracts/token/ERC721/ERC721.sol\":1381:1494  constructor(string memory name_, string memory symbol_) {... */\n  pop\n  pop\n    /* \"@openzeppelin/contracts/utils/Pausable.sol\":1241:1246  false */\n  0x00\n    /* \"@openzeppelin/contracts/utils/Pausable.sol\":1231:1238  _paused */\n  0x0a\n  0x00\n    /* \"@openzeppelin/contracts/utils/Pausable.sol\":1231:1246  _paused = false */\n  0x0100\n  exp\n  dup2\n  sload\n  dup2\n  0xff\n  mul\n  not\n  and\n  swap1\n  dup4\n  iszero\n  iszero\n  mul\n  or\n  swap1\n  sstore\n  pop\n    /* \"@openzeppelin/contracts/access/Ownable.sol\":1297:1298  0 */\n  0x00\n    /* \"@openzeppelin/contracts/access/Ownable.sol\":1273:1299  initialOwner == address(0) */\n  0xffffffffffffffffffffffffffffffffffffffff\n  and\n    /* \"@openzeppelin/contracts/access/Ownable.sol\":1273:1285  initialOwner */\n  dup2\n    /* \"@openzeppelin/contracts/access/Ownable.sol\":1273:1299  initialOwner == address(0) */\n  0xffffffffffffffffffffffffffffffffffffffff\n  and\n  sub\n    /* \"@openzeppelin/contracts/access/Ownable.sol\":1269:1364  if (initialOwner == address(0)) {... */\n  tag_14\n  jumpi\n    /* \"@openzeppelin/contracts/access/Ownable.sol\":1350:1351  0 */\n  0x00\n    /* \"@openzeppelin/contracts/access/Ownable.sol\":1322:1353  OwnableInvalidOwner(address(0)) */\n  mload(0x40)\n  0x1e4fbdf700000000000000000000000000000000000000000000000000000000\n  dup2\n  mstore\n  0x04\n  add\n  tag_15\n  swap2\n  swap1\n  tag_16\n  jump\t// in\ntag_15:\n  mload(0x40)\n  dup1\n  swap2\n  sub\n  swap1\n  revert\n    /* \"@openzeppelin/contracts/access/Ownable.sol\":1269:1364  if (initialOwner == address(0)) {... */\ntag_14:\n    /* \"@openzeppelin/contracts/access/Ownable.sol\":1373:1405  _transferOwnership(initialOwner) */\n  tag_17\n    /* \"@openzeppelin/contracts/access/Ownable.sol\":1392:1404  initialOwner */\n  dup2\n    /* \"@openzeppelin/contracts/access/Ownable.sol\":1373:1391  _transferOwnership */\n  shl(0x20, tag_18)\n    /* \"@openzeppelin/contracts/access/Ownable.sol\":1373:1405  _transferOwnership(initialOwner) */\n  0x20\n  shr\n  jump\t// in\ntag_17:\n    /* \"@openzeppelin/contracts/access/Ownable.sol\":1225:1412  constructor(address initialOwner) {... */\n  pop\n    /* \"ERC721/ERC721SC1.sol\":786:894  constructor(address initialOwner)... */\n  pop\n    /* \"ERC721/ERC721SC1.sol\":334:4223  contract ERC721SC1 is ERC721, ERC721Enumerable, ERC721Pausable, Ownable {... */\n  jump(tag_20)\n    /* \"@openzeppelin/contracts/access/Ownable.sol\":2912:3099  function _transferOwnership(address newOwner) internal virtual {... */\ntag_18:\n    /* \"@openzeppelin/contracts/access/Ownable.sol\":2985:3001  address oldOwner */\n  0x00\n    /* \"@openzeppelin/contracts/access/Ownable.sol\":3004:3010  _owner */\n  0x0a\n  0x01\n  swap1\n  sload\n  swap1\n  0x0100\n  exp\n  swap1\n  div\n  0xffffffffffffffffffffffffffffffffffffffff\n  and\n    /* \"@openzeppelin/contracts/access/Ownable.sol\":2985:3010  address oldOwner = _owner */\n  swap1\n  pop\n    /* \"@openzeppelin/contracts/access/Ownable.sol\":3029:3037  newOwner */\n  dup2\n    /* \"@openzeppelin/contracts/access/Ownable.sol\":3020:3026  _owner */\n  0x0a\n  0x01\n    /* \"@openzeppelin/contracts/access/Ownable.sol\":3020:3037  _owner = newOwner */\n  0x0100\n  exp\n  dup2\n  sload\n  dup2\n  0xffffffffffffffffffffffffffffffffffffffff\n  mul\n  not\n  and\n  swap1\n  dup4\n  0xffffffffffffffffffffffffffffffffffffffff\n  and\n  mul\n  or\n  swap1\n  sstore\n  pop\n    /* \"@openzeppelin/contracts/access/Ownable.sol\":3083:3091  newOwner */\n  dup2\n    /* \"@openzeppelin/contracts/access/Ownable.sol\":3052:3092  OwnershipTransferred(oldOwner, newOwner) */\n  0xffffffffffffffffffffffffffffffffffffffff\n  and\n    /* \"@openzeppelin/contracts/access/Ownable.sol\":3073:3081  oldOwner */\n  dup2\n    /* \"@openzeppelin/contracts/access/Ownable.sol\":3052:3092  OwnershipTransferred(oldOwner, newOwner) */\n  0xffffffffffffffffffffffffffffffffffffffff\n  and\n  0x8be0079c531659141344cd1fd0a4f28419497f9722a3daafe3b4186f6b6457e0\n  mload(0x40)\n  mload(0x40)\n  dup1\n  swap2\n  sub\n  swap1\n  log3\n    /* \"@openzeppelin/contracts/access/Ownable.sol\":2975:3099  {... */\n  pop\n    /* \"@openzeppelin/contracts/access/Ownable.sol\":2912:3099  function _transferOwnership(address newOwner) internal virtual {... */\n  pop\n  jump\t// out\n    /* \"#utility.yul\":88:205   */\ntag_23:\n    /* \"#utility.yul\":197:198   */\n  0x00\n    /* \"#utility.yul\":194:195   */\n  dup1\n    /* \"#utility.yul\":187:199   */\n  revert\n    /* \"#utility.yul\":334:460   */\ntag_25:\n    /* \"#utility.yul\":371:378   */\n  0x00\n    /* \"#utility.yul\":411:453   */\n  0xffffffffffffffffffffffffffffffffffffffff\n    /* \"#utility.yul\":404:409   */\n  dup3\n    /* \"#utility.yul\":400:454   */\n  and\n    /* \"#utility.yul\":389:454   */\n  swap1\n  pop\n    /* \"#utility.yul\":334:460   */\n  swap2\n  swap1\n  pop\n  jump\t// out\n    /* \"#utility.yul\":466:562   */\ntag_26:\n    /* \"#utility.yul\":503:510   */\n  0x00\n    /* \"#utility.yul\":532:556   */\n  tag_56\n    /* \"#utility.yul\":550:555   */\n  dup3\n    /* \"#utility.yul\":532:556   */\n  tag_25\n  jump\t// in\ntag_56:\n    /* \"#utility.yul\":521:556   */\n  swap1\n  pop\n    /* \"#utility.yul\":466:562   */\n  swap2\n  swap1\n  pop\n  jump\t// out\n    /* \"#utility.yul\":568:690   */\ntag_27:\n    /* \"#utility.yul\":641:665   */\n  tag_58\n    /* \"#utility.yul\":659:664   */\n  dup2\n    /* \"#utility.yul\":641:665   */\n  tag_26\n  jump\t// in\ntag_58:\n    /* \"#utility.yul\":634:639   */\n  dup2\n    /* \"#utility.yul\":631:666   */\n  eq\n    /* \"#utility.yul\":621:684   */\n  tag_59\n  jumpi\n    /* \"#utility.yul\":680:681   */\n  0x00\n    /* \"#utility.yul\":677:678   */\n  dup1\n    /* \"#utility.yul\":670:682   */\n  revert\n    /* \"#utility.yul\":621:684   */\ntag_59:\n    /* \"#utility.yul\":568:690   */\n  pop\n  jump\t// out\n    /* \"#utility.yul\":696:839   */\ntag_28:\n    /* \"#utility.yul\":753:758   */\n  0x00\n    /* \"#utility.yul\":784:790   */\n  dup2\n    /* \"#utility.yul\":778:791   */\n  mload\n    /* \"#utility.yul\":769:791   */\n  swap1\n  pop\n    /* \"#utility.yul\":800:833   */\n  tag_61\n    /* \"#utility.yul\":827:832   */\n  dup2\n    /* \"#utility.yul\":800:833   */\n  tag_27\n  jump\t// in\ntag_61:\n    /* \"#utility.yul\":696:839   */\n  swap3\n  swap2\n  pop\n  pop\n  jump\t// out\n    /* \"#utility.yul\":845:1196   */\ntag_3:\n    /* \"#utility.yul\":915:921   */\n  0x00\n    /* \"#utility.yul\":964:966   */\n  0x20\n    /* \"#utility.yul\":952:961   */\n  dup3\n    /* \"#utility.yul\":943:950   */\n  dup5\n    /* \"#utility.yul\":939:962   */\n  sub\n    /* \"#utility.yul\":935:967   */\n  slt\n    /* \"#utility.yul\":932:1051   */\n  iszero\n  tag_63\n  jumpi\n    /* \"#utility.yul\":970:1049   */\n  tag_64\n  tag_23\n  jump\t// in\ntag_64:\n    /* \"#utility.yul\":932:1051   */\ntag_63:\n    /* \"#utility.yul\":1090:1091   */\n  0x00\n    /* \"#utility.yul\":1115:1179   */\n  tag_65\n    /* \"#utility.yul\":1171:1178   */\n  dup5\n    /* \"#utility.yul\":1162:1168   */\n  dup3\n    /* \"#utility.yul\":1151:1160   */\n  dup6\n    /* \"#utility.yul\":1147:1169   */\n  add\n    /* \"#utility.yul\":1115:1179   */\n  tag_28\n  jump\t// in\ntag_65:\n    /* \"#utility.yul\":1105:1179   */\n  swap2\n  pop\n    /* \"#utility.yul\":1061:1189   */\n  pop\n    /* \"#utility.yul\":845:1196   */\n  swap3\n  swap2\n  pop\n  pop\n  jump\t// out\n    /* \"#utility.yul\":1202:1301   */\ntag_29:\n    /* \"#utility.yul\":1254:1260   */\n  0x00\n    /* \"#utility.yul\":1288:1293   */\n  dup2\n    /* \"#utility.yul\":1282:1294   */\n  mload\n    /* \"#utility.yul\":1272:1294   */\n  swap1\n  pop\n    /* \"#utility.yul\":1202:1301   */\n  swap2\n  swap1\n  pop\n  jump\t// out\n    /* \"#utility.yul\":1307:1487   */\ntag_30:\n    /* \"#utility.yul\":1355:1432   */\n  0x4e487b7100000000000000000000000000000000000000000000000000000000\n    /* \"#utility.yul\":1352:1353   */\n  0x00\n    /* \"#utility.yul\":1345:1433   */\n  mstore\n    /* \"#utility.yul\":1452:1456   */\n  0x41\n    /* \"#utility.yul\":1449:1450   */\n  0x04\n    /* \"#utility.yul\":1442:1457   */\n  mstore\n    /* \"#utility.yul\":1476:1480   */\n  0x24\n    /* \"#utility.yul\":1473:1474   */\n  0x00\n    /* \"#utility.yul\":1466:1481   */\n  revert\n    /* \"#utility.yul\":1493:1673   */\ntag_31:\n    /* \"#utility.yul\":1541:1618   */\n  0x4e487b7100000000000000000000000000000000000000000000000000000000\n    /* \"#utility.yul\":1538:1539   */\n  0x00\n    /* \"#utility.yul\":1531:1619   */\n  mstore\n    /* \"#utility.yul\":1638:1642   */\n  0x22\n    /* \"#utility.yul\":1635:1636   */\n  0x04\n    /* \"#utility.yul\":1628:1643   */\n  mstore\n    /* \"#utility.yul\":1662:1666   */\n  0x24\n    /* \"#utility.yul\":1659:1660   */\n  0x00\n    /* \"#utility.yul\":1652:1667   */\n  revert\n    /* \"#utility.yul\":1679:1999   */\ntag_32:\n    /* \"#utility.yul\":1723:1729   */\n  0x00\n    /* \"#utility.yul\":1760:1761   */\n  0x02\n    /* \"#utility.yul\":1754:1758   */\n  dup3\n    /* \"#utility.yul\":1750:1762   */\n  div\n    /* \"#utility.yul\":1740:1762   */\n  swap1\n  pop\n    /* \"#utility.yul\":1807:1808   */\n  0x01\n    /* \"#utility.yul\":1801:1805   */\n  dup3\n    /* \"#utility.yul\":1797:1809   */\n  and\n    /* \"#utility.yul\":1828:1846   */\n  dup1\n    /* \"#utility.yul\":1818:1899   */\n  tag_70\n  jumpi\n    /* \"#utility.yul\":1884:1888   */\n  0x7f\n    /* \"#utility.yul\":1876:1882   */\n  dup3\n    /* \"#utility.yul\":1872:1889   */\n  and\n    /* \"#utility.yul\":1862:1889   */\n  swap2\n  pop\n    /* \"#utility.yul\":1818:1899   */\ntag_70:\n    /* \"#utility.yul\":1946:1948   */\n  0x20\n    /* \"#utility.yul\":1938:1944   */\n  dup3\n    /* \"#utility.yul\":1935:1949   */\n  lt\n    /* \"#utility.yul\":1915:1933   */\n  dup2\n    /* \"#utility.yul\":1912:1950   */\n  sub\n    /* \"#utility.yul\":1909:1993   */\n  tag_71\n  jumpi\n    /* \"#utility.yul\":1965:1983   */\n  tag_72\n  tag_31\n  jump\t// in\ntag_72:\n    /* \"#utility.yul\":1909:1993   */\ntag_71:\n    /* \"#utility.yul\":1730:1999   */\n  pop\n    /* \"#utility.yul\":1679:1999   */\n  swap2\n  swap1\n  pop\n  jump\t// out\n    /* \"#utility.yul\":2005:2146   */\ntag_33:\n    /* \"#utility.yul\":2054:2058   */\n  0x00\n    /* \"#utility.yul\":2077:2080   */\n  dup2\n    /* \"#utility.yul\":2069:2080   */\n  swap1\n  pop\n    /* \"#utility.yul\":2100:2103   */\n  dup2\n    /* \"#utility.yul\":2097:2098   */\n  0x00\n    /* \"#utility.yul\":2090:2104   */\n  mstore\n    /* \"#utility.yul\":2134:2138   */\n  0x20\n    /* \"#utility.yul\":2131:2132   */\n  0x00\n    /* \"#utility.yul\":2121:2139   */\n  keccak256\n    /* \"#utility.yul\":2113:2139   */\n  swap1\n  pop\n    /* \"#utility.yul\":2005:2146   */\n  swap2\n  swap1\n  pop\n  jump\t// out\n    /* \"#utility.yul\":2152:2245   */\ntag_34:\n    /* \"#utility.yul\":2189:2195   */\n  0x00\n    /* \"#utility.yul\":2236:2238   */\n  0x20\n    /* \"#utility.yul\":2231:2233   */\n  0x1f\n    /* \"#utility.yul\":2224:2229   */\n  dup4\n    /* \"#utility.yul\":2220:2234   */\n  add\n    /* \"#utility.yul\":2216:2239   */\n  div\n    /* \"#utility.yul\":2206:2239   */\n  swap1\n  pop\n    /* \"#utility.yul\":2152:2245   */\n  swap2\n  swap1\n  pop\n  jump\t// out\n    /* \"#utility.yul\":2251:2358   */\ntag_35:\n    /* \"#utility.yul\":2295:2303   */\n  0x00\n    /* \"#utility.yul\":2345:2350   */\n  dup3\n    /* \"#utility.yul\":2339:2343   */\n  dup3\n    /* \"#utility.yul\":2335:2351   */\n  shl\n    /* \"#utility.yul\":2314:2351   */\n  swap1\n  pop\n    /* \"#utility.yul\":2251:2358   */\n  swap3\n  swap2\n  pop\n  pop\n  jump\t// out\n    /* \"#utility.yul\":2364:2757   */\ntag_36:\n    /* \"#utility.yul\":2433:2439   */\n  0x00\n    /* \"#utility.yul\":2483:2484   */\n  0x08\n    /* \"#utility.yul\":2471:2481   */\n  dup4\n    /* \"#utility.yul\":2467:2485   */\n  mul\n    /* \"#utility.yul\":2506:2603   */\n  tag_77\n    /* \"#utility.yul\":2536:2602   */\n  0xffffffffffffffffffffffffffffffffffffffffffffffffffffffffffffffff\n    /* \"#utility.yul\":2525:2534   */\n  dup3\n    /* \"#utility.yul\":2506:2603   */\n  tag_35\n  jump\t// in\ntag_77:\n    /* \"#utility.yul\":2624:2663   */\n  tag_78\n    /* \"#utility.yul\":2654:2662   */\n  dup7\n    /* \"#utility.yul\":2643:2652   */\n  dup4\n    /* \"#utility.yul\":2624:2663   */\n  tag_35\n  jump\t// in\ntag_78:\n    /* \"#utility.yul\":2612:2663   */\n  swap6\n  pop\n    /* \"#utility.yul\":2696:2700   */\n  dup1\n    /* \"#utility.yul\":2692:2701   */\n  not\n    /* \"#utility.yul\":2685:2690   */\n  dup5\n    /* \"#utility.yul\":2681:2702   */\n  and\n    /* \"#utility.yul\":2672:2702   */\n  swap4\n  pop\n    /* \"#utility.yul\":2745:2749   */\n  dup1\n    /* \"#utility.yul\":2735:2743   */\n  dup7\n    /* \"#utility.yul\":2731:2750   */\n  and\n    /* \"#utility.yul\":2724:2729   */\n  dup5\n    /* \"#utility.yul\":2721:2751   */\n  or\n    /* \"#utility.yul\":2711:2751   */\n  swap3\n  pop\n    /* \"#utility.yul\":2440:2757   */\n  pop\n  pop\n    /* \"#utility.yul\":2364:2757   */\n  swap4\n  swap3\n  pop\n  pop\n  pop\n  jump\t// out\n    /* \"#utility.yul\":2763:2840   */\ntag_37:\n    /* \"#utility.yul\":2800:2807   */\n  0x00\n    /* \"#utility.yul\":2829:2834   */\n  dup2\n    /* \"#utility.yul\":2818:2834   */\n  swap1\n  pop\n    /* \"#utility.yul\":2763:2840   */\n  swap2\n  swap1\n  pop\n  jump\t// out\n    /* \"#utility.yul\":2846:2906   */\ntag_38:\n    /* \"#utility.yul\":2874:2877   */\n  0x00\n    /* \"#utility.yul\":2895:2900   */\n  dup2\n    /* \"#utility.yul\":2888:2900   */\n  swap1\n  pop\n    /* \"#utility.yul\":2846:2906   */\n  swap2\n  swap1\n  pop\n  jump\t// out\n    /* \"#utility.yul\":2912:3054   */\ntag_39:\n    /* \"#utility.yul\":2962:2971   */\n  0x00\n    /* \"#utility.yul\":2995:3048   */\n  tag_82\n    /* \"#utility.yul\":3013:3047   */\n  tag_83\n    /* \"#utility.yul\":3022:3046   */\n  tag_84\n    /* \"#utility.yul\":3040:3045   */\n  dup5\n    /* \"#utility.yul\":3022:3046   */\n  tag_37\n  jump\t// in\ntag_84:\n    /* \"#utility.yul\":3013:3047   */\n  tag_38\n  jump\t// in\ntag_83:\n    /* \"#utility.yul\":2995:3048   */\n  tag_37\n  jump\t// in\ntag_82:\n    /* \"#utility.yul\":2982:3048   */\n  swap1\n  pop\n    /* \"#utility.yul\":2912:3054   */\n  swap2\n  swap1\n  pop\n  jump\t// out\n    /* \"#utility.yul\":3060:3135   */\ntag_40:\n    /* \"#utility.yul\":3103:3106   */\n  0x00\n    /* \"#utility.yul\":3124:3129   */\n  dup2\n    /* \"#utility.yul\":3117:3129   */\n  swap1\n  pop\n    /* \"#utility.yul\":3060:3135   */\n  swap2\n  swap1\n  pop\n  jump\t// out\n    /* \"#utility.yul\":3141:3410   */\ntag_41:\n    /* \"#utility.yul\":3251:3290   */\n  tag_87\n    /* \"#utility.yul\":3282:3289   */\n  dup4\n    /* \"#utility.yul\":3251:3290   */\n  tag_39\n  jump\t// in\ntag_87:\n    /* \"#utility.yul\":3312:3403   */\n  tag_88\n    /* \"#utility.yul\":3361:3402   */\n  tag_89\n    /* \"#utility.yul\":3385:3401   */\n  dup3\n    /* \"#utility.yul\":3361:3402   */\n  tag_40\n  jump\t// in\ntag_89:\n    /* \"#utility.yul\":3353:3359   */\n  dup5\n    /* \"#utility.yul\":3346:3350   */\n  dup5\n    /* \"#utility.yul\":3340:3351   */\n  sload\n    /* \"#utility.yul\":3312:3403   */\n  tag_36\n  jump\t// in\ntag_88:\n    /* \"#utility.yul\":3306:3310   */\n  dup3\n    /* \"#utility.yul\":3299:3404   */\n  sstore\n    /* \"#utility.yul\":3217:3410   */\n  pop\n    /* \"#utility.yul\":3141:3410   */\n  pop\n  pop\n  pop\n  jump\t// out\n    /* \"#utility.yul\":3416:3489   */\ntag_42:\n    /* \"#utility.yul\":3461:3464   */\n  0x00\n    /* \"#utility.yul\":3416:3489   */\n  swap1\n  jump\t// out\n    /* \"#utility.yul\":3495:3684   */\ntag_43:\n    /* \"#utility.yul\":3572:3604   */\n  tag_92\n  tag_42\n  jump\t// in\ntag_92:\n    /* \"#utility.yul\":3613:3678   */\n  tag_93\n    /* \"#utility.yul\":3671:3677   */\n  dup2\n    /* \"#utility.yul\":3663:3669   */\n  dup5\n    /* \"#utility.yul\":3657:3661   */\n  dup5\n    /* \"#utility.yul\":3613:3678   */\n  tag_41\n  jump\t// in\ntag_93:\n    /* \"#utility.yul\":3548:3684   */\n  pop\n    /* \"#utility.yul\":3495:3684   */\n  pop\n  pop\n  jump\t// out\n    /* \"#utility.yul\":3690:3876   */\ntag_44:\n    /* \"#utility.yul\":3750:3870   */\ntag_95:\n    /* \"#utility.yul\":3767:3770   */\n  dup2\n    /* \"#utility.yul\":3760:3765   */\n  dup2\n    /* \"#utility.yul\":3757:3771   */\n  lt\n    /* \"#utility.yul\":3750:3870   */\n  iszero\n  tag_97\n  jumpi\n    /* \"#utility.yul\":3821:3860   */\n  tag_98\n    /* \"#utility.yul\":3858:3859   */\n  0x00\n    /* \"#utility.yul\":3851:3856   */\n  dup3\n    /* \"#utility.yul\":3821:3860   */\n  tag_43\n  jump\t// in\ntag_98:\n    /* \"#utility.yul\":3794:3795   */\n  0x01\n    /* \"#utility.yul\":3787:3792   */\n  dup2\n    /* \"#utility.yul\":3783:3796   */\n  add\n    /* \"#utility.yul\":3774:3796   */\n  swap1\n  pop\n    /* \"#utility.yul\":3750:3870   */\n  jump(tag_95)\ntag_97:\n    /* \"#utility.yul\":3690:3876   */\n  pop\n  pop\n  jump\t// out\n    /* \"#utility.yul\":3882:4425   */\ntag_45:\n    /* \"#utility.yul\":3983:3985   */\n  0x1f\n    /* \"#utility.yul\":3978:3981   */\n  dup3\n    /* \"#utility.yul\":3975:3986   */\n  gt\n    /* \"#utility.yul\":3972:4418   */\n  iszero\n  tag_100\n  jumpi\n    /* \"#utility.yul\":4017:4055   */\n  tag_101\n    /* \"#utility.yul\":4049:4054   */\n  dup2\n    /* \"#utility.yul\":4017:4055   */\n  tag_33\n  jump\t// in\ntag_101:\n    /* \"#utility.yul\":4101:4130   */\n  tag_102\n    /* \"#utility.yul\":4119:4129   */\n  dup5\n    /* \"#utility.yul\":4101:4130   */\n  tag_34\n  jump\t// in\ntag_102:\n    /* \"#utility.yul\":4091:4099   */\n  dup2\n    /* \"#utility.yul\":4087:4131   */\n  add\n    /* \"#utility.yul\":4284:4286   */\n  0x20\n    /* \"#utility.yul\":4272:4282   */\n  dup6\n    /* \"#utility.yul\":4269:4287   */\n  lt\n    /* \"#utility.yul\":4266:4315   */\n  iszero\n  tag_103\n  jumpi\n    /* \"#utility.yul\":4305:4313   */\n  dup2\n    /* \"#utility.yul\":4290:4313   */\n  swap1\n  pop\n    /* \"#utility.yul\":4266:4315   */\ntag_103:\n    /* \"#utility.yul\":4328:4408   */\n  tag_104\n    /* \"#utility.yul\":4384:4406   */\n  tag_105\n    /* \"#utility.yul\":4402:4405   */\n  dup6\n    /* \"#utility.yul\":4384:4406   */\n  tag_34\n  jump\t// in\ntag_105:\n    /* \"#utility.yul\":4374:4382   */\n  dup4\n    /* \"#utility.yul\":4370:4407   */\n  add\n    /* \"#utility.yul\":4357:4368   */\n  dup3\n    /* \"#utility.yul\":4328:4408   */\n  tag_44\n  jump\t// in\ntag_104:\n    /* \"#utility.yul\":3987:4418   */\n  pop\n  pop\n    /* \"#utility.yul\":3972:4418   */\ntag_100:\n    /* \"#utility.yul\":3882:4425   */\n  pop\n  pop\n  pop\n  jump\t// out\n    /* \"#utility.yul\":4431:4548   */\ntag_46:\n    /* \"#utility.yul\":4485:4493   */\n  0x00\n    /* \"#utility.yul\":4535:4540   */\n  dup3\n    /* \"#utility.yul\":4529:4533   */\n  dup3\n    /* \"#utility.yul\":4525:4541   */\n  shr\n    /* \"#utility.yul\":4504:4541   */\n  swap1\n  pop\n    /* \"#utility.yul\":4431:4548   */\n  swap3\n  swap2\n  pop\n  pop\n  jump\t// out\n    /* \"#utility.yul\":4554:4723   */\ntag_47:\n    /* \"#utility.yul\":4598:4604   */\n  0x00\n    /* \"#utility.yul\":4631:4682   */\n  tag_108\n    /* \"#utility.yul\":4679:4680   */\n  0x00\n    /* \"#utility.yul\":4675:4681   */\n  not\n    /* \"#utility.yul\":4667:4672   */\n  dup5\n    /* \"#utility.yul\":4664:4665   */\n  0x08\n    /* \"#utility.yul\":4660:4673   */\n  mul\n    /* \"#utility.yul\":4631:4682   */\n  tag_46\n  jump\t// in\ntag_108:\n    /* \"#utility.yul\":4627:4683   */\n  not\n    /* \"#utility.yul\":4712:4716   */\n  dup1\n    /* \"#utility.yul\":4706:4710   */\n  dup4\n    /* \"#utility.yul\":4702:4717   */\n  and\n    /* \"#utility.yul\":4692:4717   */\n  swap2\n  pop\n    /* \"#utility.yul\":4605:4723   */\n  pop\n    /* \"#utility.yul\":4554:4723   */\n  swap3\n  swap2\n  pop\n  pop\n  jump\t// out\n    /* \"#utility.yul\":4728:5023   */\ntag_48:\n    /* \"#utility.yul\":4804:4808   */\n  0x00\n    /* \"#utility.yul\":4950:4979   */\n  tag_110\n    /* \"#utility.yul\":4975:4978   */\n  dup4\n    /* \"#utility.yul\":4969:4973   */\n  dup4\n    /* \"#utility.yul\":4950:4979   */\n  tag_47\n  jump\t// in\ntag_110:\n    /* \"#utility.yul\":4942:4979   */\n  swap2\n  pop\n    /* \"#utility.yul\":5012:5015   */\n  dup3\n    /* \"#utility.yul\":5009:5010   */\n  0x02\n    /* \"#utility.yul\":5005:5016   */\n  mul\n    /* \"#utility.yul\":4999:5003   */\n  dup3\n    /* \"#utility.yul\":4996:5017   */\n  or\n    /* \"#utility.yul\":4988:5017   */\n  swap1\n  pop\n    /* \"#utility.yul\":4728:5023   */\n  swap3\n  swap2\n  pop\n  pop\n  jump\t// out\n    /* \"#utility.yul\":5028:6423   */\ntag_10:\n    /* \"#utility.yul\":5145:5182   */\n  tag_112\n    /* \"#utility.yul\":5178:5181   */\n  dup3\n    /* \"#utility.yul\":5145:5182   */\n  tag_29\n  jump\t// in\ntag_112:\n    /* \"#utility.yul\":5247:5265   */\n  0xffffffffffffffff\n    /* \"#utility.yul\":5239:5245   */\n  dup2\n    /* \"#utility.yul\":5236:5266   */\n  gt\n    /* \"#utility.yul\":5233:5289   */\n  iszero\n  tag_113\n  jumpi\n    /* \"#utility.yul\":5269:5287   */\n  tag_114\n  tag_30\n  jump\t// in\ntag_114:\n    /* \"#utility.yul\":5233:5289   */\ntag_113:\n    /* \"#utility.yul\":5313:5351   */\n  tag_115\n    /* \"#utility.yul\":5345:5349   */\n  dup3\n    /* \"#utility.yul\":5339:5350   */\n  sload\n    /* \"#utility.yul\":5313:5351   */\n  tag_32\n  jump\t// in\ntag_115:\n    /* \"#utility.yul\":5398:5465   */\n  tag_116\n    /* \"#utility.yul\":5458:5464   */\n  dup3\n    /* \"#utility.yul\":5450:5456   */\n  dup3\n    /* \"#utility.yul\":5444:5448   */\n  dup6\n    /* \"#utility.yul\":5398:5465   */\n  tag_45\n  jump\t// in\ntag_116:\n    /* \"#utility.yul\":5492:5493   */\n  0x00\n    /* \"#utility.yul\":5516:5520   */\n  0x20\n    /* \"#utility.yul\":5503:5520   */\n  swap1\n  pop\n    /* \"#utility.yul\":5548:5550   */\n  0x1f\n    /* \"#utility.yul\":5540:5546   */\n  dup4\n    /* \"#utility.yul\":5537:5551   */\n  gt\n    /* \"#utility.yul\":5565:5566   */\n  0x01\n    /* \"#utility.yul\":5560:6178   */\n  dup2\n  eq\n  tag_118\n  jumpi\n    /* \"#utility.yul\":6222:6223   */\n  0x00\n    /* \"#utility.yul\":6239:6245   */\n  dup5\n    /* \"#utility.yul\":6236:6313   */\n  iszero\n  tag_119\n  jumpi\n    /* \"#utility.yul\":6288:6297   */\n  dup3\n    /* \"#utility.yul\":6283:6286   */\n  dup8\n    /* \"#utility.yul\":6279:6298   */\n  add\n    /* \"#utility.yul\":6273:6299   */\n  mload\n    /* \"#utility.yul\":6264:6299   */\n  swap1\n  pop\n    /* \"#utility.yul\":6236:6313   */\ntag_119:\n    /* \"#utility.yul\":6339:6406   */\n  tag_120\n    /* \"#utility.yul\":6399:6405   */\n  dup6\n    /* \"#utility.yul\":6392:6397   */\n  dup3\n    /* \"#utility.yul\":6339:6406   */\n  tag_48\n  jump\t// in\ntag_120:\n    /* \"#utility.yul\":6333:6337   */\n  dup7\n    /* \"#utility.yul\":6326:6407   */\n  sstore\n    /* \"#utility.yul\":6195:6417   */\n  pop\n    /* \"#utility.yul\":5530:6417   */\n  jump(tag_117)\n    /* \"#utility.yul\":5560:6178   */\ntag_118:\n    /* \"#utility.yul\":5612:5616   */\n  0x1f\n    /* \"#utility.yul\":5608:5617   */\n  not\n    /* \"#utility.yul\":5600:5606   */\n  dup5\n    /* \"#utility.yul\":5596:5618   */\n  and\n    /* \"#utility.yul\":5646:5683   */\n  tag_121\n    /* \"#utility.yul\":5678:5682   */\n  dup7\n    /* \"#utility.yul\":5646:5683   */\n  tag_33\n  jump\t// in\ntag_121:\n    /* \"#utility.yul\":5705:5706   */\n  0x00\n    /* \"#utility.yul\":5719:5927   */\ntag_122:\n    /* \"#utility.yul\":5733:5740   */\n  dup3\n    /* \"#utility.yul\":5730:5731   */\n  dup2\n    /* \"#utility.yul\":5727:5741   */\n  lt\n    /* \"#utility.yul\":5719:5927   */\n  iszero\n  tag_124\n  jumpi\n    /* \"#utility.yul\":5812:5821   */\n  dup5\n    /* \"#utility.yul\":5807:5810   */\n  dup10\n    /* \"#utility.yul\":5803:5822   */\n  add\n    /* \"#utility.yul\":5797:5823   */\n  mload\n    /* \"#utility.yul\":5789:5795   */\n  dup3\n    /* \"#utility.yul\":5782:5824   */\n  sstore\n    /* \"#utility.yul\":5863:5864   */\n  0x01\n    /* \"#utility.yul\":5855:5861   */\n  dup3\n    /* \"#utility.yul\":5851:5865   */\n  add\n    /* \"#utility.yul\":5841:5865   */\n  swap2\n  pop\n    /* \"#utility.yul\":5910:5912   */\n  0x20\n    /* \"#utility.yul\":5899:5908   */\n  dup6\n    /* \"#utility.yul\":5895:5913   */\n  add\n    /* \"#utility.yul\":5882:5913   */\n  swap5\n  pop\n    /* \"#utility.yul\":5756:5760   */\n  0x20\n    /* \"#utility.yul\":5753:5754   */\n  dup2\n    /* \"#utility.yul\":5749:5761   */\n  add\n    /* \"#utility.yul\":5744:5761   */\n  swap1\n  pop\n    /* \"#utility.yul\":5719:5927   */\n  jump(tag_122)\ntag_124:\n    /* \"#utility.yul\":5955:5961   */\n  dup7\n    /* \"#utility.yul\":5946:5953   */\n  dup4\n    /* \"#utility.yul\":5943:5962   */\n  lt\n    /* \"#utility.yul\":5940:6119   */\n  iszero\n  tag_125\n  jumpi\n    /* \"#utility.yul\":6013:6022   */\n  dup5\n    /* \"#utility.yul\":6008:6011   */\n  dup10\n    /* \"#utility.yul\":6004:6023   */\n  add\n    /* \"#utility.yul\":5998:6024   */\n  mload\n    /* \"#utility.yul\":6056:6104   */\n  tag_126\n    /* \"#utility.yul\":6098:6102   */\n  0x1f\n    /* \"#utility.yul\":6090:6096   */\n  dup10\n    /* \"#utility.yul\":6086:6103   */\n  and\n    /* \"#utility.yul\":6075:6084   */\n  dup3\n    /* \"#utility.yul\":6056:6104   */\n  tag_47\n  jump\t// in\ntag_126:\n    /* \"#utility.yul\":6048:6054   */\n  dup4\n    /* \"#utility.yul\":6041:6105   */\n  sstore\n    /* \"#utility.yul\":5963:6119   */\n  pop\n    /* \"#utility.yul\":5940:6119   */\ntag_125:\n    /* \"#utility.yul\":6165:6166   */\n  0x01\n    /* \"#utility.yul\":6161:6162   */\n  0x02\n    /* \"#utility.yul\":6153:6159   */\n  dup9\n    /* \"#utility.yul\":6149:6163   */\n  mul\n    /* \"#utility.yul\":6145:6167   */\n  add\n    /* \"#utility.yul\":6139:6143   */\n  dup9\n    /* \"#utility.yul\":6132:6168   */\n  sstore\n    /* \"#utility.yul\":5567:6178   */\n  pop\n  pop\n  pop\n    /* \"#utility.yul\":5530:6417   */\ntag_117:\n  pop\n    /* \"#utility.yul\":5120:6423   */\n  pop\n  pop\n  pop\n    /* \"#utility.yul\":5028:6423   */\n  pop\n  pop\n  jump\t// out\n    /* \"#utility.yul\":6429:6547   */\ntag_49:\n    /* \"#utility.yul\":6516:6540   */\n  tag_128\n    /* \"#utility.yul\":6534:6539   */\n  dup2\n    /* \"#utility.yul\":6516:6540   */\n  tag_26\n  jump\t// in\ntag_128:\n    /* \"#utility.yul\":6511:6514   */\n  dup3\n    /* \"#utility.yul\":6504:6541   */\n  mstore\n    /* \"#utility.yul\":6429:6547   */\n  pop\n  pop\n  jump\t// out\n    /* \"#utility.yul\":6553:6775   */\ntag_16:\n    /* \"#utility.yul\":6646:6650   */\n  0x00\n    /* \"#utility.yul\":6684:6686   */\n  0x20\n    /* \"#utility.yul\":6673:6682   */\n  dup3\n    /* \"#utility.yul\":6669:6687   */\n  add\n    /* \"#utility.yul\":6661:6687   */\n  swap1\n  pop\n    /* \"#utility.yul\":6697:6768   */\n  tag_130\n    /* \"#utility.yul\":6765:6766   */\n  0x00\n    /* \"#utility.yul\":6754:6763   */\n  dup4\n    /* \"#utility.yul\":6750:6767   */\n  add\n    /* \"#utility.yul\":6741:6747   */\n  dup5\n    /* \"#utility.yul\":6697:6768   */\n  tag_49\n  jump\t// in\ntag_130:\n    /* \"#utility.yul\":6553:6775   */\n  swap3\n  swap2\n  pop\n  pop\n  jump\t// out\n    /* \"ERC721/ERC721SC1.sol\":334:4223  contract ERC721SC1 is ERC721, ERC721Enumerable, ERC721Pausable, Ownable {... */\ntag_20:\n  dataSize(sub_0)\n  dup1\n  dataOffset(sub_0)\n  0x00\n  codecopy\n  0x00\n  return\nstop\n\nsub_0: assembly {\n        /* \"ERC721/ERC721SC1.sol\":334:4223  contract ERC721SC1 is ERC721, ERC721Enumerable, ERC721Pausable, Ownable {... */\n      mstore(0x40, 0x80)\n      jumpi(tag_1, lt(calldatasize, 0x04))\n      shr(0xe0, calldataload(0x00))\n      dup1\n      0x552b818b\n      gt\n      tag_33\n      jumpi\n      dup1\n      0x94b5cdec\n      gt\n      tag_34\n      jumpi\n      dup1\n      0xbcc9ca5b\n      gt\n      tag_35\n      jumpi\n      dup1\n      0xbcc9ca5b\n      eq\n      tag_29\n      jumpi\n      dup1\n      0xc87b56dd\n      eq\n      tag_30\n      jumpi\n      dup1\n      0xe985e9c5\n      eq\n      tag_31\n      jumpi\n      dup1\n      0xf2fde38b\n      eq\n      tag_32\n      jumpi\n      jump(tag_1)\n    tag_35:\n      dup1\n      0x94b5cdec\n      eq\n      tag_25\n      jumpi\n      dup1\n      0x95d89b41\n      eq\n      tag_26\n      jumpi\n      dup1\n      0xa22cb465\n      eq\n      tag_27\n      jumpi\n      dup1\n      0xb88d4fde\n      eq\n      tag_28\n      jumpi\n      jump(tag_1)\n    tag_34:\n      dup1\n      0x70a08231\n      gt\n      tag_36\n      jumpi\n      dup1\n      0x70a08231\n      eq\n      tag_21\n      jumpi\n      dup1\n      0x715018a6\n      eq\n      tag_22\n      jumpi\n      dup1\n      0x8456cb59\n      eq\n      tag_23\n      jumpi\n      dup1\n      0x8da5cb5b\n      eq\n      tag_24\n      jumpi\n      jump(tag_1)\n    tag_36:\n      dup1\n      0x552b818b\n      eq\n      tag_17\n      jumpi\n      dup1\n      0x5c975abb\n      eq\n      tag_18\n      jumpi\n      dup1\n      0x6352211e\n      eq\n      tag_19\n      jumpi\n      dup1\n      0x68742da6\n      eq\n      tag_20\n      jumpi\n      jump(tag_1)\n    tag_33:\n      dup1\n      0x23b872dd\n      gt\n      tag_37\n      jumpi\n      dup1\n      0x2f745c59\n      gt\n      tag_38\n      jumpi\n      dup1\n      0x2f745c59\n      eq\n      tag_13\n      jumpi\n      dup1\n      0x3f4ba83a\n      eq\n      tag_14\n      jumpi\n      dup1\n      0x42842e0e\n      eq\n      tag_15\n      jumpi\n      dup1\n      0x4f6ccce7\n      eq\n      tag_16\n      jumpi\n      jump(tag_1)\n    tag_38:\n      dup1\n      0x23b872dd\n      eq\n      tag_9\n      jumpi\n      dup1\n      0x26092b83\n      eq\n      tag_10\n      jumpi\n      dup1\n      0x2848aeaf\n      eq\n      tag_11\n      jumpi\n      dup1\n      0x2f48de79\n      eq\n      tag_12\n      jumpi\n      jump(tag_1)\n    tag_37:\n      dup1\n      0x085c9bac\n      gt\n      tag_39\n      jumpi\n      dup1\n      0x085c9bac\n      eq\n      tag_5\n      jumpi\n      dup1\n      0x095ea7b3\n      eq\n      tag_6\n      jumpi\n      dup1\n      0x102a6a73\n      eq\n      tag_7\n      jumpi\n      dup1\n      0x18160ddd\n      eq\n      tag_8\n      jumpi\n      jump(tag_1)\n    tag_39:\n      dup1\n      0x01ffc9a7\n      eq\n      tag_2\n      jumpi\n      dup1\n      0x06fdde03\n      eq\n      tag_3\n      jumpi\n      dup1\n      0x081812fc\n      eq\n      tag_4\n      jumpi\n    tag_1:\n      0x00\n      dup1\n      revert\n        /* \"ERC721/ERC721SC1.sol\":4008:4220  function supportsInterface(bytes4 interfaceId)... */\n    tag_2:\n      callvalue\n      dup1\n      iszero\n      tag_40\n      jumpi\n      0x00\n      dup1\n      revert\n    tag_40:\n      pop\n      tag_41\n      0x04\n      dup1\n      calldatasize\n      sub\n      dup2\n      add\n      swap1\n      tag_42\n      swap2\n      swap1\n      tag_43\n      jump\t// in\n    tag_42:\n      tag_44\n      jump\t// in\n    tag_41:\n      mload(0x40)\n      tag_45\n      swap2\n      swap1\n      tag_46\n      jump\t// in\n    tag_45:\n      mload(0x40)\n      dup1\n      swap2\n      sub\n      swap1\n      return\n        /* \"@openzeppelin/contracts/token/ERC721/ERC721.sol\":2365:2454  function name() public view virtual returns (string memory) {... */\n    tag_3:\n      callvalue\n      dup1\n      iszero\n      tag_47\n      jumpi\n      0x00\n      dup1\n      revert\n    tag_47:\n      pop\n      tag_48\n      tag_49\n      jump\t// in\n    tag_48:\n      mload(0x40)\n      tag_50\n      swap2\n      swap1\n      tag_51\n      jump\t// in\n    tag_50:\n      mload(0x40)\n      dup1\n      swap2\n      sub\n      swap1\n      return\n        /* \"@openzeppelin/contracts/token/ERC721/ERC721.sol\":3497:3651  function getApproved(uint256 tokenId) public view virtual returns (address) {... */\n    tag_4:\n      callvalue\n      dup1\n      iszero\n      tag_52\n      jumpi\n      0x00\n      dup1\n      revert\n    tag_52:\n      pop\n      tag_53\n      0x04\n      dup1\n      calldatasize\n      sub\n      dup2\n      add\n      swap1\n      tag_54\n      swap2\n      swap1\n      tag_55\n      jump\t// in\n    tag_54:\n      tag_56\n      jump\t// in\n    tag_53:\n      mload(0x40)\n      tag_57\n      swap2\n      swap1\n      tag_58\n      jump\t// in\n    tag_57:\n      mload(0x40)\n      dup1\n      swap2\n      sub\n      swap1\n      return\n        /* \"ERC721/ERC721SC1.sol\":680:717  bool public allowListMintOpen = false */\n    tag_5:\n      callvalue\n      dup1\n      iszero\n      tag_59\n      jumpi\n      0x00\n      dup1\n      revert\n    tag_59:\n      pop\n      tag_60\n      tag_61\n      jump\t// in\n    tag_60:\n      mload(0x40)\n      tag_62\n      swap2\n      swap1\n      tag_46\n      jump\t// in\n    tag_62:\n      mload(0x40)\n      dup1\n      swap2\n      sub\n      swap1\n      return\n        /* \"@openzeppelin/contracts/token/ERC721/ERC721.sol\":3323:3436  function approve(address to, uint256 tokenId) public virtual {... */\n    tag_6:\n      callvalue\n      dup1\n      iszero\n      tag_63\n      jumpi\n      0x00\n      dup1\n      revert\n    tag_63:\n      pop\n      tag_64\n      0x04\n      dup1\n      calldatasize\n      sub\n      dup2\n      add\n      swap1\n      tag_65\n      swap2\n      swap1\n      tag_66\n      jump\t// in\n    tag_65:\n      tag_67\n      jump\t// in\n    tag_64:\n      stop\n        /* \"ERC721/ERC721SC1.sol\":2304:2817  function allowListMint() public payable{... */\n    tag_7:\n      tag_68\n      tag_69\n      jump\t// in\n    tag_68:\n      stop\n        /* \"@openzeppelin/contracts/token/ERC721/extensions/ERC721Enumerable.sol\":2062:2164  function totalSupply() public view virtual returns (uint256) {... */\n    tag_8:\n      callvalue\n      dup1\n      iszero\n      tag_70\n      jumpi\n      0x00\n      dup1\n      revert\n    tag_70:\n      pop\n      tag_71\n      tag_72\n      jump\t// in\n    tag_71:\n      mload(0x40)\n      tag_73\n      swap2\n      swap1\n      tag_74\n      jump\t// in\n    tag_73:\n      mload(0x40)\n      dup1\n      swap2\n      sub\n      swap1\n      return\n        /* \"@openzeppelin/contracts/token/ERC721/ERC721.sol\":4143:4721  function transferFrom(address from, address to, uint256 tokenId) public virtual {... */\n    tag_9:\n      callvalue\n      dup1\n      iszero\n      tag_75\n      jumpi\n      0x00\n      dup1\n      revert\n    tag_75:\n      pop\n      tag_76\n      0x04\n      dup1\n      calldatasize\n      sub\n      dup2\n      add\n      swap1\n      tag_77\n      swap2\n      swap1\n      tag_78\n      jump\t// in\n    tag_77:\n      tag_79\n      jump\t// in\n    tag_76:\n      stop\n        /* \"ERC721/ERC721SC1.sol\":1799:2229  function publicMint() public payable { ... */\n    tag_10:\n      tag_80\n      tag_81\n      jump\t// in\n    tag_80:\n      stop\n        /* \"ERC721/ERC721SC1.sol\":565:607  mapping (address => bool) public allowList */\n    tag_11:\n      callvalue\n      dup1\n      iszero\n      tag_82\n      jumpi\n      0x00\n      dup1\n      revert\n    tag_82:\n      pop\n      tag_83\n      0x04\n      dup1\n      calldatasize\n      sub\n      dup2\n      add\n      swap1\n      tag_84\n      swap2\n      swap1\n      tag_85\n      jump\t// in\n    tag_84:\n      tag_86\n      jump\t// in\n    tag_83:\n      mload(0x40)\n      tag_87\n      swap2\n      swap1\n      tag_46\n      jump\t// in\n    tag_87:\n      mload(0x40)\n      dup1\n      swap2\n      sub\n      swap1\n      return\n        /* \"ERC721/ERC721SC1.sol\":1554:1747  function editMintWindows(bool _publicMintOpen, bool _allowListMintOpen) external onlyOwner {... */\n    tag_12:\n      callvalue\n      dup1\n      iszero\n      tag_88\n      jumpi\n      0x00\n      dup1\n      revert\n    tag_88:\n      pop\n      tag_89\n      0x04\n      dup1\n      calldatasize\n      sub\n      dup2\n      add\n      swap1\n      tag_90\n      swap2\n      swap1\n      tag_91\n      jump\t// in\n    tag_90:\n      tag_92\n      jump\t// in\n    tag_89:\n      stop\n        /* \"@openzeppelin/contracts/token/ERC721/extensions/ERC721Enumerable.sol\":1736:1991  function tokenOfOwnerByIndex(address owner, uint256 index) public view virtual returns (uint256) {... */\n    tag_13:\n      callvalue\n      dup1\n      iszero\n      tag_93\n      jumpi\n      0x00\n      dup1\n      revert\n    tag_93:\n      pop\n      tag_94\n      0x04\n      dup1\n      calldatasize\n      sub\n      dup2\n      add\n      swap1\n      tag_95\n      swap2\n      swap1\n      tag_66\n      jump\t// in\n    tag_95:\n      tag_96\n      jump\t// in\n    tag_94:\n      mload(0x40)\n      tag_97\n      swap2\n      swap1\n      tag_74\n      jump\t// in\n    tag_97:\n      mload(0x40)\n      dup1\n      swap2\n      sub\n      swap1\n      return\n        /* \"ERC721/ERC721SC1.sol\":1209:1274  function unpause() public onlyOwner {... */\n    tag_14:\n      callvalue\n      dup1\n      iszero\n      tag_98\n      jumpi\n      0x00\n      dup1\n      revert\n    tag_98:\n      pop\n      tag_99\n      tag_100\n      jump\t// in\n    tag_99:\n      stop\n        /* \"@openzeppelin/contracts/token/ERC721/ERC721.sol\":4787:4919  function safeTransferFrom(address from, address to, uint256 tokenId) public {... */\n    tag_15:\n      callvalue\n      dup1\n      iszero\n      tag_101\n      jumpi\n      0x00\n      dup1\n      revert\n    tag_101:\n      pop\n      tag_102\n      0x04\n      dup1\n      calldatasize\n      sub\n      dup2\n      add\n      swap1\n      tag_103\n      swap2\n      swap1\n      tag_78\n      jump\t// in\n    tag_103:\n      tag_104\n      jump\t// in\n    tag_102:\n      stop\n        /* \"@openzeppelin/contracts/token/ERC721/extensions/ERC721Enumerable.sol\":2236:2462  function tokenByIndex(uint256 index) public view virtual returns (uint256) {... */\n    tag_16:\n      callvalue\n      dup1\n      iszero\n      tag_105\n      jumpi\n      0x00\n      dup1\n      revert\n    tag_105:\n      pop\n      tag_106\n      0x04\n      dup1\n      calldatasize\n      sub\n      dup2\n      add\n      swap1\n      tag_107\n      swap2\n      swap1\n      tag_55\n      jump\t// in\n    tag_107:\n      tag_108\n      jump\t// in\n    tag_106:\n      mload(0x40)\n      tag_109\n      swap2\n      swap1\n      tag_74\n      jump\t// in\n    tag_109:\n      mload(0x40)\n      dup1\n      swap2\n      sub\n      swap1\n      return\n        /* \"ERC721/ERC721SC1.sol\":3053:3245  function setAllowlist(address[] calldata addresses) external onlyOwner(){... */\n    tag_17:\n      callvalue\n      dup1\n      iszero\n      tag_110\n      jumpi\n      0x00\n      dup1\n      revert\n    tag_110:\n      pop\n      tag_111\n      0x04\n      dup1\n      calldatasize\n      sub\n      dup2\n      add\n      swap1\n      tag_112\n      swap2\n      swap1\n      tag_113\n      jump\t// in\n    tag_112:\n      tag_114\n      jump\t// in\n    tag_111:\n      stop\n        /* \"@openzeppelin/contracts/utils/Pausable.sol\":1850:1934  function paused() public view virtual returns (bool) {... */\n    tag_18:\n      callvalue\n      dup1\n      iszero\n      tag_115\n      jumpi\n      0x00\n      dup1\n      revert\n    tag_115:\n      pop\n      tag_116\n      tag_117\n      jump\t// in\n    tag_116:\n      mload(0x40)\n      tag_118\n      swap2\n      swap1\n      tag_46\n      jump\t// in\n    tag_118:\n      mload(0x40)\n      dup1\n      swap2\n      sub\n      swap1\n      return\n        /* \"@openzeppelin/contracts/token/ERC721/ERC721.sol\":2185:2303  function ownerOf(uint256 tokenId) public view virtual returns (address) {... */\n    tag_19:\n      callvalue\n      dup1\n      iszero\n      tag_119\n      jumpi\n      0x00\n      dup1\n      revert\n    tag_119:\n      pop\n      tag_120\n      0x04\n      dup1\n      calldatasize\n      sub\n      dup2\n      add\n      swap1\n      tag_121\n      swap2\n      swap1\n      tag_55\n      jump\t// in\n    tag_121:\n      tag_122\n      jump\t// in\n    tag_120:\n      mload(0x40)\n      tag_123\n      swap2\n      swap1\n      tag_58\n      jump\t// in\n    tag_123:\n      mload(0x40)\n      dup1\n      swap2\n      sub\n      swap1\n      return\n        /* \"ERC721/ERC721SC1.sol\":3292:3502  function withdrawFunds(address _address) external  onlyOwner{... */\n    tag_20:\n      callvalue\n      dup1\n      iszero\n      tag_124\n      jumpi\n      0x00\n      dup1\n      revert\n    tag_124:\n      pop\n      tag_125\n      0x04\n      dup1\n      calldatasize\n      sub\n      dup2\n      add\n      swap1\n      tag_126\n      swap2\n      swap1\n      tag_85\n      jump\t// in\n    tag_126:\n      tag_127\n      jump\t// in\n    tag_125:\n      stop\n        /* \"@openzeppelin/contracts/token/ERC721/ERC721.sol\":1920:2128  function balanceOf(address owner) public view virtual returns (uint256) {... */\n    tag_21:\n      callvalue\n      dup1\n      iszero\n      tag_128\n      jumpi\n      0x00\n      dup1\n      revert\n    tag_128:\n      pop\n      tag_129\n      0x04\n      dup1\n      calldatasize\n      sub\n      dup2\n      add\n      swap1\n      tag_130\n      swap2\n      swap1\n      tag_85\n      jump\t// in\n    tag_130:\n      tag_131\n      jump\t// in\n    tag_129:\n      mload(0x40)\n      tag_132\n      swap2\n      swap1\n      tag_74\n      jump\t// in\n    tag_132:\n      mload(0x40)\n      dup1\n      swap2\n      sub\n      swap1\n      return\n        /* \"@openzeppelin/contracts/access/Ownable.sol\":2293:2394  function renounceOwnership() public virtual onlyOwner {... */\n    tag_22:\n      callvalue\n      dup1\n      iszero\n      tag_133\n      jumpi\n      0x00\n      dup1\n      revert\n    tag_133:\n      pop\n      tag_134\n      tag_135\n      jump\t// in\n    tag_134:\n      stop\n        /* \"ERC721/ERC721SC1.sol\":1140:1201  function pause() public onlyOwner {... */\n    tag_23:\n      callvalue\n      dup1\n      iszero\n      tag_136\n      jumpi\n      0x00\n      dup1\n      revert\n    tag_136:\n      pop\n      tag_137\n      tag_138\n      jump\t// in\n    tag_137:\n      stop\n        /* \"@openzeppelin/contracts/access/Ownable.sol\":1638:1723  function owner() public view virtual returns (address) {... */\n    tag_24:\n      callvalue\n      dup1\n      iszero\n      tag_139\n      jumpi\n      0x00\n      dup1\n      revert\n    tag_139:\n      pop\n      tag_140\n      tag_141\n      jump\t// in\n    tag_140:\n      mload(0x40)\n      tag_142\n      swap2\n      swap1\n      tag_58\n      jump\t// in\n    tag_142:\n      mload(0x40)\n      dup1\n      swap2\n      sub\n      swap1\n      return\n        /* \"ERC721/ERC721SC1.sol\":755:776  string public ipfsUri */\n    tag_25:\n      callvalue\n      dup1\n      iszero\n      tag_143\n      jumpi\n      0x00\n      dup1\n      revert\n    tag_143:\n      pop\n      tag_144\n      tag_145\n      jump\t// in\n    tag_144:\n      mload(0x40)\n      tag_146\n      swap2\n      swap1\n      tag_51\n      jump\t// in\n    tag_146:\n      mload(0x40)\n      dup1\n      swap2\n      sub\n      swap1\n      return\n        /* \"@openzeppelin/contracts/token/ERC721/ERC721.sol\":2518:2611  function symbol() public view virtual returns (string memory) {... */\n    tag_26:\n      callvalue\n      dup1\n      iszero\n      tag_147\n      jumpi\n      0x00\n      dup1\n      revert\n    tag_147:\n      pop\n      tag_148\n      tag_149\n      jump\t// in\n    tag_148:\n      mload(0x40)\n      tag_150\n      swap2\n      swap1\n      tag_51\n      jump\t// in\n    tag_150:\n      mload(0x40)\n      dup1\n      swap2\n      sub\n      swap1\n      return\n        /* \"@openzeppelin/contracts/token/ERC721/ERC721.sol\":3718:3862  function setApprovalForAll(address operator, bool approved) public virtual {... */\n    tag_27:\n      callvalue\n      dup1\n      iszero\n      tag_151\n      jumpi\n      0x00\n      dup1\n      revert\n    tag_151:\n      pop\n      tag_152\n      0x04\n      dup1\n      calldatasize\n      sub\n      dup2\n      add\n      swap1\n      tag_153\n      swap2\n      swap1\n      tag_154\n      jump\t// in\n    tag_153:\n      tag_155\n      jump\t// in\n    tag_152:\n      stop\n        /* \"@openzeppelin/contracts/token/ERC721/ERC721.sol\":4985:5193  function safeTransferFrom(address from, address to, uint256 tokenId, bytes memory data) public virtual {... */\n    tag_28:\n      callvalue\n      dup1\n      iszero\n      tag_156\n      jumpi\n      0x00\n      dup1\n      revert\n    tag_156:\n      pop\n      tag_157\n      0x04\n      dup1\n      calldatasize\n      sub\n      dup2\n      add\n      swap1\n      tag_158\n      swap2\n      swap1\n      tag_159\n      jump\t// in\n    tag_158:\n      tag_160\n      jump\t// in\n    tag_157:\n      stop\n        /* \"ERC721/ERC721SC1.sol\":638:672  bool public publicMintOpen = false */\n    tag_29:\n      callvalue\n      dup1\n      iszero\n      tag_161\n      jumpi\n      0x00\n      dup1\n      revert\n    tag_161:\n      pop\n      tag_162\n      tag_163\n      jump\t// in\n    tag_162:\n      mload(0x40)\n      tag_164\n      swap2\n      swap1\n      tag_46\n      jump\t// in\n    tag_164:\n      mload(0x40)\n      dup1\n      swap2\n      sub\n      swap1\n      return\n        /* \"@openzeppelin/contracts/token/ERC721/ERC721.sol\":2677:2932  function tokenURI(uint256 tokenId) public view virtual returns (string memory) {... */\n    tag_30:\n      callvalue\n      dup1\n      iszero\n      tag_165\n      jumpi\n      0x00\n      dup1\n      revert\n    tag_165:\n      pop\n      tag_166\n      0x04\n      dup1\n      calldatasize\n      sub\n      dup2\n      add\n      swap1\n      tag_167\n      swap2\n      swap1\n      tag_55\n      jump\t// in\n    tag_167:\n      tag_168\n      jump\t// in\n    tag_166:\n      mload(0x40)\n      tag_169\n      swap2\n      swap1\n      tag_51\n      jump\t// in\n    tag_169:\n      mload(0x40)\n      dup1\n      swap2\n      sub\n      swap1\n      return\n        /* \"@openzeppelin/contracts/token/ERC721/ERC721.sol\":3928:4081  function isApprovedForAll(address owner, address operator) public view virtual returns (bool) {... */\n    tag_31:\n      callvalue\n      dup1\n      iszero\n      tag_170\n      jumpi\n      0x00\n      dup1\n      revert\n    tag_170:\n      pop\n      tag_171\n      0x04\n      dup1\n      calldatasize\n      sub\n      dup2\n      add\n      swap1\n      tag_172\n      swap2\n      swap1\n      tag_173\n      jump\t// in\n    tag_172:\n      tag_174\n      jump\t// in\n    tag_171:\n      mload(0x40)\n      tag_175\n      swap2\n      swap1\n      tag_46\n      jump\t// in\n    tag_175:\n      mload(0x40)\n      dup1\n      swap2\n      sub\n      swap1\n      return\n        /* \"@openzeppelin/contracts/access/Ownable.sol\":2543:2758  function transferOwnership(address newOwner) public virtual onlyOwner {... */\n    tag_32:\n      callvalue\n      dup1\n      iszero\n      tag_176\n      jumpi\n      0x00\n      dup1\n      revert\n    tag_176:\n      pop\n      tag_177\n      0x04\n      dup1\n      calldatasize\n      sub\n      dup2\n      add\n      swap1\n      tag_178\n      swap2\n      swap1\n      tag_85\n      jump\t// in\n    tag_178:\n      tag_179\n      jump\t// in\n    tag_177:\n      stop\n        /* \"ERC721/ERC721SC1.sol\":4008:4220  function supportsInterface(bytes4 interfaceId)... */\n    tag_44:\n        /* \"ERC721/ERC721SC1.sol\":4147:4151  bool */\n      0x00\n        /* \"ERC721/ERC721SC1.sol\":4176:4212  super.supportsInterface(interfaceId) */\n      tag_181\n        /* \"ERC721/ERC721SC1.sol\":4200:4211  interfaceId */\n      dup3\n        /* \"ERC721/ERC721SC1.sol\":4176:4199  super.supportsInterface */\n      tag_182\n        /* \"ERC721/ERC721SC1.sol\":4176:4212  super.supportsInterface(interfaceId) */\n      jump\t// in\n    tag_181:\n        /* \"ERC721/ERC721SC1.sol\":4169:4212  return super.supportsInterface(interfaceId) */\n      swap1\n      pop\n        /* \"ERC721/ERC721SC1.sol\":4008:4220  function supportsInterface(bytes4 interfaceId)... */\n      swap2\n      swap1\n      pop\n      jump\t// out\n        /* \"@openzeppelin/contracts/token/ERC721/ERC721.sol\":2365:2454  function name() public view virtual returns (string memory) {... */\n    tag_49:\n        /* \"@openzeppelin/contracts/token/ERC721/ERC721.sol\":2410:2423  string memory */\n      0x60\n        /* \"@openzeppelin/contracts/token/ERC721/ERC721.sol\":2442:2447  _name */\n      0x00\n        /* \"@openzeppelin/contracts/token/ERC721/ERC721.sol\":2435:2447  return _name */\n      dup1\n      sload\n      tag_184\n      swap1\n      tag_185\n      jump\t// in\n    tag_184:\n      dup1\n      0x1f\n      add\n      0x20\n      dup1\n      swap2\n      div\n      mul\n      0x20\n      add\n      mload(0x40)\n      swap1\n      dup2\n      add\n      0x40\n      mstore\n      dup1\n      swap3\n      swap2\n      swap1\n      dup2\n      dup2\n      mstore\n      0x20\n      add\n      dup3\n      dup1\n      sload\n      tag_186\n      swap1\n      tag_185\n      jump\t// in\n    tag_186:\n      dup1\n      iszero\n      tag_187\n      jumpi\n      dup1\n      0x1f\n      lt\n      tag_188\n      jumpi\n      0x0100\n      dup1\n      dup4\n      sload\n      div\n      mul\n      dup4\n      mstore\n      swap2\n      0x20\n      add\n      swap2\n      jump(tag_187)\n    tag_188:\n      dup3\n      add\n      swap2\n      swap1\n      0x00\n      mstore\n      keccak256(0x00, 0x20)\n      swap1\n    tag_189:\n      dup2\n      sload\n      dup2\n      mstore\n      swap1\n      0x01\n      add\n      swap1\n      0x20\n      add\n      dup1\n      dup4\n      gt\n      tag_189\n      jumpi\n      dup3\n      swap1\n      sub\n      0x1f\n      and\n      dup3\n      add\n      swap2\n    tag_187:\n      pop\n      pop\n      pop\n      pop\n      pop\n      swap1\n      pop\n        /* \"@openzeppelin/contracts/token/ERC721/ERC721.sol\":2365:2454  function name() public view virtual returns (string memory) {... */\n      swap1\n      jump\t// out\n        /* \"@openzeppelin/contracts/token/ERC721/ERC721.sol\":3497:3651  function getApproved(uint256 tokenId) public view virtual returns (address) {... */\n    tag_56:\n        /* \"@openzeppelin/contracts/token/ERC721/ERC721.sol\":3564:3571  address */\n      0x00\n        /* \"@openzeppelin/contracts/token/ERC721/ERC721.sol\":3583:3605  _requireOwned(tokenId) */\n      tag_191\n        /* \"@openzeppelin/contracts/token/ERC721/ERC721.sol\":3597:3604  tokenId */\n      dup3\n        /* \"@openzeppelin/contracts/token/ERC721/ERC721.sol\":3583:3596  _requireOwned */\n      tag_192\n        /* \"@openzeppelin/contracts/token/ERC721/ERC721.sol\":3583:3605  _requireOwned(tokenId) */\n      jump\t// in\n    tag_191:\n      pop\n        /* \"@openzeppelin/contracts/token/ERC721/ERC721.sol\":3623:3644  _getApproved(tokenId) */\n      tag_193\n        /* \"@openzeppelin/contracts/token/ERC721/ERC721.sol\":3636:3643  tokenId */\n      dup3\n        /* \"@openzeppelin/contracts/token/ERC721/ERC721.sol\":3623:3635  _getApproved */\n      tag_194\n        /* \"@openzeppelin/contracts/token/ERC721/ERC721.sol\":3623:3644  _getApproved(tokenId) */\n      jump\t// in\n    tag_193:\n        /* \"@openzeppelin/contracts/token/ERC721/ERC721.sol\":3616:3644  return _getApproved(tokenId) */\n      swap1\n      pop\n        /* \"@openzeppelin/contracts/token/ERC721/ERC721.sol\":3497:3651  function getApproved(uint256 tokenId) public view virtual returns (address) {... */\n      swap2\n      swap1\n      pop\n      jump\t// out\n        /* \"ERC721/ERC721SC1.sol\":680:717  bool public allowListMintOpen = false */\n    tag_61:\n      0x0f\n      0x01\n      swap1\n      sload\n      swap1\n      0x0100\n      exp\n      swap1\n      div\n      0xff\n      and\n      dup2\n      jump\t// out\n        /* \"@openzeppelin/contracts/token/ERC721/ERC721.sol\":3323:3436  function approve(address to, uint256 tokenId) public virtual {... */\n    tag_67:\n        /* \"@openzeppelin/contracts/token/ERC721/ERC721.sol\":3394:3429  _approve(to, tokenId, _msgSender()) */\n      tag_196\n        /* \"@openzeppelin/contracts/token/ERC721/ERC721.sol\":3403:3405  to */\n      dup3\n        /* \"@openzeppelin/contracts/token/ERC721/ERC721.sol\":3407:3414  tokenId */\n      dup3\n        /* \"@openzeppelin/contracts/token/ERC721/ERC721.sol\":3416:3428  _msgSender() */\n      tag_197\n        /* \"@openzeppelin/contracts/token/ERC721/ERC721.sol\":3416:3426  _msgSender */\n      tag_198\n        /* \"@openzeppelin/contracts/token/ERC721/ERC721.sol\":3416:3428  _msgSender() */\n      jump\t// in\n    tag_197:\n        /* \"@openzeppelin/contracts/token/ERC721/ERC721.sol\":3394:3402  _approve */\n      tag_199\n        /* \"@openzeppelin/contracts/token/ERC721/ERC721.sol\":3394:3429  _approve(to, tokenId, _msgSender()) */\n      jump\t// in\n    tag_196:\n        /* \"@openzeppelin/contracts/token/ERC721/ERC721.sol\":3323:3436  function approve(address to, uint256 tokenId) public virtual {... */\n      pop\n      pop\n      jump\t// out\n        /* \"ERC721/ERC721SC1.sol\":2304:2817  function allowListMint() public payable{... */\n    tag_69:\n        /* \"ERC721/ERC721SC1.sol\":2362:2371  allowList */\n      0x0e\n        /* \"ERC721/ERC721SC1.sol\":2362:2383  allowList[msg.sender] */\n      0x00\n        /* \"ERC721/ERC721SC1.sol\":2372:2382  msg.sender */\n      caller\n        /* \"ERC721/ERC721SC1.sol\":2362:2383  allowList[msg.sender] */\n      0xffffffffffffffffffffffffffffffffffffffff\n      and\n      0xffffffffffffffffffffffffffffffffffffffff\n      and\n      dup2\n      mstore\n      0x20\n      add\n      swap1\n      dup2\n      mstore\n      0x20\n      add\n      0x00\n      keccak256\n      0x00\n      swap1\n      sload\n      swap1\n      0x0100\n      exp\n      swap1\n      div\n      0xff\n      and\n        /* \"ERC721/ERC721SC1.sol\":2354:2409  require(allowList[msg.sender], \"You r not on the list\") */\n      tag_201\n      jumpi\n      mload(0x40)\n      0x08c379a000000000000000000000000000000000000000000000000000000000\n      dup2\n      mstore\n      0x04\n      add\n      tag_202\n      swap1\n      tag_203\n      jump\t// in\n    tag_202:\n      mload(0x40)\n      dup1\n      swap2\n      sub\n      swap1\n      revert\n    tag_201:\n        /* \"ERC721/ERC721SC1.sol\":2428:2445  allowListMintOpen */\n      0x0f\n      0x01\n      swap1\n      sload\n      swap1\n      0x0100\n      exp\n      swap1\n      div\n      0xff\n      and\n        /* \"ERC721/ERC721SC1.sol\":2420:2474  require(allowListMintOpen, \"Allow list Mint not open\") */\n      tag_204\n      jumpi\n      mload(0x40)\n      0x08c379a000000000000000000000000000000000000000000000000000000000\n      dup2\n      mstore\n      0x04\n      add\n      tag_205\n      swap1\n      tag_206\n      jump\t// in\n    tag_205:\n      mload(0x40)\n      dup1\n      swap2\n      sub\n      swap1\n      revert\n    tag_204:\n        /* \"ERC721/ERC721SC1.sol\":2506:2517  0.001 ether */\n      0x038d7ea4c68000\n        /* \"ERC721/ERC721SC1.sol\":2493:2502  msg.value */\n      callvalue\n        /* \"ERC721/ERC721SC1.sol\":2493:2517  msg.value == 0.001 ether */\n      eq\n        /* \"ERC721/ERC721SC1.sol\":2485:2538  require(msg.value == 0.001 ether, \"Not ENough Funds\") */\n      tag_207\n      jumpi\n      mload(0x40)\n      0x08c379a000000000000000000000000000000000000000000000000000000000\n      dup2\n      mstore\n      0x04\n      add\n      tag_208\n      swap1\n      tag_209\n      jump\t// in\n    tag_208:\n      mload(0x40)\n      dup1\n      swap2\n      sub\n      swap1\n      revert\n    tag_207:\n        /* \"ERC721/ERC721SC1.sol\":2661:2679  allowListMaxSupply */\n      sload(0x0d)\n        /* \"ERC721/ERC721SC1.sol\":2645:2658  totalSupply() */\n      tag_210\n        /* \"ERC721/ERC721SC1.sol\":2645:2656  totalSupply */\n      tag_72\n        /* \"ERC721/ERC721SC1.sol\":2645:2658  totalSupply() */\n      jump\t// in\n    tag_210:\n        /* \"ERC721/ERC721SC1.sol\":2645:2679  totalSupply() < allowListMaxSupply */\n      lt\n        /* \"ERC721/ERC721SC1.sol\":2637:2693  require(totalSupply() < allowListMaxSupply, \"Sold Out!\") */\n      tag_211\n      jumpi\n      mload(0x40)\n      0x08c379a000000000000000000000000000000000000000000000000000000000\n      dup2\n      mstore\n      0x04\n      add\n      tag_212\n      swap1\n      tag_213\n      jump\t// in\n    tag_212:\n      mload(0x40)\n      dup1\n      swap2\n      sub\n      swap1\n      revert\n    tag_211:\n        /* \"ERC721/ERC721SC1.sol\":2795:2809  internalMint() */\n      tag_214\n        /* \"ERC721/ERC721SC1.sol\":2795:2807  internalMint */\n      tag_215\n        /* \"ERC721/ERC721SC1.sol\":2795:2809  internalMint() */\n      jump\t// in\n    tag_214:\n        /* \"ERC721/ERC721SC1.sol\":2304:2817  function allowListMint() public payable{... */\n      jump\t// out\n        /* \"@openzeppelin/contracts/token/ERC721/extensions/ERC721Enumerable.sol\":2062:2164  function totalSupply() public view virtual returns (uint256) {... */\n    tag_72:\n        /* \"@openzeppelin/contracts/token/ERC721/extensions/ERC721Enumerable.sol\":2114:2121  uint256 */\n      0x00\n        /* \"@openzeppelin/contracts/token/ERC721/extensions/ERC721Enumerable.sol\":2140:2150  _allTokens */\n      0x08\n        /* \"@openzeppelin/contracts/token/ERC721/extensions/ERC721Enumerable.sol\":2140:2157  _allTokens.length */\n      dup1\n      sload\n      swap1\n      pop\n        /* \"@openzeppelin/contracts/token/ERC721/extensions/ERC721Enumerable.sol\":2133:2157  return _allTokens.length */\n      swap1\n      pop\n        /* \"@openzeppelin/contracts/token/ERC721/extensions/ERC721Enumerable.sol\":2062:2164  function totalSupply() public view virtual returns (uint256) {... */\n      swap1\n      jump\t// out\n        /* \"@openzeppelin/contracts/token/ERC721/ERC721.sol\":4143:4721  function transferFrom(address from, address to, uint256 tokenId) public virtual {... */\n    tag_79:\n        /* \"@openzeppelin/contracts/token/ERC721/ERC721.sol\":4251:4252  0 */\n      0x00\n        /* \"@openzeppelin/contracts/token/ERC721/ERC721.sol\":4237:4253  to == address(0) */\n      0xffffffffffffffffffffffffffffffffffffffff\n      and\n        /* \"@openzeppelin/contracts/token/ERC721/ERC721.sol\":4237:4239  to */\n      dup3\n        /* \"@openzeppelin/contracts/token/ERC721/ERC721.sol\":4237:4253  to == address(0) */\n      0xffffffffffffffffffffffffffffffffffffffff\n      and\n      sub\n        /* \"@openzeppelin/contracts/token/ERC721/ERC721.sol\":4233:4320  if (to == address(0)) {... */\n      tag_218\n      jumpi\n        /* \"@openzeppelin/contracts/token/ERC721/ERC721.sol\":4306:4307  0 */\n      0x00\n        /* \"@openzeppelin/contracts/token/ERC721/ERC721.sol\":4276:4309  ERC721InvalidReceiver(address(0)) */\n      mload(0x40)\n      0x64a0ae9200000000000000000000000000000000000000000000000000000000\n      dup2\n      mstore\n      0x04\n      add\n      tag_219\n      swap2\n      swap1\n      tag_58\n      jump\t// in\n    tag_219:\n      mload(0x40)\n      dup1\n      swap2\n      sub\n      swap1\n      revert\n        /* \"@openzeppelin/contracts/token/ERC721/ERC721.sol\":4233:4320  if (to == address(0)) {... */\n    tag_218:\n        /* \"@openzeppelin/contracts/token/ERC721/ERC721.sol\":4538:4559  address previousOwner */\n      0x00\n        /* \"@openzeppelin/contracts/token/ERC721/ERC721.sol\":4562:4596  _update(to, tokenId, _msgSender()) */\n      tag_220\n        /* \"@openzeppelin/contracts/token/ERC721/ERC721.sol\":4570:4572  to */\n      dup4\n        /* \"@openzeppelin/contracts/token/ERC721/ERC721.sol\":4574:4581  tokenId */\n      dup4\n        /* \"@openzeppelin/contracts/token/ERC721/ERC721.sol\":4583:4595  _msgSender() */\n      tag_221\n        /* \"@openzeppelin/contracts/token/ERC721/ERC721.sol\":4583:4593  _msgSender */\n      tag_198\n        /* \"@openzeppelin/contracts/token/ERC721/ERC721.sol\":4583:4595  _msgSender() */\n      jump\t// in\n    tag_221:\n        /* \"@openzeppelin/contracts/token/ERC721/ERC721.sol\":4562:4569  _update */\n      tag_222\n        /* \"@openzeppelin/contracts/token/ERC721/ERC721.sol\":4562:4596  _update(to, tokenId, _msgSender()) */\n      jump\t// in\n    tag_220:\n        /* \"@openzeppelin/contracts/token/ERC721/ERC721.sol\":4538:4596  address previousOwner = _update(to, tokenId, _msgSender()) */\n      swap1\n      pop\n        /* \"@openzeppelin/contracts/token/ERC721/ERC721.sol\":4627:4631  from */\n      dup4\n        /* \"@openzeppelin/contracts/token/ERC721/ERC721.sol\":4610:4631  previousOwner != from */\n      0xffffffffffffffffffffffffffffffffffffffff\n      and\n        /* \"@openzeppelin/contracts/token/ERC721/ERC721.sol\":4610:4623  previousOwner */\n      dup2\n        /* \"@openzeppelin/contracts/token/ERC721/ERC721.sol\":4610:4631  previousOwner != from */\n      0xffffffffffffffffffffffffffffffffffffffff\n      and\n      eq\n        /* \"@openzeppelin/contracts/token/ERC721/ERC721.sol\":4606:4715  if (previousOwner != from) {... */\n      tag_223\n      jumpi\n        /* \"@openzeppelin/contracts/token/ERC721/ERC721.sol\":4675:4679  from */\n      dup4\n        /* \"@openzeppelin/contracts/token/ERC721/ERC721.sol\":4681:4688  tokenId */\n      dup3\n        /* \"@openzeppelin/contracts/token/ERC721/ERC721.sol\":4690:4703  previousOwner */\n      dup3\n        /* \"@openzeppelin/contracts/token/ERC721/ERC721.sol\":4654:4704  ERC721IncorrectOwner(from, tokenId, previousOwner) */\n      mload(0x40)\n      0x64283d7b00000000000000000000000000000000000000000000000000000000\n      dup2\n      mstore\n      0x04\n      add\n      tag_224\n      swap4\n      swap3\n      swap2\n      swap1\n      tag_225\n      jump\t// in\n    tag_224:\n      mload(0x40)\n      dup1\n      swap2\n      sub\n      swap1\n      revert\n        /* \"@openzeppelin/contracts/token/ERC721/ERC721.sol\":4606:4715  if (previousOwner != from) {... */\n    tag_223:\n        /* \"@openzeppelin/contracts/token/ERC721/ERC721.sol\":4223:4721  {... */\n      pop\n        /* \"@openzeppelin/contracts/token/ERC721/ERC721.sol\":4143:4721  function transferFrom(address from, address to, uint256 tokenId) public virtual {... */\n      pop\n      pop\n      pop\n      jump\t// out\n        /* \"ERC721/ERC721SC1.sol\":1799:2229  function publicMint() public payable { ... */\n    tag_81:\n        /* \"ERC721/ERC721SC1.sol\":1856:1870  publicMintOpen */\n      0x0f\n      0x00\n      swap1\n      sload\n      swap1\n      0x0100\n      exp\n      swap1\n      div\n      0xff\n      and\n        /* \"ERC721/ERC721SC1.sol\":1848:1895  require(publicMintOpen, \"Public Mint Not OPen\") */\n      tag_227\n      jumpi\n      mload(0x40)\n      0x08c379a000000000000000000000000000000000000000000000000000000000\n      dup2\n      mstore\n      0x04\n      add\n      tag_228\n      swap1\n      tag_229\n      jump\t// in\n    tag_228:\n      mload(0x40)\n      dup1\n      swap2\n      sub\n      swap1\n      revert\n    tag_227:\n        /* \"ERC721/ERC721SC1.sol\":1927:1938  0.001 ether */\n      0x038d7ea4c68000\n        /* \"ERC721/ERC721SC1.sol\":1914:1923  msg.value */\n      callvalue\n        /* \"ERC721/ERC721SC1.sol\":1914:1938  msg.value == 0.001 ether */\n      eq\n        /* \"ERC721/ERC721SC1.sol\":1906:1959  require(msg.value == 0.001 ether, \"Not ENough Funds\") */\n      tag_230\n      jumpi\n      mload(0x40)\n      0x08c379a000000000000000000000000000000000000000000000000000000000\n      dup2\n      mstore\n      0x04\n      add\n      tag_231\n      swap1\n      tag_209\n      jump\t// in\n    tag_231:\n      mload(0x40)\n      dup1\n      swap2\n      sub\n      swap1\n      revert\n    tag_230:\n        /* \"ERC721/ERC721SC1.sol\":2082:2091  maxSupply */\n      sload(0x0c)\n        /* \"ERC721/ERC721SC1.sol\":2066:2079  totalSupply() */\n      tag_232\n        /* \"ERC721/ERC721SC1.sol\":2066:2077  totalSupply */\n      tag_72\n        /* \"ERC721/ERC721SC1.sol\":2066:2079  totalSupply() */\n      jump\t// in\n    tag_232:\n        /* \"ERC721/ERC721SC1.sol\":2066:2091  totalSupply() < maxSupply */\n      lt\n        /* \"ERC721/ERC721SC1.sol\":2058:2105  require(totalSupply() < maxSupply, \"Sold Out!\") */\n      tag_233\n      jumpi\n      mload(0x40)\n      0x08c379a000000000000000000000000000000000000000000000000000000000\n      dup2\n      mstore\n      0x04\n      add\n      tag_234\n      swap1\n      tag_213\n      jump\t// in\n    tag_234:\n      mload(0x40)\n      dup1\n      swap2\n      sub\n      swap1\n      revert\n    tag_233:\n        /* \"ERC721/ERC721SC1.sol\":2207:2221  internalMint() */\n      tag_235\n        /* \"ERC721/ERC721SC1.sol\":2207:2219  internalMint */\n      tag_215\n        /* \"ERC721/ERC721SC1.sol\":2207:2221  internalMint() */\n      jump\t// in\n    tag_235:\n        /* \"ERC721/ERC721SC1.sol\":1799:2229  function publicMint() public payable { ... */\n      jump\t// out\n        /* \"ERC721/ERC721SC1.sol\":565:607  mapping (address => bool) public allowList */\n    tag_86:\n      mstore(0x20, 0x0e)\n      dup1\n      0x00\n      mstore\n      keccak256(0x00, 0x40)\n      0x00\n      swap2\n      pop\n      sload\n      swap1\n      0x0100\n      exp\n      swap1\n      div\n      0xff\n      and\n      dup2\n      jump\t// out\n        /* \"ERC721/ERC721SC1.sol\":1554:1747  function editMintWindows(bool _publicMintOpen, bool _allowListMintOpen) external onlyOwner {... */\n    tag_92:\n        /* \"@openzeppelin/contracts/access/Ownable.sol\":1531:1544  _checkOwner() */\n      tag_237\n        /* \"@openzeppelin/contracts/access/Ownable.sol\":1531:1542  _checkOwner */\n      tag_238\n        /* \"@openzeppelin/contracts/access/Ownable.sol\":1531:1544  _checkOwner() */\n      jump\t// in\n    tag_237:\n        /* \"ERC721/ERC721SC1.sol\":1673:1688  _publicMintOpen */\n      dup2\n        /* \"ERC721/ERC721SC1.sol\":1656:1670  publicMintOpen */\n      0x0f\n      0x00\n        /* \"ERC721/ERC721SC1.sol\":1656:1688  publicMintOpen = _publicMintOpen */\n      0x0100\n      exp\n      dup2\n      sload\n      dup2\n      0xff\n      mul\n      not\n      and\n      swap1\n      dup4\n      iszero\n      iszero\n      mul\n      or\n      swap1\n      sstore\n      pop\n        /* \"ERC721/ERC721SC1.sol\":1720:1738  _allowListMintOpen */\n      dup1\n        /* \"ERC721/ERC721SC1.sol\":1700:1717  allowListMintOpen */\n      0x0f\n      0x01\n        /* \"ERC721/ERC721SC1.sol\":1700:1738  allowListMintOpen = _allowListMintOpen */\n      0x0100\n      exp\n      dup2\n      sload\n      dup2\n      0xff\n      mul\n      not\n      and\n      swap1\n      dup4\n      iszero\n      iszero\n      mul\n      or\n      swap1\n      sstore\n      pop\n        /* \"ERC721/ERC721SC1.sol\":1554:1747  function editMintWindows(bool _publicMintOpen, bool _allowListMintOpen) external onlyOwner {... */\n      pop\n      pop\n      jump\t// out\n        /* \"@openzeppelin/contracts/token/ERC721/extensions/ERC721Enumerable.sol\":1736:1991  function tokenOfOwnerByIndex(address owner, uint256 index) public view virtual returns (uint256) {... */\n    tag_96:\n        /* \"@openzeppelin/contracts/token/ERC721/extensions/ERC721Enumerable.sol\":1824:1831  uint256 */\n      0x00\n        /* \"@openzeppelin/contracts/token/ERC721/extensions/ERC721Enumerable.sol\":1856:1872  balanceOf(owner) */\n      tag_241\n        /* \"@openzeppelin/contracts/token/ERC721/extensions/ERC721Enumerable.sol\":1866:1871  owner */\n      dup4\n        /* \"@openzeppelin/contracts/token/ERC721/extensions/ERC721Enumerable.sol\":1856:1865  balanceOf */\n      tag_131\n        /* \"@openzeppelin/contracts/token/ERC721/extensions/ERC721Enumerable.sol\":1856:1872  balanceOf(owner) */\n      jump\t// in\n    tag_241:\n        /* \"@openzeppelin/contracts/token/ERC721/extensions/ERC721Enumerable.sol\":1847:1852  index */\n      dup3\n        /* \"@openzeppelin/contracts/token/ERC721/extensions/ERC721Enumerable.sol\":1847:1872  index >= balanceOf(owner) */\n      lt\n        /* \"@openzeppelin/contracts/token/ERC721/extensions/ERC721Enumerable.sol\":1843:1942  if (index >= balanceOf(owner)) {... */\n      tag_242\n      jumpi\n        /* \"@openzeppelin/contracts/token/ERC721/extensions/ERC721Enumerable.sol\":1918:1923  owner */\n      dup3\n        /* \"@openzeppelin/contracts/token/ERC721/extensions/ERC721Enumerable.sol\":1925:1930  index */\n      dup3\n        /* \"@openzeppelin/contracts/token/ERC721/extensions/ERC721Enumerable.sol\":1895:1931  ERC721OutOfBoundsIndex(owner, index) */\n      mload(0x40)\n      0xa57d13dc00000000000000000000000000000000000000000000000000000000\n      dup2\n      mstore\n      0x04\n      add\n      tag_243\n      swap3\n      swap2\n      swap1\n      tag_244\n      jump\t// in\n    tag_243:\n      mload(0x40)\n      dup1\n      swap2\n      sub\n      swap1\n      revert\n        /* \"@openzeppelin/contracts/token/ERC721/extensions/ERC721Enumerable.sol\":1843:1942  if (index >= balanceOf(owner)) {... */\n    tag_242:\n        /* \"@openzeppelin/contracts/token/ERC721/extensions/ERC721Enumerable.sol\":1958:1970  _ownedTokens */\n      0x06\n        /* \"@openzeppelin/contracts/token/ERC721/extensions/ERC721Enumerable.sol\":1958:1977  _ownedTokens[owner] */\n      0x00\n        /* \"@openzeppelin/contracts/token/ERC721/extensions/ERC721Enumerable.sol\":1971:1976  owner */\n      dup5\n        /* \"@openzeppelin/contracts/token/ERC721/extensions/ERC721Enumerable.sol\":1958:1977  _ownedTokens[owner] */\n      0xffffffffffffffffffffffffffffffffffffffff\n      and\n      0xffffffffffffffffffffffffffffffffffffffff\n      and\n      dup2\n      mstore\n      0x20\n      add\n      swap1\n      dup2\n      mstore\n      0x20\n      add\n      0x00\n      keccak256\n        /* \"@openzeppelin/contracts/token/ERC721/extensions/ERC721Enumerable.sol\":1958:1984  _ownedTokens[owner][index] */\n      0x00\n        /* \"@openzeppelin/contracts/token/ERC721/extensions/ERC721Enumerable.sol\":1978:1983  index */\n      dup4\n        /* \"@openzeppelin/contracts/token/ERC721/extensions/ERC721Enumerable.sol\":1958:1984  _ownedTokens[owner][index] */\n      dup2\n      mstore\n      0x20\n      add\n      swap1\n      dup2\n      mstore\n      0x20\n      add\n      0x00\n      keccak256\n      sload\n        /* \"@openzeppelin/contracts/token/ERC721/extensions/ERC721Enumerable.sol\":1951:1984  return _ownedTokens[owner][index] */\n      swap1\n      pop\n        /* \"@openzeppelin/contracts/token/ERC721/extensions/ERC721Enumerable.sol\":1736:1991  function tokenOfOwnerByIndex(address owner, uint256 index) public view virtual returns (uint256) {... */\n      swap3\n      swap2\n      pop\n      pop\n      jump\t// out\n        /* \"ERC721/ERC721SC1.sol\":1209:1274  function unpause() public onlyOwner {... */\n    tag_100:\n        /* \"@openzeppelin/contracts/access/Ownable.sol\":1531:1544  _checkOwner() */\n      tag_246\n        /* \"@openzeppelin/contracts/access/Ownable.sol\":1531:1542  _checkOwner */\n      tag_238\n        /* \"@openzeppelin/contracts/access/Ownable.sol\":1531:1544  _checkOwner() */\n      jump\t// in\n    tag_246:\n        /* \"ERC721/ERC721SC1.sol\":1256:1266  _unpause() */\n      tag_248\n        /* \"ERC721/ERC721SC1.sol\":1256:1264  _unpause */\n      tag_249\n        /* \"ERC721/ERC721SC1.sol\":1256:1266  _unpause() */\n      jump\t// in\n    tag_248:\n        /* \"ERC721/ERC721SC1.sol\":1209:1274  function unpause() public onlyOwner {... */\n      jump\t// out\n        /* \"@openzeppelin/contracts/token/ERC721/ERC721.sol\":4787:4919  function safeTransferFrom(address from, address to, uint256 tokenId) public {... */\n    tag_104:\n        /* \"@openzeppelin/contracts/token/ERC721/ERC721.sol\":4873:4912  safeTransferFrom(from, to, tokenId, \"\") */\n      tag_251\n        /* \"@openzeppelin/contracts/token/ERC721/ERC721.sol\":4890:4894  from */\n      dup4\n        /* \"@openzeppelin/contracts/token/ERC721/ERC721.sol\":4896:4898  to */\n      dup4\n        /* \"@openzeppelin/contracts/token/ERC721/ERC721.sol\":4900:4907  tokenId */\n      dup4\n        /* \"@openzeppelin/contracts/token/ERC721/ERC721.sol\":4873:4912  safeTransferFrom(from, to, tokenId, \"\") */\n      mload(0x40)\n      dup1\n      0x20\n      add\n      0x40\n      mstore\n      dup1\n      0x00\n      dup2\n      mstore\n      pop\n        /* \"@openzeppelin/contracts/token/ERC721/ERC721.sol\":4873:4889  safeTransferFrom */\n      tag_160\n        /* \"@openzeppelin/contracts/token/ERC721/ERC721.sol\":4873:4912  safeTransferFrom(from, to, tokenId, \"\") */\n      jump\t// in\n    tag_251:\n        /* \"@openzeppelin/contracts/token/ERC721/ERC721.sol\":4787:4919  function safeTransferFrom(address from, address to, uint256 tokenId) public {... */\n      pop\n      pop\n      pop\n      jump\t// out\n        /* \"@openzeppelin/contracts/token/ERC721/extensions/ERC721Enumerable.sol\":2236:2462  function tokenByIndex(uint256 index) public view virtual returns (uint256) {... */\n    tag_108:\n        /* \"@openzeppelin/contracts/token/ERC721/extensions/ERC721Enumerable.sol\":2302:2309  uint256 */\n      0x00\n        /* \"@openzeppelin/contracts/token/ERC721/extensions/ERC721Enumerable.sol\":2334:2347  totalSupply() */\n      tag_253\n        /* \"@openzeppelin/contracts/token/ERC721/extensions/ERC721Enumerable.sol\":2334:2345  totalSupply */\n      tag_72\n        /* \"@openzeppelin/contracts/token/ERC721/extensions/ERC721Enumerable.sol\":2334:2347  totalSupply() */\n      jump\t// in\n    tag_253:\n        /* \"@openzeppelin/contracts/token/ERC721/extensions/ERC721Enumerable.sol\":2325:2330  index */\n      dup3\n        /* \"@openzeppelin/contracts/token/ERC721/extensions/ERC721Enumerable.sol\":2325:2347  index >= totalSupply() */\n      lt\n        /* \"@openzeppelin/contracts/token/ERC721/extensions/ERC721Enumerable.sol\":2321:2422  if (index >= totalSupply()) {... */\n      tag_254\n      jumpi\n        /* \"@openzeppelin/contracts/token/ERC721/extensions/ERC721Enumerable.sol\":2401:2402  0 */\n      0x00\n        /* \"@openzeppelin/contracts/token/ERC721/extensions/ERC721Enumerable.sol\":2405:2410  index */\n      dup3\n        /* \"@openzeppelin/contracts/token/ERC721/extensions/ERC721Enumerable.sol\":2370:2411  ERC721OutOfBoundsIndex(address(0), index) */\n      mload(0x40)\n      0xa57d13dc00000000000000000000000000000000000000000000000000000000\n      dup2\n      mstore\n      0x04\n      add\n      tag_255\n      swap3\n      swap2\n      swap1\n      tag_244\n      jump\t// in\n    tag_255:\n      mload(0x40)\n      dup1\n      swap2\n      sub\n      swap1\n      revert\n        /* \"@openzeppelin/contracts/token/ERC721/extensions/ERC721Enumerable.sol\":2321:2422  if (index >= totalSupply()) {... */\n    tag_254:\n        /* \"@openzeppelin/contracts/token/ERC721/extensions/ERC721Enumerable.sol\":2438:2448  _allTokens */\n      0x08\n        /* \"@openzeppelin/contracts/token/ERC721/extensions/ERC721Enumerable.sol\":2449:2454  index */\n      dup3\n        /* \"@openzeppelin/contracts/token/ERC721/extensions/ERC721Enumerable.sol\":2438:2455  _allTokens[index] */\n      dup2\n      sload\n      dup2\n      lt\n      tag_256\n      jumpi\n      tag_257\n      tag_258\n      jump\t// in\n    tag_257:\n    tag_256:\n      swap1\n      0x00\n      mstore\n      keccak256(0x00, 0x20)\n      add\n      sload\n        /* \"@openzeppelin/contracts/token/ERC721/extensions/ERC721Enumerable.sol\":2431:2455  return _allTokens[index] */\n      swap1\n      pop\n        /* \"@openzeppelin/contracts/token/ERC721/extensions/ERC721Enumerable.sol\":2236:2462  function tokenByIndex(uint256 index) public view virtual returns (uint256) {... */\n      swap2\n      swap1\n      pop\n      jump\t// out\n        /* \"ERC721/ERC721SC1.sol\":3053:3245  function setAllowlist(address[] calldata addresses) external onlyOwner(){... */\n    tag_114:\n        /* \"@openzeppelin/contracts/access/Ownable.sol\":1531:1544  _checkOwner() */\n      tag_261\n        /* \"@openzeppelin/contracts/access/Ownable.sol\":1531:1542  _checkOwner */\n      tag_238\n        /* \"@openzeppelin/contracts/access/Ownable.sol\":1531:1544  _checkOwner() */\n      jump\t// in\n    tag_261:\n        /* \"ERC721/ERC721SC1.sol\":3140:3149  uint256 i */\n      0x00\n        /* \"ERC721/ERC721SC1.sol\":3136:3238  for(uint256 i =0; i < addresses.length; i++){... */\n    tag_263:\n        /* \"ERC721/ERC721SC1.sol\":3158:3167  addresses */\n      dup3\n      dup3\n        /* \"ERC721/ERC721SC1.sol\":3158:3174  addresses.length */\n      swap1\n      pop\n        /* \"ERC721/ERC721SC1.sol\":3154:3155  i */\n      dup2\n        /* \"ERC721/ERC721SC1.sol\":3154:3174  i < addresses.length */\n      lt\n        /* \"ERC721/ERC721SC1.sol\":3136:3238  for(uint256 i =0; i < addresses.length; i++){... */\n      iszero\n      tag_264\n      jumpi\n        /* \"ERC721/ERC721SC1.sol\":3221:3225  true */\n      0x01\n        /* \"ERC721/ERC721SC1.sol\":3195:3204  allowList */\n      0x0e\n        /* \"ERC721/ERC721SC1.sol\":3195:3218  allowList[addresses[i]] */\n      0x00\n        /* \"ERC721/ERC721SC1.sol\":3205:3214  addresses */\n      dup6\n      dup6\n        /* \"ERC721/ERC721SC1.sol\":3215:3216  i */\n      dup6\n        /* \"ERC721/ERC721SC1.sol\":3205:3217  addresses[i] */\n      dup2\n      dup2\n      lt\n      tag_266\n      jumpi\n      tag_267\n      tag_258\n      jump\t// in\n    tag_267:\n    tag_266:\n      swap1\n      pop\n      0x20\n      mul\n      add\n      0x20\n      dup2\n      add\n      swap1\n      tag_268\n      swap2\n      swap1\n      tag_85\n      jump\t// in\n    tag_268:\n        /* \"ERC721/ERC721SC1.sol\":3195:3218  allowList[addresses[i]] */\n      0xffffffffffffffffffffffffffffffffffffffff\n      and\n      0xffffffffffffffffffffffffffffffffffffffff\n      and\n      dup2\n      mstore\n      0x20\n      add\n      swap1\n      dup2\n      mstore\n      0x20\n      add\n      0x00\n      keccak256\n      0x00\n        /* \"ERC721/ERC721SC1.sol\":3195:3225  allowList[addresses[i]] = true */\n      0x0100\n      exp\n      dup2\n      sload\n      dup2\n      0xff\n      mul\n      not\n      and\n      swap1\n      dup4\n      iszero\n      iszero\n      mul\n      or\n      swap1\n      sstore\n      pop\n        /* \"ERC721/ERC721SC1.sol\":3176:3179  i++ */\n      dup1\n      dup1\n      tag_269\n      swap1\n      tag_270\n      jump\t// in\n    tag_269:\n      swap2\n      pop\n      pop\n        /* \"ERC721/ERC721SC1.sol\":3136:3238  for(uint256 i =0; i < addresses.length; i++){... */\n      jump(tag_263)\n    tag_264:\n      pop\n        /* \"ERC721/ERC721SC1.sol\":3053:3245  function setAllowlist(address[] calldata addresses) external onlyOwner(){... */\n      pop\n      pop\n      jump\t// out\n        /* \"@openzeppelin/contracts/utils/Pausable.sol\":1850:1934  function paused() public view virtual returns (bool) {... */\n    tag_117:\n        /* \"@openzeppelin/contracts/utils/Pausable.sol\":1897:1901  bool */\n      0x00\n        /* \"@openzeppelin/contracts/utils/Pausable.sol\":1920:1927  _paused */\n      0x0a\n      0x00\n      swap1\n      sload\n      swap1\n      0x0100\n      exp\n      swap1\n      div\n      0xff\n      and\n        /* \"@openzeppelin/contracts/utils/Pausable.sol\":1913:1927  return _paused */\n      swap1\n      pop\n        /* \"@openzeppelin/contracts/utils/Pausable.sol\":1850:1934  function paused() public view virtual returns (bool) {... */\n      swap1\n      jump\t// out\n        /* \"@openzeppelin/contracts/token/ERC721/ERC721.sol\":2185:2303  function ownerOf(uint256 tokenId) public view virtual returns (address) {... */\n    tag_122:\n        /* \"@openzeppelin/contracts/token/ERC721/ERC721.sol\":2248:2255  address */\n      0x00\n        /* \"@openzeppelin/contracts/token/ERC721/ERC721.sol\":2274:2296  _requireOwned(tokenId) */\n      tag_273\n        /* \"@openzeppelin/contracts/token/ERC721/ERC721.sol\":2288:2295  tokenId */\n      dup3\n        /* \"@openzeppelin/contracts/token/ERC721/ERC721.sol\":2274:2287  _requireOwned */\n      tag_192\n        /* \"@openzeppelin/contracts/token/ERC721/ERC721.sol\":2274:2296  _requireOwned(tokenId) */\n      jump\t// in\n    tag_273:\n        /* \"@openzeppelin/contracts/token/ERC721/ERC721.sol\":2267:2296  return _requireOwned(tokenId) */\n      swap1\n      pop\n        /* \"@openzeppelin/contracts/token/ERC721/ERC721.sol\":2185:2303  function ownerOf(uint256 tokenId) public view virtual returns (address) {... */\n      swap2\n      swap1\n      pop\n      jump\t// out\n        /* \"ERC721/ERC721SC1.sol\":3292:3502  function withdrawFunds(address _address) external  onlyOwner{... */\n    tag_127:\n        /* \"@openzeppelin/contracts/access/Ownable.sol\":1531:1544  _checkOwner() */\n      tag_275\n        /* \"@openzeppelin/contracts/access/Ownable.sol\":1531:1542  _checkOwner */\n      tag_238\n        /* \"@openzeppelin/contracts/access/Ownable.sol\":1531:1544  _checkOwner() */\n      jump\t// in\n    tag_275:\n        /* \"ERC721/ERC721SC1.sol\":3407:3422  uint256 balance */\n      0x00\n        /* \"ERC721/ERC721SC1.sol\":3425:3446  address(this).balance */\n      selfbalance\n        /* \"ERC721/ERC721SC1.sol\":3407:3446  uint256 balance = address(this).balance */\n      swap1\n      pop\n        /* \"ERC721/ERC721SC1.sol\":3466:3474  _address */\n      dup2\n        /* \"ERC721/ERC721SC1.sol\":3458:3484  payable(_address).transfer */\n      0xffffffffffffffffffffffffffffffffffffffff\n      and\n        /* \"ERC721/ERC721SC1.sol\":3458:3493  payable(_address).transfer(balance) */\n      0x08fc\n        /* \"ERC721/ERC721SC1.sol\":3485:3492  balance */\n      dup3\n        /* \"ERC721/ERC721SC1.sol\":3458:3493  payable(_address).transfer(balance) */\n      swap1\n      dup2\n      iszero\n      mul\n      swap1\n      mload(0x40)\n      0x00\n      mload(0x40)\n      dup1\n      dup4\n      sub\n      dup2\n      dup6\n      dup9\n      dup9\n      call\n      swap4\n      pop\n      pop\n      pop\n      pop\n      iszero\n      dup1\n      iszero\n      tag_278\n      jumpi\n      returndatasize\n      0x00\n      dup1\n      returndatacopy\n      revert(0x00, returndatasize)\n    tag_278:\n      pop\n        /* \"ERC721/ERC721SC1.sol\":3352:3502  {... */\n      pop\n        /* \"ERC721/ERC721SC1.sol\":3292:3502  function withdrawFunds(address _address) external  onlyOwner{... */\n      pop\n      jump\t// out\n        /* \"@openzeppelin/contracts/token/ERC721/ERC721.sol\":1920:2128  function balanceOf(address owner) public view virtual returns (uint256) {... */\n    tag_131:\n        /* \"@openzeppelin/contracts/token/ERC721/ERC721.sol\":1983:1990  uint256 */\n      0x00\n        /* \"@openzeppelin/contracts/token/ERC721/ERC721.sol\":2023:2024  0 */\n      dup1\n        /* \"@openzeppelin/contracts/token/ERC721/ERC721.sol\":2006:2025  owner == address(0) */\n      0xffffffffffffffffffffffffffffffffffffffff\n      and\n        /* \"@openzeppelin/contracts/token/ERC721/ERC721.sol\":2006:2011  owner */\n      dup3\n        /* \"@openzeppelin/contracts/token/ERC721/ERC721.sol\":2006:2025  owner == address(0) */\n      0xffffffffffffffffffffffffffffffffffffffff\n      and\n      sub\n        /* \"@openzeppelin/contracts/token/ERC721/ERC721.sol\":2002:2089  if (owner == address(0)) {... */\n      tag_280\n      jumpi\n        /* \"@openzeppelin/contracts/token/ERC721/ERC721.sol\":2075:2076  0 */\n      0x00\n        /* \"@openzeppelin/contracts/token/ERC721/ERC721.sol\":2048:2078  ERC721InvalidOwner(address(0)) */\n      mload(0x40)\n      0x89c62b6400000000000000000000000000000000000000000000000000000000\n      dup2\n      mstore\n      0x04\n      add\n      tag_281\n      swap2\n      swap1\n      tag_58\n      jump\t// in\n    tag_281:\n      mload(0x40)\n      dup1\n      swap2\n      sub\n      swap1\n      revert\n        /* \"@openzeppelin/contracts/token/ERC721/ERC721.sol\":2002:2089  if (owner == address(0)) {... */\n    tag_280:\n        /* \"@openzeppelin/contracts/token/ERC721/ERC721.sol\":2105:2114  _balances */\n      0x03\n        /* \"@openzeppelin/contracts/token/ERC721/ERC721.sol\":2105:2121  _balances[owner] */\n      0x00\n        /* \"@openzeppelin/contracts/token/ERC721/ERC721.sol\":2115:2120  owner */\n      dup4\n        /* \"@openzeppelin/contracts/token/ERC721/ERC721.sol\":2105:2121  _balances[owner] */\n      0xffffffffffffffffffffffffffffffffffffffff\n      and\n      0xffffffffffffffffffffffffffffffffffffffff\n      and\n      dup2\n      mstore\n      0x20\n      add\n      swap1\n      dup2\n      mstore\n      0x20\n      add\n      0x00\n      keccak256\n      sload\n        /* \"@openzeppelin/contracts/token/ERC721/ERC721.sol\":2098:2121  return _balances[owner] */\n      swap1\n      pop\n        /* \"@openzeppelin/contracts/token/ERC721/ERC721.sol\":1920:2128  function balanceOf(address owner) public view virtual returns (uint256) {... */\n      swap2\n      swap1\n      pop\n      jump\t// out\n        /* \"@openzeppelin/contracts/access/Ownable.sol\":2293:2394  function renounceOwnership() public virtual onlyOwner {... */\n    tag_135:\n        /* \"@openzeppelin/contracts/access/Ownable.sol\":1531:1544  _checkOwner() */\n      tag_283\n        /* \"@openzeppelin/contracts/access/Ownable.sol\":1531:1542  _checkOwner */\n      tag_238\n        /* \"@openzeppelin/contracts/access/Ownable.sol\":1531:1544  _checkOwner() */\n      jump\t// in\n    tag_283:\n        /* \"@openzeppelin/contracts/access/Ownable.sol\":2357:2387  _transferOwnership(address(0)) */\n      tag_285\n        /* \"@openzeppelin/contracts/access/Ownable.sol\":2384:2385  0 */\n      0x00\n        /* \"@openzeppelin/contracts/access/Ownable.sol\":2357:2375  _transferOwnership */\n      tag_286\n        /* \"@openzeppelin/contracts/access/Ownable.sol\":2357:2387  _transferOwnership(address(0)) */\n      jump\t// in\n    tag_285:\n        /* \"@openzeppelin/contracts/access/Ownable.sol\":2293:2394  function renounceOwnership() public virtual onlyOwner {... */\n      jump\t// out\n        /* \"ERC721/ERC721SC1.sol\":1140:1201  function pause() public onlyOwner {... */\n    tag_138:\n        /* \"@openzeppelin/contracts/access/Ownable.sol\":1531:1544  _checkOwner() */\n      tag_288\n        /* \"@openzeppelin/contracts/access/Ownable.sol\":1531:1542  _checkOwner */\n      tag_238\n        /* \"@openzeppelin/contracts/access/Ownable.sol\":1531:1544  _checkOwner() */\n      jump\t// in\n    tag_288:\n        /* \"ERC721/ERC721SC1.sol\":1185:1193  _pause() */\n      tag_290\n        /* \"ERC721/ERC721SC1.sol\":1185:1191  _pause */\n      tag_291\n        /* \"ERC721/ERC721SC1.sol\":1185:1193  _pause() */\n      jump\t// in\n    tag_290:\n        /* \"ERC721/ERC721SC1.sol\":1140:1201  function pause() public onlyOwner {... */\n      jump\t// out\n        /* \"@openzeppelin/contracts/access/Ownable.sol\":1638:1723  function owner() public view virtual returns (address) {... */\n    tag_141:\n        /* \"@openzeppelin/contracts/access/Ownable.sol\":1684:1691  address */\n      0x00\n        /* \"@openzeppelin/contracts/access/Ownable.sol\":1710:1716  _owner */\n      0x0a\n      0x01\n      swap1\n      sload\n      swap1\n      0x0100\n      exp\n      swap1\n      div\n      0xffffffffffffffffffffffffffffffffffffffff\n      and\n        /* \"@openzeppelin/contracts/access/Ownable.sol\":1703:1716  return _owner */\n      swap1\n      pop\n        /* \"@openzeppelin/contracts/access/Ownable.sol\":1638:1723  function owner() public view virtual returns (address) {... */\n      swap1\n      jump\t// out\n        /* \"ERC721/ERC721SC1.sol\":755:776  string public ipfsUri */\n    tag_145:\n      0x10\n      dup1\n      sload\n      tag_293\n      swap1\n      tag_185\n      jump\t// in\n    tag_293:\n      dup1\n      0x1f\n      add\n      0x20\n      dup1\n      swap2\n      div\n      mul\n      0x20\n      add\n      mload(0x40)\n      swap1\n      dup2\n      add\n      0x40\n      mstore\n      dup1\n      swap3\n      swap2\n      swap1\n      dup2\n      dup2\n      mstore\n      0x20\n      add\n      dup3\n      dup1\n      sload\n      tag_294\n      swap1\n      tag_185\n      jump\t// in\n    tag_294:\n      dup1\n      iszero\n      tag_295\n      jumpi\n      dup1\n      0x1f\n      lt\n      tag_296\n      jumpi\n      0x0100\n      dup1\n      dup4\n      sload\n      div\n      mul\n      dup4\n      mstore\n      swap2\n      0x20\n      add\n      swap2\n      jump(tag_295)\n    tag_296:\n      dup3\n      add\n      swap2\n      swap1\n      0x00\n      mstore\n      keccak256(0x00, 0x20)\n      swap1\n    tag_297:\n      dup2\n      sload\n      dup2\n      mstore\n      swap1\n      0x01\n      add\n      swap1\n      0x20\n      add\n      dup1\n      dup4\n      gt\n      tag_297\n      jumpi\n      dup3\n      swap1\n      sub\n      0x1f\n      and\n      dup3\n      add\n      swap2\n    tag_295:\n      pop\n      pop\n      pop\n      pop\n      pop\n      dup2\n      jump\t// out\n        /* \"@openzeppelin/contracts/token/ERC721/ERC721.sol\":2518:2611  function symbol() public view virtual returns (string memory) {... */\n    tag_149:\n        /* \"@openzeppelin/contracts/token/ERC721/ERC721.sol\":2565:2578  string memory */\n      0x60\n        /* \"@openzeppelin/contracts/token/ERC721/ERC721.sol\":2597:2604  _symbol */\n      0x01\n        /* \"@openzeppelin/contracts/token/ERC721/ERC721.sol\":2590:2604  return _symbol */\n      dup1\n      sload\n      tag_299\n      swap1\n      tag_185\n      jump\t// in\n    tag_299:\n      dup1\n      0x1f\n      add\n      0x20\n      dup1\n      swap2\n      div\n      mul\n      0x20\n      add\n      mload(0x40)\n      swap1\n      dup2\n      add\n      0x40\n      mstore\n      dup1\n      swap3\n      swap2\n      swap1\n      dup2\n      dup2\n      mstore\n      0x20\n      add\n      dup3\n      dup1\n      sload\n      tag_300\n      swap1\n      tag_185\n      jump\t// in\n    tag_300:\n      dup1\n      iszero\n      tag_301\n      jumpi\n      dup1\n      0x1f\n      lt\n      tag_302\n      jumpi\n      0x0100\n      dup1\n      dup4\n      sload\n      div\n      mul\n      dup4\n      mstore\n      swap2\n      0x20\n      add\n      swap2\n      jump(tag_301)\n    tag_302:\n      dup3\n      add\n      swap2\n      swap1\n      0x00\n      mstore\n      keccak256(0x00, 0x20)\n      swap1\n    tag_303:\n      dup2\n      sload\n      dup2\n      mstore\n      swap1\n      0x01\n      add\n      swap1\n      0x20\n      add\n      dup1\n      dup4\n      gt\n      tag_303\n      jumpi\n      dup3\n      swap1\n      sub\n      0x1f\n      and\n      dup3\n      add\n      swap2\n    tag_301:\n      pop\n      pop\n      pop\n      pop\n      pop\n      swap1\n      pop\n        /* \"@openzeppelin/contracts/token/ERC721/ERC721.sol\":2518:2611  function symbol() public view virtual returns (string memory) {... */\n      swap1\n      jump\t// out\n        /* \"@openzeppelin/contracts/token/ERC721/ERC721.sol\":3718:3862  function setApprovalForAll(address operator, bool approved) public virtual {... */\n    tag_155:\n        /* \"@openzeppelin/contracts/token/ERC721/ERC721.sol\":3803:3855  _setApprovalForAll(_msgSender(), operator, approved) */\n      tag_305\n        /* \"@openzeppelin/contracts/token/ERC721/ERC721.sol\":3822:3834  _msgSender() */\n      tag_306\n        /* \"@openzeppelin/contracts/token/ERC721/ERC721.sol\":3822:3832  _msgSender */\n      tag_198\n        /* \"@openzeppelin/contracts/token/ERC721/ERC721.sol\":3822:3834  _msgSender() */\n      jump\t// in\n    tag_306:\n        /* \"@openzeppelin/contracts/token/ERC721/ERC721.sol\":3836:3844  operator */\n      dup4\n        /* \"@openzeppelin/contracts/token/ERC721/ERC721.sol\":3846:3854  approved */\n      dup4\n        /* \"@openzeppelin/contracts/token/ERC721/ERC721.sol\":3803:3821  _setApprovalForAll */\n      tag_307\n        /* \"@openzeppelin/contracts/token/ERC721/ERC721.sol\":3803:3855  _setApprovalForAll(_msgSender(), operator, approved) */\n      jump\t// in\n    tag_305:\n        /* \"@openzeppelin/contracts/token/ERC721/ERC721.sol\":3718:3862  function setApprovalForAll(address operator, bool approved) public virtual {... */\n      pop\n      pop\n      jump\t// out\n        /* \"@openzeppelin/contracts/token/ERC721/ERC721.sol\":4985:5193  function safeTransferFrom(address from, address to, uint256 tokenId, bytes memory data) public virtual {... */\n    tag_160:\n        /* \"@openzeppelin/contracts/token/ERC721/ERC721.sol\":5098:5129  transferFrom(from, to, tokenId) */\n      tag_309\n        /* \"@openzeppelin/contracts/token/ERC721/ERC721.sol\":5111:5115  from */\n      dup5\n        /* \"@openzeppelin/contracts/token/ERC721/ERC721.sol\":5117:5119  to */\n      dup5\n        /* \"@openzeppelin/contracts/token/ERC721/ERC721.sol\":5121:5128  tokenId */\n      dup5\n        /* \"@openzeppelin/contracts/token/ERC721/ERC721.sol\":5098:5110  transferFrom */\n      tag_79\n        /* \"@openzeppelin/contracts/token/ERC721/ERC721.sol\":5098:5129  transferFrom(from, to, tokenId) */\n      jump\t// in\n    tag_309:\n        /* \"@openzeppelin/contracts/token/ERC721/ERC721.sol\":5139:5186  _checkOnERC721Received(from, to, tokenId, data) */\n      tag_310\n        /* \"@openzeppelin/contracts/token/ERC721/ERC721.sol\":5162:5166  from */\n      dup5\n        /* \"@openzeppelin/contracts/token/ERC721/ERC721.sol\":5168:5170  to */\n      dup5\n        /* \"@openzeppelin/contracts/token/ERC721/ERC721.sol\":5172:5179  tokenId */\n      dup5\n        /* \"@openzeppelin/contracts/token/ERC721/ERC721.sol\":5181:5185  data */\n      dup5\n        /* \"@openzeppelin/contracts/token/ERC721/ERC721.sol\":5139:5161  _checkOnERC721Received */\n      tag_311\n        /* \"@openzeppelin/contracts/token/ERC721/ERC721.sol\":5139:5186  _checkOnERC721Received(from, to, tokenId, data) */\n      jump\t// in\n    tag_310:\n        /* \"@openzeppelin/contracts/token/ERC721/ERC721.sol\":4985:5193  function safeTransferFrom(address from, address to, uint256 tokenId, bytes memory data) public virtual {... */\n      pop\n      pop\n      pop\n      pop\n      jump\t// out\n        /* \"ERC721/ERC721SC1.sol\":638:672  bool public publicMintOpen = false */\n    tag_163:\n      0x0f\n      0x00\n      swap1\n      sload\n      swap1\n      0x0100\n      exp\n      swap1\n      div\n      0xff\n      and\n      dup2\n      jump\t// out\n        /* \"@openzeppelin/contracts/token/ERC721/ERC721.sol\":2677:2932  function tokenURI(uint256 tokenId) public view virtual returns (string memory) {... */\n    tag_168:\n        /* \"@openzeppelin/contracts/token/ERC721/ERC721.sol\":2741:2754  string memory */\n      0x60\n        /* \"@openzeppelin/contracts/token/ERC721/ERC721.sol\":2766:2788  _requireOwned(tokenId) */\n      tag_313\n        /* \"@openzeppelin/contracts/token/ERC721/ERC721.sol\":2780:2787  tokenId */\n      dup3\n        /* \"@openzeppelin/contracts/token/ERC721/ERC721.sol\":2766:2779  _requireOwned */\n      tag_192\n        /* \"@openzeppelin/contracts/token/ERC721/ERC721.sol\":2766:2788  _requireOwned(tokenId) */\n      jump\t// in\n    tag_313:\n      pop\n        /* \"@openzeppelin/contracts/token/ERC721/ERC721.sol\":2799:2820  string memory baseURI */\n      0x00\n        /* \"@openzeppelin/contracts/token/ERC721/ERC721.sol\":2823:2833  _baseURI() */\n      tag_314\n        /* \"@openzeppelin/contracts/token/ERC721/ERC721.sol\":2823:2831  _baseURI */\n      tag_315\n        /* \"@openzeppelin/contracts/token/ERC721/ERC721.sol\":2823:2833  _baseURI() */\n      jump\t// in\n    tag_314:\n        /* \"@openzeppelin/contracts/token/ERC721/ERC721.sol\":2799:2833  string memory baseURI = _baseURI() */\n      swap1\n      pop\n        /* \"@openzeppelin/contracts/token/ERC721/ERC721.sol\":2874:2875  0 */\n      0x00\n        /* \"@openzeppelin/contracts/token/ERC721/ERC721.sol\":2856:2863  baseURI */\n      dup2\n        /* \"@openzeppelin/contracts/token/ERC721/ERC721.sol\":2850:2871  bytes(baseURI).length */\n      mload\n        /* \"@openzeppelin/contracts/token/ERC721/ERC721.sol\":2850:2875  bytes(baseURI).length > 0 */\n      gt\n        /* \"@openzeppelin/contracts/token/ERC721/ERC721.sol\":2850:2925  bytes(baseURI).length > 0 ? string.concat(baseURI, tokenId.toString()) : \"\" */\n      tag_316\n      jumpi\n      mload(0x40)\n      dup1\n      0x20\n      add\n      0x40\n      mstore\n      dup1\n      0x00\n      dup2\n      mstore\n      pop\n      jump(tag_317)\n    tag_316:\n        /* \"@openzeppelin/contracts/token/ERC721/ERC721.sol\":2892:2899  baseURI */\n      dup1\n        /* \"@openzeppelin/contracts/token/ERC721/ERC721.sol\":2901:2919  tokenId.toString() */\n      tag_318\n        /* \"@openzeppelin/contracts/token/ERC721/ERC721.sol\":2901:2908  tokenId */\n      dup5\n        /* \"@openzeppelin/contracts/token/ERC721/ERC721.sol\":2901:2917  tokenId.toString */\n      tag_319\n        /* \"@openzeppelin/contracts/token/ERC721/ERC721.sol\":2901:2919  tokenId.toString() */\n      jump\t// in\n    tag_318:\n        /* \"@openzeppelin/contracts/token/ERC721/ERC721.sol\":2878:2920  string.concat(baseURI, tokenId.toString()) */\n      add(0x20, mload(0x40))\n      tag_320\n      swap3\n      swap2\n      swap1\n      tag_321\n      jump\t// in\n    tag_320:\n      mload(0x40)\n      0x20\n      dup2\n      dup4\n      sub\n      sub\n      dup2\n      mstore\n      swap1\n      0x40\n      mstore\n        /* \"@openzeppelin/contracts/token/ERC721/ERC721.sol\":2850:2925  bytes(baseURI).length > 0 ? string.concat(baseURI, tokenId.toString()) : \"\" */\n    tag_317:\n        /* \"@openzeppelin/contracts/token/ERC721/ERC721.sol\":2843:2925  return bytes(baseURI).length > 0 ? string.concat(baseURI, tokenId.toString()) : \"\" */\n      swap2\n      pop\n      pop\n        /* \"@openzeppelin/contracts/token/ERC721/ERC721.sol\":2677:2932  function tokenURI(uint256 tokenId) public view virtual returns (string memory) {... */\n      swap2\n      swap1\n      pop\n      jump\t// out\n        /* \"@openzeppelin/contracts/token/ERC721/ERC721.sol\":3928:4081  function isApprovedForAll(address owner, address operator) public view virtual returns (bool) {... */\n    tag_174:\n        /* \"@openzeppelin/contracts/token/ERC721/ERC721.sol\":4016:4020  bool */\n      0x00\n        /* \"@openzeppelin/contracts/token/ERC721/ERC721.sol\":4039:4057  _operatorApprovals */\n      0x05\n        /* \"@openzeppelin/contracts/token/ERC721/ERC721.sol\":4039:4064  _operatorApprovals[owner] */\n      0x00\n        /* \"@openzeppelin/contracts/token/ERC721/ERC721.sol\":4058:4063  owner */\n      dup5\n        /* \"@openzeppelin/contracts/token/ERC721/ERC721.sol\":4039:4064  _operatorApprovals[owner] */\n      0xffffffffffffffffffffffffffffffffffffffff\n      and\n      0xffffffffffffffffffffffffffffffffffffffff\n      and\n      dup2\n      mstore\n      0x20\n      add\n      swap1\n      dup2\n      mstore\n      0x20\n      add\n      0x00\n      keccak256\n        /* \"@openzeppelin/contracts/token/ERC721/ERC721.sol\":4039:4074  _operatorApprovals[owner][operator] */\n      0x00\n        /* \"@openzeppelin/contracts/token/ERC721/ERC721.sol\":4065:4073  operator */\n      dup4\n        /* \"@openzeppelin/contracts/token/ERC721/ERC721.sol\":4039:4074  _operatorApprovals[owner][operator] */\n      0xffffffffffffffffffffffffffffffffffffffff\n      and\n      0xffffffffffffffffffffffffffffffffffffffff\n      and\n      dup2\n      mstore\n      0x20\n      add\n      swap1\n      dup2\n      mstore\n      0x20\n      add\n      0x00\n      keccak256\n      0x00\n      swap1\n      sload\n      swap1\n      0x0100\n      exp\n      swap1\n      div\n      0xff\n      and\n        /* \"@openzeppelin/contracts/token/ERC721/ERC721.sol\":4032:4074  return _operatorApprovals[owner][operator] */\n      swap1\n      pop\n        /* \"@openzeppelin/contracts/token/ERC721/ERC721.sol\":3928:4081  function isApprovedForAll(address owner, address operator) public view virtual returns (bool) {... */\n      swap3\n      swap2\n      pop\n      pop\n      jump\t// out\n        /* \"@openzeppelin/contracts/access/Ownable.sol\":2543:2758  function transferOwnership(address newOwner) public virtual onlyOwner {... */\n    tag_179:\n        /* \"@openzeppelin/contracts/access/Ownable.sol\":1531:1544  _checkOwner() */\n      tag_324\n        /* \"@openzeppelin/contracts/access/Ownable.sol\":1531:1542  _checkOwner */\n      tag_238\n        /* \"@openzeppelin/contracts/access/Ownable.sol\":1531:1544  _checkOwner() */\n      jump\t// in\n    tag_324:\n        /* \"@openzeppelin/contracts/access/Ownable.sol\":2647:2648  0 */\n      0x00\n        /* \"@openzeppelin/contracts/access/Ownable.sol\":2627:2649  newOwner == address(0) */\n      0xffffffffffffffffffffffffffffffffffffffff\n      and\n        /* \"@openzeppelin/contracts/access/Ownable.sol\":2627:2635  newOwner */\n      dup2\n        /* \"@openzeppelin/contracts/access/Ownable.sol\":2627:2649  newOwner == address(0) */\n      0xffffffffffffffffffffffffffffffffffffffff\n      and\n      sub\n        /* \"@openzeppelin/contracts/access/Ownable.sol\":2623:2714  if (newOwner == address(0)) {... */\n      tag_326\n      jumpi\n        /* \"@openzeppelin/contracts/access/Ownable.sol\":2700:2701  0 */\n      0x00\n        /* \"@openzeppelin/contracts/access/Ownable.sol\":2672:2703  OwnableInvalidOwner(address(0)) */\n      mload(0x40)\n      0x1e4fbdf700000000000000000000000000000000000000000000000000000000\n      dup2\n      mstore\n      0x04\n      add\n      tag_327\n      swap2\n      swap1\n      tag_58\n      jump\t// in\n    tag_327:\n      mload(0x40)\n      dup1\n      swap2\n      sub\n      swap1\n      revert\n        /* \"@openzeppelin/contracts/access/Ownable.sol\":2623:2714  if (newOwner == address(0)) {... */\n    tag_326:\n        /* \"@openzeppelin/contracts/access/Ownable.sol\":2723:2751  _transferOwnership(newOwner) */\n      tag_328\n        /* \"@openzeppelin/contracts/access/Ownable.sol\":2742:2750  newOwner */\n      dup2\n        /* \"@openzeppelin/contracts/access/Ownable.sol\":2723:2741  _transferOwnership */\n      tag_286\n        /* \"@openzeppelin/contracts/access/Ownable.sol\":2723:2751  _transferOwnership(newOwner) */\n      jump\t// in\n    tag_328:\n        /* \"@openzeppelin/contracts/access/Ownable.sol\":2543:2758  function transferOwnership(address newOwner) public virtual onlyOwner {... */\n      pop\n      jump\t// out\n        /* \"@openzeppelin/contracts/token/ERC721/extensions/ERC721Enumerable.sol\":1435:1657  function supportsInterface(bytes4 interfaceId) public view virtual override(IERC165, ERC721) returns (bool) {... */\n    tag_182:\n        /* \"@openzeppelin/contracts/token/ERC721/extensions/ERC721Enumerable.sol\":1537:1541  bool */\n      0x00\n        /* \"@openzeppelin/contracts/token/ERC721/extensions/ERC721Enumerable.sol\":1575:1610  type(IERC721Enumerable).interfaceId */\n      0x780e9d6300000000000000000000000000000000000000000000000000000000\n        /* \"@openzeppelin/contracts/token/ERC721/extensions/ERC721Enumerable.sol\":1560:1610  interfaceId == type(IERC721Enumerable).interfaceId */\n      not(0xffffffffffffffffffffffffffffffffffffffffffffffffffffffff)\n      and\n        /* \"@openzeppelin/contracts/token/ERC721/extensions/ERC721Enumerable.sol\":1560:1571  interfaceId */\n      dup3\n        /* \"@openzeppelin/contracts/token/ERC721/extensions/ERC721Enumerable.sol\":1560:1610  interfaceId == type(IERC721Enumerable).interfaceId */\n      not(0xffffffffffffffffffffffffffffffffffffffffffffffffffffffff)\n      and\n      eq\n        /* \"@openzeppelin/contracts/token/ERC721/extensions/ERC721Enumerable.sol\":1560:1650  interfaceId == type(IERC721Enumerable).interfaceId || super.supportsInterface(interfaceId) */\n      dup1\n      tag_330\n      jumpi\n      pop\n        /* \"@openzeppelin/contracts/token/ERC721/extensions/ERC721Enumerable.sol\":1614:1650  super.supportsInterface(interfaceId) */\n      tag_331\n        /* \"@openzeppelin/contracts/token/ERC721/extensions/ERC721Enumerable.sol\":1638:1649  interfaceId */\n      dup3\n        /* \"@openzeppelin/contracts/token/ERC721/extensions/ERC721Enumerable.sol\":1614:1637  super.supportsInterface */\n      tag_332\n        /* \"@openzeppelin/contracts/token/ERC721/extensions/ERC721Enumerable.sol\":1614:1650  super.supportsInterface(interfaceId) */\n      jump\t// in\n    tag_331:\n        /* \"@openzeppelin/contracts/token/ERC721/extensions/ERC721Enumerable.sol\":1560:1650  interfaceId == type(IERC721Enumerable).interfaceId || super.supportsInterface(interfaceId) */\n    tag_330:\n        /* \"@openzeppelin/contracts/token/ERC721/extensions/ERC721Enumerable.sol\":1553:1650  return interfaceId == type(IERC721Enumerable).interfaceId || super.supportsInterface(interfaceId) */\n      swap1\n      pop\n        /* \"@openzeppelin/contracts/token/ERC721/extensions/ERC721Enumerable.sol\":1435:1657  function supportsInterface(bytes4 interfaceId) public view virtual override(IERC165, ERC721) returns (bool) {... */\n      swap2\n      swap1\n      pop\n      jump\t// out\n        /* \"@openzeppelin/contracts/token/ERC721/ERC721.sol\":16138:16379  function _requireOwned(uint256 tokenId) internal view returns (address) {... */\n    tag_192:\n        /* \"@openzeppelin/contracts/token/ERC721/ERC721.sol\":16201:16208  address */\n      0x00\n        /* \"@openzeppelin/contracts/token/ERC721/ERC721.sol\":16220:16233  address owner */\n      dup1\n        /* \"@openzeppelin/contracts/token/ERC721/ERC721.sol\":16236:16253  _ownerOf(tokenId) */\n      tag_334\n        /* \"@openzeppelin/contracts/token/ERC721/ERC721.sol\":16245:16252  tokenId */\n      dup4\n        /* \"@openzeppelin/contracts/token/ERC721/ERC721.sol\":16236:16244  _ownerOf */\n      tag_335\n        /* \"@openzeppelin/contracts/token/ERC721/ERC721.sol\":16236:16253  _ownerOf(tokenId) */\n      jump\t// in\n    tag_334:\n        /* \"@openzeppelin/contracts/token/ERC721/ERC721.sol\":16220:16253  address owner = _ownerOf(tokenId) */\n      swap1\n      pop\n        /* \"@openzeppelin/contracts/token/ERC721/ERC721.sol\":16284:16285  0 */\n      0x00\n        /* \"@openzeppelin/contracts/token/ERC721/ERC721.sol\":16267:16286  owner == address(0) */\n      0xffffffffffffffffffffffffffffffffffffffff\n      and\n        /* \"@openzeppelin/contracts/token/ERC721/ERC721.sol\":16267:16272  owner */\n      dup2\n        /* \"@openzeppelin/contracts/token/ERC721/ERC721.sol\":16267:16286  owner == address(0) */\n      0xffffffffffffffffffffffffffffffffffffffff\n      and\n      sub\n        /* \"@openzeppelin/contracts/token/ERC721/ERC721.sol\":16263:16351  if (owner == address(0)) {... */\n      tag_336\n      jumpi\n        /* \"@openzeppelin/contracts/token/ERC721/ERC721.sol\":16332:16339  tokenId */\n      dup3\n        /* \"@openzeppelin/contracts/token/ERC721/ERC721.sol\":16309:16340  ERC721NonexistentToken(tokenId) */\n      mload(0x40)\n      0x7e27328900000000000000000000000000000000000000000000000000000000\n      dup2\n      mstore\n      0x04\n      add\n      tag_337\n      swap2\n      swap1\n      tag_74\n      jump\t// in\n    tag_337:\n      mload(0x40)\n      dup1\n      swap2\n      sub\n      swap1\n      revert\n        /* \"@openzeppelin/contracts/token/ERC721/ERC721.sol\":16263:16351  if (owner == address(0)) {... */\n    tag_336:\n        /* \"@openzeppelin/contracts/token/ERC721/ERC721.sol\":16367:16372  owner */\n      dup1\n        /* \"@openzeppelin/contracts/token/ERC721/ERC721.sol\":16360:16372  return owner */\n      swap2\n      pop\n      pop\n        /* \"@openzeppelin/contracts/token/ERC721/ERC721.sol\":16138:16379  function _requireOwned(uint256 tokenId) internal view returns (address) {... */\n      swap2\n      swap1\n      pop\n      jump\t// out\n        /* \"@openzeppelin/contracts/token/ERC721/ERC721.sol\":5938:6065  function _getApproved(uint256 tokenId) internal view virtual returns (address) {... */\n    tag_194:\n        /* \"@openzeppelin/contracts/token/ERC721/ERC721.sol\":6008:6015  address */\n      0x00\n        /* \"@openzeppelin/contracts/token/ERC721/ERC721.sol\":6034:6049  _tokenApprovals */\n      0x04\n        /* \"@openzeppelin/contracts/token/ERC721/ERC721.sol\":6034:6058  _tokenApprovals[tokenId] */\n      0x00\n        /* \"@openzeppelin/contracts/token/ERC721/ERC721.sol\":6050:6057  tokenId */\n      dup4\n        /* \"@openzeppelin/contracts/token/ERC721/ERC721.sol\":6034:6058  _tokenApprovals[tokenId] */\n      dup2\n      mstore\n      0x20\n      add\n      swap1\n      dup2\n      mstore\n      0x20\n      add\n      0x00\n      keccak256\n      0x00\n      swap1\n      sload\n      swap1\n      0x0100\n      exp\n      swap1\n      div\n      0xffffffffffffffffffffffffffffffffffffffff\n      and\n        /* \"@openzeppelin/contracts/token/ERC721/ERC721.sol\":6027:6058  return _tokenApprovals[tokenId] */\n      swap1\n      pop\n        /* \"@openzeppelin/contracts/token/ERC721/ERC721.sol\":5938:6065  function _getApproved(uint256 tokenId) internal view virtual returns (address) {... */\n      swap2\n      swap1\n      pop\n      jump\t// out\n        /* \"@openzeppelin/contracts/utils/Context.sol\":656:752  function _msgSender() internal view virtual returns (address) {... */\n    tag_198:\n        /* \"@openzeppelin/contracts/utils/Context.sol\":709:716  address */\n      0x00\n        /* \"@openzeppelin/contracts/utils/Context.sol\":735:745  msg.sender */\n      caller\n        /* \"@openzeppelin/contracts/utils/Context.sol\":728:745  return msg.sender */\n      swap1\n      pop\n        /* \"@openzeppelin/contracts/utils/Context.sol\":656:752  function _msgSender() internal view virtual returns (address) {... */\n      swap1\n      jump\t// out\n        /* \"@openzeppelin/contracts/token/ERC721/ERC721.sol\":14418:14538  function _approve(address to, uint256 tokenId, address auth) internal {... */\n    tag_199:\n        /* \"@openzeppelin/contracts/token/ERC721/ERC721.sol\":14498:14531  _approve(to, tokenId, auth, true) */\n      tag_341\n        /* \"@openzeppelin/contracts/token/ERC721/ERC721.sol\":14507:14509  to */\n      dup4\n        /* \"@openzeppelin/contracts/token/ERC721/ERC721.sol\":14511:14518  tokenId */\n      dup4\n        /* \"@openzeppelin/contracts/token/ERC721/ERC721.sol\":14520:14524  auth */\n      dup4\n        /* \"@openzeppelin/contracts/token/ERC721/ERC721.sol\":14526:14530  true */\n      0x01\n        /* \"@openzeppelin/contracts/token/ERC721/ERC721.sol\":14498:14506  _approve */\n      tag_342\n        /* \"@openzeppelin/contracts/token/ERC721/ERC721.sol\":14498:14531  _approve(to, tokenId, auth, true) */\n      jump\t// in\n    tag_341:\n        /* \"@openzeppelin/contracts/token/ERC721/ERC721.sol\":14418:14538  function _approve(address to, uint256 tokenId, address auth) internal {... */\n      pop\n      pop\n      pop\n      jump\t// out\n        /* \"ERC721/ERC721SC1.sol\":2871:2996  function internalMint() internal {... */\n    tag_215:\n        /* \"ERC721/ERC721SC1.sol\":2915:2930  uint256 tokenId */\n      0x00\n        /* \"ERC721/ERC721SC1.sol\":2933:2945  _nextTokenId */\n      0x0b\n      0x00\n        /* \"ERC721/ERC721SC1.sol\":2933:2947  _nextTokenId++ */\n      dup2\n      sload\n      dup1\n      swap3\n      swap2\n      swap1\n      tag_344\n      swap1\n      tag_270\n      jump\t// in\n    tag_344:\n      swap2\n      swap1\n      pop\n      sstore\n        /* \"ERC721/ERC721SC1.sol\":2915:2947  uint256 tokenId = _nextTokenId++ */\n      swap1\n      pop\n        /* \"ERC721/ERC721SC1.sol\":2958:2988  _safeMint(msg.sender, tokenId) */\n      tag_345\n        /* \"ERC721/ERC721SC1.sol\":2968:2978  msg.sender */\n      caller\n        /* \"ERC721/ERC721SC1.sol\":2980:2987  tokenId */\n      dup3\n        /* \"ERC721/ERC721SC1.sol\":2958:2967  _safeMint */\n      tag_346\n        /* \"ERC721/ERC721SC1.sol\":2958:2988  _safeMint(msg.sender, tokenId) */\n      jump\t// in\n    tag_345:\n        /* \"ERC721/ERC721SC1.sol\":2904:2996  {... */\n      pop\n        /* \"ERC721/ERC721SC1.sol\":2871:2996  function internalMint() internal {... */\n      jump\t// out\n        /* \"ERC721/ERC721SC1.sol\":3582:3810  function _update(address to, uint256 tokenId, address auth)... */\n    tag_222:\n        /* \"ERC721/ERC721SC1.sol\":3738:3745  address */\n      0x00\n        /* \"ERC721/ERC721SC1.sol\":3770:3802  super._update(to, tokenId, auth) */\n      tag_348\n        /* \"ERC721/ERC721SC1.sol\":3784:3786  to */\n      dup5\n        /* \"ERC721/ERC721SC1.sol\":3788:3795  tokenId */\n      dup5\n        /* \"ERC721/ERC721SC1.sol\":3797:3801  auth */\n      dup5\n        /* \"ERC721/ERC721SC1.sol\":3770:3783  super._update */\n      tag_349\n        /* \"ERC721/ERC721SC1.sol\":3770:3802  super._update(to, tokenId, auth) */\n      jump\t// in\n    tag_348:\n        /* \"ERC721/ERC721SC1.sol\":3763:3802  return super._update(to, tokenId, auth) */\n      swap1\n      pop\n        /* \"ERC721/ERC721SC1.sol\":3582:3810  function _update(address to, uint256 tokenId, address auth)... */\n      swap4\n      swap3\n      pop\n      pop\n      pop\n      jump\t// out\n        /* \"@openzeppelin/contracts/access/Ownable.sol\":1796:1958  function _checkOwner() internal view virtual {... */\n    tag_238:\n        /* \"@openzeppelin/contracts/access/Ownable.sol\":1866:1878  _msgSender() */\n      tag_351\n        /* \"@openzeppelin/contracts/access/Ownable.sol\":1866:1876  _msgSender */\n      tag_198\n        /* \"@openzeppelin/contracts/access/Ownable.sol\":1866:1878  _msgSender() */\n      jump\t// in\n    tag_351:\n        /* \"@openzeppelin/contracts/access/Ownable.sol\":1855:1878  owner() != _msgSender() */\n      0xffffffffffffffffffffffffffffffffffffffff\n      and\n        /* \"@openzeppelin/contracts/access/Ownable.sol\":1855:1862  owner() */\n      tag_352\n        /* \"@openzeppelin/contracts/access/Ownable.sol\":1855:1860  owner */\n      tag_141\n        /* \"@openzeppelin/contracts/access/Ownable.sol\":1855:1862  owner() */\n      jump\t// in\n    tag_352:\n        /* \"@openzeppelin/contracts/access/Ownable.sol\":1855:1878  owner() != _msgSender() */\n      0xffffffffffffffffffffffffffffffffffffffff\n      and\n      eq\n        /* \"@openzeppelin/contracts/access/Ownable.sol\":1851:1952  if (owner() != _msgSender()) {... */\n      tag_353\n      jumpi\n        /* \"@openzeppelin/contracts/access/Ownable.sol\":1928:1940  _msgSender() */\n      tag_354\n        /* \"@openzeppelin/contracts/access/Ownable.sol\":1928:1938  _msgSender */\n      tag_198\n        /* \"@openzeppelin/contracts/access/Ownable.sol\":1928:1940  _msgSender() */\n      jump\t// in\n    tag_354:\n        /* \"@openzeppelin/contracts/access/Ownable.sol\":1901:1941  OwnableUnauthorizedAccount(_msgSender()) */\n      mload(0x40)\n      0x118cdaa700000000000000000000000000000000000000000000000000000000\n      dup2\n      mstore\n      0x04\n      add\n      tag_355\n      swap2\n      swap1\n      tag_58\n      jump\t// in\n    tag_355:\n      mload(0x40)\n      dup1\n      swap2\n      sub\n      swap1\n      revert\n        /* \"@openzeppelin/contracts/access/Ownable.sol\":1851:1952  if (owner() != _msgSender()) {... */\n    tag_353:\n        /* \"@openzeppelin/contracts/access/Ownable.sol\":1796:1958  function _checkOwner() internal view virtual {... */\n      jump\t// out\n        /* \"@openzeppelin/contracts/utils/Pausable.sol\":2710:2827  function _unpause() internal virtual whenPaused {... */\n    tag_249:\n        /* \"@openzeppelin/contracts/utils/Pausable.sol\":1721:1737  _requirePaused() */\n      tag_357\n        /* \"@openzeppelin/contracts/utils/Pausable.sol\":1721:1735  _requirePaused */\n      tag_358\n        /* \"@openzeppelin/contracts/utils/Pausable.sol\":1721:1737  _requirePaused() */\n      jump\t// in\n    tag_357:\n        /* \"@openzeppelin/contracts/utils/Pausable.sol\":2778:2783  false */\n      0x00\n        /* \"@openzeppelin/contracts/utils/Pausable.sol\":2768:2775  _paused */\n      0x0a\n      0x00\n        /* \"@openzeppelin/contracts/utils/Pausable.sol\":2768:2783  _paused = false */\n      0x0100\n      exp\n      dup2\n      sload\n      dup2\n      0xff\n      mul\n      not\n      and\n      swap1\n      dup4\n      iszero\n      iszero\n      mul\n      or\n      swap1\n      sstore\n      pop\n        /* \"@openzeppelin/contracts/utils/Pausable.sol\":2798:2820  Unpaused(_msgSender()) */\n      0x5db9ee0a495bf2e6ff9c91a7834c1ba4fdd244a5e8aa4e537bd38aeae4b073aa\n        /* \"@openzeppelin/contracts/utils/Pausable.sol\":2807:2819  _msgSender() */\n      tag_360\n        /* \"@openzeppelin/contracts/utils/Pausable.sol\":2807:2817  _msgSender */\n      tag_198\n        /* \"@openzeppelin/contracts/utils/Pausable.sol\":2807:2819  _msgSender() */\n      jump\t// in\n    tag_360:\n        /* \"@openzeppelin/contracts/utils/Pausable.sol\":2798:2820  Unpaused(_msgSender()) */\n      mload(0x40)\n      tag_361\n      swap2\n      swap1\n      tag_58\n      jump\t// in\n    tag_361:\n      mload(0x40)\n      dup1\n      swap2\n      sub\n      swap1\n      log1\n        /* \"@openzeppelin/contracts/utils/Pausable.sol\":2710:2827  function _unpause() internal virtual whenPaused {... */\n      jump\t// out\n        /* \"@openzeppelin/contracts/access/Ownable.sol\":2912:3099  function _transferOwnership(address newOwner) internal virtual {... */\n    tag_286:\n        /* \"@openzeppelin/contracts/access/Ownable.sol\":2985:3001  address oldOwner */\n      0x00\n        /* \"@openzeppelin/contracts/access/Ownable.sol\":3004:3010  _owner */\n      0x0a\n      0x01\n      swap1\n      sload\n      swap1\n      0x0100\n      exp\n      swap1\n      div\n      0xffffffffffffffffffffffffffffffffffffffff\n      and\n        /* \"@openzeppelin/contracts/access/Ownable.sol\":2985:3010  address oldOwner = _owner */\n      swap1\n      pop\n        /* \"@openzeppelin/contracts/access/Ownable.sol\":3029:3037  newOwner */\n      dup2\n        /* \"@openzeppelin/contracts/access/Ownable.sol\":3020:3026  _owner */\n      0x0a\n      0x01\n        /* \"@openzeppelin/contracts/access/Ownable.sol\":3020:3037  _owner = newOwner */\n      0x0100\n      exp\n      dup2\n      sload\n      dup2\n      0xffffffffffffffffffffffffffffffffffffffff\n      mul\n      not\n      and\n      swap1\n      dup4\n      0xffffffffffffffffffffffffffffffffffffffff\n      and\n      mul\n      or\n      swap1\n      sstore\n      pop\n        /* \"@openzeppelin/contracts/access/Ownable.sol\":3083:3091  newOwner */\n      dup2\n        /* \"@openzeppelin/contracts/access/Ownable.sol\":3052:3092  OwnershipTransferred(oldOwner, newOwner) */\n      0xffffffffffffffffffffffffffffffffffffffff\n      and\n        /* \"@openzeppelin/contracts/access/Ownable.sol\":3073:3081  oldOwner */\n      dup2\n        /* \"@openzeppelin/contracts/access/Ownable.sol\":3052:3092  OwnershipTransferred(oldOwner, newOwner) */\n      0xffffffffffffffffffffffffffffffffffffffff\n      and\n      0x8be0079c531659141344cd1fd0a4f28419497f9722a3daafe3b4186f6b6457e0\n      mload(0x40)\n      mload(0x40)\n      dup1\n      swap2\n      sub\n      swap1\n      log3\n        /* \"@openzeppelin/contracts/access/Ownable.sol\":2975:3099  {... */\n      pop\n        /* \"@openzeppelin/contracts/access/Ownable.sol\":2912:3099  function _transferOwnership(address newOwner) internal virtual {... */\n      pop\n      jump\t// out\n        /* \"@openzeppelin/contracts/utils/Pausable.sol\":2463:2578  function _pause() internal virtual whenNotPaused {... */\n    tag_291:\n        /* \"@openzeppelin/contracts/utils/Pausable.sol\":1474:1493  _requireNotPaused() */\n      tag_364\n        /* \"@openzeppelin/contracts/utils/Pausable.sol\":1474:1491  _requireNotPaused */\n      tag_365\n        /* \"@openzeppelin/contracts/utils/Pausable.sol\":1474:1493  _requireNotPaused() */\n      jump\t// in\n    tag_364:\n        /* \"@openzeppelin/contracts/utils/Pausable.sol\":2532:2536  true */\n      0x01\n        /* \"@openzeppelin/contracts/utils/Pausable.sol\":2522:2529  _paused */\n      0x0a\n      0x00\n        /* \"@openzeppelin/contracts/utils/Pausable.sol\":2522:2536  _paused = true */\n      0x0100\n      exp\n      dup2\n      sload\n      dup2\n      0xff\n      mul\n      not\n      and\n      swap1\n      dup4\n      iszero\n      iszero\n      mul\n      or\n      swap1\n      sstore\n      pop\n        /* \"@openzeppelin/contracts/utils/Pausable.sol\":2551:2571  Paused(_msgSender()) */\n      0x62e78cea01bee320cd4e420270b5ea74000d11b0c9f74754ebdbfc544b05a258\n        /* \"@openzeppelin/contracts/utils/Pausable.sol\":2558:2570  _msgSender() */\n      tag_367\n        /* \"@openzeppelin/contracts/utils/Pausable.sol\":2558:2568  _msgSender */\n      tag_198\n        /* \"@openzeppelin/contracts/utils/Pausable.sol\":2558:2570  _msgSender() */\n      jump\t// in\n    tag_367:\n        /* \"@openzeppelin/contracts/utils/Pausable.sol\":2551:2571  Paused(_msgSender()) */\n      mload(0x40)\n      tag_368\n      swap2\n      swap1\n      tag_58\n      jump\t// in\n    tag_368:\n      mload(0x40)\n      dup1\n      swap2\n      sub\n      swap1\n      log1\n        /* \"@openzeppelin/contracts/utils/Pausable.sol\":2463:2578  function _pause() internal virtual whenNotPaused {... */\n      jump\t// out\n        /* \"@openzeppelin/contracts/token/ERC721/ERC721.sol\":15591:15903  function _setApprovalForAll(address owner, address operator, bool approved) internal virtual {... */\n    tag_307:\n        /* \"@openzeppelin/contracts/token/ERC721/ERC721.sol\":15718:15719  0 */\n      0x00\n        /* \"@openzeppelin/contracts/token/ERC721/ERC721.sol\":15698:15720  operator == address(0) */\n      0xffffffffffffffffffffffffffffffffffffffff\n      and\n        /* \"@openzeppelin/contracts/token/ERC721/ERC721.sol\":15698:15706  operator */\n      dup3\n        /* \"@openzeppelin/contracts/token/ERC721/ERC721.sol\":15698:15720  operator == address(0) */\n      0xffffffffffffffffffffffffffffffffffffffff\n      and\n      sub\n        /* \"@openzeppelin/contracts/token/ERC721/ERC721.sol\":15694:15785  if (operator == address(0)) {... */\n      tag_370\n      jumpi\n        /* \"@openzeppelin/contracts/token/ERC721/ERC721.sol\":15765:15773  operator */\n      dup2\n        /* \"@openzeppelin/contracts/token/ERC721/ERC721.sol\":15743:15774  ERC721InvalidOperator(operator) */\n      mload(0x40)\n      0x5b08ba1800000000000000000000000000000000000000000000000000000000\n      dup2\n      mstore\n      0x04\n      add\n      tag_371\n      swap2\n      swap1\n      tag_58\n      jump\t// in\n    tag_371:\n      mload(0x40)\n      dup1\n      swap2\n      sub\n      swap1\n      revert\n        /* \"@openzeppelin/contracts/token/ERC721/ERC721.sol\":15694:15785  if (operator == address(0)) {... */\n    tag_370:\n        /* \"@openzeppelin/contracts/token/ERC721/ERC721.sol\":15832:15840  approved */\n      dup1\n        /* \"@openzeppelin/contracts/token/ERC721/ERC721.sol\":15794:15812  _operatorApprovals */\n      0x05\n        /* \"@openzeppelin/contracts/token/ERC721/ERC721.sol\":15794:15819  _operatorApprovals[owner] */\n      0x00\n        /* \"@openzeppelin/contracts/token/ERC721/ERC721.sol\":15813:15818  owner */\n      dup6\n        /* \"@openzeppelin/contracts/token/ERC721/ERC721.sol\":15794:15819  _operatorApprovals[owner] */\n      0xffffffffffffffffffffffffffffffffffffffff\n      and\n      0xffffffffffffffffffffffffffffffffffffffff\n      and\n      dup2\n      mstore\n      0x20\n      add\n      swap1\n      dup2\n      mstore\n      0x20\n      add\n      0x00\n      keccak256\n        /* \"@openzeppelin/contracts/token/ERC721/ERC721.sol\":15794:15829  _operatorApprovals[owner][operator] */\n      0x00\n        /* \"@openzeppelin/contracts/token/ERC721/ERC721.sol\":15820:15828  operator */\n      dup5\n        /* \"@openzeppelin/contracts/token/ERC721/ERC721.sol\":15794:15829  _operatorApprovals[owner][operator] */\n      0xffffffffffffffffffffffffffffffffffffffff\n      and\n      0xffffffffffffffffffffffffffffffffffffffff\n      and\n      dup2\n      mstore\n      0x20\n      add\n      swap1\n      dup2\n      mstore\n      0x20\n      add\n      0x00\n      keccak256\n      0x00\n        /* \"@openzeppelin/contracts/token/ERC721/ERC721.sol\":15794:15840  _operatorApprovals[owner][operator] = approved */\n      0x0100\n      exp\n      dup2\n      sload\n      dup2\n      0xff\n      mul\n      not\n      and\n      swap1\n      dup4\n      iszero\n      iszero\n      mul\n      or\n      swap1\n      sstore\n      pop\n        /* \"@openzeppelin/contracts/token/ERC721/ERC721.sol\":15877:15885  operator */\n      dup2\n        /* \"@openzeppelin/contracts/token/ERC721/ERC721.sol\":15855:15896  ApprovalForAll(owner, operator, approved) */\n      0xffffffffffffffffffffffffffffffffffffffff\n      and\n        /* \"@openzeppelin/contracts/token/ERC721/ERC721.sol\":15870:15875  owner */\n      dup4\n        /* \"@openzeppelin/contracts/token/ERC721/ERC721.sol\":15855:15896  ApprovalForAll(owner, operator, approved) */\n      0xffffffffffffffffffffffffffffffffffffffff\n      and\n      0x17307eab39ab6107e8899845ad3d59bd9653f200f220920489ca2b5937696c31\n        /* \"@openzeppelin/contracts/token/ERC721/ERC721.sol\":15887:15895  approved */\n      dup4\n        /* \"@openzeppelin/contracts/token/ERC721/ERC721.sol\":15855:15896  ApprovalForAll(owner, operator, approved) */\n      mload(0x40)\n      tag_372\n      swap2\n      swap1\n      tag_46\n      jump\t// in\n    tag_372:\n      mload(0x40)\n      dup1\n      swap2\n      sub\n      swap1\n      log3\n        /* \"@openzeppelin/contracts/token/ERC721/ERC721.sol\":15591:15903  function _setApprovalForAll(address owner, address operator, bool approved) internal virtual {... */\n      pop\n      pop\n      pop\n      jump\t// out\n        /* \"@openzeppelin/contracts/token/ERC721/ERC721.sol\":16918:17700  function _checkOnERC721Received(address from, address to, uint256 tokenId, bytes memory data) private {... */\n    tag_311:\n        /* \"@openzeppelin/contracts/token/ERC721/ERC721.sol\":17051:17052  0 */\n      0x00\n        /* \"@openzeppelin/contracts/token/ERC721/ERC721.sol\":17034:17036  to */\n      dup4\n        /* \"@openzeppelin/contracts/token/ERC721/ERC721.sol\":17034:17048  to.code.length */\n      0xffffffffffffffffffffffffffffffffffffffff\n      and\n      extcodesize\n        /* \"@openzeppelin/contracts/token/ERC721/ERC721.sol\":17034:17052  to.code.length > 0 */\n      gt\n        /* \"@openzeppelin/contracts/token/ERC721/ERC721.sol\":17030:17694  if (to.code.length > 0) {... */\n      iszero\n      tag_374\n      jumpi\n        /* \"@openzeppelin/contracts/token/ERC721/ERC721.sol\":17088:17090  to */\n      dup3\n        /* \"@openzeppelin/contracts/token/ERC721/ERC721.sol\":17072:17108  IERC721Receiver(to).onERC721Received */\n      0xffffffffffffffffffffffffffffffffffffffff\n      and\n      0x150b7a02\n        /* \"@openzeppelin/contracts/token/ERC721/ERC721.sol\":17109:17121  _msgSender() */\n      tag_375\n        /* \"@openzeppelin/contracts/token/ERC721/ERC721.sol\":17109:17119  _msgSender */\n      tag_198\n        /* \"@openzeppelin/contracts/token/ERC721/ERC721.sol\":17109:17121  _msgSender() */\n      jump\t// in\n    tag_375:\n        /* \"@openzeppelin/contracts/token/ERC721/ERC721.sol\":17123:17127  from */\n      dup7\n        /* \"@openzeppelin/contracts/token/ERC721/ERC721.sol\":17129:17136  tokenId */\n      dup6\n        /* \"@openzeppelin/contracts/token/ERC721/ERC721.sol\":17138:17142  data */\n      dup6\n        /* \"@openzeppelin/contracts/token/ERC721/ERC721.sol\":17072:17143  IERC721Receiver(to).onERC721Received(_msgSender(), from, tokenId, data) */\n      mload(0x40)\n      dup6\n      0xffffffff\n      and\n      0xe0\n      shl\n      dup2\n      mstore\n      0x04\n      add\n      tag_376\n      swap5\n      swap4\n      swap3\n      swap2\n      swap1\n      tag_377\n      jump\t// in\n    tag_376:\n      0x20\n      mload(0x40)\n      dup1\n      dup4\n      sub\n      dup2\n      0x00\n      dup8\n      gas\n      call\n      swap3\n      pop\n      pop\n      pop\n      dup1\n      iszero\n      tag_378\n      jumpi\n      pop\n      mload(0x40)\n      returndatasize\n      not(0x1f)\n      0x1f\n      dup3\n      add\n      and\n      dup3\n      add\n      dup1\n      0x40\n      mstore\n      pop\n      dup2\n      add\n      swap1\n      tag_379\n      swap2\n      swap1\n      tag_380\n      jump\t// in\n    tag_379:\n      0x01\n    tag_378:\n        /* \"@openzeppelin/contracts/token/ERC721/ERC721.sol\":17068:17684  try IERC721Receiver(to).onERC721Received(_msgSender(), from, tokenId, data) returns (bytes4 retval) {... */\n      tag_381\n      jumpi\n      returndatasize\n      dup1\n      0x00\n      dup2\n      eq\n      tag_386\n      jumpi\n      mload(0x40)\n      swap2\n      pop\n      and(add(returndatasize, 0x3f), not(0x1f))\n      dup3\n      add\n      0x40\n      mstore\n      returndatasize\n      dup3\n      mstore\n      returndatasize\n      0x00\n      0x20\n      dup5\n      add\n      returndatacopy\n      jump(tag_385)\n    tag_386:\n      0x60\n      swap2\n      pop\n    tag_385:\n      pop\n        /* \"@openzeppelin/contracts/token/ERC721/ERC721.sol\":17398:17399  0 */\n      0x00\n        /* \"@openzeppelin/contracts/token/ERC721/ERC721.sol\":17381:17387  reason */\n      dup2\n        /* \"@openzeppelin/contracts/token/ERC721/ERC721.sol\":17381:17394  reason.length */\n      mload\n        /* \"@openzeppelin/contracts/token/ERC721/ERC721.sol\":17381:17399  reason.length == 0 */\n      sub\n        /* \"@openzeppelin/contracts/token/ERC721/ERC721.sol\":17377:17670  if (reason.length == 0) {... */\n      tag_387\n      jumpi\n        /* \"@openzeppelin/contracts/token/ERC721/ERC721.sol\":17452:17454  to */\n      dup4\n        /* \"@openzeppelin/contracts/token/ERC721/ERC721.sol\":17430:17455  ERC721InvalidReceiver(to) */\n      mload(0x40)\n      0x64a0ae9200000000000000000000000000000000000000000000000000000000\n      dup2\n      mstore\n      0x04\n      add\n      tag_388\n      swap2\n      swap1\n      tag_58\n      jump\t// in\n    tag_388:\n      mload(0x40)\n      dup1\n      swap2\n      sub\n      swap1\n      revert\n        /* \"@openzeppelin/contracts/token/ERC721/ERC721.sol\":17377:17670  if (reason.length == 0) {... */\n    tag_387:\n        /* \"@openzeppelin/contracts/token/ERC721/ERC721.sol\":17622:17628  reason */\n      dup1\n        /* \"@openzeppelin/contracts/token/ERC721/ERC721.sol\":17616:17629  mload(reason) */\n      mload\n        /* \"@openzeppelin/contracts/token/ERC721/ERC721.sol\":17607:17613  reason */\n      dup2\n        /* \"@openzeppelin/contracts/token/ERC721/ERC721.sol\":17603:17605  32 */\n      0x20\n        /* \"@openzeppelin/contracts/token/ERC721/ERC721.sol\":17599:17614  add(32, reason) */\n      add\n        /* \"@openzeppelin/contracts/token/ERC721/ERC721.sol\":17592:17630  revert(add(32, reason), mload(reason)) */\n      revert\n        /* \"@openzeppelin/contracts/token/ERC721/ERC721.sol\":17068:17684  try IERC721Receiver(to).onERC721Received(_msgSender(), from, tokenId, data) returns (bytes4 retval) {... */\n    tag_381:\n        /* \"@openzeppelin/contracts/token/ERC721/ERC721.sol\":17200:17241  IERC721Receiver.onERC721Received.selector */\n      shl(0xe0, 0x150b7a02)\n        /* \"@openzeppelin/contracts/token/ERC721/ERC721.sol\":17190:17241  retval != IERC721Receiver.onERC721Received.selector */\n      not(0xffffffffffffffffffffffffffffffffffffffffffffffffffffffff)\n      and\n        /* \"@openzeppelin/contracts/token/ERC721/ERC721.sol\":17190:17196  retval */\n      dup2\n        /* \"@openzeppelin/contracts/token/ERC721/ERC721.sol\":17190:17241  retval != IERC721Receiver.onERC721Received.selector */\n      not(0xffffffffffffffffffffffffffffffffffffffffffffffffffffffff)\n      and\n      eq\n        /* \"@openzeppelin/contracts/token/ERC721/ERC721.sol\":17186:17316  if (retval != IERC721Receiver.onERC721Received.selector) {... */\n      tag_391\n      jumpi\n        /* \"@openzeppelin/contracts/token/ERC721/ERC721.sol\":17294:17296  to */\n      dup4\n        /* \"@openzeppelin/contracts/token/ERC721/ERC721.sol\":17272:17297  ERC721InvalidReceiver(to) */\n      mload(0x40)\n      0x64a0ae9200000000000000000000000000000000000000000000000000000000\n      dup2\n      mstore\n      0x04\n      add\n      tag_392\n      swap2\n      swap1\n      tag_58\n      jump\t// in\n    tag_392:\n      mload(0x40)\n      dup1\n      swap2\n      sub\n      swap1\n      revert\n        /* \"@openzeppelin/contracts/token/ERC721/ERC721.sol\":17186:17316  if (retval != IERC721Receiver.onERC721Received.selector) {... */\n    tag_391:\n        /* \"@openzeppelin/contracts/token/ERC721/ERC721.sol\":17144:17330  returns (bytes4 retval) {... */\n      pop\n        /* \"@openzeppelin/contracts/token/ERC721/ERC721.sol\":17030:17694  if (to.code.length > 0) {... */\n    tag_374:\n        /* \"@openzeppelin/contracts/token/ERC721/ERC721.sol\":16918:17700  function _checkOnERC721Received(address from, address to, uint256 tokenId, bytes memory data) private {... */\n      pop\n      pop\n      pop\n      pop\n      jump\t// out\n        /* \"ERC721/ERC721SC1.sol\":902:1129  function _baseURI() internal pure override returns (string memory) {... */\n    tag_315:\n        /* \"ERC721/ERC721SC1.sol\":954:967  string memory */\n      0x60\n        /* \"ERC721/ERC721SC1.sol\":1057:1121  return  \"ipfs://QmSXRv4vUeTEp4Q3EhNbpmXU9BCC5WzyY3fZrKgwyvwSgK/\" */\n      mload(0x40)\n      dup1\n      0x60\n      add\n      0x40\n      mstore\n      dup1\n      0x36\n      dup2\n      mstore\n      0x20\n      add\n      data_cf3574ea871133b8ec35d61af3c32371591a3cdd37f22d04ef3c0016b5aaecb9\n      0x36\n      swap2\n      codecopy\n      swap1\n      pop\n        /* \"ERC721/ERC721SC1.sol\":902:1129  function _baseURI() internal pure override returns (string memory) {... */\n      swap1\n      jump\t// out\n        /* \"@openzeppelin/contracts/utils/Strings.sol\":637:1335  function toString(uint256 value) internal pure returns (string memory) {... */\n    tag_319:\n        /* \"@openzeppelin/contracts/utils/Strings.sol\":693:706  string memory */\n      0x60\n        /* \"@openzeppelin/contracts/utils/Strings.sol\":742:756  uint256 length */\n      0x00\n        /* \"@openzeppelin/contracts/utils/Strings.sol\":779:780  1 */\n      0x01\n        /* \"@openzeppelin/contracts/utils/Strings.sol\":759:776  Math.log10(value) */\n      tag_395\n        /* \"@openzeppelin/contracts/utils/Strings.sol\":770:775  value */\n      dup5\n        /* \"@openzeppelin/contracts/utils/Strings.sol\":759:769  Math.log10 */\n      tag_396\n        /* \"@openzeppelin/contracts/utils/Strings.sol\":759:776  Math.log10(value) */\n      jump\t// in\n    tag_395:\n        /* \"@openzeppelin/contracts/utils/Strings.sol\":759:780  Math.log10(value) + 1 */\n      add\n        /* \"@openzeppelin/contracts/utils/Strings.sol\":742:780  uint256 length = Math.log10(value) + 1 */\n      swap1\n      pop\n        /* \"@openzeppelin/contracts/utils/Strings.sol\":794:814  string memory buffer */\n      0x00\n        /* \"@openzeppelin/contracts/utils/Strings.sol\":828:834  length */\n      dup2\n        /* \"@openzeppelin/contracts/utils/Strings.sol\":817:835  new string(length) */\n      0xffffffffffffffff\n      dup2\n      gt\n      iszero\n      tag_397\n      jumpi\n      tag_398\n      tag_399\n      jump\t// in\n    tag_398:\n    tag_397:\n      mload(0x40)\n      swap1\n      dup1\n      dup3\n      mstore\n      dup1\n      0x1f\n      add\n      not(0x1f)\n      and\n      0x20\n      add\n      dup3\n      add\n      0x40\n      mstore\n      dup1\n      iszero\n      tag_400\n      jumpi\n      dup2\n      0x20\n      add\n      0x01\n      dup3\n      mul\n      dup1\n      calldatasize\n      dup4\n      calldatacopy\n      dup1\n      dup3\n      add\n      swap2\n      pop\n      pop\n      swap1\n      pop\n    tag_400:\n      pop\n        /* \"@openzeppelin/contracts/utils/Strings.sol\":794:835  string memory buffer = new string(length) */\n      swap1\n      pop\n        /* \"@openzeppelin/contracts/utils/Strings.sol\":849:860  uint256 ptr */\n      0x00\n        /* \"@openzeppelin/contracts/utils/Strings.sol\":975:981  length */\n      dup3\n        /* \"@openzeppelin/contracts/utils/Strings.sol\":971:973  32 */\n      0x20\n        /* \"@openzeppelin/contracts/utils/Strings.sol\":967:982  add(32, length) */\n      add\n        /* \"@openzeppelin/contracts/utils/Strings.sol\":959:965  buffer */\n      dup3\n        /* \"@openzeppelin/contracts/utils/Strings.sol\":955:983  add(buffer, add(32, length)) */\n      add\n        /* \"@openzeppelin/contracts/utils/Strings.sol\":948:983  ptr := add(buffer, add(32, length)) */\n      swap1\n      pop\n        /* \"@openzeppelin/contracts/utils/Strings.sol\":1010:1292  while (true) {... */\n    tag_401:\n        /* \"@openzeppelin/contracts/utils/Strings.sol\":1017:1021  true */\n      0x01\n        /* \"@openzeppelin/contracts/utils/Strings.sol\":1010:1292  while (true) {... */\n      iszero\n      tag_402\n      jumpi\n        /* \"@openzeppelin/contracts/utils/Strings.sol\":1041:1046  ptr-- */\n      dup1\n      dup1\n      0x01\n      swap1\n      sub\n      swap2\n      pop\n      pop\n        /* \"@openzeppelin/contracts/utils/Strings.sol\":1180:1190  HEX_DIGITS */\n      0x3031323334353637383961626364656600000000000000000000000000000000\n        /* \"@openzeppelin/contracts/utils/Strings.sol\":1175:1177  10 */\n      0x0a\n        /* \"@openzeppelin/contracts/utils/Strings.sol\":1168:1173  value */\n      dup7\n        /* \"@openzeppelin/contracts/utils/Strings.sol\":1164:1178  mod(value, 10) */\n      mod\n        /* \"@openzeppelin/contracts/utils/Strings.sol\":1159:1191  byte(mod(value, 10), HEX_DIGITS) */\n      byte\n        /* \"@openzeppelin/contracts/utils/Strings.sol\":1154:1157  ptr */\n      dup2\n        /* \"@openzeppelin/contracts/utils/Strings.sol\":1146:1192  mstore8(ptr, byte(mod(value, 10), HEX_DIGITS)) */\n      mstore8\n        /* \"@openzeppelin/contracts/utils/Strings.sol\":1236:1238  10 */\n      0x0a\n        /* \"@openzeppelin/contracts/utils/Strings.sol\":1227:1238  value /= 10 */\n      dup6\n      dup2\n      tag_403\n      jumpi\n      tag_404\n      tag_405\n      jump\t// in\n    tag_404:\n    tag_403:\n      div\n      swap5\n      pop\n        /* \"@openzeppelin/contracts/utils/Strings.sol\":1269:1270  0 */\n      0x00\n        /* \"@openzeppelin/contracts/utils/Strings.sol\":1260:1265  value */\n      dup6\n        /* \"@openzeppelin/contracts/utils/Strings.sol\":1260:1270  value == 0 */\n      sub\n        /* \"@openzeppelin/contracts/utils/Strings.sol\":1010:1292  while (true) {... */\n      tag_401\n        /* \"@openzeppelin/contracts/utils/Strings.sol\":1256:1277  if (value == 0) break */\n      jumpi\n        /* \"@openzeppelin/contracts/utils/Strings.sol\":1010:1292  while (true) {... */\n    tag_402:\n        /* \"@openzeppelin/contracts/utils/Strings.sol\":1312:1318  buffer */\n      dup2\n        /* \"@openzeppelin/contracts/utils/Strings.sol\":1305:1318  return buffer */\n      swap4\n      pop\n      pop\n      pop\n      pop\n        /* \"@openzeppelin/contracts/utils/Strings.sol\":637:1335  function toString(uint256 value) internal pure returns (string memory) {... */\n      swap2\n      swap1\n      pop\n      jump\t// out\n        /* \"@openzeppelin/contracts/token/ERC721/ERC721.sol\":1561:1861  function supportsInterface(bytes4 interfaceId) public view virtual override(ERC165, IERC165) returns (bool) {... */\n    tag_332:\n        /* \"@openzeppelin/contracts/token/ERC721/ERC721.sol\":1663:1667  bool */\n      0x00\n        /* \"@openzeppelin/contracts/token/ERC721/ERC721.sol\":1713:1738  type(IERC721).interfaceId */\n      0x80ac58cd00000000000000000000000000000000000000000000000000000000\n        /* \"@openzeppelin/contracts/token/ERC721/ERC721.sol\":1698:1738  interfaceId == type(IERC721).interfaceId */\n      not(0xffffffffffffffffffffffffffffffffffffffffffffffffffffffff)\n      and\n        /* \"@openzeppelin/contracts/token/ERC721/ERC721.sol\":1698:1709  interfaceId */\n      dup3\n        /* \"@openzeppelin/contracts/token/ERC721/ERC721.sol\":1698:1738  interfaceId == type(IERC721).interfaceId */\n      not(0xffffffffffffffffffffffffffffffffffffffffffffffffffffffff)\n      and\n      eq\n        /* \"@openzeppelin/contracts/token/ERC721/ERC721.sol\":1698:1802  interfaceId == type(IERC721).interfaceId ||... */\n      dup1\n      tag_408\n      jumpi\n      pop\n        /* \"@openzeppelin/contracts/token/ERC721/ERC721.sol\":1769:1802  type(IERC721Metadata).interfaceId */\n      0x5b5e139f00000000000000000000000000000000000000000000000000000000\n        /* \"@openzeppelin/contracts/token/ERC721/ERC721.sol\":1754:1802  interfaceId == type(IERC721Metadata).interfaceId */\n      not(0xffffffffffffffffffffffffffffffffffffffffffffffffffffffff)\n      and\n        /* \"@openzeppelin/contracts/token/ERC721/ERC721.sol\":1754:1765  interfaceId */\n      dup3\n        /* \"@openzeppelin/contracts/token/ERC721/ERC721.sol\":1754:1802  interfaceId == type(IERC721Metadata).interfaceId */\n      not(0xffffffffffffffffffffffffffffffffffffffffffffffffffffffff)\n      and\n      eq\n        /* \"@openzeppelin/contracts/token/ERC721/ERC721.sol\":1698:1802  interfaceId == type(IERC721).interfaceId ||... */\n    tag_408:\n        /* \"@openzeppelin/contracts/token/ERC721/ERC721.sol\":1698:1854  interfaceId == type(IERC721).interfaceId ||... */\n      dup1\n      tag_409\n      jumpi\n      pop\n        /* \"@openzeppelin/contracts/token/ERC721/ERC721.sol\":1818:1854  super.supportsInterface(interfaceId) */\n      tag_410\n        /* \"@openzeppelin/contracts/token/ERC721/ERC721.sol\":1842:1853  interfaceId */\n      dup3\n        /* \"@openzeppelin/contracts/token/ERC721/ERC721.sol\":1818:1841  super.supportsInterface */\n      tag_411\n        /* \"@openzeppelin/contracts/token/ERC721/ERC721.sol\":1818:1854  super.supportsInterface(interfaceId) */\n      jump\t// in\n    tag_410:\n        /* \"@openzeppelin/contracts/token/ERC721/ERC721.sol\":1698:1854  interfaceId == type(IERC721).interfaceId ||... */\n    tag_409:\n        /* \"@openzeppelin/contracts/token/ERC721/ERC721.sol\":1679:1854  return... */\n      swap1\n      pop\n        /* \"@openzeppelin/contracts/token/ERC721/ERC721.sol\":1561:1861  function supportsInterface(bytes4 interfaceId) public view virtual override(ERC165, IERC165) returns (bool) {... */\n      swap2\n      swap1\n      pop\n      jump\t// out\n        /* \"@openzeppelin/contracts/token/ERC721/ERC721.sol\":5707:5822  function _ownerOf(uint256 tokenId) internal view virtual returns (address) {... */\n    tag_335:\n        /* \"@openzeppelin/contracts/token/ERC721/ERC721.sol\":5773:5780  address */\n      0x00\n        /* \"@openzeppelin/contracts/token/ERC721/ERC721.sol\":5799:5806  _owners */\n      0x02\n        /* \"@openzeppelin/contracts/token/ERC721/ERC721.sol\":5799:5815  _owners[tokenId] */\n      0x00\n        /* \"@openzeppelin/contracts/token/ERC721/ERC721.sol\":5807:5814  tokenId */\n      dup4\n        /* \"@openzeppelin/contracts/token/ERC721/ERC721.sol\":5799:5815  _owners[tokenId] */\n      dup2\n      mstore\n      0x20\n      add\n      swap1\n      dup2\n      mstore\n      0x20\n      add\n      0x00\n      keccak256\n      0x00\n      swap1\n      sload\n      swap1\n      0x0100\n      exp\n      swap1\n      div\n      0xffffffffffffffffffffffffffffffffffffffff\n      and\n        /* \"@openzeppelin/contracts/token/ERC721/ERC721.sol\":5792:5815  return _owners[tokenId] */\n      swap1\n      pop\n        /* \"@openzeppelin/contracts/token/ERC721/ERC721.sol\":5707:5822  function _ownerOf(uint256 tokenId) internal view virtual returns (address) {... */\n      swap2\n      swap1\n      pop\n      jump\t// out\n        /* \"@openzeppelin/contracts/token/ERC721/ERC721.sol\":14720:15382  function _approve(address to, uint256 tokenId, address auth, bool emitEvent) internal virtual {... */\n    tag_342:\n        /* \"@openzeppelin/contracts/token/ERC721/ERC721.sol\":14880:14889  emitEvent */\n      dup1\n        /* \"@openzeppelin/contracts/token/ERC721/ERC721.sol\":14880:14911  emitEvent || auth != address(0) */\n      dup1\n      tag_414\n      jumpi\n      pop\n        /* \"@openzeppelin/contracts/token/ERC721/ERC721.sol\":14909:14910  0 */\n      0x00\n        /* \"@openzeppelin/contracts/token/ERC721/ERC721.sol\":14893:14911  auth != address(0) */\n      0xffffffffffffffffffffffffffffffffffffffff\n      and\n        /* \"@openzeppelin/contracts/token/ERC721/ERC721.sol\":14893:14897  auth */\n      dup3\n        /* \"@openzeppelin/contracts/token/ERC721/ERC721.sol\":14893:14911  auth != address(0) */\n      0xffffffffffffffffffffffffffffffffffffffff\n      and\n      eq\n      iszero\n        /* \"@openzeppelin/contracts/token/ERC721/ERC721.sol\":14880:14911  emitEvent || auth != address(0) */\n    tag_414:\n        /* \"@openzeppelin/contracts/token/ERC721/ERC721.sol\":14876:15336  if (emitEvent || auth != address(0)) {... */\n      iszero\n      tag_415\n      jumpi\n        /* \"@openzeppelin/contracts/token/ERC721/ERC721.sol\":14927:14940  address owner */\n      0x00\n        /* \"@openzeppelin/contracts/token/ERC721/ERC721.sol\":14943:14965  _requireOwned(tokenId) */\n      tag_416\n        /* \"@openzeppelin/contracts/token/ERC721/ERC721.sol\":14957:14964  tokenId */\n      dup5\n        /* \"@openzeppelin/contracts/token/ERC721/ERC721.sol\":14943:14956  _requireOwned */\n      tag_192\n        /* \"@openzeppelin/contracts/token/ERC721/ERC721.sol\":14943:14965  _requireOwned(tokenId) */\n      jump\t// in\n    tag_416:\n        /* \"@openzeppelin/contracts/token/ERC721/ERC721.sol\":14927:14965  address owner = _requireOwned(tokenId) */\n      swap1\n      pop\n        /* \"@openzeppelin/contracts/token/ERC721/ERC721.sol\":15109:15110  0 */\n      0x00\n        /* \"@openzeppelin/contracts/token/ERC721/ERC721.sol\":15093:15111  auth != address(0) */\n      0xffffffffffffffffffffffffffffffffffffffff\n      and\n        /* \"@openzeppelin/contracts/token/ERC721/ERC721.sol\":15093:15097  auth */\n      dup4\n        /* \"@openzeppelin/contracts/token/ERC721/ERC721.sol\":15093:15111  auth != address(0) */\n      0xffffffffffffffffffffffffffffffffffffffff\n      and\n      eq\n      iszero\n        /* \"@openzeppelin/contracts/token/ERC721/ERC721.sol\":15093:15128  auth != address(0) && owner != auth */\n      dup1\n      iszero\n      tag_417\n      jumpi\n      pop\n        /* \"@openzeppelin/contracts/token/ERC721/ERC721.sol\":15124:15128  auth */\n      dup3\n        /* \"@openzeppelin/contracts/token/ERC721/ERC721.sol\":15115:15128  owner != auth */\n      0xffffffffffffffffffffffffffffffffffffffff\n      and\n        /* \"@openzeppelin/contracts/token/ERC721/ERC721.sol\":15115:15120  owner */\n      dup2\n        /* \"@openzeppelin/contracts/token/ERC721/ERC721.sol\":15115:15128  owner != auth */\n      0xffffffffffffffffffffffffffffffffffffffff\n      and\n      eq\n      iszero\n        /* \"@openzeppelin/contracts/token/ERC721/ERC721.sol\":15093:15128  auth != address(0) && owner != auth */\n    tag_417:\n        /* \"@openzeppelin/contracts/token/ERC721/ERC721.sol\":15093:15162  auth != address(0) && owner != auth && !isApprovedForAll(owner, auth) */\n      dup1\n      iszero\n      tag_418\n      jumpi\n      pop\n        /* \"@openzeppelin/contracts/token/ERC721/ERC721.sol\":15133:15162  isApprovedForAll(owner, auth) */\n      tag_419\n        /* \"@openzeppelin/contracts/token/ERC721/ERC721.sol\":15150:15155  owner */\n      dup2\n        /* \"@openzeppelin/contracts/token/ERC721/ERC721.sol\":15157:15161  auth */\n      dup5\n        /* \"@openzeppelin/contracts/token/ERC721/ERC721.sol\":15133:15149  isApprovedForAll */\n      tag_174\n        /* \"@openzeppelin/contracts/token/ERC721/ERC721.sol\":15133:15162  isApprovedForAll(owner, auth) */\n      jump\t// in\n    tag_419:\n        /* \"@openzeppelin/contracts/token/ERC721/ERC721.sol\":15132:15162  !isApprovedForAll(owner, auth) */\n      iszero\n        /* \"@openzeppelin/contracts/token/ERC721/ERC721.sol\":15093:15162  auth != address(0) && owner != auth && !isApprovedForAll(owner, auth) */\n    tag_418:\n        /* \"@openzeppelin/contracts/token/ERC721/ERC721.sol\":15089:15231  if (auth != address(0) && owner != auth && !isApprovedForAll(owner, auth)) {... */\n      iszero\n      tag_420\n      jumpi\n        /* \"@openzeppelin/contracts/token/ERC721/ERC721.sol\":15211:15215  auth */\n      dup3\n        /* \"@openzeppelin/contracts/token/ERC721/ERC721.sol\":15189:15216  ERC721InvalidApprover(auth) */\n      mload(0x40)\n      0xa9fbf51f00000000000000000000000000000000000000000000000000000000\n      dup2\n      mstore\n      0x04\n      add\n      tag_421\n      swap2\n      swap1\n      tag_58\n      jump\t// in\n    tag_421:\n      mload(0x40)\n      dup1\n      swap2\n      sub\n      swap1\n      revert\n        /* \"@openzeppelin/contracts/token/ERC721/ERC721.sol\":15089:15231  if (auth != address(0) && owner != auth && !isApprovedForAll(owner, auth)) {... */\n    tag_420:\n        /* \"@openzeppelin/contracts/token/ERC721/ERC721.sol\":15249:15258  emitEvent */\n      dup2\n        /* \"@openzeppelin/contracts/token/ERC721/ERC721.sol\":15245:15326  if (emitEvent) {... */\n      iszero\n      tag_422\n      jumpi\n        /* \"@openzeppelin/contracts/token/ERC721/ERC721.sol\":15303:15310  tokenId */\n      dup4\n        /* \"@openzeppelin/contracts/token/ERC721/ERC721.sol\":15299:15301  to */\n      dup6\n        /* \"@openzeppelin/contracts/token/ERC721/ERC721.sol\":15283:15311  Approval(owner, to, tokenId) */\n      0xffffffffffffffffffffffffffffffffffffffff\n      and\n        /* \"@openzeppelin/contracts/token/ERC721/ERC721.sol\":15292:15297  owner */\n      dup3\n        /* \"@openzeppelin/contracts/token/ERC721/ERC721.sol\":15283:15311  Approval(owner, to, tokenId) */\n      0xffffffffffffffffffffffffffffffffffffffff\n      and\n      0x8c5be1e5ebec7d5bd14f71427d1e84f3dd0314c0f7b2291e5b200ac8c7c3b925\n      mload(0x40)\n      mload(0x40)\n      dup1\n      swap2\n      sub\n      swap1\n      log4\n        /* \"@openzeppelin/contracts/token/ERC721/ERC721.sol\":15245:15326  if (emitEvent) {... */\n    tag_422:\n        /* \"@openzeppelin/contracts/token/ERC721/ERC721.sol\":14913:15336  {... */\n      pop\n        /* \"@openzeppelin/contracts/token/ERC721/ERC721.sol\":14876:15336  if (emitEvent || auth != address(0)) {... */\n    tag_415:\n        /* \"@openzeppelin/contracts/token/ERC721/ERC721.sol\":15373:15375  to */\n      dup4\n        /* \"@openzeppelin/contracts/token/ERC721/ERC721.sol\":15346:15361  _tokenApprovals */\n      0x04\n        /* \"@openzeppelin/contracts/token/ERC721/ERC721.sol\":15346:15370  _tokenApprovals[tokenId] */\n      0x00\n        /* \"@openzeppelin/contracts/token/ERC721/ERC721.sol\":15362:15369  tokenId */\n      dup6\n        /* \"@openzeppelin/contracts/token/ERC721/ERC721.sol\":15346:15370  _tokenApprovals[tokenId] */\n      dup2\n      mstore\n      0x20\n      add\n      swap1\n      dup2\n      mstore\n      0x20\n      add\n      0x00\n      keccak256\n      0x00\n        /* \"@openzeppelin/contracts/token/ERC721/ERC721.sol\":15346:15375  _tokenApprovals[tokenId] = to */\n      0x0100\n      exp\n      dup2\n      sload\n      dup2\n      0xffffffffffffffffffffffffffffffffffffffff\n      mul\n      not\n      and\n      swap1\n      dup4\n      0xffffffffffffffffffffffffffffffffffffffff\n      and\n      mul\n      or\n      swap1\n      sstore\n      pop\n        /* \"@openzeppelin/contracts/token/ERC721/ERC721.sol\":14720:15382  function _approve(address to, uint256 tokenId, address auth, bool emitEvent) internal virtual {... */\n      pop\n      pop\n      pop\n      pop\n      jump\t// out\n        /* \"@openzeppelin/contracts/token/ERC721/ERC721.sol\":10633:10733  function _safeMint(address to, uint256 tokenId) internal {... */\n    tag_346:\n        /* \"@openzeppelin/contracts/token/ERC721/ERC721.sol\":10700:10726  _safeMint(to, tokenId, \"\") */\n      tag_424\n        /* \"@openzeppelin/contracts/token/ERC721/ERC721.sol\":10710:10712  to */\n      dup3\n        /* \"@openzeppelin/contracts/token/ERC721/ERC721.sol\":10714:10721  tokenId */\n      dup3\n        /* \"@openzeppelin/contracts/token/ERC721/ERC721.sol\":10700:10726  _safeMint(to, tokenId, \"\") */\n      mload(0x40)\n      dup1\n      0x20\n      add\n      0x40\n      mstore\n      dup1\n      0x00\n      dup2\n      mstore\n      pop\n        /* \"@openzeppelin/contracts/token/ERC721/ERC721.sol\":10700:10709  _safeMint */\n      tag_425\n        /* \"@openzeppelin/contracts/token/ERC721/ERC721.sol\":10700:10726  _safeMint(to, tokenId, \"\") */\n      jump\t// in\n    tag_424:\n        /* \"@openzeppelin/contracts/token/ERC721/ERC721.sol\":10633:10733  function _safeMint(address to, uint256 tokenId) internal {... */\n      pop\n      pop\n      jump\t// out\n        /* \"@openzeppelin/contracts/token/ERC721/extensions/ERC721Pausable.sol\":1120:1324  function _update(... */\n    tag_349:\n        /* \"@openzeppelin/contracts/token/ERC721/extensions/ERC721Pausable.sol\":1259:1266  address */\n      0x00\n        /* \"@openzeppelin/contracts/utils/Pausable.sol\":1474:1493  _requireNotPaused() */\n      tag_427\n        /* \"@openzeppelin/contracts/utils/Pausable.sol\":1474:1491  _requireNotPaused */\n      tag_365\n        /* \"@openzeppelin/contracts/utils/Pausable.sol\":1474:1493  _requireNotPaused() */\n      jump\t// in\n    tag_427:\n        /* \"@openzeppelin/contracts/token/ERC721/extensions/ERC721Pausable.sol\":1285:1317  super._update(to, tokenId, auth) */\n      tag_429\n        /* \"@openzeppelin/contracts/token/ERC721/extensions/ERC721Pausable.sol\":1299:1301  to */\n      dup5\n        /* \"@openzeppelin/contracts/token/ERC721/extensions/ERC721Pausable.sol\":1303:1310  tokenId */\n      dup5\n        /* \"@openzeppelin/contracts/token/ERC721/extensions/ERC721Pausable.sol\":1312:1316  auth */\n      dup5\n        /* \"@openzeppelin/contracts/token/ERC721/extensions/ERC721Pausable.sol\":1285:1298  super._update */\n      tag_430\n        /* \"@openzeppelin/contracts/token/ERC721/extensions/ERC721Pausable.sol\":1285:1317  super._update(to, tokenId, auth) */\n      jump\t// in\n    tag_429:\n        /* \"@openzeppelin/contracts/token/ERC721/extensions/ERC721Pausable.sol\":1278:1317  return super._update(to, tokenId, auth) */\n      swap1\n      pop\n        /* \"@openzeppelin/contracts/token/ERC721/extensions/ERC721Pausable.sol\":1120:1324  function _update(... */\n      swap4\n      swap3\n      pop\n      pop\n      pop\n      jump\t// out\n        /* \"@openzeppelin/contracts/utils/Pausable.sol\":2202:2328  function _requirePaused() internal view virtual {... */\n    tag_358:\n        /* \"@openzeppelin/contracts/utils/Pausable.sol\":2265:2273  paused() */\n      tag_432\n        /* \"@openzeppelin/contracts/utils/Pausable.sol\":2265:2271  paused */\n      tag_117\n        /* \"@openzeppelin/contracts/utils/Pausable.sol\":2265:2273  paused() */\n      jump\t// in\n    tag_432:\n        /* \"@openzeppelin/contracts/utils/Pausable.sol\":2260:2322  if (!paused()) {... */\n      tag_433\n      jumpi\n        /* \"@openzeppelin/contracts/utils/Pausable.sol\":2296:2311  ExpectedPause() */\n      mload(0x40)\n      0x8dfc202b00000000000000000000000000000000000000000000000000000000\n      dup2\n      mstore\n      0x04\n      add\n      mload(0x40)\n      dup1\n      swap2\n      sub\n      swap1\n      revert\n        /* \"@openzeppelin/contracts/utils/Pausable.sol\":2260:2322  if (!paused()) {... */\n    tag_433:\n        /* \"@openzeppelin/contracts/utils/Pausable.sol\":2202:2328  function _requirePaused() internal view virtual {... */\n      jump\t// out\n        /* \"@openzeppelin/contracts/utils/Pausable.sol\":2002:2130  function _requireNotPaused() internal view virtual {... */\n    tag_365:\n        /* \"@openzeppelin/contracts/utils/Pausable.sol\":2067:2075  paused() */\n      tag_435\n        /* \"@openzeppelin/contracts/utils/Pausable.sol\":2067:2073  paused */\n      tag_117\n        /* \"@openzeppelin/contracts/utils/Pausable.sol\":2067:2075  paused() */\n      jump\t// in\n    tag_435:\n        /* \"@openzeppelin/contracts/utils/Pausable.sol\":2063:2124  if (paused()) {... */\n      iszero\n      tag_436\n      jumpi\n        /* \"@openzeppelin/contracts/utils/Pausable.sol\":2098:2113  EnforcedPause() */\n      mload(0x40)\n      0xd93c066500000000000000000000000000000000000000000000000000000000\n      dup2\n      mstore\n      0x04\n      add\n      mload(0x40)\n      dup1\n      swap2\n      sub\n      swap1\n      revert\n        /* \"@openzeppelin/contracts/utils/Pausable.sol\":2063:2124  if (paused()) {... */\n    tag_436:\n        /* \"@openzeppelin/contracts/utils/Pausable.sol\":2002:2130  function _requireNotPaused() internal view virtual {... */\n      jump\t// out\n        /* \"@openzeppelin/contracts/utils/math/Math.sol\":12214:13130  function log10(uint256 value) internal pure returns (uint256) {... */\n    tag_396:\n        /* \"@openzeppelin/contracts/utils/math/Math.sol\":12267:12274  uint256 */\n      0x00\n        /* \"@openzeppelin/contracts/utils/math/Math.sol\":12286:12300  uint256 result */\n      dup1\n        /* \"@openzeppelin/contracts/utils/math/Math.sol\":12303:12304  0 */\n      0x00\n        /* \"@openzeppelin/contracts/utils/math/Math.sol\":12286:12304  uint256 result = 0 */\n      swap1\n      pop\n        /* \"@openzeppelin/contracts/utils/math/Math.sol\":12351:12359  10 ** 64 */\n      0x184f03e93ff9f4daa797ed6e38ed64bf6a1f010000000000000000\n        /* \"@openzeppelin/contracts/utils/math/Math.sol\":12342:12347  value */\n      dup4\n        /* \"@openzeppelin/contracts/utils/math/Math.sol\":12342:12359  value >= 10 ** 64 */\n      lt\n        /* \"@openzeppelin/contracts/utils/math/Math.sol\":12338:12441  if (value >= 10 ** 64) {... */\n      tag_438\n      jumpi\n        /* \"@openzeppelin/contracts/utils/math/Math.sol\":12388:12396  10 ** 64 */\n      0x184f03e93ff9f4daa797ed6e38ed64bf6a1f010000000000000000\n        /* \"@openzeppelin/contracts/utils/math/Math.sol\":12379:12396  value /= 10 ** 64 */\n      dup4\n      dup2\n      tag_439\n      jumpi\n      tag_440\n      tag_405\n      jump\t// in\n    tag_440:\n    tag_439:\n      div\n      swap3\n      pop\n        /* \"@openzeppelin/contracts/utils/math/Math.sol\":12424:12426  64 */\n      0x40\n        /* \"@openzeppelin/contracts/utils/math/Math.sol\":12414:12426  result += 64 */\n      dup2\n      add\n      swap1\n      pop\n        /* \"@openzeppelin/contracts/utils/math/Math.sol\":12338:12441  if (value >= 10 ** 64) {... */\n    tag_438:\n        /* \"@openzeppelin/contracts/utils/math/Math.sol\":12467:12475  10 ** 32 */\n      0x04ee2d6d415b85acef8100000000\n        /* \"@openzeppelin/contracts/utils/math/Math.sol\":12458:12463  value */\n      dup4\n        /* \"@openzeppelin/contracts/utils/math/Math.sol\":12458:12475  value >= 10 ** 32 */\n      lt\n        /* \"@openzeppelin/contracts/utils/math/Math.sol\":12454:12557  if (value >= 10 ** 32) {... */\n      tag_441\n      jumpi\n        /* \"@openzeppelin/contracts/utils/math/Math.sol\":12504:12512  10 ** 32 */\n      0x04ee2d6d415b85acef8100000000\n        /* \"@openzeppelin/contracts/utils/math/Math.sol\":12495:12512  value /= 10 ** 32 */\n      dup4\n      dup2\n      tag_442\n      jumpi\n      tag_443\n      tag_405\n      jump\t// in\n    tag_443:\n    tag_442:\n      div\n      swap3\n      pop\n        /* \"@openzeppelin/contracts/utils/math/Math.sol\":12540:12542  32 */\n      0x20\n        /* \"@openzeppelin/contracts/utils/math/Math.sol\":12530:12542  result += 32 */\n      dup2\n      add\n      swap1\n      pop\n        /* \"@openzeppelin/contracts/utils/math/Math.sol\":12454:12557  if (value >= 10 ** 32) {... */\n    tag_441:\n        /* \"@openzeppelin/contracts/utils/math/Math.sol\":12583:12591  10 ** 16 */\n      0x2386f26fc10000\n        /* \"@openzeppelin/contracts/utils/math/Math.sol\":12574:12579  value */\n      dup4\n        /* \"@openzeppelin/contracts/utils/math/Math.sol\":12574:12591  value >= 10 ** 16 */\n      lt\n        /* \"@openzeppelin/contracts/utils/math/Math.sol\":12570:12673  if (value >= 10 ** 16) {... */\n      tag_444\n      jumpi\n        /* \"@openzeppelin/contracts/utils/math/Math.sol\":12620:12628  10 ** 16 */\n      0x2386f26fc10000\n        /* \"@openzeppelin/contracts/utils/math/Math.sol\":12611:12628  value /= 10 ** 16 */\n      dup4\n      dup2\n      tag_445\n      jumpi\n      tag_446\n      tag_405\n      jump\t// in\n    tag_446:\n    tag_445:\n      div\n      swap3\n      pop\n        /* \"@openzeppelin/contracts/utils/math/Math.sol\":12656:12658  16 */\n      0x10\n        /* \"@openzeppelin/contracts/utils/math/Math.sol\":12646:12658  result += 16 */\n      dup2\n      add\n      swap1\n      pop\n        /* \"@openzeppelin/contracts/utils/math/Math.sol\":12570:12673  if (value >= 10 ** 16) {... */\n    tag_444:\n        /* \"@openzeppelin/contracts/utils/math/Math.sol\":12699:12706  10 ** 8 */\n      0x05f5e100\n        /* \"@openzeppelin/contracts/utils/math/Math.sol\":12690:12695  value */\n      dup4\n        /* \"@openzeppelin/contracts/utils/math/Math.sol\":12690:12706  value >= 10 ** 8 */\n      lt\n        /* \"@openzeppelin/contracts/utils/math/Math.sol\":12686:12786  if (value >= 10 ** 8) {... */\n      tag_447\n      jumpi\n        /* \"@openzeppelin/contracts/utils/math/Math.sol\":12735:12742  10 ** 8 */\n      0x05f5e100\n        /* \"@openzeppelin/contracts/utils/math/Math.sol\":12726:12742  value /= 10 ** 8 */\n      dup4\n      dup2\n      tag_448\n      jumpi\n      tag_449\n      tag_405\n      jump\t// in\n    tag_449:\n    tag_448:\n      div\n      swap3\n      pop\n        /* \"@openzeppelin/contracts/utils/math/Math.sol\":12770:12771  8 */\n      0x08\n        /* \"@openzeppelin/contracts/utils/math/Math.sol\":12760:12771  result += 8 */\n      dup2\n      add\n      swap1\n      pop\n        /* \"@openzeppelin/contracts/utils/math/Math.sol\":12686:12786  if (value >= 10 ** 8) {... */\n    tag_447:\n        /* \"@openzeppelin/contracts/utils/math/Math.sol\":12812:12819  10 ** 4 */\n      0x2710\n        /* \"@openzeppelin/contracts/utils/math/Math.sol\":12803:12808  value */\n      dup4\n        /* \"@openzeppelin/contracts/utils/math/Math.sol\":12803:12819  value >= 10 ** 4 */\n      lt\n        /* \"@openzeppelin/contracts/utils/math/Math.sol\":12799:12899  if (value >= 10 ** 4) {... */\n      tag_450\n      jumpi\n        /* \"@openzeppelin/contracts/utils/math/Math.sol\":12848:12855  10 ** 4 */\n      0x2710\n        /* \"@openzeppelin/contracts/utils/math/Math.sol\":12839:12855  value /= 10 ** 4 */\n      dup4\n      dup2\n      tag_451\n      jumpi\n      tag_452\n      tag_405\n      jump\t// in\n    tag_452:\n    tag_451:\n      div\n      swap3\n      pop\n        /* \"@openzeppelin/contracts/utils/math/Math.sol\":12883:12884  4 */\n      0x04\n        /* \"@openzeppelin/contracts/utils/math/Math.sol\":12873:12884  result += 4 */\n      dup2\n      add\n      swap1\n      pop\n        /* \"@openzeppelin/contracts/utils/math/Math.sol\":12799:12899  if (value >= 10 ** 4) {... */\n    tag_450:\n        /* \"@openzeppelin/contracts/utils/math/Math.sol\":12925:12932  10 ** 2 */\n      0x64\n        /* \"@openzeppelin/contracts/utils/math/Math.sol\":12916:12921  value */\n      dup4\n        /* \"@openzeppelin/contracts/utils/math/Math.sol\":12916:12932  value >= 10 ** 2 */\n      lt\n        /* \"@openzeppelin/contracts/utils/math/Math.sol\":12912:13012  if (value >= 10 ** 2) {... */\n      tag_453\n      jumpi\n        /* \"@openzeppelin/contracts/utils/math/Math.sol\":12961:12968  10 ** 2 */\n      0x64\n        /* \"@openzeppelin/contracts/utils/math/Math.sol\":12952:12968  value /= 10 ** 2 */\n      dup4\n      dup2\n      tag_454\n      jumpi\n      tag_455\n      tag_405\n      jump\t// in\n    tag_455:\n    tag_454:\n      div\n      swap3\n      pop\n        /* \"@openzeppelin/contracts/utils/math/Math.sol\":12996:12997  2 */\n      0x02\n        /* \"@openzeppelin/contracts/utils/math/Math.sol\":12986:12997  result += 2 */\n      dup2\n      add\n      swap1\n      pop\n        /* \"@openzeppelin/contracts/utils/math/Math.sol\":12912:13012  if (value >= 10 ** 2) {... */\n    tag_453:\n        /* \"@openzeppelin/contracts/utils/math/Math.sol\":13038:13045  10 ** 1 */\n      0x0a\n        /* \"@openzeppelin/contracts/utils/math/Math.sol\":13029:13034  value */\n      dup4\n        /* \"@openzeppelin/contracts/utils/math/Math.sol\":13029:13045  value >= 10 ** 1 */\n      lt\n        /* \"@openzeppelin/contracts/utils/math/Math.sol\":13025:13091  if (value >= 10 ** 1) {... */\n      tag_456\n      jumpi\n        /* \"@openzeppelin/contracts/utils/math/Math.sol\":13075:13076  1 */\n      0x01\n        /* \"@openzeppelin/contracts/utils/math/Math.sol\":13065:13076  result += 1 */\n      dup2\n      add\n      swap1\n      pop\n        /* \"@openzeppelin/contracts/utils/math/Math.sol\":13025:13091  if (value >= 10 ** 1) {... */\n    tag_456:\n        /* \"@openzeppelin/contracts/utils/math/Math.sol\":13117:13123  result */\n      dup1\n        /* \"@openzeppelin/contracts/utils/math/Math.sol\":13110:13123  return result */\n      swap2\n      pop\n      pop\n        /* \"@openzeppelin/contracts/utils/math/Math.sol\":12214:13130  function log10(uint256 value) internal pure returns (uint256) {... */\n      swap2\n      swap1\n      pop\n      jump\t// out\n        /* \"@openzeppelin/contracts/utils/introspection/ERC165.sol\":762:908  function supportsInterface(bytes4 interfaceId) public view virtual returns (bool) {... */\n    tag_411:\n        /* \"@openzeppelin/contracts/utils/introspection/ERC165.sol\":838:842  bool */\n      0x00\n        /* \"@openzeppelin/contracts/utils/introspection/ERC165.sol\":876:901  type(IERC165).interfaceId */\n      0x01ffc9a700000000000000000000000000000000000000000000000000000000\n        /* \"@openzeppelin/contracts/utils/introspection/ERC165.sol\":861:901  interfaceId == type(IERC165).interfaceId */\n      not(0xffffffffffffffffffffffffffffffffffffffffffffffffffffffff)\n      and\n        /* \"@openzeppelin/contracts/utils/introspection/ERC165.sol\":861:872  interfaceId */\n      dup3\n        /* \"@openzeppelin/contracts/utils/introspection/ERC165.sol\":861:901  interfaceId == type(IERC165).interfaceId */\n      not(0xffffffffffffffffffffffffffffffffffffffffffffffffffffffff)\n      and\n      eq\n        /* \"@openzeppelin/contracts/utils/introspection/ERC165.sol\":854:901  return interfaceId == type(IERC165).interfaceId */\n      swap1\n      pop\n        /* \"@openzeppelin/contracts/utils/introspection/ERC165.sol\":762:908  function supportsInterface(bytes4 interfaceId) public view virtual returns (bool) {... */\n      swap2\n      swap1\n      pop\n      jump\t// out\n        /* \"@openzeppelin/contracts/token/ERC721/ERC721.sol\":10954:11136  function _safeMint(address to, uint256 tokenId, bytes memory data) internal virtual {... */\n    tag_425:\n        /* \"@openzeppelin/contracts/token/ERC721/ERC721.sol\":11048:11066  _mint(to, tokenId) */\n      tag_459\n        /* \"@openzeppelin/contracts/token/ERC721/ERC721.sol\":11054:11056  to */\n      dup4\n        /* \"@openzeppelin/contracts/token/ERC721/ERC721.sol\":11058:11065  tokenId */\n      dup4\n        /* \"@openzeppelin/contracts/token/ERC721/ERC721.sol\":11048:11053  _mint */\n      tag_460\n        /* \"@openzeppelin/contracts/token/ERC721/ERC721.sol\":11048:11066  _mint(to, tokenId) */\n      jump\t// in\n    tag_459:\n        /* \"@openzeppelin/contracts/token/ERC721/ERC721.sol\":11076:11129  _checkOnERC721Received(address(0), to, tokenId, data) */\n      tag_461\n        /* \"@openzeppelin/contracts/token/ERC721/ERC721.sol\":11107:11108  0 */\n      0x00\n        /* \"@openzeppelin/contracts/token/ERC721/ERC721.sol\":11111:11113  to */\n      dup5\n        /* \"@openzeppelin/contracts/token/ERC721/ERC721.sol\":11115:11122  tokenId */\n      dup5\n        /* \"@openzeppelin/contracts/token/ERC721/ERC721.sol\":11124:11128  data */\n      dup5\n        /* \"@openzeppelin/contracts/token/ERC721/ERC721.sol\":11076:11098  _checkOnERC721Received */\n      tag_311\n        /* \"@openzeppelin/contracts/token/ERC721/ERC721.sol\":11076:11129  _checkOnERC721Received(address(0), to, tokenId, data) */\n      jump\t// in\n    tag_461:\n        /* \"@openzeppelin/contracts/token/ERC721/ERC721.sol\":10954:11136  function _safeMint(address to, uint256 tokenId, bytes memory data) internal virtual {... */\n      pop\n      pop\n      pop\n      jump\t// out\n        /* \"@openzeppelin/contracts/token/ERC721/extensions/ERC721Enumerable.sol\":2518:3143  function _update(address to, uint256 tokenId, address auth) internal virtual override returns (address) {... */\n    tag_430:\n        /* \"@openzeppelin/contracts/token/ERC721/extensions/ERC721Enumerable.sol\":2613:2620  address */\n      0x00\n        /* \"@openzeppelin/contracts/token/ERC721/extensions/ERC721Enumerable.sol\":2632:2653  address previousOwner */\n      dup1\n        /* \"@openzeppelin/contracts/token/ERC721/extensions/ERC721Enumerable.sol\":2656:2688  super._update(to, tokenId, auth) */\n      tag_463\n        /* \"@openzeppelin/contracts/token/ERC721/extensions/ERC721Enumerable.sol\":2670:2672  to */\n      dup6\n        /* \"@openzeppelin/contracts/token/ERC721/extensions/ERC721Enumerable.sol\":2674:2681  tokenId */\n      dup6\n        /* \"@openzeppelin/contracts/token/ERC721/extensions/ERC721Enumerable.sol\":2683:2687  auth */\n      dup6\n        /* \"@openzeppelin/contracts/token/ERC721/extensions/ERC721Enumerable.sol\":2656:2669  super._update */\n      tag_464\n        /* \"@openzeppelin/contracts/token/ERC721/extensions/ERC721Enumerable.sol\":2656:2688  super._update(to, tokenId, auth) */\n      jump\t// in\n    tag_463:\n        /* \"@openzeppelin/contracts/token/ERC721/extensions/ERC721Enumerable.sol\":2632:2688  address previousOwner = super._update(to, tokenId, auth) */\n      swap1\n      pop\n        /* \"@openzeppelin/contracts/token/ERC721/extensions/ERC721Enumerable.sol\":2728:2729  0 */\n      0x00\n        /* \"@openzeppelin/contracts/token/ERC721/extensions/ERC721Enumerable.sol\":2703:2730  previousOwner == address(0) */\n      0xffffffffffffffffffffffffffffffffffffffff\n      and\n        /* \"@openzeppelin/contracts/token/ERC721/extensions/ERC721Enumerable.sol\":2703:2716  previousOwner */\n      dup2\n        /* \"@openzeppelin/contracts/token/ERC721/extensions/ERC721Enumerable.sol\":2703:2730  previousOwner == address(0) */\n      0xffffffffffffffffffffffffffffffffffffffff\n      and\n      sub\n        /* \"@openzeppelin/contracts/token/ERC721/extensions/ERC721Enumerable.sol\":2699:2909  if (previousOwner == address(0)) {... */\n      tag_465\n      jumpi\n        /* \"@openzeppelin/contracts/token/ERC721/extensions/ERC721Enumerable.sol\":2746:2786  _addTokenToAllTokensEnumeration(tokenId) */\n      tag_466\n        /* \"@openzeppelin/contracts/token/ERC721/extensions/ERC721Enumerable.sol\":2778:2785  tokenId */\n      dup5\n        /* \"@openzeppelin/contracts/token/ERC721/extensions/ERC721Enumerable.sol\":2746:2777  _addTokenToAllTokensEnumeration */\n      tag_467\n        /* \"@openzeppelin/contracts/token/ERC721/extensions/ERC721Enumerable.sol\":2746:2786  _addTokenToAllTokensEnumeration(tokenId) */\n      jump\t// in\n    tag_466:\n        /* \"@openzeppelin/contracts/token/ERC721/extensions/ERC721Enumerable.sol\":2699:2909  if (previousOwner == address(0)) {... */\n      jump(tag_468)\n    tag_465:\n        /* \"@openzeppelin/contracts/token/ERC721/extensions/ERC721Enumerable.sol\":2824:2826  to */\n      dup5\n        /* \"@openzeppelin/contracts/token/ERC721/extensions/ERC721Enumerable.sol\":2807:2826  previousOwner != to */\n      0xffffffffffffffffffffffffffffffffffffffff\n      and\n        /* \"@openzeppelin/contracts/token/ERC721/extensions/ERC721Enumerable.sol\":2807:2820  previousOwner */\n      dup2\n        /* \"@openzeppelin/contracts/token/ERC721/extensions/ERC721Enumerable.sol\":2807:2826  previousOwner != to */\n      0xffffffffffffffffffffffffffffffffffffffff\n      and\n      eq\n        /* \"@openzeppelin/contracts/token/ERC721/extensions/ERC721Enumerable.sol\":2803:2909  if (previousOwner != to) {... */\n      tag_469\n      jumpi\n        /* \"@openzeppelin/contracts/token/ERC721/extensions/ERC721Enumerable.sol\":2842:2898  _removeTokenFromOwnerEnumeration(previousOwner, tokenId) */\n      tag_470\n        /* \"@openzeppelin/contracts/token/ERC721/extensions/ERC721Enumerable.sol\":2875:2888  previousOwner */\n      dup2\n        /* \"@openzeppelin/contracts/token/ERC721/extensions/ERC721Enumerable.sol\":2890:2897  tokenId */\n      dup6\n        /* \"@openzeppelin/contracts/token/ERC721/extensions/ERC721Enumerable.sol\":2842:2874  _removeTokenFromOwnerEnumeration */\n      tag_471\n        /* \"@openzeppelin/contracts/token/ERC721/extensions/ERC721Enumerable.sol\":2842:2898  _removeTokenFromOwnerEnumeration(previousOwner, tokenId) */\n      jump\t// in\n    tag_470:\n        /* \"@openzeppelin/contracts/token/ERC721/extensions/ERC721Enumerable.sol\":2803:2909  if (previousOwner != to) {... */\n    tag_469:\n        /* \"@openzeppelin/contracts/token/ERC721/extensions/ERC721Enumerable.sol\":2699:2909  if (previousOwner == address(0)) {... */\n    tag_468:\n        /* \"@openzeppelin/contracts/token/ERC721/extensions/ERC721Enumerable.sol\":2936:2937  0 */\n      0x00\n        /* \"@openzeppelin/contracts/token/ERC721/extensions/ERC721Enumerable.sol\":2922:2938  to == address(0) */\n      0xffffffffffffffffffffffffffffffffffffffff\n      and\n        /* \"@openzeppelin/contracts/token/ERC721/extensions/ERC721Enumerable.sol\":2922:2924  to */\n      dup6\n        /* \"@openzeppelin/contracts/token/ERC721/extensions/ERC721Enumerable.sol\":2922:2938  to == address(0) */\n      0xffffffffffffffffffffffffffffffffffffffff\n      and\n      sub\n        /* \"@openzeppelin/contracts/token/ERC721/extensions/ERC721Enumerable.sol\":2918:3106  if (to == address(0)) {... */\n      tag_472\n      jumpi\n        /* \"@openzeppelin/contracts/token/ERC721/extensions/ERC721Enumerable.sol\":2954:2999  _removeTokenFromAllTokensEnumeration(tokenId) */\n      tag_473\n        /* \"@openzeppelin/contracts/token/ERC721/extensions/ERC721Enumerable.sol\":2991:2998  tokenId */\n      dup5\n        /* \"@openzeppelin/contracts/token/ERC721/extensions/ERC721Enumerable.sol\":2954:2990  _removeTokenFromAllTokensEnumeration */\n      tag_474\n        /* \"@openzeppelin/contracts/token/ERC721/extensions/ERC721Enumerable.sol\":2954:2999  _removeTokenFromAllTokensEnumeration(tokenId) */\n      jump\t// in\n    tag_473:\n        /* \"@openzeppelin/contracts/token/ERC721/extensions/ERC721Enumerable.sol\":2918:3106  if (to == address(0)) {... */\n      jump(tag_475)\n    tag_472:\n        /* \"@openzeppelin/contracts/token/ERC721/extensions/ERC721Enumerable.sol\":3037:3039  to */\n      dup5\n        /* \"@openzeppelin/contracts/token/ERC721/extensions/ERC721Enumerable.sol\":3020:3039  previousOwner != to */\n      0xffffffffffffffffffffffffffffffffffffffff\n      and\n        /* \"@openzeppelin/contracts/token/ERC721/extensions/ERC721Enumerable.sol\":3020:3033  previousOwner */\n      dup2\n        /* \"@openzeppelin/contracts/token/ERC721/extensions/ERC721Enumerable.sol\":3020:3039  previousOwner != to */\n      0xffffffffffffffffffffffffffffffffffffffff\n      and\n      eq\n        /* \"@openzeppelin/contracts/token/ERC721/extensions/ERC721Enumerable.sol\":3016:3106  if (previousOwner != to) {... */\n      tag_476\n      jumpi\n        /* \"@openzeppelin/contracts/token/ERC721/extensions/ERC721Enumerable.sol\":3055:3095  _addTokenToOwnerEnumeration(to, tokenId) */\n      tag_477\n        /* \"@openzeppelin/contracts/token/ERC721/extensions/ERC721Enumerable.sol\":3083:3085  to */\n      dup6\n        /* \"@openzeppelin/contracts/token/ERC721/extensions/ERC721Enumerable.sol\":3087:3094  tokenId */\n      dup6\n        /* \"@openzeppelin/contracts/token/ERC721/extensions/ERC721Enumerable.sol\":3055:3082  _addTokenToOwnerEnumeration */\n      tag_478\n        /* \"@openzeppelin/contracts/token/ERC721/extensions/ERC721Enumerable.sol\":3055:3095  _addTokenToOwnerEnumeration(to, tokenId) */\n      jump\t// in\n    tag_477:\n        /* \"@openzeppelin/contracts/token/ERC721/extensions/ERC721Enumerable.sol\":3016:3106  if (previousOwner != to) {... */\n    tag_476:\n        /* \"@openzeppelin/contracts/token/ERC721/extensions/ERC721Enumerable.sol\":2918:3106  if (to == address(0)) {... */\n    tag_475:\n        /* \"@openzeppelin/contracts/token/ERC721/extensions/ERC721Enumerable.sol\":3123:3136  previousOwner */\n      dup1\n        /* \"@openzeppelin/contracts/token/ERC721/extensions/ERC721Enumerable.sol\":3116:3136  return previousOwner */\n      swap2\n      pop\n      pop\n        /* \"@openzeppelin/contracts/token/ERC721/extensions/ERC721Enumerable.sol\":2518:3143  function _update(address to, uint256 tokenId, address auth) internal virtual override returns (address) {... */\n      swap4\n      swap3\n      pop\n      pop\n      pop\n      jump\t// out\n        /* \"@openzeppelin/contracts/token/ERC721/ERC721.sol\":9955:10282  function _mint(address to, uint256 tokenId) internal {... */\n    tag_460:\n        /* \"@openzeppelin/contracts/token/ERC721/ERC721.sol\":10036:10037  0 */\n      0x00\n        /* \"@openzeppelin/contracts/token/ERC721/ERC721.sol\":10022:10038  to == address(0) */\n      0xffffffffffffffffffffffffffffffffffffffff\n      and\n        /* \"@openzeppelin/contracts/token/ERC721/ERC721.sol\":10022:10024  to */\n      dup3\n        /* \"@openzeppelin/contracts/token/ERC721/ERC721.sol\":10022:10038  to == address(0) */\n      0xffffffffffffffffffffffffffffffffffffffff\n      and\n      sub\n        /* \"@openzeppelin/contracts/token/ERC721/ERC721.sol\":10018:10105  if (to == address(0)) {... */\n      tag_480\n      jumpi\n        /* \"@openzeppelin/contracts/token/ERC721/ERC721.sol\":10091:10092  0 */\n      0x00\n        /* \"@openzeppelin/contracts/token/ERC721/ERC721.sol\":10061:10094  ERC721InvalidReceiver(address(0)) */\n      mload(0x40)\n      0x64a0ae9200000000000000000000000000000000000000000000000000000000\n      dup2\n      mstore\n      0x04\n      add\n      tag_481\n      swap2\n      swap1\n      tag_58\n      jump\t// in\n    tag_481:\n      mload(0x40)\n      dup1\n      swap2\n      sub\n      swap1\n      revert\n        /* \"@openzeppelin/contracts/token/ERC721/ERC721.sol\":10018:10105  if (to == address(0)) {... */\n    tag_480:\n        /* \"@openzeppelin/contracts/token/ERC721/ERC721.sol\":10114:10135  address previousOwner */\n      0x00\n        /* \"@openzeppelin/contracts/token/ERC721/ERC721.sol\":10138:10170  _update(to, tokenId, address(0)) */\n      tag_482\n        /* \"@openzeppelin/contracts/token/ERC721/ERC721.sol\":10146:10148  to */\n      dup4\n        /* \"@openzeppelin/contracts/token/ERC721/ERC721.sol\":10150:10157  tokenId */\n      dup4\n        /* \"@openzeppelin/contracts/token/ERC721/ERC721.sol\":10167:10168  0 */\n      0x00\n        /* \"@openzeppelin/contracts/token/ERC721/ERC721.sol\":10138:10145  _update */\n      tag_222\n        /* \"@openzeppelin/contracts/token/ERC721/ERC721.sol\":10138:10170  _update(to, tokenId, address(0)) */\n      jump\t// in\n    tag_482:\n        /* \"@openzeppelin/contracts/token/ERC721/ERC721.sol\":10114:10170  address previousOwner = _update(to, tokenId, address(0)) */\n      swap1\n      pop\n        /* \"@openzeppelin/contracts/token/ERC721/ERC721.sol\":10209:10210  0 */\n      0x00\n        /* \"@openzeppelin/contracts/token/ERC721/ERC721.sol\":10184:10211  previousOwner != address(0) */\n      0xffffffffffffffffffffffffffffffffffffffff\n      and\n        /* \"@openzeppelin/contracts/token/ERC721/ERC721.sol\":10184:10197  previousOwner */\n      dup2\n        /* \"@openzeppelin/contracts/token/ERC721/ERC721.sol\":10184:10211  previousOwner != address(0) */\n      0xffffffffffffffffffffffffffffffffffffffff\n      and\n      eq\n        /* \"@openzeppelin/contracts/token/ERC721/ERC721.sol\":10180:10276  if (previousOwner != address(0)) {... */\n      tag_483\n      jumpi\n        /* \"@openzeppelin/contracts/token/ERC721/ERC721.sol\":10262:10263  0 */\n      0x00\n        /* \"@openzeppelin/contracts/token/ERC721/ERC721.sol\":10234:10265  ERC721InvalidSender(address(0)) */\n      mload(0x40)\n      0x73c6ac6e00000000000000000000000000000000000000000000000000000000\n      dup2\n      mstore\n      0x04\n      add\n      tag_484\n      swap2\n      swap1\n      tag_58\n      jump\t// in\n    tag_484:\n      mload(0x40)\n      dup1\n      swap2\n      sub\n      swap1\n      revert\n        /* \"@openzeppelin/contracts/token/ERC721/ERC721.sol\":10180:10276  if (previousOwner != address(0)) {... */\n    tag_483:\n        /* \"@openzeppelin/contracts/token/ERC721/ERC721.sol\":10008:10282  {... */\n      pop\n        /* \"@openzeppelin/contracts/token/ERC721/ERC721.sol\":9955:10282  function _mint(address to, uint256 tokenId) internal {... */\n      pop\n      pop\n      jump\t// out\n        /* \"@openzeppelin/contracts/token/ERC721/ERC721.sol\":8838:9633  function _update(address to, uint256 tokenId, address auth) internal virtual returns (address) {... */\n    tag_464:\n        /* \"@openzeppelin/contracts/token/ERC721/ERC721.sol\":8924:8931  address */\n      0x00\n        /* \"@openzeppelin/contracts/token/ERC721/ERC721.sol\":8943:8955  address from */\n      dup1\n        /* \"@openzeppelin/contracts/token/ERC721/ERC721.sol\":8958:8975  _ownerOf(tokenId) */\n      tag_486\n        /* \"@openzeppelin/contracts/token/ERC721/ERC721.sol\":8967:8974  tokenId */\n      dup5\n        /* \"@openzeppelin/contracts/token/ERC721/ERC721.sol\":8958:8966  _ownerOf */\n      tag_335\n        /* \"@openzeppelin/contracts/token/ERC721/ERC721.sol\":8958:8975  _ownerOf(tokenId) */\n      jump\t// in\n    tag_486:\n        /* \"@openzeppelin/contracts/token/ERC721/ERC721.sol\":8943:8975  address from = _ownerOf(tokenId) */\n      swap1\n      pop\n        /* \"@openzeppelin/contracts/token/ERC721/ERC721.sol\":9051:9052  0 */\n      0x00\n        /* \"@openzeppelin/contracts/token/ERC721/ERC721.sol\":9035:9053  auth != address(0) */\n      0xffffffffffffffffffffffffffffffffffffffff\n      and\n        /* \"@openzeppelin/contracts/token/ERC721/ERC721.sol\":9035:9039  auth */\n      dup4\n        /* \"@openzeppelin/contracts/token/ERC721/ERC721.sol\":9035:9053  auth != address(0) */\n      0xffffffffffffffffffffffffffffffffffffffff\n      and\n      eq\n        /* \"@openzeppelin/contracts/token/ERC721/ERC721.sol\":9031:9117  if (auth != address(0)) {... */\n      tag_487\n      jumpi\n        /* \"@openzeppelin/contracts/token/ERC721/ERC721.sol\":9069:9106  _checkAuthorized(from, auth, tokenId) */\n      tag_488\n        /* \"@openzeppelin/contracts/token/ERC721/ERC721.sol\":9086:9090  from */\n      dup2\n        /* \"@openzeppelin/contracts/token/ERC721/ERC721.sol\":9092:9096  auth */\n      dup5\n        /* \"@openzeppelin/contracts/token/ERC721/ERC721.sol\":9098:9105  tokenId */\n      dup7\n        /* \"@openzeppelin/contracts/token/ERC721/ERC721.sol\":9069:9085  _checkAuthorized */\n      tag_489\n        /* \"@openzeppelin/contracts/token/ERC721/ERC721.sol\":9069:9106  _checkAuthorized(from, auth, tokenId) */\n      jump\t// in\n    tag_488:\n        /* \"@openzeppelin/contracts/token/ERC721/ERC721.sol\":9031:9117  if (auth != address(0)) {... */\n    tag_487:\n        /* \"@openzeppelin/contracts/token/ERC721/ERC721.sol\":9177:9178  0 */\n      0x00\n        /* \"@openzeppelin/contracts/token/ERC721/ERC721.sol\":9161:9179  from != address(0) */\n      0xffffffffffffffffffffffffffffffffffffffff\n      and\n        /* \"@openzeppelin/contracts/token/ERC721/ERC721.sol\":9161:9165  from */\n      dup2\n        /* \"@openzeppelin/contracts/token/ERC721/ERC721.sol\":9161:9179  from != address(0) */\n      0xffffffffffffffffffffffffffffffffffffffff\n      and\n      eq\n        /* \"@openzeppelin/contracts/token/ERC721/ERC721.sol\":9157:9413  if (from != address(0)) {... */\n      tag_490\n      jumpi\n        /* \"@openzeppelin/contracts/token/ERC721/ERC721.sol\":9277:9325  _approve(address(0), tokenId, address(0), false) */\n      tag_491\n        /* \"@openzeppelin/contracts/token/ERC721/ERC721.sol\":9294:9295  0 */\n      0x00\n        /* \"@openzeppelin/contracts/token/ERC721/ERC721.sol\":9298:9305  tokenId */\n      dup6\n        /* \"@openzeppelin/contracts/token/ERC721/ERC721.sol\":9315:9316  0 */\n      0x00\n        /* \"@openzeppelin/contracts/token/ERC721/ERC721.sol\":9319:9324  false */\n      dup1\n        /* \"@openzeppelin/contracts/token/ERC721/ERC721.sol\":9277:9285  _approve */\n      tag_342\n        /* \"@openzeppelin/contracts/token/ERC721/ERC721.sol\":9277:9325  _approve(address(0), tokenId, address(0), false) */\n      jump\t// in\n    tag_491:\n        /* \"@openzeppelin/contracts/token/ERC721/ERC721.sol\":9387:9388  1 */\n      0x01\n        /* \"@openzeppelin/contracts/token/ERC721/ERC721.sol\":9368:9377  _balances */\n      0x03\n        /* \"@openzeppelin/contracts/token/ERC721/ERC721.sol\":9368:9383  _balances[from] */\n      0x00\n        /* \"@openzeppelin/contracts/token/ERC721/ERC721.sol\":9378:9382  from */\n      dup4\n        /* \"@openzeppelin/contracts/token/ERC721/ERC721.sol\":9368:9383  _balances[from] */\n      0xffffffffffffffffffffffffffffffffffffffff\n      and\n      0xffffffffffffffffffffffffffffffffffffffff\n      and\n      dup2\n      mstore\n      0x20\n      add\n      swap1\n      dup2\n      mstore\n      0x20\n      add\n      0x00\n      keccak256\n      0x00\n        /* \"@openzeppelin/contracts/token/ERC721/ERC721.sol\":9368:9388  _balances[from] -= 1 */\n      dup3\n      dup3\n      sload\n      sub\n      swap3\n      pop\n      pop\n      dup2\n      swap1\n      sstore\n      pop\n        /* \"@openzeppelin/contracts/token/ERC721/ERC721.sol\":9157:9413  if (from != address(0)) {... */\n    tag_490:\n        /* \"@openzeppelin/contracts/token/ERC721/ERC721.sol\":9441:9442  0 */\n      0x00\n        /* \"@openzeppelin/contracts/token/ERC721/ERC721.sol\":9427:9443  to != address(0) */\n      0xffffffffffffffffffffffffffffffffffffffff\n      and\n        /* \"@openzeppelin/contracts/token/ERC721/ERC721.sol\":9427:9429  to */\n      dup6\n        /* \"@openzeppelin/contracts/token/ERC721/ERC721.sol\":9427:9443  to != address(0) */\n      0xffffffffffffffffffffffffffffffffffffffff\n      and\n      eq\n        /* \"@openzeppelin/contracts/token/ERC721/ERC721.sol\":9423:9530  if (to != address(0)) {... */\n      tag_492\n      jumpi\n        /* \"@openzeppelin/contracts/token/ERC721/ERC721.sol\":9504:9505  1 */\n      0x01\n        /* \"@openzeppelin/contracts/token/ERC721/ERC721.sol\":9487:9496  _balances */\n      0x03\n        /* \"@openzeppelin/contracts/token/ERC721/ERC721.sol\":9487:9500  _balances[to] */\n      0x00\n        /* \"@openzeppelin/contracts/token/ERC721/ERC721.sol\":9497:9499  to */\n      dup8\n        /* \"@openzeppelin/contracts/token/ERC721/ERC721.sol\":9487:9500  _balances[to] */\n      0xffffffffffffffffffffffffffffffffffffffff\n      and\n      0xffffffffffffffffffffffffffffffffffffffff\n      and\n      dup2\n      mstore\n      0x20\n      add\n      swap1\n      dup2\n      mstore\n      0x20\n      add\n      0x00\n      keccak256\n      0x00\n        /* \"@openzeppelin/contracts/token/ERC721/ERC721.sol\":9487:9505  _balances[to] += 1 */\n      dup3\n      dup3\n      sload\n      add\n      swap3\n      pop\n      pop\n      dup2\n      swap1\n      sstore\n      pop\n        /* \"@openzeppelin/contracts/token/ERC721/ERC721.sol\":9423:9530  if (to != address(0)) {... */\n    tag_492:\n        /* \"@openzeppelin/contracts/token/ERC721/ERC721.sol\":9559:9561  to */\n      dup5\n        /* \"@openzeppelin/contracts/token/ERC721/ERC721.sol\":9540:9547  _owners */\n      0x02\n        /* \"@openzeppelin/contracts/token/ERC721/ERC721.sol\":9540:9556  _owners[tokenId] */\n      0x00\n        /* \"@openzeppelin/contracts/token/ERC721/ERC721.sol\":9548:9555  tokenId */\n      dup7\n        /* \"@openzeppelin/contracts/token/ERC721/ERC721.sol\":9540:9556  _owners[tokenId] */\n      dup2\n      mstore\n      0x20\n      add\n      swap1\n      dup2\n      mstore\n      0x20\n      add\n      0x00\n      keccak256\n      0x00\n        /* \"@openzeppelin/contracts/token/ERC721/ERC721.sol\":9540:9561  _owners[tokenId] = to */\n      0x0100\n      exp\n      dup2\n      sload\n      dup2\n      0xffffffffffffffffffffffffffffffffffffffff\n      mul\n      not\n      and\n      swap1\n      dup4\n      0xffffffffffffffffffffffffffffffffffffffff\n      and\n      mul\n      or\n      swap1\n      sstore\n      pop\n        /* \"@openzeppelin/contracts/token/ERC721/ERC721.sol\":9596:9603  tokenId */\n      dup4\n        /* \"@openzeppelin/contracts/token/ERC721/ERC721.sol\":9592:9594  to */\n      dup6\n        /* \"@openzeppelin/contracts/token/ERC721/ERC721.sol\":9577:9604  Transfer(from, to, tokenId) */\n      0xffffffffffffffffffffffffffffffffffffffff\n      and\n        /* \"@openzeppelin/contracts/token/ERC721/ERC721.sol\":9586:9590  from */\n      dup3\n        /* \"@openzeppelin/contracts/token/ERC721/ERC721.sol\":9577:9604  Transfer(from, to, tokenId) */\n      0xffffffffffffffffffffffffffffffffffffffff\n      and\n      0xddf252ad1be2c89b69c2b068fc378daa952ba7f163c4a11628f55a4df523b3ef\n      mload(0x40)\n      mload(0x40)\n      dup1\n      swap2\n      sub\n      swap1\n      log4\n        /* \"@openzeppelin/contracts/token/ERC721/ERC721.sol\":9622:9626  from */\n      dup1\n        /* \"@openzeppelin/contracts/token/ERC721/ERC721.sol\":9615:9626  return from */\n      swap2\n      pop\n      pop\n        /* \"@openzeppelin/contracts/token/ERC721/ERC721.sol\":8838:9633  function _update(address to, uint256 tokenId, address auth) internal virtual returns (address) {... */\n      swap4\n      swap3\n      pop\n      pop\n      pop\n      jump\t// out\n        /* \"@openzeppelin/contracts/token/ERC721/extensions/ERC721Enumerable.sol\":3846:4007  function _addTokenToAllTokensEnumeration(uint256 tokenId) private {... */\n    tag_467:\n        /* \"@openzeppelin/contracts/token/ERC721/extensions/ERC721Enumerable.sol\":3949:3959  _allTokens */\n      0x08\n        /* \"@openzeppelin/contracts/token/ERC721/extensions/ERC721Enumerable.sol\":3949:3966  _allTokens.length */\n      dup1\n      sload\n      swap1\n      pop\n        /* \"@openzeppelin/contracts/token/ERC721/extensions/ERC721Enumerable.sol\":3922:3937  _allTokensIndex */\n      0x09\n        /* \"@openzeppelin/contracts/token/ERC721/extensions/ERC721Enumerable.sol\":3922:3946  _allTokensIndex[tokenId] */\n      0x00\n        /* \"@openzeppelin/contracts/token/ERC721/extensions/ERC721Enumerable.sol\":3938:3945  tokenId */\n      dup4\n        /* \"@openzeppelin/contracts/token/ERC721/extensions/ERC721Enumerable.sol\":3922:3946  _allTokensIndex[tokenId] */\n      dup2\n      mstore\n      0x20\n      add\n      swap1\n      dup2\n      mstore\n      0x20\n      add\n      0x00\n      keccak256\n        /* \"@openzeppelin/contracts/token/ERC721/extensions/ERC721Enumerable.sol\":3922:3966  _allTokensIndex[tokenId] = _allTokens.length */\n      dup2\n      swap1\n      sstore\n      pop\n        /* \"@openzeppelin/contracts/token/ERC721/extensions/ERC721Enumerable.sol\":3976:3986  _allTokens */\n      0x08\n        /* \"@openzeppelin/contracts/token/ERC721/extensions/ERC721Enumerable.sol\":3992:3999  tokenId */\n      dup2\n        /* \"@openzeppelin/contracts/token/ERC721/extensions/ERC721Enumerable.sol\":3976:4000  _allTokens.push(tokenId) */\n      swap1\n      dup1\n      0x01\n      dup2\n      sload\n      add\n      dup1\n      dup3\n      sstore\n      dup1\n      swap2\n      pop\n      pop\n      0x01\n      swap1\n      sub\n      swap1\n      0x00\n      mstore\n      keccak256(0x00, 0x20)\n      add\n      0x00\n      swap1\n      swap2\n      swap1\n      swap2\n      swap1\n      swap2\n      pop\n      sstore\n        /* \"@openzeppelin/contracts/token/ERC721/extensions/ERC721Enumerable.sol\":3846:4007  function _addTokenToAllTokensEnumeration(uint256 tokenId) private {... */\n      pop\n      jump\t// out\n        /* \"@openzeppelin/contracts/token/ERC721/extensions/ERC721Enumerable.sol\":4624:5583  function _removeTokenFromOwnerEnumeration(address from, uint256 tokenId) private {... */\n    tag_471:\n        /* \"@openzeppelin/contracts/token/ERC721/extensions/ERC721Enumerable.sol\":4886:4908  uint256 lastTokenIndex */\n      0x00\n        /* \"@openzeppelin/contracts/token/ERC721/extensions/ERC721Enumerable.sol\":4911:4926  balanceOf(from) */\n      tag_496\n        /* \"@openzeppelin/contracts/token/ERC721/extensions/ERC721Enumerable.sol\":4921:4925  from */\n      dup4\n        /* \"@openzeppelin/contracts/token/ERC721/extensions/ERC721Enumerable.sol\":4911:4920  balanceOf */\n      tag_131\n        /* \"@openzeppelin/contracts/token/ERC721/extensions/ERC721Enumerable.sol\":4911:4926  balanceOf(from) */\n      jump\t// in\n    tag_496:\n        /* \"@openzeppelin/contracts/token/ERC721/extensions/ERC721Enumerable.sol\":4886:4926  uint256 lastTokenIndex = balanceOf(from) */\n      swap1\n      pop\n        /* \"@openzeppelin/contracts/token/ERC721/extensions/ERC721Enumerable.sol\":4936:4954  uint256 tokenIndex */\n      0x00\n        /* \"@openzeppelin/contracts/token/ERC721/extensions/ERC721Enumerable.sol\":4957:4974  _ownedTokensIndex */\n      0x07\n        /* \"@openzeppelin/contracts/token/ERC721/extensions/ERC721Enumerable.sol\":4957:4983  _ownedTokensIndex[tokenId] */\n      0x00\n        /* \"@openzeppelin/contracts/token/ERC721/extensions/ERC721Enumerable.sol\":4975:4982  tokenId */\n      dup5\n        /* \"@openzeppelin/contracts/token/ERC721/extensions/ERC721Enumerable.sol\":4957:4983  _ownedTokensIndex[tokenId] */\n      dup2\n      mstore\n      0x20\n      add\n      swap1\n      dup2\n      mstore\n      0x20\n      add\n      0x00\n      keccak256\n      sload\n        /* \"@openzeppelin/contracts/token/ERC721/extensions/ERC721Enumerable.sol\":4936:4983  uint256 tokenIndex = _ownedTokensIndex[tokenId] */\n      swap1\n      pop\n        /* \"@openzeppelin/contracts/token/ERC721/extensions/ERC721Enumerable.sol\":5101:5115  lastTokenIndex */\n      dup2\n        /* \"@openzeppelin/contracts/token/ERC721/extensions/ERC721Enumerable.sol\":5087:5097  tokenIndex */\n      dup2\n        /* \"@openzeppelin/contracts/token/ERC721/extensions/ERC721Enumerable.sol\":5087:5115  tokenIndex != lastTokenIndex */\n      eq\n        /* \"@openzeppelin/contracts/token/ERC721/extensions/ERC721Enumerable.sol\":5083:5406  if (tokenIndex != lastTokenIndex) {... */\n      tag_497\n      jumpi\n        /* \"@openzeppelin/contracts/token/ERC721/extensions/ERC721Enumerable.sol\":5131:5150  uint256 lastTokenId */\n      0x00\n        /* \"@openzeppelin/contracts/token/ERC721/extensions/ERC721Enumerable.sol\":5153:5165  _ownedTokens */\n      0x06\n        /* \"@openzeppelin/contracts/token/ERC721/extensions/ERC721Enumerable.sol\":5153:5171  _ownedTokens[from] */\n      0x00\n        /* \"@openzeppelin/contracts/token/ERC721/extensions/ERC721Enumerable.sol\":5166:5170  from */\n      dup7\n        /* \"@openzeppelin/contracts/token/ERC721/extensions/ERC721Enumerable.sol\":5153:5171  _ownedTokens[from] */\n      0xffffffffffffffffffffffffffffffffffffffff\n      and\n      0xffffffffffffffffffffffffffffffffffffffff\n      and\n      dup2\n      mstore\n      0x20\n      add\n      swap1\n      dup2\n      mstore\n      0x20\n      add\n      0x00\n      keccak256\n        /* \"@openzeppelin/contracts/token/ERC721/extensions/ERC721Enumerable.sol\":5153:5187  _ownedTokens[from][lastTokenIndex] */\n      0x00\n        /* \"@openzeppelin/contracts/token/ERC721/extensions/ERC721Enumerable.sol\":5172:5186  lastTokenIndex */\n      dup5\n        /* \"@openzeppelin/contracts/token/ERC721/extensions/ERC721Enumerable.sol\":5153:5187  _ownedTokens[from][lastTokenIndex] */\n      dup2\n      mstore\n      0x20\n      add\n      swap1\n      dup2\n      mstore\n      0x20\n      add\n      0x00\n      keccak256\n      sload\n        /* \"@openzeppelin/contracts/token/ERC721/extensions/ERC721Enumerable.sol\":5131:5187  uint256 lastTokenId = _ownedTokens[from][lastTokenIndex] */\n      swap1\n      pop\n        /* \"@openzeppelin/contracts/token/ERC721/extensions/ERC721Enumerable.sol\":5235:5246  lastTokenId */\n      dup1\n        /* \"@openzeppelin/contracts/token/ERC721/extensions/ERC721Enumerable.sol\":5202:5214  _ownedTokens */\n      0x06\n        /* \"@openzeppelin/contracts/token/ERC721/extensions/ERC721Enumerable.sol\":5202:5220  _ownedTokens[from] */\n      0x00\n        /* \"@openzeppelin/contracts/token/ERC721/extensions/ERC721Enumerable.sol\":5215:5219  from */\n      dup8\n        /* \"@openzeppelin/contracts/token/ERC721/extensions/ERC721Enumerable.sol\":5202:5220  _ownedTokens[from] */\n      0xffffffffffffffffffffffffffffffffffffffff\n      and\n      0xffffffffffffffffffffffffffffffffffffffff\n      and\n      dup2\n      mstore\n      0x20\n      add\n      swap1\n      dup2\n      mstore\n      0x20\n      add\n      0x00\n      keccak256\n        /* \"@openzeppelin/contracts/token/ERC721/extensions/ERC721Enumerable.sol\":5202:5232  _ownedTokens[from][tokenIndex] */\n      0x00\n        /* \"@openzeppelin/contracts/token/ERC721/extensions/ERC721Enumerable.sol\":5221:5231  tokenIndex */\n      dup5\n        /* \"@openzeppelin/contracts/token/ERC721/extensions/ERC721Enumerable.sol\":5202:5232  _ownedTokens[from][tokenIndex] */\n      dup2\n      mstore\n      0x20\n      add\n      swap1\n      dup2\n      mstore\n      0x20\n      add\n      0x00\n      keccak256\n        /* \"@openzeppelin/contracts/token/ERC721/extensions/ERC721Enumerable.sol\":5202:5246  _ownedTokens[from][tokenIndex] = lastTokenId */\n      dup2\n      swap1\n      sstore\n      pop\n        /* \"@openzeppelin/contracts/token/ERC721/extensions/ERC721Enumerable.sol\":5351:5361  tokenIndex */\n      dup2\n        /* \"@openzeppelin/contracts/token/ERC721/extensions/ERC721Enumerable.sol\":5318:5335  _ownedTokensIndex */\n      0x07\n        /* \"@openzeppelin/contracts/token/ERC721/extensions/ERC721Enumerable.sol\":5318:5348  _ownedTokensIndex[lastTokenId] */\n      0x00\n        /* \"@openzeppelin/contracts/token/ERC721/extensions/ERC721Enumerable.sol\":5336:5347  lastTokenId */\n      dup4\n        /* \"@openzeppelin/contracts/token/ERC721/extensions/ERC721Enumerable.sol\":5318:5348  _ownedTokensIndex[lastTokenId] */\n      dup2\n      mstore\n      0x20\n      add\n      swap1\n      dup2\n      mstore\n      0x20\n      add\n      0x00\n      keccak256\n        /* \"@openzeppelin/contracts/token/ERC721/extensions/ERC721Enumerable.sol\":5318:5361  _ownedTokensIndex[lastTokenId] = tokenIndex */\n      dup2\n      swap1\n      sstore\n      pop\n        /* \"@openzeppelin/contracts/token/ERC721/extensions/ERC721Enumerable.sol\":5117:5406  {... */\n      pop\n        /* \"@openzeppelin/contracts/token/ERC721/extensions/ERC721Enumerable.sol\":5083:5406  if (tokenIndex != lastTokenIndex) {... */\n    tag_497:\n        /* \"@openzeppelin/contracts/token/ERC721/extensions/ERC721Enumerable.sol\":5499:5516  _ownedTokensIndex */\n      0x07\n        /* \"@openzeppelin/contracts/token/ERC721/extensions/ERC721Enumerable.sol\":5499:5525  _ownedTokensIndex[tokenId] */\n      0x00\n        /* \"@openzeppelin/contracts/token/ERC721/extensions/ERC721Enumerable.sol\":5517:5524  tokenId */\n      dup5\n        /* \"@openzeppelin/contracts/token/ERC721/extensions/ERC721Enumerable.sol\":5499:5525  _ownedTokensIndex[tokenId] */\n      dup2\n      mstore\n      0x20\n      add\n      swap1\n      dup2\n      mstore\n      0x20\n      add\n      0x00\n      keccak256\n        /* \"@openzeppelin/contracts/token/ERC721/extensions/ERC721Enumerable.sol\":5492:5525  delete _ownedTokensIndex[tokenId] */\n      0x00\n      swap1\n      sstore\n        /* \"@openzeppelin/contracts/token/ERC721/extensions/ERC721Enumerable.sol\":5542:5554  _ownedTokens */\n      0x06\n        /* \"@openzeppelin/contracts/token/ERC721/extensions/ERC721Enumerable.sol\":5542:5560  _ownedTokens[from] */\n      0x00\n        /* \"@openzeppelin/contracts/token/ERC721/extensions/ERC721Enumerable.sol\":5555:5559  from */\n      dup6\n        /* \"@openzeppelin/contracts/token/ERC721/extensions/ERC721Enumerable.sol\":5542:5560  _ownedTokens[from] */\n      0xffffffffffffffffffffffffffffffffffffffff\n      and\n      0xffffffffffffffffffffffffffffffffffffffff\n      and\n      dup2\n      mstore\n      0x20\n      add\n      swap1\n      dup2\n      mstore\n      0x20\n      add\n      0x00\n      keccak256\n        /* \"@openzeppelin/contracts/token/ERC721/extensions/ERC721Enumerable.sol\":5542:5576  _ownedTokens[from][lastTokenIndex] */\n      0x00\n        /* \"@openzeppelin/contracts/token/ERC721/extensions/ERC721Enumerable.sol\":5561:5575  lastTokenIndex */\n      dup4\n        /* \"@openzeppelin/contracts/token/ERC721/extensions/ERC721Enumerable.sol\":5542:5576  _ownedTokens[from][lastTokenIndex] */\n      dup2\n      mstore\n      0x20\n      add\n      swap1\n      dup2\n      mstore\n      0x20\n      add\n      0x00\n      keccak256\n        /* \"@openzeppelin/contracts/token/ERC721/extensions/ERC721Enumerable.sol\":5535:5576  delete _ownedTokens[from][lastTokenIndex] */\n      0x00\n      swap1\n      sstore\n        /* \"@openzeppelin/contracts/token/ERC721/extensions/ERC721Enumerable.sol\":4705:5583  {... */\n      pop\n      pop\n        /* \"@openzeppelin/contracts/token/ERC721/extensions/ERC721Enumerable.sol\":4624:5583  function _removeTokenFromOwnerEnumeration(address from, uint256 tokenId) private {... */\n      pop\n      pop\n      jump\t// out\n        /* \"@openzeppelin/contracts/token/ERC721/extensions/ERC721Enumerable.sol\":5871:6932  function _removeTokenFromAllTokensEnumeration(uint256 tokenId) private {... */\n    tag_474:\n        /* \"@openzeppelin/contracts/token/ERC721/extensions/ERC721Enumerable.sol\":6120:6142  uint256 lastTokenIndex */\n      0x00\n        /* \"@openzeppelin/contracts/token/ERC721/extensions/ERC721Enumerable.sol\":6165:6166  1 */\n      0x01\n        /* \"@openzeppelin/contracts/token/ERC721/extensions/ERC721Enumerable.sol\":6145:6155  _allTokens */\n      0x08\n        /* \"@openzeppelin/contracts/token/ERC721/extensions/ERC721Enumerable.sol\":6145:6162  _allTokens.length */\n      dup1\n      sload\n      swap1\n      pop\n        /* \"@openzeppelin/contracts/token/ERC721/extensions/ERC721Enumerable.sol\":6145:6166  _allTokens.length - 1 */\n      tag_499\n      swap2\n      swap1\n      tag_500\n      jump\t// in\n    tag_499:\n        /* \"@openzeppelin/contracts/token/ERC721/extensions/ERC721Enumerable.sol\":6120:6166  uint256 lastTokenIndex = _allTokens.length - 1 */\n      swap1\n      pop\n        /* \"@openzeppelin/contracts/token/ERC721/extensions/ERC721Enumerable.sol\":6176:6194  uint256 tokenIndex */\n      0x00\n        /* \"@openzeppelin/contracts/token/ERC721/extensions/ERC721Enumerable.sol\":6197:6212  _allTokensIndex */\n      0x09\n        /* \"@openzeppelin/contracts/token/ERC721/extensions/ERC721Enumerable.sol\":6197:6221  _allTokensIndex[tokenId] */\n      0x00\n        /* \"@openzeppelin/contracts/token/ERC721/extensions/ERC721Enumerable.sol\":6213:6220  tokenId */\n      dup5\n        /* \"@openzeppelin/contracts/token/ERC721/extensions/ERC721Enumerable.sol\":6197:6221  _allTokensIndex[tokenId] */\n      dup2\n      mstore\n      0x20\n      add\n      swap1\n      dup2\n      mstore\n      0x20\n      add\n      0x00\n      keccak256\n      sload\n        /* \"@openzeppelin/contracts/token/ERC721/extensions/ERC721Enumerable.sol\":6176:6221  uint256 tokenIndex = _allTokensIndex[tokenId] */\n      swap1\n      pop\n        /* \"@openzeppelin/contracts/token/ERC721/extensions/ERC721Enumerable.sol\":6543:6562  uint256 lastTokenId */\n      0x00\n        /* \"@openzeppelin/contracts/token/ERC721/extensions/ERC721Enumerable.sol\":6565:6575  _allTokens */\n      0x08\n        /* \"@openzeppelin/contracts/token/ERC721/extensions/ERC721Enumerable.sol\":6576:6590  lastTokenIndex */\n      dup4\n        /* \"@openzeppelin/contracts/token/ERC721/extensions/ERC721Enumerable.sol\":6565:6591  _allTokens[lastTokenIndex] */\n      dup2\n      sload\n      dup2\n      lt\n      tag_501\n      jumpi\n      tag_502\n      tag_258\n      jump\t// in\n    tag_502:\n    tag_501:\n      swap1\n      0x00\n      mstore\n      keccak256(0x00, 0x20)\n      add\n      sload\n        /* \"@openzeppelin/contracts/token/ERC721/extensions/ERC721Enumerable.sol\":6543:6591  uint256 lastTokenId = _allTokens[lastTokenIndex] */\n      swap1\n      pop\n        /* \"@openzeppelin/contracts/token/ERC721/extensions/ERC721Enumerable.sol\":6627:6638  lastTokenId */\n      dup1\n        /* \"@openzeppelin/contracts/token/ERC721/extensions/ERC721Enumerable.sol\":6602:6612  _allTokens */\n      0x08\n        /* \"@openzeppelin/contracts/token/ERC721/extensions/ERC721Enumerable.sol\":6613:6623  tokenIndex */\n      dup4\n        /* \"@openzeppelin/contracts/token/ERC721/extensions/ERC721Enumerable.sol\":6602:6624  _allTokens[tokenIndex] */\n      dup2\n      sload\n      dup2\n      lt\n      tag_504\n      jumpi\n      tag_505\n      tag_258\n      jump\t// in\n    tag_505:\n    tag_504:\n      swap1\n      0x00\n      mstore\n      keccak256(0x00, 0x20)\n      add\n        /* \"@openzeppelin/contracts/token/ERC721/extensions/ERC721Enumerable.sol\":6602:6638  _allTokens[tokenIndex] = lastTokenId */\n      dup2\n      swap1\n      sstore\n      pop\n        /* \"@openzeppelin/contracts/token/ERC721/extensions/ERC721Enumerable.sol\":6737:6747  tokenIndex */\n      dup2\n        /* \"@openzeppelin/contracts/token/ERC721/extensions/ERC721Enumerable.sol\":6706:6721  _allTokensIndex */\n      0x09\n        /* \"@openzeppelin/contracts/token/ERC721/extensions/ERC721Enumerable.sol\":6706:6734  _allTokensIndex[lastTokenId] */\n      0x00\n        /* \"@openzeppelin/contracts/token/ERC721/extensions/ERC721Enumerable.sol\":6722:6733  lastTokenId */\n      dup4\n        /* \"@openzeppelin/contracts/token/ERC721/extensions/ERC721Enumerable.sol\":6706:6734  _allTokensIndex[lastTokenId] */\n      dup2\n      mstore\n      0x20\n      add\n      swap1\n      dup2\n      mstore\n      0x20\n      add\n      0x00\n      keccak256\n        /* \"@openzeppelin/contracts/token/ERC721/extensions/ERC721Enumerable.sol\":6706:6747  _allTokensIndex[lastTokenId] = tokenIndex */\n      dup2\n      swap1\n      sstore\n      pop\n        /* \"@openzeppelin/contracts/token/ERC721/extensions/ERC721Enumerable.sol\":6875:6890  _allTokensIndex */\n      0x09\n        /* \"@openzeppelin/contracts/token/ERC721/extensions/ERC721Enumerable.sol\":6875:6899  _allTokensIndex[tokenId] */\n      0x00\n        /* \"@openzeppelin/contracts/token/ERC721/extensions/ERC721Enumerable.sol\":6891:6898  tokenId */\n      dup6\n        /* \"@openzeppelin/contracts/token/ERC721/extensions/ERC721Enumerable.sol\":6875:6899  _allTokensIndex[tokenId] */\n      dup2\n      mstore\n      0x20\n      add\n      swap1\n      dup2\n      mstore\n      0x20\n      add\n      0x00\n      keccak256\n        /* \"@openzeppelin/contracts/token/ERC721/extensions/ERC721Enumerable.sol\":6868:6899  delete _allTokensIndex[tokenId] */\n      0x00\n      swap1\n      sstore\n        /* \"@openzeppelin/contracts/token/ERC721/extensions/ERC721Enumerable.sol\":6909:6919  _allTokens */\n      0x08\n        /* \"@openzeppelin/contracts/token/ERC721/extensions/ERC721Enumerable.sol\":6909:6925  _allTokens.pop() */\n      dup1\n      sload\n      dup1\n      tag_507\n      jumpi\n      tag_508\n      tag_509\n      jump\t// in\n    tag_508:\n    tag_507:\n      0x01\n      swap1\n      sub\n      dup2\n      dup2\n      swap1\n      0x00\n      mstore\n      keccak256(0x00, 0x20)\n      add\n      0x00\n      swap1\n      sstore\n      swap1\n      sstore\n        /* \"@openzeppelin/contracts/token/ERC721/extensions/ERC721Enumerable.sol\":5942:6932  {... */\n      pop\n      pop\n      pop\n        /* \"@openzeppelin/contracts/token/ERC721/extensions/ERC721Enumerable.sol\":5871:6932  function _removeTokenFromAllTokensEnumeration(uint256 tokenId) private {... */\n      pop\n      jump\t// out\n        /* \"@openzeppelin/contracts/token/ERC721/extensions/ERC721Enumerable.sol\":3437:3651  function _addTokenToOwnerEnumeration(address to, uint256 tokenId) private {... */\n    tag_478:\n        /* \"@openzeppelin/contracts/token/ERC721/extensions/ERC721Enumerable.sol\":3521:3535  uint256 length */\n      0x00\n        /* \"@openzeppelin/contracts/token/ERC721/extensions/ERC721Enumerable.sol\":3554:3555  1 */\n      0x01\n        /* \"@openzeppelin/contracts/token/ERC721/extensions/ERC721Enumerable.sol\":3538:3551  balanceOf(to) */\n      tag_512\n        /* \"@openzeppelin/contracts/token/ERC721/extensions/ERC721Enumerable.sol\":3548:3550  to */\n      dup5\n        /* \"@openzeppelin/contracts/token/ERC721/extensions/ERC721Enumerable.sol\":3538:3547  balanceOf */\n      tag_131\n        /* \"@openzeppelin/contracts/token/ERC721/extensions/ERC721Enumerable.sol\":3538:3551  balanceOf(to) */\n      jump\t// in\n    tag_512:\n        /* \"@openzeppelin/contracts/token/ERC721/extensions/ERC721Enumerable.sol\":3538:3555  balanceOf(to) - 1 */\n      tag_513\n      swap2\n      swap1\n      tag_500\n      jump\t// in\n    tag_513:\n        /* \"@openzeppelin/contracts/token/ERC721/extensions/ERC721Enumerable.sol\":3521:3555  uint256 length = balanceOf(to) - 1 */\n      swap1\n      pop\n        /* \"@openzeppelin/contracts/token/ERC721/extensions/ERC721Enumerable.sol\":3592:3599  tokenId */\n      dup2\n        /* \"@openzeppelin/contracts/token/ERC721/extensions/ERC721Enumerable.sol\":3565:3577  _ownedTokens */\n      0x06\n        /* \"@openzeppelin/contracts/token/ERC721/extensions/ERC721Enumerable.sol\":3565:3581  _ownedTokens[to] */\n      0x00\n        /* \"@openzeppelin/contracts/token/ERC721/extensions/ERC721Enumerable.sol\":3578:3580  to */\n      dup6\n        /* \"@openzeppelin/contracts/token/ERC721/extensions/ERC721Enumerable.sol\":3565:3581  _ownedTokens[to] */\n      0xffffffffffffffffffffffffffffffffffffffff\n      and\n      0xffffffffffffffffffffffffffffffffffffffff\n      and\n      dup2\n      mstore\n      0x20\n      add\n      swap1\n      dup2\n      mstore\n      0x20\n      add\n      0x00\n      keccak256\n        /* \"@openzeppelin/contracts/token/ERC721/extensions/ERC721Enumerable.sol\":3565:3589  _ownedTokens[to][length] */\n      0x00\n        /* \"@openzeppelin/contracts/token/ERC721/extensions/ERC721Enumerable.sol\":3582:3588  length */\n      dup4\n        /* \"@openzeppelin/contracts/token/ERC721/extensions/ERC721Enumerable.sol\":3565:3589  _ownedTokens[to][length] */\n      dup2\n      mstore\n      0x20\n      add\n      swap1\n      dup2\n      mstore\n      0x20\n      add\n      0x00\n      keccak256\n        /* \"@openzeppelin/contracts/token/ERC721/extensions/ERC721Enumerable.sol\":3565:3599  _ownedTokens[to][length] = tokenId */\n      dup2\n      swap1\n      sstore\n      pop\n        /* \"@openzeppelin/contracts/token/ERC721/extensions/ERC721Enumerable.sol\":3638:3644  length */\n      dup1\n        /* \"@openzeppelin/contracts/token/ERC721/extensions/ERC721Enumerable.sol\":3609:3626  _ownedTokensIndex */\n      0x07\n        /* \"@openzeppelin/contracts/token/ERC721/extensions/ERC721Enumerable.sol\":3609:3635  _ownedTokensIndex[tokenId] */\n      0x00\n        /* \"@openzeppelin/contracts/token/ERC721/extensions/ERC721Enumerable.sol\":3627:3634  tokenId */\n      dup5\n        /* \"@openzeppelin/contracts/token/ERC721/extensions/ERC721Enumerable.sol\":3609:3635  _ownedTokensIndex[tokenId] */\n      dup2\n      mstore\n      0x20\n      add\n      swap1\n      dup2\n      mstore\n      0x20\n      add\n      0x00\n      keccak256\n        /* \"@openzeppelin/contracts/token/ERC721/extensions/ERC721Enumerable.sol\":3609:3644  _ownedTokensIndex[tokenId] = length */\n      dup2\n      swap1\n      sstore\n      pop\n        /* \"@openzeppelin/contracts/token/ERC721/extensions/ERC721Enumerable.sol\":3511:3651  {... */\n      pop\n        /* \"@openzeppelin/contracts/token/ERC721/extensions/ERC721Enumerable.sol\":3437:3651  function _addTokenToOwnerEnumeration(address to, uint256 tokenId) private {... */\n      pop\n      pop\n      jump\t// out\n        /* \"@openzeppelin/contracts/token/ERC721/ERC721.sol\":7082:7450  function _checkAuthorized(address owner, address spender, uint256 tokenId) internal view virtual {... */\n    tag_489:\n        /* \"@openzeppelin/contracts/token/ERC721/ERC721.sol\":7194:7232  _isAuthorized(owner, spender, tokenId) */\n      tag_515\n        /* \"@openzeppelin/contracts/token/ERC721/ERC721.sol\":7208:7213  owner */\n      dup4\n        /* \"@openzeppelin/contracts/token/ERC721/ERC721.sol\":7215:7222  spender */\n      dup4\n        /* \"@openzeppelin/contracts/token/ERC721/ERC721.sol\":7224:7231  tokenId */\n      dup4\n        /* \"@openzeppelin/contracts/token/ERC721/ERC721.sol\":7194:7207  _isAuthorized */\n      tag_516\n        /* \"@openzeppelin/contracts/token/ERC721/ERC721.sol\":7194:7232  _isAuthorized(owner, spender, tokenId) */\n      jump\t// in\n    tag_515:\n        /* \"@openzeppelin/contracts/token/ERC721/ERC721.sol\":7189:7444  if (!_isAuthorized(owner, spender, tokenId)) {... */\n      tag_517\n      jumpi\n        /* \"@openzeppelin/contracts/token/ERC721/ERC721.sol\":7269:7270  0 */\n      0x00\n        /* \"@openzeppelin/contracts/token/ERC721/ERC721.sol\":7252:7271  owner == address(0) */\n      0xffffffffffffffffffffffffffffffffffffffff\n      and\n        /* \"@openzeppelin/contracts/token/ERC721/ERC721.sol\":7252:7257  owner */\n      dup4\n        /* \"@openzeppelin/contracts/token/ERC721/ERC721.sol\":7252:7271  owner == address(0) */\n      0xffffffffffffffffffffffffffffffffffffffff\n      and\n      sub\n        /* \"@openzeppelin/contracts/token/ERC721/ERC721.sol\":7248:7434  if (owner == address(0)) {... */\n      tag_518\n      jumpi\n        /* \"@openzeppelin/contracts/token/ERC721/ERC721.sol\":7321:7328  tokenId */\n      dup1\n        /* \"@openzeppelin/contracts/token/ERC721/ERC721.sol\":7298:7329  ERC721NonexistentToken(tokenId) */\n      mload(0x40)\n      0x7e27328900000000000000000000000000000000000000000000000000000000\n      dup2\n      mstore\n      0x04\n      add\n      tag_519\n      swap2\n      swap1\n      tag_74\n      jump\t// in\n    tag_519:\n      mload(0x40)\n      dup1\n      swap2\n      sub\n      swap1\n      revert\n        /* \"@openzeppelin/contracts/token/ERC721/ERC721.sol\":7248:7434  if (owner == address(0)) {... */\n    tag_518:\n        /* \"@openzeppelin/contracts/token/ERC721/ERC721.sol\":7402:7409  spender */\n      dup2\n        /* \"@openzeppelin/contracts/token/ERC721/ERC721.sol\":7411:7418  tokenId */\n      dup2\n        /* \"@openzeppelin/contracts/token/ERC721/ERC721.sol\":7375:7419  ERC721InsufficientApproval(spender, tokenId) */\n      mload(0x40)\n      0x177e802f00000000000000000000000000000000000000000000000000000000\n      dup2\n      mstore\n      0x04\n      add\n      tag_521\n      swap3\n      swap2\n      swap1\n      tag_244\n      jump\t// in\n    tag_521:\n      mload(0x40)\n      dup1\n      swap2\n      sub\n      swap1\n      revert\n        /* \"@openzeppelin/contracts/token/ERC721/ERC721.sol\":7189:7444  if (!_isAuthorized(owner, spender, tokenId)) {... */\n    tag_517:\n        /* \"@openzeppelin/contracts/token/ERC721/ERC721.sol\":7082:7450  function _checkAuthorized(address owner, address spender, uint256 tokenId) internal view virtual {... */\n      pop\n      pop\n      pop\n      jump\t// out\n        /* \"@openzeppelin/contracts/token/ERC721/ERC721.sol\":6376:6648  function _isAuthorized(address owner, address spender, uint256 tokenId) internal view virtual returns (bool) {... */\n    tag_516:\n        /* \"@openzeppelin/contracts/token/ERC721/ERC721.sol\":6479:6483  bool */\n      0x00\n        /* \"@openzeppelin/contracts/token/ERC721/ERC721.sol\":6533:6534  0 */\n      dup1\n        /* \"@openzeppelin/contracts/token/ERC721/ERC721.sol\":6514:6535  spender != address(0) */\n      0xffffffffffffffffffffffffffffffffffffffff\n      and\n        /* \"@openzeppelin/contracts/token/ERC721/ERC721.sol\":6514:6521  spender */\n      dup4\n        /* \"@openzeppelin/contracts/token/ERC721/ERC721.sol\":6514:6535  spender != address(0) */\n      0xffffffffffffffffffffffffffffffffffffffff\n      and\n      eq\n      iszero\n        /* \"@openzeppelin/contracts/token/ERC721/ERC721.sol\":6514:6641  spender != address(0) &&... */\n      dup1\n      iszero\n      tag_523\n      jumpi\n      pop\n        /* \"@openzeppelin/contracts/token/ERC721/ERC721.sol\":6561:6568  spender */\n      dup3\n        /* \"@openzeppelin/contracts/token/ERC721/ERC721.sol\":6552:6568  owner == spender */\n      0xffffffffffffffffffffffffffffffffffffffff\n      and\n        /* \"@openzeppelin/contracts/token/ERC721/ERC721.sol\":6552:6557  owner */\n      dup5\n        /* \"@openzeppelin/contracts/token/ERC721/ERC721.sol\":6552:6568  owner == spender */\n      0xffffffffffffffffffffffffffffffffffffffff\n      and\n      eq\n        /* \"@openzeppelin/contracts/token/ERC721/ERC721.sol\":6552:6604  owner == spender || isApprovedForAll(owner, spender) */\n      dup1\n      tag_524\n      jumpi\n      pop\n        /* \"@openzeppelin/contracts/token/ERC721/ERC721.sol\":6572:6604  isApprovedForAll(owner, spender) */\n      tag_525\n        /* \"@openzeppelin/contracts/token/ERC721/ERC721.sol\":6589:6594  owner */\n      dup5\n        /* \"@openzeppelin/contracts/token/ERC721/ERC721.sol\":6596:6603  spender */\n      dup5\n        /* \"@openzeppelin/contracts/token/ERC721/ERC721.sol\":6572:6588  isApprovedForAll */\n      tag_174\n        /* \"@openzeppelin/contracts/token/ERC721/ERC721.sol\":6572:6604  isApprovedForAll(owner, spender) */\n      jump\t// in\n    tag_525:\n        /* \"@openzeppelin/contracts/token/ERC721/ERC721.sol\":6552:6604  owner == spender || isApprovedForAll(owner, spender) */\n    tag_524:\n        /* \"@openzeppelin/contracts/token/ERC721/ERC721.sol\":6552:6640  owner == spender || isApprovedForAll(owner, spender) || _getApproved(tokenId) == spender */\n      dup1\n      tag_526\n      jumpi\n      pop\n        /* \"@openzeppelin/contracts/token/ERC721/ERC721.sol\":6633:6640  spender */\n      dup3\n        /* \"@openzeppelin/contracts/token/ERC721/ERC721.sol\":6608:6640  _getApproved(tokenId) == spender */\n      0xffffffffffffffffffffffffffffffffffffffff\n      and\n        /* \"@openzeppelin/contracts/token/ERC721/ERC721.sol\":6608:6629  _getApproved(tokenId) */\n      tag_527\n        /* \"@openzeppelin/contracts/token/ERC721/ERC721.sol\":6621:6628  tokenId */\n      dup4\n        /* \"@openzeppelin/contracts/token/ERC721/ERC721.sol\":6608:6620  _getApproved */\n      tag_194\n        /* \"@openzeppelin/contracts/token/ERC721/ERC721.sol\":6608:6629  _getApproved(tokenId) */\n      jump\t// in\n    tag_527:\n        /* \"@openzeppelin/contracts/token/ERC721/ERC721.sol\":6608:6640  _getApproved(tokenId) == spender */\n      0xffffffffffffffffffffffffffffffffffffffff\n      and\n      eq\n        /* \"@openzeppelin/contracts/token/ERC721/ERC721.sol\":6552:6640  owner == spender || isApprovedForAll(owner, spender) || _getApproved(tokenId) == spender */\n    tag_526:\n        /* \"@openzeppelin/contracts/token/ERC721/ERC721.sol\":6514:6641  spender != address(0) &&... */\n    tag_523:\n        /* \"@openzeppelin/contracts/token/ERC721/ERC721.sol\":6495:6641  return... */\n      swap1\n      pop\n        /* \"@openzeppelin/contracts/token/ERC721/ERC721.sol\":6376:6648  function _isAuthorized(address owner, address spender, uint256 tokenId) internal view virtual returns (bool) {... */\n      swap4\n      swap3\n      pop\n      pop\n      pop\n      jump\t// out\n        /* \"#utility.yul\":7:82   */\n    tag_528:\n        /* \"#utility.yul\":40:46   */\n      0x00\n        /* \"#utility.yul\":73:75   */\n      0x40\n        /* \"#utility.yul\":67:76   */\n      mload\n        /* \"#utility.yul\":57:76   */\n      swap1\n      pop\n        /* \"#utility.yul\":7:82   */\n      swap1\n      jump\t// out\n        /* \"#utility.yul\":88:205   */\n    tag_529:\n        /* \"#utility.yul\":197:198   */\n      0x00\n        /* \"#utility.yul\":194:195   */\n      dup1\n        /* \"#utility.yul\":187:199   */\n      revert\n        /* \"#utility.yul\":211:328   */\n    tag_530:\n        /* \"#utility.yul\":320:321   */\n      0x00\n        /* \"#utility.yul\":317:318   */\n      dup1\n        /* \"#utility.yul\":310:322   */\n      revert\n        /* \"#utility.yul\":334:483   */\n    tag_531:\n        /* \"#utility.yul\":370:377   */\n      0x00\n        /* \"#utility.yul\":410:476   */\n      0xffffffff00000000000000000000000000000000000000000000000000000000\n        /* \"#utility.yul\":403:408   */\n      dup3\n        /* \"#utility.yul\":399:477   */\n      and\n        /* \"#utility.yul\":388:477   */\n      swap1\n      pop\n        /* \"#utility.yul\":334:483   */\n      swap2\n      swap1\n      pop\n      jump\t// out\n        /* \"#utility.yul\":489:609   */\n    tag_532:\n        /* \"#utility.yul\":561:584   */\n      tag_587\n        /* \"#utility.yul\":578:583   */\n      dup2\n        /* \"#utility.yul\":561:584   */\n      tag_531\n      jump\t// in\n    tag_587:\n        /* \"#utility.yul\":554:559   */\n      dup2\n        /* \"#utility.yul\":551:585   */\n      eq\n        /* \"#utility.yul\":541:603   */\n      tag_588\n      jumpi\n        /* \"#utility.yul\":599:600   */\n      0x00\n        /* \"#utility.yul\":596:597   */\n      dup1\n        /* \"#utility.yul\":589:601   */\n      revert\n        /* \"#utility.yul\":541:603   */\n    tag_588:\n        /* \"#utility.yul\":489:609   */\n      pop\n      jump\t// out\n        /* \"#utility.yul\":615:752   */\n    tag_533:\n        /* \"#utility.yul\":660:665   */\n      0x00\n        /* \"#utility.yul\":698:704   */\n      dup2\n        /* \"#utility.yul\":685:705   */\n      calldataload\n        /* \"#utility.yul\":676:705   */\n      swap1\n      pop\n        /* \"#utility.yul\":714:746   */\n      tag_590\n        /* \"#utility.yul\":740:745   */\n      dup2\n        /* \"#utility.yul\":714:746   */\n      tag_532\n      jump\t// in\n    tag_590:\n        /* \"#utility.yul\":615:752   */\n      swap3\n      swap2\n      pop\n      pop\n      jump\t// out\n        /* \"#utility.yul\":758:1085   */\n    tag_43:\n        /* \"#utility.yul\":816:822   */\n      0x00\n        /* \"#utility.yul\":865:867   */\n      0x20\n        /* \"#utility.yul\":853:862   */\n      dup3\n        /* \"#utility.yul\":844:851   */\n      dup5\n        /* \"#utility.yul\":840:863   */\n      sub\n        /* \"#utility.yul\":836:868   */\n      slt\n        /* \"#utility.yul\":833:952   */\n      iszero\n      tag_592\n      jumpi\n        /* \"#utility.yul\":871:950   */\n      tag_593\n      tag_529\n      jump\t// in\n    tag_593:\n        /* \"#utility.yul\":833:952   */\n    tag_592:\n        /* \"#utility.yul\":991:992   */\n      0x00\n        /* \"#utility.yul\":1016:1068   */\n      tag_594\n        /* \"#utility.yul\":1060:1067   */\n      dup5\n        /* \"#utility.yul\":1051:1057   */\n      dup3\n        /* \"#utility.yul\":1040:1049   */\n      dup6\n        /* \"#utility.yul\":1036:1058   */\n      add\n        /* \"#utility.yul\":1016:1068   */\n      tag_533\n      jump\t// in\n    tag_594:\n        /* \"#utility.yul\":1006:1068   */\n      swap2\n      pop\n        /* \"#utility.yul\":962:1078   */\n      pop\n        /* \"#utility.yul\":758:1085   */\n      swap3\n      swap2\n      pop\n      pop\n      jump\t// out\n        /* \"#utility.yul\":1091:1181   */\n    tag_534:\n        /* \"#utility.yul\":1125:1132   */\n      0x00\n        /* \"#utility.yul\":1168:1173   */\n      dup2\n        /* \"#utility.yul\":1161:1174   */\n      iszero\n        /* \"#utility.yul\":1154:1175   */\n      iszero\n        /* \"#utility.yul\":1143:1175   */\n      swap1\n      pop\n        /* \"#utility.yul\":1091:1181   */\n      swap2\n      swap1\n      pop\n      jump\t// out\n        /* \"#utility.yul\":1187:1296   */\n    tag_535:\n        /* \"#utility.yul\":1268:1289   */\n      tag_597\n        /* \"#utility.yul\":1283:1288   */\n      dup2\n        /* \"#utility.yul\":1268:1289   */\n      tag_534\n      jump\t// in\n    tag_597:\n        /* \"#utility.yul\":1263:1266   */\n      dup3\n        /* \"#utility.yul\":1256:1290   */\n      mstore\n        /* \"#utility.yul\":1187:1296   */\n      pop\n      pop\n      jump\t// out\n        /* \"#utility.yul\":1302:1512   */\n    tag_46:\n        /* \"#utility.yul\":1389:1393   */\n      0x00\n        /* \"#utility.yul\":1427:1429   */\n      0x20\n        /* \"#utility.yul\":1416:1425   */\n      dup3\n        /* \"#utility.yul\":1412:1430   */\n      add\n        /* \"#utility.yul\":1404:1430   */\n      swap1\n      pop\n        /* \"#utility.yul\":1440:1505   */\n      tag_599\n        /* \"#utility.yul\":1502:1503   */\n      0x00\n        /* \"#utility.yul\":1491:1500   */\n      dup4\n        /* \"#utility.yul\":1487:1504   */\n      add\n        /* \"#utility.yul\":1478:1484   */\n      dup5\n        /* \"#utility.yul\":1440:1505   */\n      tag_535\n      jump\t// in\n    tag_599:\n        /* \"#utility.yul\":1302:1512   */\n      swap3\n      swap2\n      pop\n      pop\n      jump\t// out\n        /* \"#utility.yul\":1518:1617   */\n    tag_536:\n        /* \"#utility.yul\":1570:1576   */\n      0x00\n        /* \"#utility.yul\":1604:1609   */\n      dup2\n        /* \"#utility.yul\":1598:1610   */\n      mload\n        /* \"#utility.yul\":1588:1610   */\n      swap1\n      pop\n        /* \"#utility.yul\":1518:1617   */\n      swap2\n      swap1\n      pop\n      jump\t// out\n        /* \"#utility.yul\":1623:1792   */\n    tag_537:\n        /* \"#utility.yul\":1707:1718   */\n      0x00\n        /* \"#utility.yul\":1741:1747   */\n      dup3\n        /* \"#utility.yul\":1736:1739   */\n      dup3\n        /* \"#utility.yul\":1729:1748   */\n      mstore\n        /* \"#utility.yul\":1781:1785   */\n      0x20\n        /* \"#utility.yul\":1776:1779   */\n      dup3\n        /* \"#utility.yul\":1772:1786   */\n      add\n        /* \"#utility.yul\":1757:1786   */\n      swap1\n      pop\n        /* \"#utility.yul\":1623:1792   */\n      swap3\n      swap2\n      pop\n      pop\n      jump\t// out\n        /* \"#utility.yul\":1798:2044   */\n    tag_538:\n        /* \"#utility.yul\":1879:1880   */\n      0x00\n        /* \"#utility.yul\":1889:2002   */\n    tag_603:\n        /* \"#utility.yul\":1903:1909   */\n      dup4\n        /* \"#utility.yul\":1900:1901   */\n      dup2\n        /* \"#utility.yul\":1897:1910   */\n      lt\n        /* \"#utility.yul\":1889:2002   */\n      iszero\n      tag_605\n      jumpi\n        /* \"#utility.yul\":1988:1989   */\n      dup1\n        /* \"#utility.yul\":1983:1986   */\n      dup3\n        /* \"#utility.yul\":1979:1990   */\n      add\n        /* \"#utility.yul\":1973:1991   */\n      mload\n        /* \"#utility.yul\":1969:1970   */\n      dup2\n        /* \"#utility.yul\":1964:1967   */\n      dup5\n        /* \"#utility.yul\":1960:1971   */\n      add\n        /* \"#utility.yul\":1953:1992   */\n      mstore\n        /* \"#utility.yul\":1925:1927   */\n      0x20\n        /* \"#utility.yul\":1922:1923   */\n      dup2\n        /* \"#utility.yul\":1918:1928   */\n      add\n        /* \"#utility.yul\":1913:1928   */\n      swap1\n      pop\n        /* \"#utility.yul\":1889:2002   */\n      jump(tag_603)\n    tag_605:\n        /* \"#utility.yul\":2036:2037   */\n      0x00\n        /* \"#utility.yul\":2027:2033   */\n      dup5\n        /* \"#utility.yul\":2022:2025   */\n      dup5\n        /* \"#utility.yul\":2018:2034   */\n      add\n        /* \"#utility.yul\":2011:2038   */\n      mstore\n        /* \"#utility.yul\":1860:2044   */\n      pop\n        /* \"#utility.yul\":1798:2044   */\n      pop\n      pop\n      pop\n      jump\t// out\n        /* \"#utility.yul\":2050:2152   */\n    tag_539:\n        /* \"#utility.yul\":2091:2097   */\n      0x00\n        /* \"#utility.yul\":2142:2144   */\n      0x1f\n        /* \"#utility.yul\":2138:2145   */\n      not\n        /* \"#utility.yul\":2133:2135   */\n      0x1f\n        /* \"#utility.yul\":2126:2131   */\n      dup4\n        /* \"#utility.yul\":2122:2136   */\n      add\n        /* \"#utility.yul\":2118:2146   */\n      and\n        /* \"#utility.yul\":2108:2146   */\n      swap1\n      pop\n        /* \"#utility.yul\":2050:2152   */\n      swap2\n      swap1\n      pop\n      jump\t// out\n        /* \"#utility.yul\":2158:2535   */\n    tag_540:\n        /* \"#utility.yul\":2246:2249   */\n      0x00\n        /* \"#utility.yul\":2274:2313   */\n      tag_608\n        /* \"#utility.yul\":2307:2312   */\n      dup3\n        /* \"#utility.yul\":2274:2313   */\n      tag_536\n      jump\t// in\n    tag_608:\n        /* \"#utility.yul\":2329:2400   */\n      tag_609\n        /* \"#utility.yul\":2393:2399   */\n      dup2\n        /* \"#utility.yul\":2388:2391   */\n      dup6\n        /* \"#utility.yul\":2329:2400   */\n      tag_537\n      jump\t// in\n    tag_609:\n        /* \"#utility.yul\":2322:2400   */\n      swap4\n      pop\n        /* \"#utility.yul\":2409:2474   */\n      tag_610\n        /* \"#utility.yul\":2467:2473   */\n      dup2\n        /* \"#utility.yul\":2462:2465   */\n      dup6\n        /* \"#utility.yul\":2455:2459   */\n      0x20\n        /* \"#utility.yul\":2448:2453   */\n      dup7\n        /* \"#utility.yul\":2444:2460   */\n      add\n        /* \"#utility.yul\":2409:2474   */\n      tag_538\n      jump\t// in\n    tag_610:\n        /* \"#utility.yul\":2499:2528   */\n      tag_611\n        /* \"#utility.yul\":2521:2527   */\n      dup2\n        /* \"#utility.yul\":2499:2528   */\n      tag_539\n      jump\t// in\n    tag_611:\n        /* \"#utility.yul\":2494:2497   */\n      dup5\n        /* \"#utility.yul\":2490:2529   */\n      add\n        /* \"#utility.yul\":2483:2529   */\n      swap2\n      pop\n        /* \"#utility.yul\":2250:2535   */\n      pop\n        /* \"#utility.yul\":2158:2535   */\n      swap3\n      swap2\n      pop\n      pop\n      jump\t// out\n        /* \"#utility.yul\":2541:2854   */\n    tag_51:\n        /* \"#utility.yul\":2654:2658   */\n      0x00\n        /* \"#utility.yul\":2692:2694   */\n      0x20\n        /* \"#utility.yul\":2681:2690   */\n      dup3\n        /* \"#utility.yul\":2677:2695   */\n      add\n        /* \"#utility.yul\":2669:2695   */\n      swap1\n      pop\n        /* \"#utility.yul\":2741:2750   */\n      dup2\n        /* \"#utility.yul\":2735:2739   */\n      dup2\n        /* \"#utility.yul\":2731:2751   */\n      sub\n        /* \"#utility.yul\":2727:2728   */\n      0x00\n        /* \"#utility.yul\":2716:2725   */\n      dup4\n        /* \"#utility.yul\":2712:2729   */\n      add\n        /* \"#utility.yul\":2705:2752   */\n      mstore\n        /* \"#utility.yul\":2769:2847   */\n      tag_613\n        /* \"#utility.yul\":2842:2846   */\n      dup2\n        /* \"#utility.yul\":2833:2839   */\n      dup5\n        /* \"#utility.yul\":2769:2847   */\n      tag_540\n      jump\t// in\n    tag_613:\n        /* \"#utility.yul\":2761:2847   */\n      swap1\n      pop\n        /* \"#utility.yul\":2541:2854   */\n      swap3\n      swap2\n      pop\n      pop\n      jump\t// out\n        /* \"#utility.yul\":2860:2937   */\n    tag_541:\n        /* \"#utility.yul\":2897:2904   */\n      0x00\n        /* \"#utility.yul\":2926:2931   */\n      dup2\n        /* \"#utility.yul\":2915:2931   */\n      swap1\n      pop\n        /* \"#utility.yul\":2860:2937   */\n      swap2\n      swap1\n      pop\n      jump\t// out\n        /* \"#utility.yul\":2943:3065   */\n    tag_542:\n        /* \"#utility.yul\":3016:3040   */\n      tag_616\n        /* \"#utility.yul\":3034:3039   */\n      dup2\n        /* \"#utility.yul\":3016:3040   */\n      tag_541\n      jump\t// in\n    tag_616:\n        /* \"#utility.yul\":3009:3014   */\n      dup2\n        /* \"#utility.yul\":3006:3041   */\n      eq\n        /* \"#utility.yul\":2996:3059   */\n      tag_617\n      jumpi\n        /* \"#utility.yul\":3055:3056   */\n      0x00\n        /* \"#utility.yul\":3052:3053   */\n      dup1\n        /* \"#utility.yul\":3045:3057   */\n      revert\n        /* \"#utility.yul\":2996:3059   */\n    tag_617:\n        /* \"#utility.yul\":2943:3065   */\n      pop\n      jump\t// out\n        /* \"#utility.yul\":3071:3210   */\n    tag_543:\n        /* \"#utility.yul\":3117:3122   */\n      0x00\n        /* \"#utility.yul\":3155:3161   */\n      dup2\n        /* \"#utility.yul\":3142:3162   */\n      calldataload\n        /* \"#utility.yul\":3133:3162   */\n      swap1\n      pop\n        /* \"#utility.yul\":3171:3204   */\n      tag_619\n        /* \"#utility.yul\":3198:3203   */\n      dup2\n        /* \"#utility.yul\":3171:3204   */\n      tag_542\n      jump\t// in\n    tag_619:\n        /* \"#utility.yul\":3071:3210   */\n      swap3\n      swap2\n      pop\n      pop\n      jump\t// out\n        /* \"#utility.yul\":3216:3545   */\n    tag_55:\n        /* \"#utility.yul\":3275:3281   */\n      0x00\n        /* \"#utility.yul\":3324:3326   */\n      0x20\n        /* \"#utility.yul\":3312:3321   */\n      dup3\n        /* \"#utility.yul\":3303:3310   */\n      dup5\n        /* \"#utility.yul\":3299:3322   */\n      sub\n        /* \"#utility.yul\":3295:3327   */\n      slt\n        /* \"#utility.yul\":3292:3411   */\n      iszero\n      tag_621\n      jumpi\n        /* \"#utility.yul\":3330:3409   */\n      tag_622\n      tag_529\n      jump\t// in\n    tag_622:\n        /* \"#utility.yul\":3292:3411   */\n    tag_621:\n        /* \"#utility.yul\":3450:3451   */\n      0x00\n        /* \"#utility.yul\":3475:3528   */\n      tag_623\n        /* \"#utility.yul\":3520:3527   */\n      dup5\n        /* \"#utility.yul\":3511:3517   */\n      dup3\n        /* \"#utility.yul\":3500:3509   */\n      dup6\n        /* \"#utility.yul\":3496:3518   */\n      add\n        /* \"#utility.yul\":3475:3528   */\n      tag_543\n      jump\t// in\n    tag_623:\n        /* \"#utility.yul\":3465:3528   */\n      swap2\n      pop\n        /* \"#utility.yul\":3421:3538   */\n      pop\n        /* \"#utility.yul\":3216:3545   */\n      swap3\n      swap2\n      pop\n      pop\n      jump\t// out\n        /* \"#utility.yul\":3551:3677   */\n    tag_544:\n        /* \"#utility.yul\":3588:3595   */\n      0x00\n        /* \"#utility.yul\":3628:3670   */\n      0xffffffffffffffffffffffffffffffffffffffff\n        /* \"#utility.yul\":3621:3626   */\n      dup3\n        /* \"#utility.yul\":3617:3671   */\n      and\n        /* \"#utility.yul\":3606:3671   */\n      swap1\n      pop\n        /* \"#utility.yul\":3551:3677   */\n      swap2\n      swap1\n      pop\n      jump\t// out\n        /* \"#utility.yul\":3683:3779   */\n    tag_545:\n        /* \"#utility.yul\":3720:3727   */\n      0x00\n        /* \"#utility.yul\":3749:3773   */\n      tag_626\n        /* \"#utility.yul\":3767:3772   */\n      dup3\n        /* \"#utility.yul\":3749:3773   */\n      tag_544\n      jump\t// in\n    tag_626:\n        /* \"#utility.yul\":3738:3773   */\n      swap1\n      pop\n        /* \"#utility.yul\":3683:3779   */\n      swap2\n      swap1\n      pop\n      jump\t// out\n        /* \"#utility.yul\":3785:3903   */\n    tag_546:\n        /* \"#utility.yul\":3872:3896   */\n      tag_628\n        /* \"#utility.yul\":3890:3895   */\n      dup2\n        /* \"#utility.yul\":3872:3896   */\n      tag_545\n      jump\t// in\n    tag_628:\n        /* \"#utility.yul\":3867:3870   */\n      dup3\n        /* \"#utility.yul\":3860:3897   */\n      mstore\n        /* \"#utility.yul\":3785:3903   */\n      pop\n      pop\n      jump\t// out\n        /* \"#utility.yul\":3909:4131   */\n    tag_58:\n        /* \"#utility.yul\":4002:4006   */\n      0x00\n        /* \"#utility.yul\":4040:4042   */\n      0x20\n        /* \"#utility.yul\":4029:4038   */\n      dup3\n        /* \"#utility.yul\":4025:4043   */\n      add\n        /* \"#utility.yul\":4017:4043   */\n      swap1\n      pop\n        /* \"#utility.yul\":4053:4124   */\n      tag_630\n        /* \"#utility.yul\":4121:4122   */\n      0x00\n        /* \"#utility.yul\":4110:4119   */\n      dup4\n        /* \"#utility.yul\":4106:4123   */\n      add\n        /* \"#utility.yul\":4097:4103   */\n      dup5\n        /* \"#utility.yul\":4053:4124   */\n      tag_546\n      jump\t// in\n    tag_630:\n        /* \"#utility.yul\":3909:4131   */\n      swap3\n      swap2\n      pop\n      pop\n      jump\t// out\n        /* \"#utility.yul\":4137:4259   */\n    tag_547:\n        /* \"#utility.yul\":4210:4234   */\n      tag_632\n        /* \"#utility.yul\":4228:4233   */\n      dup2\n        /* \"#utility.yul\":4210:4234   */\n      tag_545\n      jump\t// in\n    tag_632:\n        /* \"#utility.yul\":4203:4208   */\n      dup2\n        /* \"#utility.yul\":4200:4235   */\n      eq\n        /* \"#utility.yul\":4190:4253   */\n      tag_633\n      jumpi\n        /* \"#utility.yul\":4249:4250   */\n      0x00\n        /* \"#utility.yul\":4246:4247   */\n      dup1\n        /* \"#utility.yul\":4239:4251   */\n      revert\n        /* \"#utility.yul\":4190:4253   */\n    tag_633:\n        /* \"#utility.yul\":4137:4259   */\n      pop\n      jump\t// out\n        /* \"#utility.yul\":4265:4404   */\n    tag_548:\n        /* \"#utility.yul\":4311:4316   */\n      0x00\n        /* \"#utility.yul\":4349:4355   */\n      dup2\n        /* \"#utility.yul\":4336:4356   */\n      calldataload\n        /* \"#utility.yul\":4327:4356   */\n      swap1\n      pop\n        /* \"#utility.yul\":4365:4398   */\n      tag_635\n        /* \"#utility.yul\":4392:4397   */\n      dup2\n        /* \"#utility.yul\":4365:4398   */\n      tag_547\n      jump\t// in\n    tag_635:\n        /* \"#utility.yul\":4265:4404   */\n      swap3\n      swap2\n      pop\n      pop\n      jump\t// out\n        /* \"#utility.yul\":4410:4884   */\n    tag_66:\n        /* \"#utility.yul\":4478:4484   */\n      0x00\n        /* \"#utility.yul\":4486:4492   */\n      dup1\n        /* \"#utility.yul\":4535:4537   */\n      0x40\n        /* \"#utility.yul\":4523:4532   */\n      dup4\n        /* \"#utility.yul\":4514:4521   */\n      dup6\n        /* \"#utility.yul\":4510:4533   */\n      sub\n        /* \"#utility.yul\":4506:4538   */\n      slt\n        /* \"#utility.yul\":4503:4622   */\n      iszero\n      tag_637\n      jumpi\n        /* \"#utility.yul\":4541:4620   */\n      tag_638\n      tag_529\n      jump\t// in\n    tag_638:\n        /* \"#utility.yul\":4503:4622   */\n    tag_637:\n        /* \"#utility.yul\":4661:4662   */\n      0x00\n        /* \"#utility.yul\":4686:4739   */\n      tag_639\n        /* \"#utility.yul\":4731:4738   */\n      dup6\n        /* \"#utility.yul\":4722:4728   */\n      dup3\n        /* \"#utility.yul\":4711:4720   */\n      dup7\n        /* \"#utility.yul\":4707:4729   */\n      add\n        /* \"#utility.yul\":4686:4739   */\n      tag_548\n      jump\t// in\n    tag_639:\n        /* \"#utility.yul\":4676:4739   */\n      swap3\n      pop\n        /* \"#utility.yul\":4632:4749   */\n      pop\n        /* \"#utility.yul\":4788:4790   */\n      0x20\n        /* \"#utility.yul\":4814:4867   */\n      tag_640\n        /* \"#utility.yul\":4859:4866   */\n      dup6\n        /* \"#utility.yul\":4850:4856   */\n      dup3\n        /* \"#utility.yul\":4839:4848   */\n      dup7\n        /* \"#utility.yul\":4835:4857   */\n      add\n        /* \"#utility.yul\":4814:4867   */\n      tag_543\n      jump\t// in\n    tag_640:\n        /* \"#utility.yul\":4804:4867   */\n      swap2\n      pop\n        /* \"#utility.yul\":4759:4877   */\n      pop\n        /* \"#utility.yul\":4410:4884   */\n      swap3\n      pop\n      swap3\n      swap1\n      pop\n      jump\t// out\n        /* \"#utility.yul\":4890:5008   */\n    tag_549:\n        /* \"#utility.yul\":4977:5001   */\n      tag_642\n        /* \"#utility.yul\":4995:5000   */\n      dup2\n        /* \"#utility.yul\":4977:5001   */\n      tag_541\n      jump\t// in\n    tag_642:\n        /* \"#utility.yul\":4972:4975   */\n      dup3\n        /* \"#utility.yul\":4965:5002   */\n      mstore\n        /* \"#utility.yul\":4890:5008   */\n      pop\n      pop\n      jump\t// out\n        /* \"#utility.yul\":5014:5236   */\n    tag_74:\n        /* \"#utility.yul\":5107:5111   */\n      0x00\n        /* \"#utility.yul\":5145:5147   */\n      0x20\n        /* \"#utility.yul\":5134:5143   */\n      dup3\n        /* \"#utility.yul\":5130:5148   */\n      add\n        /* \"#utility.yul\":5122:5148   */\n      swap1\n      pop\n        /* \"#utility.yul\":5158:5229   */\n      tag_644\n        /* \"#utility.yul\":5226:5227   */\n      0x00\n        /* \"#utility.yul\":5215:5224   */\n      dup4\n        /* \"#utility.yul\":5211:5228   */\n      add\n        /* \"#utility.yul\":5202:5208   */\n      dup5\n        /* \"#utility.yul\":5158:5229   */\n      tag_549\n      jump\t// in\n    tag_644:\n        /* \"#utility.yul\":5014:5236   */\n      swap3\n      swap2\n      pop\n      pop\n      jump\t// out\n        /* \"#utility.yul\":5242:5861   */\n    tag_78:\n        /* \"#utility.yul\":5319:5325   */\n      0x00\n        /* \"#utility.yul\":5327:5333   */\n      dup1\n        /* \"#utility.yul\":5335:5341   */\n      0x00\n        /* \"#utility.yul\":5384:5386   */\n      0x60\n        /* \"#utility.yul\":5372:5381   */\n      dup5\n        /* \"#utility.yul\":5363:5370   */\n      dup7\n        /* \"#utility.yul\":5359:5382   */\n      sub\n        /* \"#utility.yul\":5355:5387   */\n      slt\n        /* \"#utility.yul\":5352:5471   */\n      iszero\n      tag_646\n      jumpi\n        /* \"#utility.yul\":5390:5469   */\n      tag_647\n      tag_529\n      jump\t// in\n    tag_647:\n        /* \"#utility.yul\":5352:5471   */\n    tag_646:\n        /* \"#utility.yul\":5510:5511   */\n      0x00\n        /* \"#utility.yul\":5535:5588   */\n      tag_648\n        /* \"#utility.yul\":5580:5587   */\n      dup7\n        /* \"#utility.yul\":5571:5577   */\n      dup3\n        /* \"#utility.yul\":5560:5569   */\n      dup8\n        /* \"#utility.yul\":5556:5578   */\n      add\n        /* \"#utility.yul\":5535:5588   */\n      tag_548\n      jump\t// in\n    tag_648:\n        /* \"#utility.yul\":5525:5588   */\n      swap4\n      pop\n        /* \"#utility.yul\":5481:5598   */\n      pop\n        /* \"#utility.yul\":5637:5639   */\n      0x20\n        /* \"#utility.yul\":5663:5716   */\n      tag_649\n        /* \"#utility.yul\":5708:5715   */\n      dup7\n        /* \"#utility.yul\":5699:5705   */\n      dup3\n        /* \"#utility.yul\":5688:5697   */\n      dup8\n        /* \"#utility.yul\":5684:5706   */\n      add\n        /* \"#utility.yul\":5663:5716   */\n      tag_548\n      jump\t// in\n    tag_649:\n        /* \"#utility.yul\":5653:5716   */\n      swap3\n      pop\n        /* \"#utility.yul\":5608:5726   */\n      pop\n        /* \"#utility.yul\":5765:5767   */\n      0x40\n        /* \"#utility.yul\":5791:5844   */\n      tag_650\n        /* \"#utility.yul\":5836:5843   */\n      dup7\n        /* \"#utility.yul\":5827:5833   */\n      dup3\n        /* \"#utility.yul\":5816:5825   */\n      dup8\n        /* \"#utility.yul\":5812:5834   */\n      add\n        /* \"#utility.yul\":5791:5844   */\n      tag_543\n      jump\t// in\n    tag_650:\n        /* \"#utility.yul\":5781:5844   */\n      swap2\n      pop\n        /* \"#utility.yul\":5736:5854   */\n      pop\n        /* \"#utility.yul\":5242:5861   */\n      swap3\n      pop\n      swap3\n      pop\n      swap3\n      jump\t// out\n        /* \"#utility.yul\":5867:6196   */\n    tag_85:\n        /* \"#utility.yul\":5926:5932   */\n      0x00\n        /* \"#utility.yul\":5975:5977   */\n      0x20\n        /* \"#utility.yul\":5963:5972   */\n      dup3\n        /* \"#utility.yul\":5954:5961   */\n      dup5\n        /* \"#utility.yul\":5950:5973   */\n      sub\n        /* \"#utility.yul\":5946:5978   */\n      slt\n        /* \"#utility.yul\":5943:6062   */\n      iszero\n      tag_652\n      jumpi\n        /* \"#utility.yul\":5981:6060   */\n      tag_653\n      tag_529\n      jump\t// in\n    tag_653:\n        /* \"#utility.yul\":5943:6062   */\n    tag_652:\n        /* \"#utility.yul\":6101:6102   */\n      0x00\n        /* \"#utility.yul\":6126:6179   */\n      tag_654\n        /* \"#utility.yul\":6171:6178   */\n      dup5\n        /* \"#utility.yul\":6162:6168   */\n      dup3\n        /* \"#utility.yul\":6151:6160   */\n      dup6\n        /* \"#utility.yul\":6147:6169   */\n      add\n        /* \"#utility.yul\":6126:6179   */\n      tag_548\n      jump\t// in\n    tag_654:\n        /* \"#utility.yul\":6116:6179   */\n      swap2\n      pop\n        /* \"#utility.yul\":6072:6189   */\n      pop\n        /* \"#utility.yul\":5867:6196   */\n      swap3\n      swap2\n      pop\n      pop\n      jump\t// out\n        /* \"#utility.yul\":6202:6318   */\n    tag_550:\n        /* \"#utility.yul\":6272:6293   */\n      tag_656\n        /* \"#utility.yul\":6287:6292   */\n      dup2\n        /* \"#utility.yul\":6272:6293   */\n      tag_534\n      jump\t// in\n    tag_656:\n        /* \"#utility.yul\":6265:6270   */\n      dup2\n        /* \"#utility.yul\":6262:6294   */\n      eq\n        /* \"#utility.yul\":6252:6312   */\n      tag_657\n      jumpi\n        /* \"#utility.yul\":6308:6309   */\n      0x00\n        /* \"#utility.yul\":6305:6306   */\n      dup1\n        /* \"#utility.yul\":6298:6310   */\n      revert\n        /* \"#utility.yul\":6252:6312   */\n    tag_657:\n        /* \"#utility.yul\":6202:6318   */\n      pop\n      jump\t// out\n        /* \"#utility.yul\":6324:6457   */\n    tag_551:\n        /* \"#utility.yul\":6367:6372   */\n      0x00\n        /* \"#utility.yul\":6405:6411   */\n      dup2\n        /* \"#utility.yul\":6392:6412   */\n      calldataload\n        /* \"#utility.yul\":6383:6412   */\n      swap1\n      pop\n        /* \"#utility.yul\":6421:6451   */\n      tag_659\n        /* \"#utility.yul\":6445:6450   */\n      dup2\n        /* \"#utility.yul\":6421:6451   */\n      tag_550\n      jump\t// in\n    tag_659:\n        /* \"#utility.yul\":6324:6457   */\n      swap3\n      swap2\n      pop\n      pop\n      jump\t// out\n        /* \"#utility.yul\":6463:6925   */\n    tag_91:\n        /* \"#utility.yul\":6525:6531   */\n      0x00\n        /* \"#utility.yul\":6533:6539   */\n      dup1\n        /* \"#utility.yul\":6582:6584   */\n      0x40\n        /* \"#utility.yul\":6570:6579   */\n      dup4\n        /* \"#utility.yul\":6561:6568   */\n      dup6\n        /* \"#utility.yul\":6557:6580   */\n      sub\n        /* \"#utility.yul\":6553:6585   */\n      slt\n        /* \"#utility.yul\":6550:6669   */\n      iszero\n      tag_661\n      jumpi\n        /* \"#utility.yul\":6588:6667   */\n      tag_662\n      tag_529\n      jump\t// in\n    tag_662:\n        /* \"#utility.yul\":6550:6669   */\n    tag_661:\n        /* \"#utility.yul\":6708:6709   */\n      0x00\n        /* \"#utility.yul\":6733:6783   */\n      tag_663\n        /* \"#utility.yul\":6775:6782   */\n      dup6\n        /* \"#utility.yul\":6766:6772   */\n      dup3\n        /* \"#utility.yul\":6755:6764   */\n      dup7\n        /* \"#utility.yul\":6751:6773   */\n      add\n        /* \"#utility.yul\":6733:6783   */\n      tag_551\n      jump\t// in\n    tag_663:\n        /* \"#utility.yul\":6723:6783   */\n      swap3\n      pop\n        /* \"#utility.yul\":6679:6793   */\n      pop\n        /* \"#utility.yul\":6832:6834   */\n      0x20\n        /* \"#utility.yul\":6858:6908   */\n      tag_664\n        /* \"#utility.yul\":6900:6907   */\n      dup6\n        /* \"#utility.yul\":6891:6897   */\n      dup3\n        /* \"#utility.yul\":6880:6889   */\n      dup7\n        /* \"#utility.yul\":6876:6898   */\n      add\n        /* \"#utility.yul\":6858:6908   */\n      tag_551\n      jump\t// in\n    tag_664:\n        /* \"#utility.yul\":6848:6908   */\n      swap2\n      pop\n        /* \"#utility.yul\":6803:6918   */\n      pop\n        /* \"#utility.yul\":6463:6925   */\n      swap3\n      pop\n      swap3\n      swap1\n      pop\n      jump\t// out\n        /* \"#utility.yul\":6931:7048   */\n    tag_552:\n        /* \"#utility.yul\":7040:7041   */\n      0x00\n        /* \"#utility.yul\":7037:7038   */\n      dup1\n        /* \"#utility.yul\":7030:7042   */\n      revert\n        /* \"#utility.yul\":7054:7171   */\n    tag_553:\n        /* \"#utility.yul\":7163:7164   */\n      0x00\n        /* \"#utility.yul\":7160:7161   */\n      dup1\n        /* \"#utility.yul\":7153:7165   */\n      revert\n        /* \"#utility.yul\":7177:7294   */\n    tag_554:\n        /* \"#utility.yul\":7286:7287   */\n      0x00\n        /* \"#utility.yul\":7283:7284   */\n      dup1\n        /* \"#utility.yul\":7276:7288   */\n      revert\n        /* \"#utility.yul\":7317:7885   */\n    tag_555:\n        /* \"#utility.yul\":7390:7398   */\n      0x00\n        /* \"#utility.yul\":7400:7406   */\n      dup1\n        /* \"#utility.yul\":7450:7453   */\n      dup4\n        /* \"#utility.yul\":7443:7447   */\n      0x1f\n        /* \"#utility.yul\":7435:7441   */\n      dup5\n        /* \"#utility.yul\":7431:7448   */\n      add\n        /* \"#utility.yul\":7427:7454   */\n      slt\n        /* \"#utility.yul\":7417:7539   */\n      tag_669\n      jumpi\n        /* \"#utility.yul\":7458:7537   */\n      tag_670\n      tag_552\n      jump\t// in\n    tag_670:\n        /* \"#utility.yul\":7417:7539   */\n    tag_669:\n        /* \"#utility.yul\":7571:7577   */\n      dup3\n        /* \"#utility.yul\":7558:7578   */\n      calldataload\n        /* \"#utility.yul\":7548:7578   */\n      swap1\n      pop\n        /* \"#utility.yul\":7601:7619   */\n      0xffffffffffffffff\n        /* \"#utility.yul\":7593:7599   */\n      dup2\n        /* \"#utility.yul\":7590:7620   */\n      gt\n        /* \"#utility.yul\":7587:7704   */\n      iszero\n      tag_671\n      jumpi\n        /* \"#utility.yul\":7623:7702   */\n      tag_672\n      tag_553\n      jump\t// in\n    tag_672:\n        /* \"#utility.yul\":7587:7704   */\n    tag_671:\n        /* \"#utility.yul\":7737:7741   */\n      0x20\n        /* \"#utility.yul\":7729:7735   */\n      dup4\n        /* \"#utility.yul\":7725:7742   */\n      add\n        /* \"#utility.yul\":7713:7742   */\n      swap2\n      pop\n        /* \"#utility.yul\":7791:7794   */\n      dup4\n        /* \"#utility.yul\":7783:7787   */\n      0x20\n        /* \"#utility.yul\":7775:7781   */\n      dup3\n        /* \"#utility.yul\":7771:7788   */\n      mul\n        /* \"#utility.yul\":7761:7769   */\n      dup4\n        /* \"#utility.yul\":7757:7789   */\n      add\n        /* \"#utility.yul\":7754:7795   */\n      gt\n        /* \"#utility.yul\":7751:7879   */\n      iszero\n      tag_673\n      jumpi\n        /* \"#utility.yul\":7798:7877   */\n      tag_674\n      tag_554\n      jump\t// in\n    tag_674:\n        /* \"#utility.yul\":7751:7879   */\n    tag_673:\n        /* \"#utility.yul\":7317:7885   */\n      swap3\n      pop\n      swap3\n      swap1\n      pop\n      jump\t// out\n        /* \"#utility.yul\":7891:8450   */\n    tag_113:\n        /* \"#utility.yul\":7977:7983   */\n      0x00\n        /* \"#utility.yul\":7985:7991   */\n      dup1\n        /* \"#utility.yul\":8034:8036   */\n      0x20\n        /* \"#utility.yul\":8022:8031   */\n      dup4\n        /* \"#utility.yul\":8013:8020   */\n      dup6\n        /* \"#utility.yul\":8009:8032   */\n      sub\n        /* \"#utility.yul\":8005:8037   */\n      slt\n        /* \"#utility.yul\":8002:8121   */\n      iszero\n      tag_676\n      jumpi\n        /* \"#utility.yul\":8040:8119   */\n      tag_677\n      tag_529\n      jump\t// in\n    tag_677:\n        /* \"#utility.yul\":8002:8121   */\n    tag_676:\n        /* \"#utility.yul\":8188:8189   */\n      0x00\n        /* \"#utility.yul\":8177:8186   */\n      dup4\n        /* \"#utility.yul\":8173:8190   */\n      add\n        /* \"#utility.yul\":8160:8191   */\n      calldataload\n        /* \"#utility.yul\":8218:8236   */\n      0xffffffffffffffff\n        /* \"#utility.yul\":8210:8216   */\n      dup2\n        /* \"#utility.yul\":8207:8237   */\n      gt\n        /* \"#utility.yul\":8204:8321   */\n      iszero\n      tag_678\n      jumpi\n        /* \"#utility.yul\":8240:8319   */\n      tag_679\n      tag_530\n      jump\t// in\n    tag_679:\n        /* \"#utility.yul\":8204:8321   */\n    tag_678:\n        /* \"#utility.yul\":8353:8433   */\n      tag_680\n        /* \"#utility.yul\":8425:8432   */\n      dup6\n        /* \"#utility.yul\":8416:8422   */\n      dup3\n        /* \"#utility.yul\":8405:8414   */\n      dup7\n        /* \"#utility.yul\":8401:8423   */\n      add\n        /* \"#utility.yul\":8353:8433   */\n      tag_555\n      jump\t// in\n    tag_680:\n        /* \"#utility.yul\":8335:8433   */\n      swap3\n      pop\n      swap3\n      pop\n        /* \"#utility.yul\":8131:8443   */\n      pop\n        /* \"#utility.yul\":7891:8450   */\n      swap3\n      pop\n      swap3\n      swap1\n      pop\n      jump\t// out\n        /* \"#utility.yul\":8456:8924   */\n    tag_154:\n        /* \"#utility.yul\":8521:8527   */\n      0x00\n        /* \"#utility.yul\":8529:8535   */\n      dup1\n        /* \"#utility.yul\":8578:8580   */\n      0x40\n        /* \"#utility.yul\":8566:8575   */\n      dup4\n        /* \"#utility.yul\":8557:8564   */\n      dup6\n        /* \"#utility.yul\":8553:8576   */\n      sub\n        /* \"#utility.yul\":8549:8581   */\n      slt\n        /* \"#utility.yul\":8546:8665   */\n      iszero\n      tag_682\n      jumpi\n        /* \"#utility.yul\":8584:8663   */\n      tag_683\n      tag_529\n      jump\t// in\n    tag_683:\n        /* \"#utility.yul\":8546:8665   */\n    tag_682:\n        /* \"#utility.yul\":8704:8705   */\n      0x00\n        /* \"#utility.yul\":8729:8782   */\n      tag_684\n        /* \"#utility.yul\":8774:8781   */\n      dup6\n        /* \"#utility.yul\":8765:8771   */\n      dup3\n        /* \"#utility.yul\":8754:8763   */\n      dup7\n        /* \"#utility.yul\":8750:8772   */\n      add\n        /* \"#utility.yul\":8729:8782   */\n      tag_548\n      jump\t// in\n    tag_684:\n        /* \"#utility.yul\":8719:8782   */\n      swap3\n      pop\n        /* \"#utility.yul\":8675:8792   */\n      pop\n        /* \"#utility.yul\":8831:8833   */\n      0x20\n        /* \"#utility.yul\":8857:8907   */\n      tag_685\n        /* \"#utility.yul\":8899:8906   */\n      dup6\n        /* \"#utility.yul\":8890:8896   */\n      dup3\n        /* \"#utility.yul\":8879:8888   */\n      dup7\n        /* \"#utility.yul\":8875:8897   */\n      add\n        /* \"#utility.yul\":8857:8907   */\n      tag_551\n      jump\t// in\n    tag_685:\n        /* \"#utility.yul\":8847:8907   */\n      swap2\n      pop\n        /* \"#utility.yul\":8802:8917   */\n      pop\n        /* \"#utility.yul\":8456:8924   */\n      swap3\n      pop\n      swap3\n      swap1\n      pop\n      jump\t// out\n        /* \"#utility.yul\":8930:9047   */\n    tag_556:\n        /* \"#utility.yul\":9039:9040   */\n      0x00\n        /* \"#utility.yul\":9036:9037   */\n      dup1\n        /* \"#utility.yul\":9029:9041   */\n      revert\n        /* \"#utility.yul\":9053:9233   */\n    tag_399:\n        /* \"#utility.yul\":9101:9178   */\n      0x4e487b7100000000000000000000000000000000000000000000000000000000\n        /* \"#utility.yul\":9098:9099   */\n      0x00\n        /* \"#utility.yul\":9091:9179   */\n      mstore\n        /* \"#utility.yul\":9198:9202   */\n      0x41\n        /* \"#utility.yul\":9195:9196   */\n      0x04\n        /* \"#utility.yul\":9188:9203   */\n      mstore\n        /* \"#utility.yul\":9222:9226   */\n      0x24\n        /* \"#utility.yul\":9219:9220   */\n      0x00\n        /* \"#utility.yul\":9212:9227   */\n      revert\n        /* \"#utility.yul\":9239:9520   */\n    tag_557:\n        /* \"#utility.yul\":9322:9349   */\n      tag_689\n        /* \"#utility.yul\":9344:9348   */\n      dup3\n        /* \"#utility.yul\":9322:9349   */\n      tag_539\n      jump\t// in\n    tag_689:\n        /* \"#utility.yul\":9314:9320   */\n      dup2\n        /* \"#utility.yul\":9310:9350   */\n      add\n        /* \"#utility.yul\":9452:9458   */\n      dup2\n        /* \"#utility.yul\":9440:9450   */\n      dup2\n        /* \"#utility.yul\":9437:9459   */\n      lt\n        /* \"#utility.yul\":9416:9434   */\n      0xffffffffffffffff\n        /* \"#utility.yul\":9404:9414   */\n      dup3\n        /* \"#utility.yul\":9401:9435   */\n      gt\n        /* \"#utility.yul\":9398:9460   */\n      or\n        /* \"#utility.yul\":9395:9483   */\n      iszero\n      tag_690\n      jumpi\n        /* \"#utility.yul\":9463:9481   */\n      tag_691\n      tag_399\n      jump\t// in\n    tag_691:\n        /* \"#utility.yul\":9395:9483   */\n    tag_690:\n        /* \"#utility.yul\":9503:9513   */\n      dup1\n        /* \"#utility.yul\":9499:9501   */\n      0x40\n        /* \"#utility.yul\":9492:9514   */\n      mstore\n        /* \"#utility.yul\":9282:9520   */\n      pop\n        /* \"#utility.yul\":9239:9520   */\n      pop\n      pop\n      jump\t// out\n        /* \"#utility.yul\":9526:9655   */\n    tag_558:\n        /* \"#utility.yul\":9560:9566   */\n      0x00\n        /* \"#utility.yul\":9587:9607   */\n      tag_693\n      tag_528\n      jump\t// in\n    tag_693:\n        /* \"#utility.yul\":9577:9607   */\n      swap1\n      pop\n        /* \"#utility.yul\":9616:9649   */\n      tag_694\n        /* \"#utility.yul\":9644:9648   */\n      dup3\n        /* \"#utility.yul\":9636:9642   */\n      dup3\n        /* \"#utility.yul\":9616:9649   */\n      tag_557\n      jump\t// in\n    tag_694:\n        /* \"#utility.yul\":9526:9655   */\n      swap2\n      swap1\n      pop\n      jump\t// out\n        /* \"#utility.yul\":9661:9968   */\n    tag_559:\n        /* \"#utility.yul\":9722:9726   */\n      0x00\n        /* \"#utility.yul\":9812:9830   */\n      0xffffffffffffffff\n        /* \"#utility.yul\":9804:9810   */\n      dup3\n        /* \"#utility.yul\":9801:9831   */\n      gt\n        /* \"#utility.yul\":9798:9854   */\n      iszero\n      tag_696\n      jumpi\n        /* \"#utility.yul\":9834:9852   */\n      tag_697\n      tag_399\n      jump\t// in\n    tag_697:\n        /* \"#utility.yul\":9798:9854   */\n    tag_696:\n        /* \"#utility.yul\":9872:9901   */\n      tag_698\n        /* \"#utility.yul\":9894:9900   */\n      dup3\n        /* \"#utility.yul\":9872:9901   */\n      tag_539\n      jump\t// in\n    tag_698:\n        /* \"#utility.yul\":9864:9901   */\n      swap1\n      pop\n        /* \"#utility.yul\":9956:9960   */\n      0x20\n        /* \"#utility.yul\":9950:9954   */\n      dup2\n        /* \"#utility.yul\":9946:9961   */\n      add\n        /* \"#utility.yul\":9938:9961   */\n      swap1\n      pop\n        /* \"#utility.yul\":9661:9968   */\n      swap2\n      swap1\n      pop\n      jump\t// out\n        /* \"#utility.yul\":9974:10120   */\n    tag_560:\n        /* \"#utility.yul\":10071:10077   */\n      dup3\n        /* \"#utility.yul\":10066:10069   */\n      dup2\n        /* \"#utility.yul\":10061:10064   */\n      dup4\n        /* \"#utility.yul\":10048:10078   */\n      calldatacopy\n        /* \"#utility.yul\":10112:10113   */\n      0x00\n        /* \"#utility.yul\":10103:10109   */\n      dup4\n        /* \"#utility.yul\":10098:10101   */\n      dup4\n        /* \"#utility.yul\":10094:10110   */\n      add\n        /* \"#utility.yul\":10087:10114   */\n      mstore\n        /* \"#utility.yul\":9974:10120   */\n      pop\n      pop\n      pop\n      jump\t// out\n        /* \"#utility.yul\":10126:10549   */\n    tag_561:\n        /* \"#utility.yul\":10203:10208   */\n      0x00\n        /* \"#utility.yul\":10228:10293   */\n      tag_701\n        /* \"#utility.yul\":10244:10292   */\n      tag_702\n        /* \"#utility.yul\":10285:10291   */\n      dup5\n        /* \"#utility.yul\":10244:10292   */\n      tag_559\n      jump\t// in\n    tag_702:\n        /* \"#utility.yul\":10228:10293   */\n      tag_558\n      jump\t// in\n    tag_701:\n        /* \"#utility.yul\":10219:10293   */\n      swap1\n      pop\n        /* \"#utility.yul\":10316:10322   */\n      dup3\n        /* \"#utility.yul\":10309:10314   */\n      dup2\n        /* \"#utility.yul\":10302:10323   */\n      mstore\n        /* \"#utility.yul\":10354:10358   */\n      0x20\n        /* \"#utility.yul\":10347:10352   */\n      dup2\n        /* \"#utility.yul\":10343:10359   */\n      add\n        /* \"#utility.yul\":10392:10395   */\n      dup5\n        /* \"#utility.yul\":10383:10389   */\n      dup5\n        /* \"#utility.yul\":10378:10381   */\n      dup5\n        /* \"#utility.yul\":10374:10390   */\n      add\n        /* \"#utility.yul\":10371:10396   */\n      gt\n        /* \"#utility.yul\":10368:10480   */\n      iszero\n      tag_703\n      jumpi\n        /* \"#utility.yul\":10399:10478   */\n      tag_704\n      tag_556\n      jump\t// in\n    tag_704:\n        /* \"#utility.yul\":10368:10480   */\n    tag_703:\n        /* \"#utility.yul\":10489:10543   */\n      tag_705\n        /* \"#utility.yul\":10536:10542   */\n      dup5\n        /* \"#utility.yul\":10531:10534   */\n      dup3\n        /* \"#utility.yul\":10526:10529   */\n      dup6\n        /* \"#utility.yul\":10489:10543   */\n      tag_560\n      jump\t// in\n    tag_705:\n        /* \"#utility.yul\":10209:10549   */\n      pop\n        /* \"#utility.yul\":10126:10549   */\n      swap4\n      swap3\n      pop\n      pop\n      pop\n      jump\t// out\n        /* \"#utility.yul\":10568:10906   */\n    tag_562:\n        /* \"#utility.yul\":10623:10628   */\n      0x00\n        /* \"#utility.yul\":10672:10675   */\n      dup3\n        /* \"#utility.yul\":10665:10669   */\n      0x1f\n        /* \"#utility.yul\":10657:10663   */\n      dup4\n        /* \"#utility.yul\":10653:10670   */\n      add\n        /* \"#utility.yul\":10649:10676   */\n      slt\n        /* \"#utility.yul\":10639:10761   */\n      tag_707\n      jumpi\n        /* \"#utility.yul\":10680:10759   */\n      tag_708\n      tag_552\n      jump\t// in\n    tag_708:\n        /* \"#utility.yul\":10639:10761   */\n    tag_707:\n        /* \"#utility.yul\":10797:10803   */\n      dup2\n        /* \"#utility.yul\":10784:10804   */\n      calldataload\n        /* \"#utility.yul\":10822:10900   */\n      tag_709\n        /* \"#utility.yul\":10896:10899   */\n      dup5\n        /* \"#utility.yul\":10888:10894   */\n      dup3\n        /* \"#utility.yul\":10881:10885   */\n      0x20\n        /* \"#utility.yul\":10873:10879   */\n      dup7\n        /* \"#utility.yul\":10869:10886   */\n      add\n        /* \"#utility.yul\":10822:10900   */\n      tag_561\n      jump\t// in\n    tag_709:\n        /* \"#utility.yul\":10813:10900   */\n      swap2\n      pop\n        /* \"#utility.yul\":10629:10906   */\n      pop\n        /* \"#utility.yul\":10568:10906   */\n      swap3\n      swap2\n      pop\n      pop\n      jump\t// out\n        /* \"#utility.yul\":10912:11855   */\n    tag_159:\n        /* \"#utility.yul\":11007:11013   */\n      0x00\n        /* \"#utility.yul\":11015:11021   */\n      dup1\n        /* \"#utility.yul\":11023:11029   */\n      0x00\n        /* \"#utility.yul\":11031:11037   */\n      dup1\n        /* \"#utility.yul\":11080:11083   */\n      0x80\n        /* \"#utility.yul\":11068:11077   */\n      dup6\n        /* \"#utility.yul\":11059:11066   */\n      dup8\n        /* \"#utility.yul\":11055:11078   */\n      sub\n        /* \"#utility.yul\":11051:11084   */\n      slt\n        /* \"#utility.yul\":11048:11168   */\n      iszero\n      tag_711\n      jumpi\n        /* \"#utility.yul\":11087:11166   */\n      tag_712\n      tag_529\n      jump\t// in\n    tag_712:\n        /* \"#utility.yul\":11048:11168   */\n    tag_711:\n        /* \"#utility.yul\":11207:11208   */\n      0x00\n        /* \"#utility.yul\":11232:11285   */\n      tag_713\n        /* \"#utility.yul\":11277:11284   */\n      dup8\n        /* \"#utility.yul\":11268:11274   */\n      dup3\n        /* \"#utility.yul\":11257:11266   */\n      dup9\n        /* \"#utility.yul\":11253:11275   */\n      add\n        /* \"#utility.yul\":11232:11285   */\n      tag_548\n      jump\t// in\n    tag_713:\n        /* \"#utility.yul\":11222:11285   */\n      swap5\n      pop\n        /* \"#utility.yul\":11178:11295   */\n      pop\n        /* \"#utility.yul\":11334:11336   */\n      0x20\n        /* \"#utility.yul\":11360:11413   */\n      tag_714\n        /* \"#utility.yul\":11405:11412   */\n      dup8\n        /* \"#utility.yul\":11396:11402   */\n      dup3\n        /* \"#utility.yul\":11385:11394   */\n      dup9\n        /* \"#utility.yul\":11381:11403   */\n      add\n        /* \"#utility.yul\":11360:11413   */\n      tag_548\n      jump\t// in\n    tag_714:\n        /* \"#utility.yul\":11350:11413   */\n      swap4\n      pop\n        /* \"#utility.yul\":11305:11423   */\n      pop\n        /* \"#utility.yul\":11462:11464   */\n      0x40\n        /* \"#utility.yul\":11488:11541   */\n      tag_715\n        /* \"#utility.yul\":11533:11540   */\n      dup8\n        /* \"#utility.yul\":11524:11530   */\n      dup3\n        /* \"#utility.yul\":11513:11522   */\n      dup9\n        /* \"#utility.yul\":11509:11531   */\n      add\n        /* \"#utility.yul\":11488:11541   */\n      tag_543\n      jump\t// in\n    tag_715:\n        /* \"#utility.yul\":11478:11541   */\n      swap3\n      pop\n        /* \"#utility.yul\":11433:11551   */\n      pop\n        /* \"#utility.yul\":11618:11620   */\n      0x60\n        /* \"#utility.yul\":11607:11616   */\n      dup6\n        /* \"#utility.yul\":11603:11621   */\n      add\n        /* \"#utility.yul\":11590:11622   */\n      calldataload\n        /* \"#utility.yul\":11649:11667   */\n      0xffffffffffffffff\n        /* \"#utility.yul\":11641:11647   */\n      dup2\n        /* \"#utility.yul\":11638:11668   */\n      gt\n        /* \"#utility.yul\":11635:11752   */\n      iszero\n      tag_716\n      jumpi\n        /* \"#utility.yul\":11671:11750   */\n      tag_717\n      tag_530\n      jump\t// in\n    tag_717:\n        /* \"#utility.yul\":11635:11752   */\n    tag_716:\n        /* \"#utility.yul\":11776:11838   */\n      tag_718\n        /* \"#utility.yul\":11830:11837   */\n      dup8\n        /* \"#utility.yul\":11821:11827   */\n      dup3\n        /* \"#utility.yul\":11810:11819   */\n      dup9\n        /* \"#utility.yul\":11806:11828   */\n      add\n        /* \"#utility.yul\":11776:11838   */\n      tag_562\n      jump\t// in\n    tag_718:\n        /* \"#utility.yul\":11766:11838   */\n      swap2\n      pop\n        /* \"#utility.yul\":11561:11848   */\n      pop\n        /* \"#utility.yul\":10912:11855   */\n      swap3\n      swap6\n      swap2\n      swap5\n      pop\n      swap3\n      pop\n      jump\t// out\n        /* \"#utility.yul\":11861:12335   */\n    tag_173:\n        /* \"#utility.yul\":11929:11935   */\n      0x00\n        /* \"#utility.yul\":11937:11943   */\n      dup1\n        /* \"#utility.yul\":11986:11988   */\n      0x40\n        /* \"#utility.yul\":11974:11983   */\n      dup4\n        /* \"#utility.yul\":11965:11972   */\n      dup6\n        /* \"#utility.yul\":11961:11984   */\n      sub\n        /* \"#utility.yul\":11957:11989   */\n      slt\n        /* \"#utility.yul\":11954:12073   */\n      iszero\n      tag_720\n      jumpi\n        /* \"#utility.yul\":11992:12071   */\n      tag_721\n      tag_529\n      jump\t// in\n    tag_721:\n        /* \"#utility.yul\":11954:12073   */\n    tag_720:\n        /* \"#utility.yul\":12112:12113   */\n      0x00\n        /* \"#utility.yul\":12137:12190   */\n      tag_722\n        /* \"#utility.yul\":12182:12189   */\n      dup6\n        /* \"#utility.yul\":12173:12179   */\n      dup3\n        /* \"#utility.yul\":12162:12171   */\n      dup7\n        /* \"#utility.yul\":12158:12180   */\n      add\n        /* \"#utility.yul\":12137:12190   */\n      tag_548\n      jump\t// in\n    tag_722:\n        /* \"#utility.yul\":12127:12190   */\n      swap3\n      pop\n        /* \"#utility.yul\":12083:12200   */\n      pop\n        /* \"#utility.yul\":12239:12241   */\n      0x20\n        /* \"#utility.yul\":12265:12318   */\n      tag_723\n        /* \"#utility.yul\":12310:12317   */\n      dup6\n        /* \"#utility.yul\":12301:12307   */\n      dup3\n        /* \"#utility.yul\":12290:12299   */\n      dup7\n        /* \"#utility.yul\":12286:12308   */\n      add\n        /* \"#utility.yul\":12265:12318   */\n      tag_548\n      jump\t// in\n    tag_723:\n        /* \"#utility.yul\":12255:12318   */\n      swap2\n      pop\n        /* \"#utility.yul\":12210:12328   */\n      pop\n        /* \"#utility.yul\":11861:12335   */\n      swap3\n      pop\n      swap3\n      swap1\n      pop\n      jump\t// out\n        /* \"#utility.yul\":12341:12521   */\n    tag_563:\n        /* \"#utility.yul\":12389:12466   */\n      0x4e487b7100000000000000000000000000000000000000000000000000000000\n        /* \"#utility.yul\":12386:12387   */\n      0x00\n        /* \"#utility.yul\":12379:12467   */\n      mstore\n        /* \"#utility.yul\":12486:12490   */\n      0x22\n        /* \"#utility.yul\":12483:12484   */\n      0x04\n        /* \"#utility.yul\":12476:12491   */\n      mstore\n        /* \"#utility.yul\":12510:12514   */\n      0x24\n        /* \"#utility.yul\":12507:12508   */\n      0x00\n        /* \"#utility.yul\":12500:12515   */\n      revert\n        /* \"#utility.yul\":12527:12847   */\n    tag_185:\n        /* \"#utility.yul\":12571:12577   */\n      0x00\n        /* \"#utility.yul\":12608:12609   */\n      0x02\n        /* \"#utility.yul\":12602:12606   */\n      dup3\n        /* \"#utility.yul\":12598:12610   */\n      div\n        /* \"#utility.yul\":12588:12610   */\n      swap1\n      pop\n        /* \"#utility.yul\":12655:12656   */\n      0x01\n        /* \"#utility.yul\":12649:12653   */\n      dup3\n        /* \"#utility.yul\":12645:12657   */\n      and\n        /* \"#utility.yul\":12676:12694   */\n      dup1\n        /* \"#utility.yul\":12666:12747   */\n      tag_726\n      jumpi\n        /* \"#utility.yul\":12732:12736   */\n      0x7f\n        /* \"#utility.yul\":12724:12730   */\n      dup3\n        /* \"#utility.yul\":12720:12737   */\n      and\n        /* \"#utility.yul\":12710:12737   */\n      swap2\n      pop\n        /* \"#utility.yul\":12666:12747   */\n    tag_726:\n        /* \"#utility.yul\":12794:12796   */\n      0x20\n        /* \"#utility.yul\":12786:12792   */\n      dup3\n        /* \"#utility.yul\":12783:12797   */\n      lt\n        /* \"#utility.yul\":12763:12781   */\n      dup2\n        /* \"#utility.yul\":12760:12798   */\n      sub\n        /* \"#utility.yul\":12757:12841   */\n      tag_727\n      jumpi\n        /* \"#utility.yul\":12813:12831   */\n      tag_728\n      tag_563\n      jump\t// in\n    tag_728:\n        /* \"#utility.yul\":12757:12841   */\n    tag_727:\n        /* \"#utility.yul\":12578:12847   */\n      pop\n        /* \"#utility.yul\":12527:12847   */\n      swap2\n      swap1\n      pop\n      jump\t// out\n        /* \"#utility.yul\":12853:13024   */\n    tag_564:\n        /* \"#utility.yul\":12993:13016   */\n      0x596f752072206e6f74206f6e20746865206c6973740000000000000000000000\n        /* \"#utility.yul\":12989:12990   */\n      0x00\n        /* \"#utility.yul\":12981:12987   */\n      dup3\n        /* \"#utility.yul\":12977:12991   */\n      add\n        /* \"#utility.yul\":12970:13017   */\n      mstore\n        /* \"#utility.yul\":12853:13024   */\n      pop\n      jump\t// out\n        /* \"#utility.yul\":13030:13396   */\n    tag_565:\n        /* \"#utility.yul\":13172:13175   */\n      0x00\n        /* \"#utility.yul\":13193:13260   */\n      tag_731\n        /* \"#utility.yul\":13257:13259   */\n      0x15\n        /* \"#utility.yul\":13252:13255   */\n      dup4\n        /* \"#utility.yul\":13193:13260   */\n      tag_537\n      jump\t// in\n    tag_731:\n        /* \"#utility.yul\":13186:13260   */\n      swap2\n      pop\n        /* \"#utility.yul\":13269:13362   */\n      tag_732\n        /* \"#utility.yul\":13358:13361   */\n      dup3\n        /* \"#utility.yul\":13269:13362   */\n      tag_564\n      jump\t// in\n    tag_732:\n        /* \"#utility.yul\":13387:13389   */\n      0x20\n        /* \"#utility.yul\":13382:13385   */\n      dup3\n        /* \"#utility.yul\":13378:13390   */\n      add\n        /* \"#utility.yul\":13371:13390   */\n      swap1\n      pop\n        /* \"#utility.yul\":13030:13396   */\n      swap2\n      swap1\n      pop\n      jump\t// out\n        /* \"#utility.yul\":13402:13821   */\n    tag_203:\n        /* \"#utility.yul\":13568:13572   */\n      0x00\n        /* \"#utility.yul\":13606:13608   */\n      0x20\n        /* \"#utility.yul\":13595:13604   */\n      dup3\n        /* \"#utility.yul\":13591:13609   */\n      add\n        /* \"#utility.yul\":13583:13609   */\n      swap1\n      pop\n        /* \"#utility.yul\":13655:13664   */\n      dup2\n        /* \"#utility.yul\":13649:13653   */\n      dup2\n        /* \"#utility.yul\":13645:13665   */\n      sub\n        /* \"#utility.yul\":13641:13642   */\n      0x00\n        /* \"#utility.yul\":13630:13639   */\n      dup4\n        /* \"#utility.yul\":13626:13643   */\n      add\n        /* \"#utility.yul\":13619:13666   */\n      mstore\n        /* \"#utility.yul\":13683:13814   */\n      tag_734\n        /* \"#utility.yul\":13809:13813   */\n      dup2\n        /* \"#utility.yul\":13683:13814   */\n      tag_565\n      jump\t// in\n    tag_734:\n        /* \"#utility.yul\":13675:13814   */\n      swap1\n      pop\n        /* \"#utility.yul\":13402:13821   */\n      swap2\n      swap1\n      pop\n      jump\t// out\n        /* \"#utility.yul\":13827:14001   */\n    tag_566:\n        /* \"#utility.yul\":13967:13993   */\n      0x416c6c6f77206c697374204d696e74206e6f74206f70656e0000000000000000\n        /* \"#utility.yul\":13963:13964   */\n      0x00\n        /* \"#utility.yul\":13955:13961   */\n      dup3\n        /* \"#utility.yul\":13951:13965   */\n      add\n        /* \"#utility.yul\":13944:13994   */\n      mstore\n        /* \"#utility.yul\":13827:14001   */\n      pop\n      jump\t// out\n        /* \"#utility.yul\":14007:14373   */\n    tag_567:\n        /* \"#utility.yul\":14149:14152   */\n      0x00\n        /* \"#utility.yul\":14170:14237   */\n      tag_737\n        /* \"#utility.yul\":14234:14236   */\n      0x18\n        /* \"#utility.yul\":14229:14232   */\n      dup4\n        /* \"#utility.yul\":14170:14237   */\n      tag_537\n      jump\t// in\n    tag_737:\n        /* \"#utility.yul\":14163:14237   */\n      swap2\n      pop\n        /* \"#utility.yul\":14246:14339   */\n      tag_738\n        /* \"#utility.yul\":14335:14338   */\n      dup3\n        /* \"#utility.yul\":14246:14339   */\n      tag_566\n      jump\t// in\n    tag_738:\n        /* \"#utility.yul\":14364:14366   */\n      0x20\n        /* \"#utility.yul\":14359:14362   */\n      dup3\n        /* \"#utility.yul\":14355:14367   */\n      add\n        /* \"#utility.yul\":14348:14367   */\n      swap1\n      pop\n        /* \"#utility.yul\":14007:14373   */\n      swap2\n      swap1\n      pop\n      jump\t// out\n        /* \"#utility.yul\":14379:14798   */\n    tag_206:\n        /* \"#utility.yul\":14545:14549   */\n      0x00\n        /* \"#utility.yul\":14583:14585   */\n      0x20\n        /* \"#utility.yul\":14572:14581   */\n      dup3\n        /* \"#utility.yul\":14568:14586   */\n      add\n        /* \"#utility.yul\":14560:14586   */\n      swap1\n      pop\n        /* \"#utility.yul\":14632:14641   */\n      dup2\n        /* \"#utility.yul\":14626:14630   */\n      dup2\n        /* \"#utility.yul\":14622:14642   */\n      sub\n        /* \"#utility.yul\":14618:14619   */\n      0x00\n        /* \"#utility.yul\":14607:14616   */\n      dup4\n        /* \"#utility.yul\":14603:14620   */\n      add\n        /* \"#utility.yul\":14596:14643   */\n      mstore\n        /* \"#utility.yul\":14660:14791   */\n      tag_740\n        /* \"#utility.yul\":14786:14790   */\n      dup2\n        /* \"#utility.yul\":14660:14791   */\n      tag_567\n      jump\t// in\n    tag_740:\n        /* \"#utility.yul\":14652:14791   */\n      swap1\n      pop\n        /* \"#utility.yul\":14379:14798   */\n      swap2\n      swap1\n      pop\n      jump\t// out\n        /* \"#utility.yul\":14804:14970   */\n    tag_568:\n        /* \"#utility.yul\":14944:14962   */\n      0x4e6f7420454e6f7567682046756e647300000000000000000000000000000000\n        /* \"#utility.yul\":14940:14941   */\n      0x00\n        /* \"#utility.yul\":14932:14938   */\n      dup3\n        /* \"#utility.yul\":14928:14942   */\n      add\n        /* \"#utility.yul\":14921:14963   */\n      mstore\n        /* \"#utility.yul\":14804:14970   */\n      pop\n      jump\t// out\n        /* \"#utility.yul\":14976:15342   */\n    tag_569:\n        /* \"#utility.yul\":15118:15121   */\n      0x00\n        /* \"#utility.yul\":15139:15206   */\n      tag_743\n        /* \"#utility.yul\":15203:15205   */\n      0x10\n        /* \"#utility.yul\":15198:15201   */\n      dup4\n        /* \"#utility.yul\":15139:15206   */\n      tag_537\n      jump\t// in\n    tag_743:\n        /* \"#utility.yul\":15132:15206   */\n      swap2\n      pop\n        /* \"#utility.yul\":15215:15308   */\n      tag_744\n        /* \"#utility.yul\":15304:15307   */\n      dup3\n        /* \"#utility.yul\":15215:15308   */\n      tag_568\n      jump\t// in\n    tag_744:\n        /* \"#utility.yul\":15333:15335   */\n      0x20\n        /* \"#utility.yul\":15328:15331   */\n      dup3\n        /* \"#utility.yul\":15324:15336   */\n      add\n        /* \"#utility.yul\":15317:15336   */\n      swap1\n      pop\n        /* \"#utility.yul\":14976:15342   */\n      swap2\n      swap1\n      pop\n      jump\t// out\n        /* \"#utility.yul\":15348:15767   */\n    tag_209:\n        /* \"#utility.yul\":15514:15518   */\n      0x00\n        /* \"#utility.yul\":15552:15554   */\n      0x20\n        /* \"#utility.yul\":15541:15550   */\n      dup3\n        /* \"#utility.yul\":15537:15555   */\n      add\n        /* \"#utility.yul\":15529:15555   */\n      swap1\n      pop\n        /* \"#utility.yul\":15601:15610   */\n      dup2\n        /* \"#utility.yul\":15595:15599   */\n      dup2\n        /* \"#utility.yul\":15591:15611   */\n      sub\n        /* \"#utility.yul\":15587:15588   */\n      0x00\n        /* \"#utility.yul\":15576:15585   */\n      dup4\n        /* \"#utility.yul\":15572:15589   */\n      add\n        /* \"#utility.yul\":15565:15612   */\n      mstore\n        /* \"#utility.yul\":15629:15760   */\n      tag_746\n        /* \"#utility.yul\":15755:15759   */\n      dup2\n        /* \"#utility.yul\":15629:15760   */\n      tag_569\n      jump\t// in\n    tag_746:\n        /* \"#utility.yul\":15621:15760   */\n      swap1\n      pop\n        /* \"#utility.yul\":15348:15767   */\n      swap2\n      swap1\n      pop\n      jump\t// out\n        /* \"#utility.yul\":15773:15932   */\n    tag_570:\n        /* \"#utility.yul\":15913:15924   */\n      0x536f6c64204f7574210000000000000000000000000000000000000000000000\n        /* \"#utility.yul\":15909:15910   */\n      0x00\n        /* \"#utility.yul\":15901:15907   */\n      dup3\n        /* \"#utility.yul\":15897:15911   */\n      add\n        /* \"#utility.yul\":15890:15925   */\n      mstore\n        /* \"#utility.yul\":15773:15932   */\n      pop\n      jump\t// out\n        /* \"#utility.yul\":15938:16303   */\n    tag_571:\n        /* \"#utility.yul\":16080:16083   */\n      0x00\n        /* \"#utility.yul\":16101:16167   */\n      tag_749\n        /* \"#utility.yul\":16165:16166   */\n      0x09\n        /* \"#utility.yul\":16160:16163   */\n      dup4\n        /* \"#utility.yul\":16101:16167   */\n      tag_537\n      jump\t// in\n    tag_749:\n        /* \"#utility.yul\":16094:16167   */\n      swap2\n      pop\n        /* \"#utility.yul\":16176:16269   */\n      tag_750\n        /* \"#utility.yul\":16265:16268   */\n      dup3\n        /* \"#utility.yul\":16176:16269   */\n      tag_570\n      jump\t// in\n    tag_750:\n        /* \"#utility.yul\":16294:16296   */\n      0x20\n        /* \"#utility.yul\":16289:16292   */\n      dup3\n        /* \"#utility.yul\":16285:16297   */\n      add\n        /* \"#utility.yul\":16278:16297   */\n      swap1\n      pop\n        /* \"#utility.yul\":15938:16303   */\n      swap2\n      swap1\n      pop\n      jump\t// out\n        /* \"#utility.yul\":16309:16728   */\n    tag_213:\n        /* \"#utility.yul\":16475:16479   */\n      0x00\n        /* \"#utility.yul\":16513:16515   */\n      0x20\n        /* \"#utility.yul\":16502:16511   */\n      dup3\n        /* \"#utility.yul\":16498:16516   */\n      add\n        /* \"#utility.yul\":16490:16516   */\n      swap1\n      pop\n        /* \"#utility.yul\":16562:16571   */\n      dup2\n        /* \"#utility.yul\":16556:16560   */\n      dup2\n        /* \"#utility.yul\":16552:16572   */\n      sub\n        /* \"#utility.yul\":16548:16549   */\n      0x00\n        /* \"#utility.yul\":16537:16546   */\n      dup4\n        /* \"#utility.yul\":16533:16550   */\n      add\n        /* \"#utility.yul\":16526:16573   */\n      mstore\n        /* \"#utility.yul\":16590:16721   */\n      tag_752\n        /* \"#utility.yul\":16716:16720   */\n      dup2\n        /* \"#utility.yul\":16590:16721   */\n      tag_571\n      jump\t// in\n    tag_752:\n        /* \"#utility.yul\":16582:16721   */\n      swap1\n      pop\n        /* \"#utility.yul\":16309:16728   */\n      swap2\n      swap1\n      pop\n      jump\t// out\n        /* \"#utility.yul\":16734:17176   */\n    tag_225:\n        /* \"#utility.yul\":16883:16887   */\n      0x00\n        /* \"#utility.yul\":16921:16923   */\n      0x60\n        /* \"#utility.yul\":16910:16919   */\n      dup3\n        /* \"#utility.yul\":16906:16924   */\n      add\n        /* \"#utility.yul\":16898:16924   */\n      swap1\n      pop\n        /* \"#utility.yul\":16934:17005   */\n      tag_754\n        /* \"#utility.yul\":17002:17003   */\n      0x00\n        /* \"#utility.yul\":16991:17000   */\n      dup4\n        /* \"#utility.yul\":16987:17004   */\n      add\n        /* \"#utility.yul\":16978:16984   */\n      dup7\n        /* \"#utility.yul\":16934:17005   */\n      tag_546\n      jump\t// in\n    tag_754:\n        /* \"#utility.yul\":17015:17087   */\n      tag_755\n        /* \"#utility.yul\":17083:17085   */\n      0x20\n        /* \"#utility.yul\":17072:17081   */\n      dup4\n        /* \"#utility.yul\":17068:17086   */\n      add\n        /* \"#utility.yul\":17059:17065   */\n      dup6\n        /* \"#utility.yul\":17015:17087   */\n      tag_549\n      jump\t// in\n    tag_755:\n        /* \"#utility.yul\":17097:17169   */\n      tag_756\n        /* \"#utility.yul\":17165:17167   */\n      0x40\n        /* \"#utility.yul\":17154:17163   */\n      dup4\n        /* \"#utility.yul\":17150:17168   */\n      add\n        /* \"#utility.yul\":17141:17147   */\n      dup5\n        /* \"#utility.yul\":17097:17169   */\n      tag_546\n      jump\t// in\n    tag_756:\n        /* \"#utility.yul\":16734:17176   */\n      swap5\n      swap4\n      pop\n      pop\n      pop\n      pop\n      jump\t// out\n        /* \"#utility.yul\":17182:17352   */\n    tag_572:\n        /* \"#utility.yul\":17322:17344   */\n      0x5075626c6963204d696e74204e6f74204f50656e000000000000000000000000\n        /* \"#utility.yul\":17318:17319   */\n      0x00\n        /* \"#utility.yul\":17310:17316   */\n      dup3\n        /* \"#utility.yul\":17306:17320   */\n      add\n        /* \"#utility.yul\":17299:17345   */\n      mstore\n        /* \"#utility.yul\":17182:17352   */\n      pop\n      jump\t// out\n        /* \"#utility.yul\":17358:17724   */\n    tag_573:\n        /* \"#utility.yul\":17500:17503   */\n      0x00\n        /* \"#utility.yul\":17521:17588   */\n      tag_759\n        /* \"#utility.yul\":17585:17587   */\n      0x14\n        /* \"#utility.yul\":17580:17583   */\n      dup4\n        /* \"#utility.yul\":17521:17588   */\n      tag_537\n      jump\t// in\n    tag_759:\n        /* \"#utility.yul\":17514:17588   */\n      swap2\n      pop\n        /* \"#utility.yul\":17597:17690   */\n      tag_760\n        /* \"#utility.yul\":17686:17689   */\n      dup3\n        /* \"#utility.yul\":17597:17690   */\n      tag_572\n      jump\t// in\n    tag_760:\n        /* \"#utility.yul\":17715:17717   */\n      0x20\n        /* \"#utility.yul\":17710:17713   */\n      dup3\n        /* \"#utility.yul\":17706:17718   */\n      add\n        /* \"#utility.yul\":17699:17718   */\n      swap1\n      pop\n        /* \"#utility.yul\":17358:17724   */\n      swap2\n      swap1\n      pop\n      jump\t// out\n        /* \"#utility.yul\":17730:18149   */\n    tag_229:\n        /* \"#utility.yul\":17896:17900   */\n      0x00\n        /* \"#utility.yul\":17934:17936   */\n      0x20\n        /* \"#utility.yul\":17923:17932   */\n      dup3\n        /* \"#utility.yul\":17919:17937   */\n      add\n        /* \"#utility.yul\":17911:17937   */\n      swap1\n      pop\n        /* \"#utility.yul\":17983:17992   */\n      dup2\n        /* \"#utility.yul\":17977:17981   */\n      dup2\n        /* \"#utility.yul\":17973:17993   */\n      sub\n        /* \"#utility.yul\":17969:17970   */\n      0x00\n        /* \"#utility.yul\":17958:17967   */\n      dup4\n        /* \"#utility.yul\":17954:17971   */\n      add\n        /* \"#utility.yul\":17947:17994   */\n      mstore\n        /* \"#utility.yul\":18011:18142   */\n      tag_762\n        /* \"#utility.yul\":18137:18141   */\n      dup2\n        /* \"#utility.yul\":18011:18142   */\n      tag_573\n      jump\t// in\n    tag_762:\n        /* \"#utility.yul\":18003:18142   */\n      swap1\n      pop\n        /* \"#utility.yul\":17730:18149   */\n      swap2\n      swap1\n      pop\n      jump\t// out\n        /* \"#utility.yul\":18155:18487   */\n    tag_244:\n        /* \"#utility.yul\":18276:18280   */\n      0x00\n        /* \"#utility.yul\":18314:18316   */\n      0x40\n        /* \"#utility.yul\":18303:18312   */\n      dup3\n        /* \"#utility.yul\":18299:18317   */\n      add\n        /* \"#utility.yul\":18291:18317   */\n      swap1\n      pop\n        /* \"#utility.yul\":18327:18398   */\n      tag_764\n        /* \"#utility.yul\":18395:18396   */\n      0x00\n        /* \"#utility.yul\":18384:18393   */\n      dup4\n        /* \"#utility.yul\":18380:18397   */\n      add\n        /* \"#utility.yul\":18371:18377   */\n      dup6\n        /* \"#utility.yul\":18327:18398   */\n      tag_546\n      jump\t// in\n    tag_764:\n        /* \"#utility.yul\":18408:18480   */\n      tag_765\n        /* \"#utility.yul\":18476:18478   */\n      0x20\n        /* \"#utility.yul\":18465:18474   */\n      dup4\n        /* \"#utility.yul\":18461:18479   */\n      add\n        /* \"#utility.yul\":18452:18458   */\n      dup5\n        /* \"#utility.yul\":18408:18480   */\n      tag_549\n      jump\t// in\n    tag_765:\n        /* \"#utility.yul\":18155:18487   */\n      swap4\n      swap3\n      pop\n      pop\n      pop\n      jump\t// out\n        /* \"#utility.yul\":18493:18673   */\n    tag_258:\n        /* \"#utility.yul\":18541:18618   */\n      0x4e487b7100000000000000000000000000000000000000000000000000000000\n        /* \"#utility.yul\":18538:18539   */\n      0x00\n        /* \"#utility.yul\":18531:18619   */\n      mstore\n        /* \"#utility.yul\":18638:18642   */\n      0x32\n        /* \"#utility.yul\":18635:18636   */\n      0x04\n        /* \"#utility.yul\":18628:18643   */\n      mstore\n        /* \"#utility.yul\":18662:18666   */\n      0x24\n        /* \"#utility.yul\":18659:18660   */\n      0x00\n        /* \"#utility.yul\":18652:18667   */\n      revert\n        /* \"#utility.yul\":18679:18859   */\n    tag_574:\n        /* \"#utility.yul\":18727:18804   */\n      0x4e487b7100000000000000000000000000000000000000000000000000000000\n        /* \"#utility.yul\":18724:18725   */\n      0x00\n        /* \"#utility.yul\":18717:18805   */\n      mstore\n        /* \"#utility.yul\":18824:18828   */\n      0x11\n        /* \"#utility.yul\":18821:18822   */\n      0x04\n        /* \"#utility.yul\":18814:18829   */\n      mstore\n        /* \"#utility.yul\":18848:18852   */\n      0x24\n        /* \"#utility.yul\":18845:18846   */\n      0x00\n        /* \"#utility.yul\":18838:18853   */\n      revert\n        /* \"#utility.yul\":18865:19098   */\n    tag_270:\n        /* \"#utility.yul\":18904:18907   */\n      0x00\n        /* \"#utility.yul\":18927:18951   */\n      tag_769\n        /* \"#utility.yul\":18945:18950   */\n      dup3\n        /* \"#utility.yul\":18927:18951   */\n      tag_541\n      jump\t// in\n    tag_769:\n        /* \"#utility.yul\":18918:18951   */\n      swap2\n      pop\n        /* \"#utility.yul\":18973:19039   */\n      0xffffffffffffffffffffffffffffffffffffffffffffffffffffffffffffffff\n        /* \"#utility.yul\":18966:18971   */\n      dup3\n        /* \"#utility.yul\":18963:19040   */\n      sub\n        /* \"#utility.yul\":18960:19063   */\n      tag_770\n      jumpi\n        /* \"#utility.yul\":19043:19061   */\n      tag_771\n      tag_574\n      jump\t// in\n    tag_771:\n        /* \"#utility.yul\":18960:19063   */\n    tag_770:\n        /* \"#utility.yul\":19090:19091   */\n      0x01\n        /* \"#utility.yul\":19083:19088   */\n      dup3\n        /* \"#utility.yul\":19079:19092   */\n      add\n        /* \"#utility.yul\":19072:19092   */\n      swap1\n      pop\n        /* \"#utility.yul\":18865:19098   */\n      swap2\n      swap1\n      pop\n      jump\t// out\n        /* \"#utility.yul\":19104:19252   */\n    tag_575:\n        /* \"#utility.yul\":19206:19217   */\n      0x00\n        /* \"#utility.yul\":19243:19246   */\n      dup2\n        /* \"#utility.yul\":19228:19246   */\n      swap1\n      pop\n        /* \"#utility.yul\":19104:19252   */\n      swap3\n      swap2\n      pop\n      pop\n      jump\t// out\n        /* \"#utility.yul\":19258:19648   */\n    tag_576:\n        /* \"#utility.yul\":19364:19367   */\n      0x00\n        /* \"#utility.yul\":19392:19431   */\n      tag_774\n        /* \"#utility.yul\":19425:19430   */\n      dup3\n        /* \"#utility.yul\":19392:19431   */\n      tag_536\n      jump\t// in\n    tag_774:\n        /* \"#utility.yul\":19447:19536   */\n      tag_775\n        /* \"#utility.yul\":19529:19535   */\n      dup2\n        /* \"#utility.yul\":19524:19527   */\n      dup6\n        /* \"#utility.yul\":19447:19536   */\n      tag_575\n      jump\t// in\n    tag_775:\n        /* \"#utility.yul\":19440:19536   */\n      swap4\n      pop\n        /* \"#utility.yul\":19545:19610   */\n      tag_776\n        /* \"#utility.yul\":19603:19609   */\n      dup2\n        /* \"#utility.yul\":19598:19601   */\n      dup6\n        /* \"#utility.yul\":19591:19595   */\n      0x20\n        /* \"#utility.yul\":19584:19589   */\n      dup7\n        /* \"#utility.yul\":19580:19596   */\n      add\n        /* \"#utility.yul\":19545:19610   */\n      tag_538\n      jump\t// in\n    tag_776:\n        /* \"#utility.yul\":19635:19641   */\n      dup1\n        /* \"#utility.yul\":19630:19633   */\n      dup5\n        /* \"#utility.yul\":19626:19642   */\n      add\n        /* \"#utility.yul\":19619:19642   */\n      swap2\n      pop\n        /* \"#utility.yul\":19368:19648   */\n      pop\n        /* \"#utility.yul\":19258:19648   */\n      swap3\n      swap2\n      pop\n      pop\n      jump\t// out\n        /* \"#utility.yul\":19654:20089   */\n    tag_321:\n        /* \"#utility.yul\":19834:19837   */\n      0x00\n        /* \"#utility.yul\":19856:19951   */\n      tag_778\n        /* \"#utility.yul\":19947:19950   */\n      dup3\n        /* \"#utility.yul\":19938:19944   */\n      dup6\n        /* \"#utility.yul\":19856:19951   */\n      tag_576\n      jump\t// in\n    tag_778:\n        /* \"#utility.yul\":19849:19951   */\n      swap2\n      pop\n        /* \"#utility.yul\":19968:20063   */\n      tag_779\n        /* \"#utility.yul\":20059:20062   */\n      dup3\n        /* \"#utility.yul\":20050:20056   */\n      dup5\n        /* \"#utility.yul\":19968:20063   */\n      tag_576\n      jump\t// in\n    tag_779:\n        /* \"#utility.yul\":19961:20063   */\n      swap2\n      pop\n        /* \"#utility.yul\":20080:20083   */\n      dup2\n        /* \"#utility.yul\":20073:20083   */\n      swap1\n      pop\n        /* \"#utility.yul\":19654:20089   */\n      swap4\n      swap3\n      pop\n      pop\n      pop\n      jump\t// out\n        /* \"#utility.yul\":20095:20193   */\n    tag_577:\n        /* \"#utility.yul\":20146:20152   */\n      0x00\n        /* \"#utility.yul\":20180:20185   */\n      dup2\n        /* \"#utility.yul\":20174:20186   */\n      mload\n        /* \"#utility.yul\":20164:20186   */\n      swap1\n      pop\n        /* \"#utility.yul\":20095:20193   */\n      swap2\n      swap1\n      pop\n      jump\t// out\n        /* \"#utility.yul\":20199:20367   */\n    tag_578:\n        /* \"#utility.yul\":20282:20293   */\n      0x00\n        /* \"#utility.yul\":20316:20322   */\n      dup3\n        /* \"#utility.yul\":20311:20314   */\n      dup3\n        /* \"#utility.yul\":20304:20323   */\n      mstore\n        /* \"#utility.yul\":20356:20360   */\n      0x20\n        /* \"#utility.yul\":20351:20354   */\n      dup3\n        /* \"#utility.yul\":20347:20361   */\n      add\n        /* \"#utility.yul\":20332:20361   */\n      swap1\n      pop\n        /* \"#utility.yul\":20199:20367   */\n      swap3\n      swap2\n      pop\n      pop\n      jump\t// out\n        /* \"#utility.yul\":20373:20746   */\n    tag_579:\n        /* \"#utility.yul\":20459:20462   */\n      0x00\n        /* \"#utility.yul\":20487:20525   */\n      tag_783\n        /* \"#utility.yul\":20519:20524   */\n      dup3\n        /* \"#utility.yul\":20487:20525   */\n      tag_577\n      jump\t// in\n    tag_783:\n        /* \"#utility.yul\":20541:20611   */\n      tag_784\n        /* \"#utility.yul\":20604:20610   */\n      dup2\n        /* \"#utility.yul\":20599:20602   */\n      dup6\n        /* \"#utility.yul\":20541:20611   */\n      tag_578\n      jump\t// in\n    tag_784:\n        /* \"#utility.yul\":20534:20611   */\n      swap4\n      pop\n        /* \"#utility.yul\":20620:20685   */\n      tag_785\n        /* \"#utility.yul\":20678:20684   */\n      dup2\n        /* \"#utility.yul\":20673:20676   */\n      dup6\n        /* \"#utility.yul\":20666:20670   */\n      0x20\n        /* \"#utility.yul\":20659:20664   */\n      dup7\n        /* \"#utility.yul\":20655:20671   */\n      add\n        /* \"#utility.yul\":20620:20685   */\n      tag_538\n      jump\t// in\n    tag_785:\n        /* \"#utility.yul\":20710:20739   */\n      tag_786\n        /* \"#utility.yul\":20732:20738   */\n      dup2\n        /* \"#utility.yul\":20710:20739   */\n      tag_539\n      jump\t// in\n    tag_786:\n        /* \"#utility.yul\":20705:20708   */\n      dup5\n        /* \"#utility.yul\":20701:20740   */\n      add\n        /* \"#utility.yul\":20694:20740   */\n      swap2\n      pop\n        /* \"#utility.yul\":20463:20746   */\n      pop\n        /* \"#utility.yul\":20373:20746   */\n      swap3\n      swap2\n      pop\n      pop\n      jump\t// out\n        /* \"#utility.yul\":20752:21392   */\n    tag_377:\n        /* \"#utility.yul\":20947:20951   */\n      0x00\n        /* \"#utility.yul\":20985:20988   */\n      0x80\n        /* \"#utility.yul\":20974:20983   */\n      dup3\n        /* \"#utility.yul\":20970:20989   */\n      add\n        /* \"#utility.yul\":20962:20989   */\n      swap1\n      pop\n        /* \"#utility.yul\":20999:21070   */\n      tag_788\n        /* \"#utility.yul\":21067:21068   */\n      0x00\n        /* \"#utility.yul\":21056:21065   */\n      dup4\n        /* \"#utility.yul\":21052:21069   */\n      add\n        /* \"#utility.yul\":21043:21049   */\n      dup8\n        /* \"#utility.yul\":20999:21070   */\n      tag_546\n      jump\t// in\n    tag_788:\n        /* \"#utility.yul\":21080:21152   */\n      tag_789\n        /* \"#utility.yul\":21148:21150   */\n      0x20\n        /* \"#utility.yul\":21137:21146   */\n      dup4\n        /* \"#utility.yul\":21133:21151   */\n      add\n        /* \"#utility.yul\":21124:21130   */\n      dup7\n        /* \"#utility.yul\":21080:21152   */\n      tag_546\n      jump\t// in\n    tag_789:\n        /* \"#utility.yul\":21162:21234   */\n      tag_790\n        /* \"#utility.yul\":21230:21232   */\n      0x40\n        /* \"#utility.yul\":21219:21228   */\n      dup4\n        /* \"#utility.yul\":21215:21233   */\n      add\n        /* \"#utility.yul\":21206:21212   */\n      dup6\n        /* \"#utility.yul\":21162:21234   */\n      tag_549\n      jump\t// in\n    tag_790:\n        /* \"#utility.yul\":21281:21290   */\n      dup2\n        /* \"#utility.yul\":21275:21279   */\n      dup2\n        /* \"#utility.yul\":21271:21291   */\n      sub\n        /* \"#utility.yul\":21266:21268   */\n      0x60\n        /* \"#utility.yul\":21255:21264   */\n      dup4\n        /* \"#utility.yul\":21251:21269   */\n      add\n        /* \"#utility.yul\":21244:21292   */\n      mstore\n        /* \"#utility.yul\":21309:21385   */\n      tag_791\n        /* \"#utility.yul\":21380:21384   */\n      dup2\n        /* \"#utility.yul\":21371:21377   */\n      dup5\n        /* \"#utility.yul\":21309:21385   */\n      tag_579\n      jump\t// in\n    tag_791:\n        /* \"#utility.yul\":21301:21385   */\n      swap1\n      pop\n        /* \"#utility.yul\":20752:21392   */\n      swap6\n      swap5\n      pop\n      pop\n      pop\n      pop\n      pop\n      jump\t// out\n        /* \"#utility.yul\":21398:21539   */\n    tag_580:\n        /* \"#utility.yul\":21454:21459   */\n      0x00\n        /* \"#utility.yul\":21485:21491   */\n      dup2\n        /* \"#utility.yul\":21479:21492   */\n      mload\n        /* \"#utility.yul\":21470:21492   */\n      swap1\n      pop\n        /* \"#utility.yul\":21501:21533   */\n      tag_793\n        /* \"#utility.yul\":21527:21532   */\n      dup2\n        /* \"#utility.yul\":21501:21533   */\n      tag_532\n      jump\t// in\n    tag_793:\n        /* \"#utility.yul\":21398:21539   */\n      swap3\n      swap2\n      pop\n      pop\n      jump\t// out\n        /* \"#utility.yul\":21545:21894   */\n    tag_380:\n        /* \"#utility.yul\":21614:21620   */\n      0x00\n        /* \"#utility.yul\":21663:21665   */\n      0x20\n        /* \"#utility.yul\":21651:21660   */\n      dup3\n        /* \"#utility.yul\":21642:21649   */\n      dup5\n        /* \"#utility.yul\":21638:21661   */\n      sub\n        /* \"#utility.yul\":21634:21666   */\n      slt\n        /* \"#utility.yul\":21631:21750   */\n      iszero\n      tag_795\n      jumpi\n        /* \"#utility.yul\":21669:21748   */\n      tag_796\n      tag_529\n      jump\t// in\n    tag_796:\n        /* \"#utility.yul\":21631:21750   */\n    tag_795:\n        /* \"#utility.yul\":21789:21790   */\n      0x00\n        /* \"#utility.yul\":21814:21877   */\n      tag_797\n        /* \"#utility.yul\":21869:21876   */\n      dup5\n        /* \"#utility.yul\":21860:21866   */\n      dup3\n        /* \"#utility.yul\":21849:21858   */\n      dup6\n        /* \"#utility.yul\":21845:21867   */\n      add\n        /* \"#utility.yul\":21814:21877   */\n      tag_580\n      jump\t// in\n    tag_797:\n        /* \"#utility.yul\":21804:21877   */\n      swap2\n      pop\n        /* \"#utility.yul\":21760:21887   */\n      pop\n        /* \"#utility.yul\":21545:21894   */\n      swap3\n      swap2\n      pop\n      pop\n      jump\t// out\n        /* \"#utility.yul\":21900:22080   */\n    tag_405:\n        /* \"#utility.yul\":21948:22025   */\n      0x4e487b7100000000000000000000000000000000000000000000000000000000\n        /* \"#utility.yul\":21945:21946   */\n      0x00\n        /* \"#utility.yul\":21938:22026   */\n      mstore\n        /* \"#utility.yul\":22045:22049   */\n      0x12\n        /* \"#utility.yul\":22042:22043   */\n      0x04\n        /* \"#utility.yul\":22035:22050   */\n      mstore\n        /* \"#utility.yul\":22069:22073   */\n      0x24\n        /* \"#utility.yul\":22066:22067   */\n      0x00\n        /* \"#utility.yul\":22059:22074   */\n      revert\n        /* \"#utility.yul\":22086:22280   */\n    tag_500:\n        /* \"#utility.yul\":22126:22130   */\n      0x00\n        /* \"#utility.yul\":22146:22166   */\n      tag_800\n        /* \"#utility.yul\":22164:22165   */\n      dup3\n        /* \"#utility.yul\":22146:22166   */\n      tag_541\n      jump\t// in\n    tag_800:\n        /* \"#utility.yul\":22141:22166   */\n      swap2\n      pop\n        /* \"#utility.yul\":22180:22200   */\n      tag_801\n        /* \"#utility.yul\":22198:22199   */\n      dup4\n        /* \"#utility.yul\":22180:22200   */\n      tag_541\n      jump\t// in\n    tag_801:\n        /* \"#utility.yul\":22175:22200   */\n      swap3\n      pop\n        /* \"#utility.yul\":22224:22225   */\n      dup3\n        /* \"#utility.yul\":22221:22222   */\n      dup3\n        /* \"#utility.yul\":22217:22226   */\n      sub\n        /* \"#utility.yul\":22209:22226   */\n      swap1\n      pop\n        /* \"#utility.yul\":22248:22249   */\n      dup2\n        /* \"#utility.yul\":22242:22246   */\n      dup2\n        /* \"#utility.yul\":22239:22250   */\n      gt\n        /* \"#utility.yul\":22236:22273   */\n      iszero\n      tag_802\n      jumpi\n        /* \"#utility.yul\":22253:22271   */\n      tag_803\n      tag_574\n      jump\t// in\n    tag_803:\n        /* \"#utility.yul\":22236:22273   */\n    tag_802:\n        /* \"#utility.yul\":22086:22280   */\n      swap3\n      swap2\n      pop\n      pop\n      jump\t// out\n        /* \"#utility.yul\":22286:22466   */\n    tag_509:\n        /* \"#utility.yul\":22334:22411   */\n      0x4e487b7100000000000000000000000000000000000000000000000000000000\n        /* \"#utility.yul\":22331:22332   */\n      0x00\n        /* \"#utility.yul\":22324:22412   */\n      mstore\n        /* \"#utility.yul\":22431:22435   */\n      0x31\n        /* \"#utility.yul\":22428:22429   */\n      0x04\n        /* \"#utility.yul\":22421:22436   */\n      mstore\n        /* \"#utility.yul\":22455:22459   */\n      0x24\n        /* \"#utility.yul\":22452:22453   */\n      0x00\n        /* \"#utility.yul\":22445:22460   */\n      revert\n    stop\n    data_cf3574ea871133b8ec35d61af3c32371591a3cdd37f22d04ef3c0016b5aaecb9 697066733a2f2f516d535852763476556554457034513345684e62706d58553942434335577a795933665a724b677779767753674b2f\n\n    auxdata: 0xa26469706673582212209b3b6e4b716430eccdb8d1b451d0b72526e88d5080390e3ce87b48d87962924b64736f6c63430008140033\n}\n",
				"bytecode": {
					"linkReferences": {},
					"object": "60806040526103e8600c556103e8600d555f600f5f6101000a81548160ff0219169083151502179055505f600f60016101000a81548160ff0219169083151502179055503480156200004f575f80fd5b50604051620039f1380380620039f18339818101604052810190620000759190620002d6565b806040518060400160405280600981526020017f45524337323153433100000000000000000000000000000000000000000000008152506040518060400160405280600381526020017f5343310000000000000000000000000000000000000000000000000000000000815250815f9081620000f291906200056a565b5080600190816200010491906200056a565b5050505f600a5f6101000a81548160ff0219169083151502179055505f73ffffffffffffffffffffffffffffffffffffffff168173ffffffffffffffffffffffffffffffffffffffff160362000193575f6040517f1e4fbdf70000000000000000000000000000000000000000000000000000000081526004016200018a91906200065f565b60405180910390fd5b620001a481620001ac60201b60201c565b50506200067a565b5f600a60019054906101000a900473ffffffffffffffffffffffffffffffffffffffff16905081600a60016101000a81548173ffffffffffffffffffffffffffffffffffffffff021916908373ffffffffffffffffffffffffffffffffffffffff1602179055508173ffffffffffffffffffffffffffffffffffffffff168173ffffffffffffffffffffffffffffffffffffffff167f8be0079c531659141344cd1fd0a4f28419497f9722a3daafe3b4186f6b6457e060405160405180910390a35050565b5f80fd5b5f73ffffffffffffffffffffffffffffffffffffffff82169050919050565b5f620002a08262000275565b9050919050565b620002b28162000294565b8114620002bd575f80fd5b50565b5f81519050620002d081620002a7565b92915050565b5f60208284031215620002ee57620002ed62000271565b5b5f620002fd84828501620002c0565b91505092915050565b5f81519050919050565b7f4e487b71000000000000000000000000000000000000000000000000000000005f52604160045260245ffd5b7f4e487b71000000000000000000000000000000000000000000000000000000005f52602260045260245ffd5b5f60028204905060018216806200038257607f821691505b6020821081036200039857620003976200033d565b5b50919050565b5f819050815f5260205f209050919050565b5f6020601f8301049050919050565b5f82821b905092915050565b5f60088302620003fc7fffffffffffffffffffffffffffffffffffffffffffffffffffffffffffffffff82620003bf565b620004088683620003bf565b95508019841693508086168417925050509392505050565b5f819050919050565b5f819050919050565b5f620004526200044c620004468462000420565b62000429565b62000420565b9050919050565b5f819050919050565b6200046d8362000432565b620004856200047c8262000459565b848454620003cb565b825550505050565b5f90565b6200049b6200048d565b620004a881848462000462565b505050565b5b81811015620004cf57620004c35f8262000491565b600181019050620004ae565b5050565b601f8211156200051e57620004e8816200039e565b620004f384620003b0565b8101602085101562000503578190505b6200051b6200051285620003b0565b830182620004ad565b50505b505050565b5f82821c905092915050565b5f620005405f198460080262000523565b1980831691505092915050565b5f6200055a83836200052f565b9150826002028217905092915050565b620005758262000306565b67ffffffffffffffff81111562000591576200059062000310565b5b6200059d82546200036a565b620005aa828285620004d3565b5f60209050601f831160018114620005e0575f8415620005cb578287015190505b620005d785826200054d565b86555062000646565b601f198416620005f0866200039e565b5f5b828110156200061957848901518255600182019150602085019450602081019050620005f2565b8683101562000639578489015162000635601f8916826200052f565b8355505b6001600288020188555050505b505050505050565b620006598162000294565b82525050565b5f602082019050620006745f8301846200064e565b92915050565b61336980620006885f395ff3fe6080604052600436106101d7575f3560e01c8063552b818b1161010157806394b5cdec11610094578063bcc9ca5b11610063578063bcc9ca5b1461063b578063c87b56dd14610665578063e985e9c5146106a1578063f2fde38b146106dd576101d7565b806394b5cdec1461059757806395d89b41146105c1578063a22cb465146105eb578063b88d4fde14610613576101d7565b806370a08231116100d057806370a0823114610505578063715018a6146105415780638456cb59146105575780638da5cb5b1461056d576101d7565b8063552b818b1461044f5780635c975abb146104775780636352211e146104a157806368742da6146104dd576101d7565b806323b872dd116101795780632f745c59116101485780632f745c59146103995780633f4ba83a146103d557806342842e0e146103eb5780634f6ccce714610413576101d7565b806323b872dd1461030357806326092b831461032b5780632848aeaf146103355780632f48de7914610371576101d7565b8063085c9bac116101b5578063085c9bac1461027d578063095ea7b3146102a7578063102a6a73146102cf57806318160ddd146102d9576101d7565b806301ffc9a7146101db57806306fdde0314610217578063081812fc14610241575b5f80fd5b3480156101e6575f80fd5b5061020160048036038101906101fc91906127d5565b610705565b60405161020e919061281a565b60405180910390f35b348015610222575f80fd5b5061022b610716565b60405161023891906128bd565b60405180910390f35b34801561024c575f80fd5b5061026760048036038101906102629190612910565b6107a5565b604051610274919061297a565b60405180910390f35b348015610288575f80fd5b506102916107c0565b60405161029e919061281a565b60405180910390f35b3480156102b2575f80fd5b506102cd60048036038101906102c891906129bd565b6107d3565b005b6102d76107e9565b005b3480156102e4575f80fd5b506102ed61095f565b6040516102fa9190612a0a565b60405180910390f35b34801561030e575f80fd5b5061032960048036038101906103249190612a23565b61096b565b005b610333610a6a565b005b348015610340575f80fd5b5061035b60048036038101906103569190612a73565b610b56565b604051610368919061281a565b60405180910390f35b34801561037c575f80fd5b5061039760048036038101906103929190612ac8565b610b73565b005b3480156103a4575f80fd5b506103bf60048036038101906103ba91906129bd565b610bb2565b6040516103cc9190612a0a565b60405180910390f35b3480156103e0575f80fd5b506103e9610c56565b005b3480156103f6575f80fd5b50610411600480360381019061040c9190612a23565b610c68565b005b34801561041e575f80fd5b5061043960048036038101906104349190612910565b610c87565b6040516104469190612a0a565b60405180910390f35b34801561045a575f80fd5b5061047560048036038101906104709190612b67565b610cf9565b005b348015610482575f80fd5b5061048b610da2565b604051610498919061281a565b60405180910390f35b3480156104ac575f80fd5b506104c760048036038101906104c29190612910565b610db7565b6040516104d4919061297a565b60405180910390f35b3480156104e8575f80fd5b5061050360048036038101906104fe9190612a73565b610dc8565b005b348015610510575f80fd5b5061052b60048036038101906105269190612a73565b610e1c565b6040516105389190612a0a565b60405180910390f35b34801561054c575f80fd5b50610555610ed2565b005b348015610562575f80fd5b5061056b610ee5565b005b348015610578575f80fd5b50610581610ef7565b60405161058e919061297a565b60405180910390f35b3480156105a2575f80fd5b506105ab610f20565b6040516105b891906128bd565b60405180910390f35b3480156105cc575f80fd5b506105d5610fac565b6040516105e291906128bd565b60405180910390f35b3480156105f6575f80fd5b50610611600480360381019061060c9190612bb2565b61103c565b005b34801561061e575f80fd5b5061063960048036038101906106349190612d18565b611052565b005b348015610646575f80fd5b5061064f61106f565b60405161065c919061281a565b60405180910390f35b348015610670575f80fd5b5061068b60048036038101906106869190612910565b611081565b60405161069891906128bd565b60405180910390f35b3480156106ac575f80fd5b506106c760048036038101906106c29190612d98565b6110e7565b6040516106d4919061281a565b60405180910390f35b3480156106e8575f80fd5b5061070360048036038101906106fe9190612a73565b611175565b005b5f61070f826111f9565b9050919050565b60605f805461072490612e03565b80601f016020809104026020016040519081016040528092919081815260200182805461075090612e03565b801561079b5780601f106107725761010080835404028352916020019161079b565b820191905f5260205f20905b81548152906001019060200180831161077e57829003601f168201915b5050505050905090565b5f6107af82611272565b506107b9826112f8565b9050919050565b600f60019054906101000a900460ff1681565b6107e582826107e0611331565b611338565b5050565b600e5f3373ffffffffffffffffffffffffffffffffffffffff1673ffffffffffffffffffffffffffffffffffffffff1681526020019081526020015f205f9054906101000a900460ff16610872576040517f08c379a000000000000000000000000000000000000000000000000000000000815260040161086990612e7d565b60405180910390fd5b600f60019054906101000a900460ff166108c1576040517f08c379a00000000000000000000000000000000000000000000000000000000081526004016108b890612ee5565b60405180910390fd5b66038d7ea4c68000341461090a576040517f08c379a000000000000000000000000000000000000000000000000000000000815260040161090190612f4d565b60405180910390fd5b600d5461091561095f565b10610955576040517f08c379a000000000000000000000000000000000000000000000000000000000815260040161094c90612fb5565b60405180910390fd5b61095d61134a565b565b5f600880549050905090565b5f73ffffffffffffffffffffffffffffffffffffffff168273ffffffffffffffffffffffffffffffffffffffff16036109db575f6040517f64a0ae920000000000000000000000000000000000000000000000000000000081526004016109d2919061297a565b60405180910390fd5b5f6109ee83836109e9611331565b611370565b90508373ffffffffffffffffffffffffffffffffffffffff168173ffffffffffffffffffffffffffffffffffffffff1614610a64578382826040517f64283d7b000000000000000000000000000000000000000000000000000000008152600401610a5b93929190612fd3565b60405180910390fd5b50505050565b600f5f9054906101000a900460ff16610ab8576040517f08c379a0000000000000000000000000000000000000000000000000000000008152600401610aaf90613052565b60405180910390fd5b66038d7ea4c680003414610b01576040517f08c379a0000000000000000000000000000000000000000000000000000000008152600401610af890612f4d565b60405180910390fd5b600c54610b0c61095f565b10610b4c576040517f08c379a0000000000000000000000000000000000000000000000000000000008152600401610b4390612fb5565b60405180910390fd5b610b5461134a565b565b600e602052805f5260405f205f915054906101000a900460ff1681565b610b7b611385565b81600f5f6101000a81548160ff02191690831515021790555080600f60016101000a81548160ff0219169083151502179055505050565b5f610bbc83610e1c565b8210610c015782826040517fa57d13dc000000000000000000000000000000000000000000000000000000008152600401610bf8929190613070565b60405180910390fd5b60065f8473ffffffffffffffffffffffffffffffffffffffff1673ffffffffffffffffffffffffffffffffffffffff1681526020019081526020015f205f8381526020019081526020015f2054905092915050565b610c5e611385565b610c6661140c565b565b610c8283838360405180602001604052805f815250611052565b505050565b5f610c9061095f565b8210610cd5575f826040517fa57d13dc000000000000000000000000000000000000000000000000000000008152600401610ccc929190613070565b60405180910390fd5b60088281548110610ce957610ce8613097565b5b905f5260205f2001549050919050565b610d01611385565b5f5b82829050811015610d9d576001600e5f858585818110610d2657610d25613097565b5b9050602002016020810190610d3b9190612a73565b73ffffffffffffffffffffffffffffffffffffffff1673ffffffffffffffffffffffffffffffffffffffff1681526020019081526020015f205f6101000a81548160ff0219169083151502179055508080610d95906130f1565b915050610d03565b505050565b5f600a5f9054906101000a900460ff16905090565b5f610dc182611272565b9050919050565b610dd0611385565b5f4790508173ffffffffffffffffffffffffffffffffffffffff166108fc8290811502906040515f60405180830381858888f19350505050158015610e17573d5f803e3d5ffd5b505050565b5f8073ffffffffffffffffffffffffffffffffffffffff168273ffffffffffffffffffffffffffffffffffffffff1603610e8d575f6040517f89c62b64000000000000000000000000000000000000000000000000000000008152600401610e84919061297a565b60405180910390fd5b60035f8373ffffffffffffffffffffffffffffffffffffffff1673ffffffffffffffffffffffffffffffffffffffff1681526020019081526020015f20549050919050565b610eda611385565b610ee35f61146d565b565b610eed611385565b610ef5611532565b565b5f600a60019054906101000a900473ffffffffffffffffffffffffffffffffffffffff16905090565b60108054610f2d90612e03565b80601f0160208091040260200160405190810160405280929190818152602001828054610f5990612e03565b8015610fa45780601f10610f7b57610100808354040283529160200191610fa4565b820191905f5260205f20905b815481529060010190602001808311610f8757829003601f168201915b505050505081565b606060018054610fbb90612e03565b80601f0160208091040260200160405190810160405280929190818152602001828054610fe790612e03565b80156110325780601f1061100957610100808354040283529160200191611032565b820191905f5260205f20905b81548152906001019060200180831161101557829003601f168201915b5050505050905090565b61104e611047611331565b8383611594565b5050565b61105d84848461096b565b611069848484846116fd565b50505050565b600f5f9054906101000a900460ff1681565b606061108c82611272565b505f6110966118af565b90505f8151116110b45760405180602001604052805f8152506110df565b806110be846118cf565b6040516020016110cf929190613172565b6040516020818303038152906040525b915050919050565b5f60055f8473ffffffffffffffffffffffffffffffffffffffff1673ffffffffffffffffffffffffffffffffffffffff1681526020019081526020015f205f8373ffffffffffffffffffffffffffffffffffffffff1673ffffffffffffffffffffffffffffffffffffffff1681526020019081526020015f205f9054906101000a900460ff16905092915050565b61117d611385565b5f73ffffffffffffffffffffffffffffffffffffffff168173ffffffffffffffffffffffffffffffffffffffff16036111ed575f6040517f1e4fbdf70000000000000000000000000000000000000000000000000000000081526004016111e4919061297a565b60405180910390fd5b6111f68161146d565b50565b5f7f780e9d63000000000000000000000000000000000000000000000000000000007bffffffffffffffffffffffffffffffffffffffffffffffffffffffff1916827bffffffffffffffffffffffffffffffffffffffffffffffffffffffff1916148061126b575061126a82611999565b5b9050919050565b5f8061127d83611a7a565b90505f73ffffffffffffffffffffffffffffffffffffffff168173ffffffffffffffffffffffffffffffffffffffff16036112ef57826040517f7e2732890000000000000000000000000000000000000000000000000000000081526004016112e69190612a0a565b60405180910390fd5b80915050919050565b5f60045f8381526020019081526020015f205f9054906101000a900473ffffffffffffffffffffffffffffffffffffffff169050919050565b5f33905090565b6113458383836001611ab3565b505050565b5f600b5f81548092919061135d906130f1565b91905055905061136d3382611c72565b50565b5f61137c848484611c8f565b90509392505050565b61138d611331565b73ffffffffffffffffffffffffffffffffffffffff166113ab610ef7565b73ffffffffffffffffffffffffffffffffffffffff161461140a576113ce611331565b6040517f118cdaa7000000000000000000000000000000000000000000000000000000008152600401611401919061297a565b60405180910390fd5b565b611414611cac565b5f600a5f6101000a81548160ff0219169083151502179055507f5db9ee0a495bf2e6ff9c91a7834c1ba4fdd244a5e8aa4e537bd38aeae4b073aa611456611331565b604051611463919061297a565b60405180910390a1565b5f600a60019054906101000a900473ffffffffffffffffffffffffffffffffffffffff16905081600a60016101000a81548173ffffffffffffffffffffffffffffffffffffffff021916908373ffffffffffffffffffffffffffffffffffffffff1602179055508173ffffffffffffffffffffffffffffffffffffffff168173ffffffffffffffffffffffffffffffffffffffff167f8be0079c531659141344cd1fd0a4f28419497f9722a3daafe3b4186f6b6457e060405160405180910390a35050565b61153a611cec565b6001600a5f6101000a81548160ff0219169083151502179055507f62e78cea01bee320cd4e420270b5ea74000d11b0c9f74754ebdbfc544b05a25861157d611331565b60405161158a919061297a565b60405180910390a1565b5f73ffffffffffffffffffffffffffffffffffffffff168273ffffffffffffffffffffffffffffffffffffffff160361160457816040517f5b08ba180000000000000000000000000000000000000000000000000000000081526004016115fb919061297a565b60405180910390fd5b8060055f8573ffffffffffffffffffffffffffffffffffffffff1673ffffffffffffffffffffffffffffffffffffffff1681526020019081526020015f205f8473ffffffffffffffffffffffffffffffffffffffff1673ffffffffffffffffffffffffffffffffffffffff1681526020019081526020015f205f6101000a81548160ff0219169083151502179055508173ffffffffffffffffffffffffffffffffffffffff168373ffffffffffffffffffffffffffffffffffffffff167f17307eab39ab6107e8899845ad3d59bd9653f200f220920489ca2b5937696c31836040516116f0919061281a565b60405180910390a3505050565b5f8373ffffffffffffffffffffffffffffffffffffffff163b11156118a9578273ffffffffffffffffffffffffffffffffffffffff1663150b7a02611740611331565b8685856040518563ffffffff1660e01b815260040161176294939291906131e7565b6020604051808303815f875af192505050801561179d57506040513d601f19601f8201168201806040525081019061179a9190613245565b60015b61181e573d805f81146117cb576040519150601f19603f3d011682016040523d82523d5f602084013e6117d0565b606091505b505f81510361181657836040517f64a0ae9200000000000000000000000000000000000000000000000000000000815260040161180d919061297a565b60405180910390fd5b805181602001fd5b63150b7a0260e01b7bffffffffffffffffffffffffffffffffffffffffffffffffffffffff1916817bffffffffffffffffffffffffffffffffffffffffffffffffffffffff1916146118a757836040517f64a0ae9200000000000000000000000000000000000000000000000000000000815260040161189e919061297a565b60405180910390fd5b505b50505050565b60606040518060600160405280603681526020016132fe60369139905090565b60605f60016118dd84611d2d565b0190505f8167ffffffffffffffff8111156118fb576118fa612bf4565b5b6040519080825280601f01601f19166020018201604052801561192d5781602001600182028036833780820191505090505b5090505f82602001820190505b60011561198e578080600190039150507f3031323334353637383961626364656600000000000000000000000000000000600a86061a8153600a858161198357611982613270565b5b0494505f850361193a575b819350505050919050565b5f7f80ac58cd000000000000000000000000000000000000000000000000000000007bffffffffffffffffffffffffffffffffffffffffffffffffffffffff1916827bffffffffffffffffffffffffffffffffffffffffffffffffffffffff19161480611a6357507f5b5e139f000000000000000000000000000000000000000000000000000000007bffffffffffffffffffffffffffffffffffffffffffffffffffffffff1916827bffffffffffffffffffffffffffffffffffffffffffffffffffffffff1916145b80611a735750611a7282611e7e565b5b9050919050565b5f60025f8381526020019081526020015f205f9054906101000a900473ffffffffffffffffffffffffffffffffffffffff169050919050565b8080611aeb57505f73ffffffffffffffffffffffffffffffffffffffff168273ffffffffffffffffffffffffffffffffffffffff1614155b15611c1d575f611afa84611272565b90505f73ffffffffffffffffffffffffffffffffffffffff168373ffffffffffffffffffffffffffffffffffffffff1614158015611b6457508273ffffffffffffffffffffffffffffffffffffffff168173ffffffffffffffffffffffffffffffffffffffff1614155b8015611b775750611b7581846110e7565b155b15611bb957826040517fa9fbf51f000000000000000000000000000000000000000000000000000000008152600401611bb0919061297a565b60405180910390fd5b8115611c1b57838573ffffffffffffffffffffffffffffffffffffffff168273ffffffffffffffffffffffffffffffffffffffff167f8c5be1e5ebec7d5bd14f71427d1e84f3dd0314c0f7b2291e5b200ac8c7c3b92560405160405180910390a45b505b8360045f8581526020019081526020015f205f6101000a81548173ffffffffffffffffffffffffffffffffffffffff021916908373ffffffffffffffffffffffffffffffffffffffff16021790555050505050565b611c8b828260405180602001604052805f815250611ee7565b5050565b5f611c98611cec565b611ca3848484611f02565b90509392505050565b611cb4610da2565b611cea576040517f8dfc202b00000000000000000000000000000000000000000000000000000000815260040160405180910390fd5b565b611cf4610da2565b15611d2b576040517fd93c066500000000000000000000000000000000000000000000000000000000815260040160405180910390fd5b565b5f805f90507a184f03e93ff9f4daa797ed6e38ed64bf6a1f0100000000000000008310611d89577a184f03e93ff9f4daa797ed6e38ed64bf6a1f0100000000000000008381611d7f57611d7e613270565b5b0492506040810190505b6d04ee2d6d415b85acef81000000008310611dc6576d04ee2d6d415b85acef81000000008381611dbc57611dbb613270565b5b0492506020810190505b662386f26fc100008310611df557662386f26fc100008381611deb57611dea613270565b5b0492506010810190505b6305f5e1008310611e1e576305f5e1008381611e1457611e13613270565b5b0492506008810190505b6127108310611e43576127108381611e3957611e38613270565b5b0492506004810190505b60648310611e665760648381611e5c57611e5b613270565b5b0492506002810190505b600a8310611e75576001810190505b80915050919050565b5f7f01ffc9a7000000000000000000000000000000000000000000000000000000007bffffffffffffffffffffffffffffffffffffffffffffffffffffffff1916827bffffffffffffffffffffffffffffffffffffffffffffffffffffffff1916149050919050565b611ef1838361201c565b611efd5f8484846116fd565b505050565b5f80611f0f85858561210f565b90505f73ffffffffffffffffffffffffffffffffffffffff168173ffffffffffffffffffffffffffffffffffffffff1603611f5257611f4d8461231a565b611f91565b8473ffffffffffffffffffffffffffffffffffffffff168173ffffffffffffffffffffffffffffffffffffffff1614611f9057611f8f818561235e565b5b5b5f73ffffffffffffffffffffffffffffffffffffffff168573ffffffffffffffffffffffffffffffffffffffff1603611fd257611fcd846124a8565b612011565b8473ffffffffffffffffffffffffffffffffffffffff168173ffffffffffffffffffffffffffffffffffffffff16146120105761200f8585612568565b5b5b809150509392505050565b5f73ffffffffffffffffffffffffffffffffffffffff168273ffffffffffffffffffffffffffffffffffffffff160361208c575f6040517f64a0ae92000000000000000000000000000000000000000000000000000000008152600401612083919061297a565b60405180910390fd5b5f61209883835f611370565b90505f73ffffffffffffffffffffffffffffffffffffffff168173ffffffffffffffffffffffffffffffffffffffff161461210a575f6040517f73c6ac6e000000000000000000000000000000000000000000000000000000008152600401612101919061297a565b60405180910390fd5b505050565b5f8061211a84611a7a565b90505f73ffffffffffffffffffffffffffffffffffffffff168373ffffffffffffffffffffffffffffffffffffffff161461215b5761215a8184866125ec565b5b5f73ffffffffffffffffffffffffffffffffffffffff168173ffffffffffffffffffffffffffffffffffffffff16146121e65761219a5f855f80611ab3565b600160035f8373ffffffffffffffffffffffffffffffffffffffff1673ffffffffffffffffffffffffffffffffffffffff1681526020019081526020015f205f82825403925050819055505b5f73ffffffffffffffffffffffffffffffffffffffff168573ffffffffffffffffffffffffffffffffffffffff161461226557600160035f8773ffffffffffffffffffffffffffffffffffffffff1673ffffffffffffffffffffffffffffffffffffffff1681526020019081526020015f205f82825401925050819055505b8460025f8681526020019081526020015f205f6101000a81548173ffffffffffffffffffffffffffffffffffffffff021916908373ffffffffffffffffffffffffffffffffffffffff160217905550838573ffffffffffffffffffffffffffffffffffffffff168273ffffffffffffffffffffffffffffffffffffffff167fddf252ad1be2c89b69c2b068fc378daa952ba7f163c4a11628f55a4df523b3ef60405160405180910390a4809150509392505050565b60088054905060095f8381526020019081526020015f2081905550600881908060018154018082558091505060019003905f5260205f20015f909190919091505550565b5f61236883610e1c565b90505f60075f8481526020019081526020015f2054905081811461243f575f60065f8673ffffffffffffffffffffffffffffffffffffffff1673ffffffffffffffffffffffffffffffffffffffff1681526020019081526020015f205f8481526020019081526020015f205490508060065f8773ffffffffffffffffffffffffffffffffffffffff1673ffffffffffffffffffffffffffffffffffffffff1681526020019081526020015f205f8481526020019081526020015f20819055508160075f8381526020019081526020015f2081905550505b60075f8481526020019081526020015f205f905560065f8573ffffffffffffffffffffffffffffffffffffffff1673ffffffffffffffffffffffffffffffffffffffff1681526020019081526020015f205f8381526020019081526020015f205f905550505050565b5f60016008805490506124bb919061329d565b90505f60095f8481526020019081526020015f205490505f600883815481106124e7576124e6613097565b5b905f5260205f2001549050806008838154811061250757612506613097565b5b905f5260205f2001819055508160095f8381526020019081526020015f208190555060095f8581526020019081526020015f205f9055600880548061254f5761254e6132d0565b5b600190038181905f5260205f20015f9055905550505050565b5f600161257484610e1c565b61257e919061329d565b90508160065f8573ffffffffffffffffffffffffffffffffffffffff1673ffffffffffffffffffffffffffffffffffffffff1681526020019081526020015f205f8381526020019081526020015f20819055508060075f8481526020019081526020015f2081905550505050565b6125f78383836126af565b6126aa575f73ffffffffffffffffffffffffffffffffffffffff168373ffffffffffffffffffffffffffffffffffffffff160361266b57806040517f7e2732890000000000000000000000000000000000000000000000000000000081526004016126629190612a0a565b60405180910390fd5b81816040517f177e802f0000000000000000000000000000000000000000000000000000000081526004016126a1929190613070565b60405180910390fd5b505050565b5f8073ffffffffffffffffffffffffffffffffffffffff168373ffffffffffffffffffffffffffffffffffffffff161415801561276657508273ffffffffffffffffffffffffffffffffffffffff168473ffffffffffffffffffffffffffffffffffffffff161480612727575061272684846110e7565b5b8061276557508273ffffffffffffffffffffffffffffffffffffffff1661274d836112f8565b73ffffffffffffffffffffffffffffffffffffffff16145b5b90509392505050565b5f604051905090565b5f80fd5b5f80fd5b5f7fffffffff0000000000000000000000000000000000000000000000000000000082169050919050565b6127b481612780565b81146127be575f80fd5b50565b5f813590506127cf816127ab565b92915050565b5f602082840312156127ea576127e9612778565b5b5f6127f7848285016127c1565b91505092915050565b5f8115159050919050565b61281481612800565b82525050565b5f60208201905061282d5f83018461280b565b92915050565b5f81519050919050565b5f82825260208201905092915050565b5f5b8381101561286a57808201518184015260208101905061284f565b5f8484015250505050565b5f601f19601f8301169050919050565b5f61288f82612833565b612899818561283d565b93506128a981856020860161284d565b6128b281612875565b840191505092915050565b5f6020820190508181035f8301526128d58184612885565b905092915050565b5f819050919050565b6128ef816128dd565b81146128f9575f80fd5b50565b5f8135905061290a816128e6565b92915050565b5f6020828403121561292557612924612778565b5b5f612932848285016128fc565b91505092915050565b5f73ffffffffffffffffffffffffffffffffffffffff82169050919050565b5f6129648261293b565b9050919050565b6129748161295a565b82525050565b5f60208201905061298d5f83018461296b565b92915050565b61299c8161295a565b81146129a6575f80fd5b50565b5f813590506129b781612993565b92915050565b5f80604083850312156129d3576129d2612778565b5b5f6129e0858286016129a9565b92505060206129f1858286016128fc565b9150509250929050565b612a04816128dd565b82525050565b5f602082019050612a1d5f8301846129fb565b92915050565b5f805f60608486031215612a3a57612a39612778565b5b5f612a47868287016129a9565b9350506020612a58868287016129a9565b9250506040612a69868287016128fc565b9150509250925092565b5f60208284031215612a8857612a87612778565b5b5f612a95848285016129a9565b91505092915050565b612aa781612800565b8114612ab1575f80fd5b50565b5f81359050612ac281612a9e565b92915050565b5f8060408385031215612ade57612add612778565b5b5f612aeb85828601612ab4565b9250506020612afc85828601612ab4565b9150509250929050565b5f80fd5b5f80fd5b5f80fd5b5f8083601f840112612b2757612b26612b06565b5b8235905067ffffffffffffffff811115612b4457612b43612b0a565b5b602083019150836020820283011115612b6057612b5f612b0e565b5b9250929050565b5f8060208385031215612b7d57612b7c612778565b5b5f83013567ffffffffffffffff811115612b9a57612b9961277c565b5b612ba685828601612b12565b92509250509250929050565b5f8060408385031215612bc857612bc7612778565b5b5f612bd5858286016129a9565b9250506020612be685828601612ab4565b9150509250929050565b5f80fd5b7f4e487b71000000000000000000000000000000000000000000000000000000005f52604160045260245ffd5b612c2a82612875565b810181811067ffffffffffffffff82111715612c4957612c48612bf4565b5b80604052505050565b5f612c5b61276f565b9050612c678282612c21565b919050565b5f67ffffffffffffffff821115612c8657612c85612bf4565b5b612c8f82612875565b9050602081019050919050565b828183375f83830152505050565b5f612cbc612cb784612c6c565b612c52565b905082815260208101848484011115612cd857612cd7612bf0565b5b612ce3848285612c9c565b509392505050565b5f82601f830112612cff57612cfe612b06565b5b8135612d0f848260208601612caa565b91505092915050565b5f805f8060808587031215612d3057612d2f612778565b5b5f612d3d878288016129a9565b9450506020612d4e878288016129a9565b9350506040612d5f878288016128fc565b925050606085013567ffffffffffffffff811115612d8057612d7f61277c565b5b612d8c87828801612ceb565b91505092959194509250565b5f8060408385031215612dae57612dad612778565b5b5f612dbb858286016129a9565b9250506020612dcc858286016129a9565b9150509250929050565b7f4e487b71000000000000000000000000000000000000000000000000000000005f52602260045260245ffd5b5f6002820490506001821680612e1a57607f821691505b602082108103612e2d57612e2c612dd6565b5b50919050565b7f596f752072206e6f74206f6e20746865206c69737400000000000000000000005f82015250565b5f612e6760158361283d565b9150612e7282612e33565b602082019050919050565b5f6020820190508181035f830152612e9481612e5b565b9050919050565b7f416c6c6f77206c697374204d696e74206e6f74206f70656e00000000000000005f82015250565b5f612ecf60188361283d565b9150612eda82612e9b565b602082019050919050565b5f6020820190508181035f830152612efc81612ec3565b9050919050565b7f4e6f7420454e6f7567682046756e6473000000000000000000000000000000005f82015250565b5f612f3760108361283d565b9150612f4282612f03565b602082019050919050565b5f6020820190508181035f830152612f6481612f2b565b9050919050565b7f536f6c64204f75742100000000000000000000000000000000000000000000005f82015250565b5f612f9f60098361283d565b9150612faa82612f6b565b602082019050919050565b5f6020820190508181035f830152612fcc81612f93565b9050919050565b5f606082019050612fe65f83018661296b565b612ff360208301856129fb565b613000604083018461296b565b949350505050565b7f5075626c6963204d696e74204e6f74204f50656e0000000000000000000000005f82015250565b5f61303c60148361283d565b915061304782613008565b602082019050919050565b5f6020820190508181035f83015261306981613030565b9050919050565b5f6040820190506130835f83018561296b565b61309060208301846129fb565b9392505050565b7f4e487b71000000000000000000000000000000000000000000000000000000005f52603260045260245ffd5b7f4e487b71000000000000000000000000000000000000000000000000000000005f52601160045260245ffd5b5f6130fb826128dd565b91507fffffffffffffffffffffffffffffffffffffffffffffffffffffffffffffffff820361312d5761312c6130c4565b5b600182019050919050565b5f81905092915050565b5f61314c82612833565b6131568185613138565b935061316681856020860161284d565b80840191505092915050565b5f61317d8285613142565b91506131898284613142565b91508190509392505050565b5f81519050919050565b5f82825260208201905092915050565b5f6131b982613195565b6131c3818561319f565b93506131d381856020860161284d565b6131dc81612875565b840191505092915050565b5f6080820190506131fa5f83018761296b565b613207602083018661296b565b61321460408301856129fb565b818103606083015261322681846131af565b905095945050505050565b5f8151905061323f816127ab565b92915050565b5f6020828403121561325a57613259612778565b5b5f61326784828501613231565b91505092915050565b7f4e487b71000000000000000000000000000000000000000000000000000000005f52601260045260245ffd5b5f6132a7826128dd565b91506132b2836128dd565b92508282039050818111156132ca576132c96130c4565b5b92915050565b7f4e487b71000000000000000000000000000000000000000000000000000000005f52603160045260245ffdfe697066733a2f2f516d535852763476556554457034513345684e62706d58553942434335577a795933665a724b677779767753674b2fa26469706673582212209b3b6e4b716430eccdb8d1b451d0b72526e88d5080390e3ce87b48d87962924b64736f6c63430008140033",
					"opcodes": "PUSH1 0x80 PUSH1 0x40 MSTORE PUSH2 0x3E8 PUSH1 0xC SSTORE PUSH2 0x3E8 PUSH1 0xD SSTORE PUSH0 PUSH1 0xF PUSH0 PUSH2 0x100 EXP DUP2 SLOAD DUP2 PUSH1 0xFF MUL NOT AND SWAP1 DUP4 ISZERO ISZERO MUL OR SWAP1 SSTORE POP PUSH0 PUSH1 0xF PUSH1 0x1 PUSH2 0x100 EXP DUP2 SLOAD DUP2 PUSH1 0xFF MUL NOT AND SWAP1 DUP4 ISZERO ISZERO MUL OR SWAP1 SSTORE POP CALLVALUE DUP1 ISZERO PUSH3 0x4F JUMPI PUSH0 DUP1 REVERT JUMPDEST POP PUSH1 0x40 MLOAD PUSH3 0x39F1 CODESIZE SUB DUP1 PUSH3 0x39F1 DUP4 CODECOPY DUP2 DUP2 ADD PUSH1 0x40 MSTORE DUP2 ADD SWAP1 PUSH3 0x75 SWAP2 SWAP1 PUSH3 0x2D6 JUMP JUMPDEST DUP1 PUSH1 0x40 MLOAD DUP1 PUSH1 0x40 ADD PUSH1 0x40 MSTORE DUP1 PUSH1 0x9 DUP2 MSTORE PUSH1 0x20 ADD PUSH32 0x4552433732315343310000000000000000000000000000000000000000000000 DUP2 MSTORE POP PUSH1 0x40 MLOAD DUP1 PUSH1 0x40 ADD PUSH1 0x40 MSTORE DUP1 PUSH1 0x3 DUP2 MSTORE PUSH1 0x20 ADD PUSH32 0x5343310000000000000000000000000000000000000000000000000000000000 DUP2 MSTORE POP DUP2 PUSH0 SWAP1 DUP2 PUSH3 0xF2 SWAP2 SWAP1 PUSH3 0x56A JUMP JUMPDEST POP DUP1 PUSH1 0x1 SWAP1 DUP2 PUSH3 0x104 SWAP2 SWAP1 PUSH3 0x56A JUMP JUMPDEST POP POP POP PUSH0 PUSH1 0xA PUSH0 PUSH2 0x100 EXP DUP2 SLOAD DUP2 PUSH1 0xFF MUL NOT AND SWAP1 DUP4 ISZERO ISZERO MUL OR SWAP1 SSTORE POP PUSH0 PUSH20 0xFFFFFFFFFFFFFFFFFFFFFFFFFFFFFFFFFFFFFFFF AND DUP2 PUSH20 0xFFFFFFFFFFFFFFFFFFFFFFFFFFFFFFFFFFFFFFFF AND SUB PUSH3 0x193 JUMPI PUSH0 PUSH1 0x40 MLOAD PUSH32 0x1E4FBDF700000000000000000000000000000000000000000000000000000000 DUP2 MSTORE PUSH1 0x4 ADD PUSH3 0x18A SWAP2 SWAP1 PUSH3 0x65F JUMP JUMPDEST PUSH1 0x40 MLOAD DUP1 SWAP2 SUB SWAP1 REVERT JUMPDEST PUSH3 0x1A4 DUP2 PUSH3 0x1AC PUSH1 0x20 SHL PUSH1 0x20 SHR JUMP JUMPDEST POP POP PUSH3 0x67A JUMP JUMPDEST PUSH0 PUSH1 0xA PUSH1 0x1 SWAP1 SLOAD SWAP1 PUSH2 0x100 EXP SWAP1 DIV PUSH20 0xFFFFFFFFFFFFFFFFFFFFFFFFFFFFFFFFFFFFFFFF AND SWAP1 POP DUP2 PUSH1 0xA PUSH1 0x1 PUSH2 0x100 EXP DUP2 SLOAD DUP2 PUSH20 0xFFFFFFFFFFFFFFFFFFFFFFFFFFFFFFFFFFFFFFFF MUL NOT AND SWAP1 DUP4 PUSH20 0xFFFFFFFFFFFFFFFFFFFFFFFFFFFFFFFFFFFFFFFF AND MUL OR SWAP1 SSTORE POP DUP2 PUSH20 0xFFFFFFFFFFFFFFFFFFFFFFFFFFFFFFFFFFFFFFFF AND DUP2 PUSH20 0xFFFFFFFFFFFFFFFFFFFFFFFFFFFFFFFFFFFFFFFF AND PUSH32 0x8BE0079C531659141344CD1FD0A4F28419497F9722A3DAAFE3B4186F6B6457E0 PUSH1 0x40 MLOAD PUSH1 0x40 MLOAD DUP1 SWAP2 SUB SWAP1 LOG3 POP POP JUMP JUMPDEST PUSH0 DUP1 REVERT JUMPDEST PUSH0 PUSH20 0xFFFFFFFFFFFFFFFFFFFFFFFFFFFFFFFFFFFFFFFF DUP3 AND SWAP1 POP SWAP2 SWAP1 POP JUMP JUMPDEST PUSH0 PUSH3 0x2A0 DUP3 PUSH3 0x275 JUMP JUMPDEST SWAP1 POP SWAP2 SWAP1 POP JUMP JUMPDEST PUSH3 0x2B2 DUP2 PUSH3 0x294 JUMP JUMPDEST DUP2 EQ PUSH3 0x2BD JUMPI PUSH0 DUP1 REVERT JUMPDEST POP JUMP JUMPDEST PUSH0 DUP2 MLOAD SWAP1 POP PUSH3 0x2D0 DUP2 PUSH3 0x2A7 JUMP JUMPDEST SWAP3 SWAP2 POP POP JUMP JUMPDEST PUSH0 PUSH1 0x20 DUP3 DUP5 SUB SLT ISZERO PUSH3 0x2EE JUMPI PUSH3 0x2ED PUSH3 0x271 JUMP JUMPDEST JUMPDEST PUSH0 PUSH3 0x2FD DUP5 DUP3 DUP6 ADD PUSH3 0x2C0 JUMP JUMPDEST SWAP2 POP POP SWAP3 SWAP2 POP POP JUMP JUMPDEST PUSH0 DUP2 MLOAD SWAP1 POP SWAP2 SWAP1 POP JUMP JUMPDEST PUSH32 0x4E487B7100000000000000000000000000000000000000000000000000000000 PUSH0 MSTORE PUSH1 0x41 PUSH1 0x4 MSTORE PUSH1 0x24 PUSH0 REVERT JUMPDEST PUSH32 0x4E487B7100000000000000000000000000000000000000000000000000000000 PUSH0 MSTORE PUSH1 0x22 PUSH1 0x4 MSTORE PUSH1 0x24 PUSH0 REVERT JUMPDEST PUSH0 PUSH1 0x2 DUP3 DIV SWAP1 POP PUSH1 0x1 DUP3 AND DUP1 PUSH3 0x382 JUMPI PUSH1 0x7F DUP3 AND SWAP2 POP JUMPDEST PUSH1 0x20 DUP3 LT DUP2 SUB PUSH3 0x398 JUMPI PUSH3 0x397 PUSH3 0x33D JUMP JUMPDEST JUMPDEST POP SWAP2 SWAP1 POP JUMP JUMPDEST PUSH0 DUP2 SWAP1 POP DUP2 PUSH0 MSTORE PUSH1 0x20 PUSH0 KECCAK256 SWAP1 POP SWAP2 SWAP1 POP JUMP JUMPDEST PUSH0 PUSH1 0x20 PUSH1 0x1F DUP4 ADD DIV SWAP1 POP SWAP2 SWAP1 POP JUMP JUMPDEST PUSH0 DUP3 DUP3 SHL SWAP1 POP SWAP3 SWAP2 POP POP JUMP JUMPDEST PUSH0 PUSH1 0x8 DUP4 MUL PUSH3 0x3FC PUSH32 0xFFFFFFFFFFFFFFFFFFFFFFFFFFFFFFFFFFFFFFFFFFFFFFFFFFFFFFFFFFFFFFFF DUP3 PUSH3 0x3BF JUMP JUMPDEST PUSH3 0x408 DUP7 DUP4 PUSH3 0x3BF JUMP JUMPDEST SWAP6 POP DUP1 NOT DUP5 AND SWAP4 POP DUP1 DUP7 AND DUP5 OR SWAP3 POP POP POP SWAP4 SWAP3 POP POP POP JUMP JUMPDEST PUSH0 DUP2 SWAP1 POP SWAP2 SWAP1 POP JUMP JUMPDEST PUSH0 DUP2 SWAP1 POP SWAP2 SWAP1 POP JUMP JUMPDEST PUSH0 PUSH3 0x452 PUSH3 0x44C PUSH3 0x446 DUP5 PUSH3 0x420 JUMP JUMPDEST PUSH3 0x429 JUMP JUMPDEST PUSH3 0x420 JUMP JUMPDEST SWAP1 POP SWAP2 SWAP1 POP JUMP JUMPDEST PUSH0 DUP2 SWAP1 POP SWAP2 SWAP1 POP JUMP JUMPDEST PUSH3 0x46D DUP4 PUSH3 0x432 JUMP JUMPDEST PUSH3 0x485 PUSH3 0x47C DUP3 PUSH3 0x459 JUMP JUMPDEST DUP5 DUP5 SLOAD PUSH3 0x3CB JUMP JUMPDEST DUP3 SSTORE POP POP POP POP JUMP JUMPDEST PUSH0 SWAP1 JUMP JUMPDEST PUSH3 0x49B PUSH3 0x48D JUMP JUMPDEST PUSH3 0x4A8 DUP2 DUP5 DUP5 PUSH3 0x462 JUMP JUMPDEST POP POP POP JUMP JUMPDEST JUMPDEST DUP2 DUP2 LT ISZERO PUSH3 0x4CF JUMPI PUSH3 0x4C3 PUSH0 DUP3 PUSH3 0x491 JUMP JUMPDEST PUSH1 0x1 DUP2 ADD SWAP1 POP PUSH3 0x4AE JUMP JUMPDEST POP POP JUMP JUMPDEST PUSH1 0x1F DUP3 GT ISZERO PUSH3 0x51E JUMPI PUSH3 0x4E8 DUP2 PUSH3 0x39E JUMP JUMPDEST PUSH3 0x4F3 DUP5 PUSH3 0x3B0 JUMP JUMPDEST DUP2 ADD PUSH1 0x20 DUP6 LT ISZERO PUSH3 0x503 JUMPI DUP2 SWAP1 POP JUMPDEST PUSH3 0x51B PUSH3 0x512 DUP6 PUSH3 0x3B0 JUMP JUMPDEST DUP4 ADD DUP3 PUSH3 0x4AD JUMP JUMPDEST POP POP JUMPDEST POP POP POP JUMP JUMPDEST PUSH0 DUP3 DUP3 SHR SWAP1 POP SWAP3 SWAP2 POP POP JUMP JUMPDEST PUSH0 PUSH3 0x540 PUSH0 NOT DUP5 PUSH1 0x8 MUL PUSH3 0x523 JUMP JUMPDEST NOT DUP1 DUP4 AND SWAP2 POP POP SWAP3 SWAP2 POP POP JUMP JUMPDEST PUSH0 PUSH3 0x55A DUP4 DUP4 PUSH3 0x52F JUMP JUMPDEST SWAP2 POP DUP3 PUSH1 0x2 MUL DUP3 OR SWAP1 POP SWAP3 SWAP2 POP POP JUMP JUMPDEST PUSH3 0x575 DUP3 PUSH3 0x306 JUMP JUMPDEST PUSH8 0xFFFFFFFFFFFFFFFF DUP2 GT ISZERO PUSH3 0x591 JUMPI PUSH3 0x590 PUSH3 0x310 JUMP JUMPDEST JUMPDEST PUSH3 0x59D DUP3 SLOAD PUSH3 0x36A JUMP JUMPDEST PUSH3 0x5AA DUP3 DUP3 DUP6 PUSH3 0x4D3 JUMP JUMPDEST PUSH0 PUSH1 0x20 SWAP1 POP PUSH1 0x1F DUP4 GT PUSH1 0x1 DUP2 EQ PUSH3 0x5E0 JUMPI PUSH0 DUP5 ISZERO PUSH3 0x5CB JUMPI DUP3 DUP8 ADD MLOAD SWAP1 POP JUMPDEST PUSH3 0x5D7 DUP6 DUP3 PUSH3 0x54D JUMP JUMPDEST DUP7 SSTORE POP PUSH3 0x646 JUMP JUMPDEST PUSH1 0x1F NOT DUP5 AND PUSH3 0x5F0 DUP7 PUSH3 0x39E JUMP JUMPDEST PUSH0 JUMPDEST DUP3 DUP2 LT ISZERO PUSH3 0x619 JUMPI DUP5 DUP10 ADD MLOAD DUP3 SSTORE PUSH1 0x1 DUP3 ADD SWAP2 POP PUSH1 0x20 DUP6 ADD SWAP5 POP PUSH1 0x20 DUP2 ADD SWAP1 POP PUSH3 0x5F2 JUMP JUMPDEST DUP7 DUP4 LT ISZERO PUSH3 0x639 JUMPI DUP5 DUP10 ADD MLOAD PUSH3 0x635 PUSH1 0x1F DUP10 AND DUP3 PUSH3 0x52F JUMP JUMPDEST DUP4 SSTORE POP JUMPDEST PUSH1 0x1 PUSH1 0x2 DUP9 MUL ADD DUP9 SSTORE POP POP POP JUMPDEST POP POP POP POP POP POP JUMP JUMPDEST PUSH3 0x659 DUP2 PUSH3 0x294 JUMP JUMPDEST DUP3 MSTORE POP POP JUMP JUMPDEST PUSH0 PUSH1 0x20 DUP3 ADD SWAP1 POP PUSH3 0x674 PUSH0 DUP4 ADD DUP5 PUSH3 0x64E JUMP JUMPDEST SWAP3 SWAP2 POP POP JUMP JUMPDEST PUSH2 0x3369 DUP1 PUSH3 0x688 PUSH0 CODECOPY PUSH0 RETURN INVALID PUSH1 0x80 PUSH1 0x40 MSTORE PUSH1 0x4 CALLDATASIZE LT PUSH2 0x1D7 JUMPI PUSH0 CALLDATALOAD PUSH1 0xE0 SHR DUP1 PUSH4 0x552B818B GT PUSH2 0x101 JUMPI DUP1 PUSH4 0x94B5CDEC GT PUSH2 0x94 JUMPI DUP1 PUSH4 0xBCC9CA5B GT PUSH2 0x63 JUMPI DUP1 PUSH4 0xBCC9CA5B EQ PUSH2 0x63B JUMPI DUP1 PUSH4 0xC87B56DD EQ PUSH2 0x665 JUMPI DUP1 PUSH4 0xE985E9C5 EQ PUSH2 0x6A1 JUMPI DUP1 PUSH4 0xF2FDE38B EQ PUSH2 0x6DD JUMPI PUSH2 0x1D7 JUMP JUMPDEST DUP1 PUSH4 0x94B5CDEC EQ PUSH2 0x597 JUMPI DUP1 PUSH4 0x95D89B41 EQ PUSH2 0x5C1 JUMPI DUP1 PUSH4 0xA22CB465 EQ PUSH2 0x5EB JUMPI DUP1 PUSH4 0xB88D4FDE EQ PUSH2 0x613 JUMPI PUSH2 0x1D7 JUMP JUMPDEST DUP1 PUSH4 0x70A08231 GT PUSH2 0xD0 JUMPI DUP1 PUSH4 0x70A08231 EQ PUSH2 0x505 JUMPI DUP1 PUSH4 0x715018A6 EQ PUSH2 0x541 JUMPI DUP1 PUSH4 0x8456CB59 EQ PUSH2 0x557 JUMPI DUP1 PUSH4 0x8DA5CB5B EQ PUSH2 0x56D JUMPI PUSH2 0x1D7 JUMP JUMPDEST DUP1 PUSH4 0x552B818B EQ PUSH2 0x44F JUMPI DUP1 PUSH4 0x5C975ABB EQ PUSH2 0x477 JUMPI DUP1 PUSH4 0x6352211E EQ PUSH2 0x4A1 JUMPI DUP1 PUSH4 0x68742DA6 EQ PUSH2 0x4DD JUMPI PUSH2 0x1D7 JUMP JUMPDEST DUP1 PUSH4 0x23B872DD GT PUSH2 0x179 JUMPI DUP1 PUSH4 0x2F745C59 GT PUSH2 0x148 JUMPI DUP1 PUSH4 0x2F745C59 EQ PUSH2 0x399 JUMPI DUP1 PUSH4 0x3F4BA83A EQ PUSH2 0x3D5 JUMPI DUP1 PUSH4 0x42842E0E EQ PUSH2 0x3EB JUMPI DUP1 PUSH4 0x4F6CCCE7 EQ PUSH2 0x413 JUMPI PUSH2 0x1D7 JUMP JUMPDEST DUP1 PUSH4 0x23B872DD EQ PUSH2 0x303 JUMPI DUP1 PUSH4 0x26092B83 EQ PUSH2 0x32B JUMPI DUP1 PUSH4 0x2848AEAF EQ PUSH2 0x335 JUMPI DUP1 PUSH4 0x2F48DE79 EQ PUSH2 0x371 JUMPI PUSH2 0x1D7 JUMP JUMPDEST DUP1 PUSH4 0x85C9BAC GT PUSH2 0x1B5 JUMPI DUP1 PUSH4 0x85C9BAC EQ PUSH2 0x27D JUMPI DUP1 PUSH4 0x95EA7B3 EQ PUSH2 0x2A7 JUMPI DUP1 PUSH4 0x102A6A73 EQ PUSH2 0x2CF JUMPI DUP1 PUSH4 0x18160DDD EQ PUSH2 0x2D9 JUMPI PUSH2 0x1D7 JUMP JUMPDEST DUP1 PUSH4 0x1FFC9A7 EQ PUSH2 0x1DB JUMPI DUP1 PUSH4 0x6FDDE03 EQ PUSH2 0x217 JUMPI DUP1 PUSH4 0x81812FC EQ PUSH2 0x241 JUMPI JUMPDEST PUSH0 DUP1 REVERT JUMPDEST CALLVALUE DUP1 ISZERO PUSH2 0x1E6 JUMPI PUSH0 DUP1 REVERT JUMPDEST POP PUSH2 0x201 PUSH1 0x4 DUP1 CALLDATASIZE SUB DUP2 ADD SWAP1 PUSH2 0x1FC SWAP2 SWAP1 PUSH2 0x27D5 JUMP JUMPDEST PUSH2 0x705 JUMP JUMPDEST PUSH1 0x40 MLOAD PUSH2 0x20E SWAP2 SWAP1 PUSH2 0x281A JUMP JUMPDEST PUSH1 0x40 MLOAD DUP1 SWAP2 SUB SWAP1 RETURN JUMPDEST CALLVALUE DUP1 ISZERO PUSH2 0x222 JUMPI PUSH0 DUP1 REVERT JUMPDEST POP PUSH2 0x22B PUSH2 0x716 JUMP JUMPDEST PUSH1 0x40 MLOAD PUSH2 0x238 SWAP2 SWAP1 PUSH2 0x28BD JUMP JUMPDEST PUSH1 0x40 MLOAD DUP1 SWAP2 SUB SWAP1 RETURN JUMPDEST CALLVALUE DUP1 ISZERO PUSH2 0x24C JUMPI PUSH0 DUP1 REVERT JUMPDEST POP PUSH2 0x267 PUSH1 0x4 DUP1 CALLDATASIZE SUB DUP2 ADD SWAP1 PUSH2 0x262 SWAP2 SWAP1 PUSH2 0x2910 JUMP JUMPDEST PUSH2 0x7A5 JUMP JUMPDEST PUSH1 0x40 MLOAD PUSH2 0x274 SWAP2 SWAP1 PUSH2 0x297A JUMP JUMPDEST PUSH1 0x40 MLOAD DUP1 SWAP2 SUB SWAP1 RETURN JUMPDEST CALLVALUE DUP1 ISZERO PUSH2 0x288 JUMPI PUSH0 DUP1 REVERT JUMPDEST POP PUSH2 0x291 PUSH2 0x7C0 JUMP JUMPDEST PUSH1 0x40 MLOAD PUSH2 0x29E SWAP2 SWAP1 PUSH2 0x281A JUMP JUMPDEST PUSH1 0x40 MLOAD DUP1 SWAP2 SUB SWAP1 RETURN JUMPDEST CALLVALUE DUP1 ISZERO PUSH2 0x2B2 JUMPI PUSH0 DUP1 REVERT JUMPDEST POP PUSH2 0x2CD PUSH1 0x4 DUP1 CALLDATASIZE SUB DUP2 ADD SWAP1 PUSH2 0x2C8 SWAP2 SWAP1 PUSH2 0x29BD JUMP JUMPDEST PUSH2 0x7D3 JUMP JUMPDEST STOP JUMPDEST PUSH2 0x2D7 PUSH2 0x7E9 JUMP JUMPDEST STOP JUMPDEST CALLVALUE DUP1 ISZERO PUSH2 0x2E4 JUMPI PUSH0 DUP1 REVERT JUMPDEST POP PUSH2 0x2ED PUSH2 0x95F JUMP JUMPDEST PUSH1 0x40 MLOAD PUSH2 0x2FA SWAP2 SWAP1 PUSH2 0x2A0A JUMP JUMPDEST PUSH1 0x40 MLOAD DUP1 SWAP2 SUB SWAP1 RETURN JUMPDEST CALLVALUE DUP1 ISZERO PUSH2 0x30E JUMPI PUSH0 DUP1 REVERT JUMPDEST POP PUSH2 0x329 PUSH1 0x4 DUP1 CALLDATASIZE SUB DUP2 ADD SWAP1 PUSH2 0x324 SWAP2 SWAP1 PUSH2 0x2A23 JUMP JUMPDEST PUSH2 0x96B JUMP JUMPDEST STOP JUMPDEST PUSH2 0x333 PUSH2 0xA6A JUMP JUMPDEST STOP JUMPDEST CALLVALUE DUP1 ISZERO PUSH2 0x340 JUMPI PUSH0 DUP1 REVERT JUMPDEST POP PUSH2 0x35B PUSH1 0x4 DUP1 CALLDATASIZE SUB DUP2 ADD SWAP1 PUSH2 0x356 SWAP2 SWAP1 PUSH2 0x2A73 JUMP JUMPDEST PUSH2 0xB56 JUMP JUMPDEST PUSH1 0x40 MLOAD PUSH2 0x368 SWAP2 SWAP1 PUSH2 0x281A JUMP JUMPDEST PUSH1 0x40 MLOAD DUP1 SWAP2 SUB SWAP1 RETURN JUMPDEST CALLVALUE DUP1 ISZERO PUSH2 0x37C JUMPI PUSH0 DUP1 REVERT JUMPDEST POP PUSH2 0x397 PUSH1 0x4 DUP1 CALLDATASIZE SUB DUP2 ADD SWAP1 PUSH2 0x392 SWAP2 SWAP1 PUSH2 0x2AC8 JUMP JUMPDEST PUSH2 0xB73 JUMP JUMPDEST STOP JUMPDEST CALLVALUE DUP1 ISZERO PUSH2 0x3A4 JUMPI PUSH0 DUP1 REVERT JUMPDEST POP PUSH2 0x3BF PUSH1 0x4 DUP1 CALLDATASIZE SUB DUP2 ADD SWAP1 PUSH2 0x3BA SWAP2 SWAP1 PUSH2 0x29BD JUMP JUMPDEST PUSH2 0xBB2 JUMP JUMPDEST PUSH1 0x40 MLOAD PUSH2 0x3CC SWAP2 SWAP1 PUSH2 0x2A0A JUMP JUMPDEST PUSH1 0x40 MLOAD DUP1 SWAP2 SUB SWAP1 RETURN JUMPDEST CALLVALUE DUP1 ISZERO PUSH2 0x3E0 JUMPI PUSH0 DUP1 REVERT JUMPDEST POP PUSH2 0x3E9 PUSH2 0xC56 JUMP JUMPDEST STOP JUMPDEST CALLVALUE DUP1 ISZERO PUSH2 0x3F6 JUMPI PUSH0 DUP1 REVERT JUMPDEST POP PUSH2 0x411 PUSH1 0x4 DUP1 CALLDATASIZE SUB DUP2 ADD SWAP1 PUSH2 0x40C SWAP2 SWAP1 PUSH2 0x2A23 JUMP JUMPDEST PUSH2 0xC68 JUMP JUMPDEST STOP JUMPDEST CALLVALUE DUP1 ISZERO PUSH2 0x41E JUMPI PUSH0 DUP1 REVERT JUMPDEST POP PUSH2 0x439 PUSH1 0x4 DUP1 CALLDATASIZE SUB DUP2 ADD SWAP1 PUSH2 0x434 SWAP2 SWAP1 PUSH2 0x2910 JUMP JUMPDEST PUSH2 0xC87 JUMP JUMPDEST PUSH1 0x40 MLOAD PUSH2 0x446 SWAP2 SWAP1 PUSH2 0x2A0A JUMP JUMPDEST PUSH1 0x40 MLOAD DUP1 SWAP2 SUB SWAP1 RETURN JUMPDEST CALLVALUE DUP1 ISZERO PUSH2 0x45A JUMPI PUSH0 DUP1 REVERT JUMPDEST POP PUSH2 0x475 PUSH1 0x4 DUP1 CALLDATASIZE SUB DUP2 ADD SWAP1 PUSH2 0x470 SWAP2 SWAP1 PUSH2 0x2B67 JUMP JUMPDEST PUSH2 0xCF9 JUMP JUMPDEST STOP JUMPDEST CALLVALUE DUP1 ISZERO PUSH2 0x482 JUMPI PUSH0 DUP1 REVERT JUMPDEST POP PUSH2 0x48B PUSH2 0xDA2 JUMP JUMPDEST PUSH1 0x40 MLOAD PUSH2 0x498 SWAP2 SWAP1 PUSH2 0x281A JUMP JUMPDEST PUSH1 0x40 MLOAD DUP1 SWAP2 SUB SWAP1 RETURN JUMPDEST CALLVALUE DUP1 ISZERO PUSH2 0x4AC JUMPI PUSH0 DUP1 REVERT JUMPDEST POP PUSH2 0x4C7 PUSH1 0x4 DUP1 CALLDATASIZE SUB DUP2 ADD SWAP1 PUSH2 0x4C2 SWAP2 SWAP1 PUSH2 0x2910 JUMP JUMPDEST PUSH2 0xDB7 JUMP JUMPDEST PUSH1 0x40 MLOAD PUSH2 0x4D4 SWAP2 SWAP1 PUSH2 0x297A JUMP JUMPDEST PUSH1 0x40 MLOAD DUP1 SWAP2 SUB SWAP1 RETURN JUMPDEST CALLVALUE DUP1 ISZERO PUSH2 0x4E8 JUMPI PUSH0 DUP1 REVERT JUMPDEST POP PUSH2 0x503 PUSH1 0x4 DUP1 CALLDATASIZE SUB DUP2 ADD SWAP1 PUSH2 0x4FE SWAP2 SWAP1 PUSH2 0x2A73 JUMP JUMPDEST PUSH2 0xDC8 JUMP JUMPDEST STOP JUMPDEST CALLVALUE DUP1 ISZERO PUSH2 0x510 JUMPI PUSH0 DUP1 REVERT JUMPDEST POP PUSH2 0x52B PUSH1 0x4 DUP1 CALLDATASIZE SUB DUP2 ADD SWAP1 PUSH2 0x526 SWAP2 SWAP1 PUSH2 0x2A73 JUMP JUMPDEST PUSH2 0xE1C JUMP JUMPDEST PUSH1 0x40 MLOAD PUSH2 0x538 SWAP2 SWAP1 PUSH2 0x2A0A JUMP JUMPDEST PUSH1 0x40 MLOAD DUP1 SWAP2 SUB SWAP1 RETURN JUMPDEST CALLVALUE DUP1 ISZERO PUSH2 0x54C JUMPI PUSH0 DUP1 REVERT JUMPDEST POP PUSH2 0x555 PUSH2 0xED2 JUMP JUMPDEST STOP JUMPDEST CALLVALUE DUP1 ISZERO PUSH2 0x562 JUMPI PUSH0 DUP1 REVERT JUMPDEST POP PUSH2 0x56B PUSH2 0xEE5 JUMP JUMPDEST STOP JUMPDEST CALLVALUE DUP1 ISZERO PUSH2 0x578 JUMPI PUSH0 DUP1 REVERT JUMPDEST POP PUSH2 0x581 PUSH2 0xEF7 JUMP JUMPDEST PUSH1 0x40 MLOAD PUSH2 0x58E SWAP2 SWAP1 PUSH2 0x297A JUMP JUMPDEST PUSH1 0x40 MLOAD DUP1 SWAP2 SUB SWAP1 RETURN JUMPDEST CALLVALUE DUP1 ISZERO PUSH2 0x5A2 JUMPI PUSH0 DUP1 REVERT JUMPDEST POP PUSH2 0x5AB PUSH2 0xF20 JUMP JUMPDEST PUSH1 0x40 MLOAD PUSH2 0x5B8 SWAP2 SWAP1 PUSH2 0x28BD JUMP JUMPDEST PUSH1 0x40 MLOAD DUP1 SWAP2 SUB SWAP1 RETURN JUMPDEST CALLVALUE DUP1 ISZERO PUSH2 0x5CC JUMPI PUSH0 DUP1 REVERT JUMPDEST POP PUSH2 0x5D5 PUSH2 0xFAC JUMP JUMPDEST PUSH1 0x40 MLOAD PUSH2 0x5E2 SWAP2 SWAP1 PUSH2 0x28BD JUMP JUMPDEST PUSH1 0x40 MLOAD DUP1 SWAP2 SUB SWAP1 RETURN JUMPDEST CALLVALUE DUP1 ISZERO PUSH2 0x5F6 JUMPI PUSH0 DUP1 REVERT JUMPDEST POP PUSH2 0x611 PUSH1 0x4 DUP1 CALLDATASIZE SUB DUP2 ADD SWAP1 PUSH2 0x60C SWAP2 SWAP1 PUSH2 0x2BB2 JUMP JUMPDEST PUSH2 0x103C JUMP JUMPDEST STOP JUMPDEST CALLVALUE DUP1 ISZERO PUSH2 0x61E JUMPI PUSH0 DUP1 REVERT JUMPDEST POP PUSH2 0x639 PUSH1 0x4 DUP1 CALLDATASIZE SUB DUP2 ADD SWAP1 PUSH2 0x634 SWAP2 SWAP1 PUSH2 0x2D18 JUMP JUMPDEST PUSH2 0x1052 JUMP JUMPDEST STOP JUMPDEST CALLVALUE DUP1 ISZERO PUSH2 0x646 JUMPI PUSH0 DUP1 REVERT JUMPDEST POP PUSH2 0x64F PUSH2 0x106F JUMP JUMPDEST PUSH1 0x40 MLOAD PUSH2 0x65C SWAP2 SWAP1 PUSH2 0x281A JUMP JUMPDEST PUSH1 0x40 MLOAD DUP1 SWAP2 SUB SWAP1 RETURN JUMPDEST CALLVALUE DUP1 ISZERO PUSH2 0x670 JUMPI PUSH0 DUP1 REVERT JUMPDEST POP PUSH2 0x68B PUSH1 0x4 DUP1 CALLDATASIZE SUB DUP2 ADD SWAP1 PUSH2 0x686 SWAP2 SWAP1 PUSH2 0x2910 JUMP JUMPDEST PUSH2 0x1081 JUMP JUMPDEST PUSH1 0x40 MLOAD PUSH2 0x698 SWAP2 SWAP1 PUSH2 0x28BD JUMP JUMPDEST PUSH1 0x40 MLOAD DUP1 SWAP2 SUB SWAP1 RETURN JUMPDEST CALLVALUE DUP1 ISZERO PUSH2 0x6AC JUMPI PUSH0 DUP1 REVERT JUMPDEST POP PUSH2 0x6C7 PUSH1 0x4 DUP1 CALLDATASIZE SUB DUP2 ADD SWAP1 PUSH2 0x6C2 SWAP2 SWAP1 PUSH2 0x2D98 JUMP JUMPDEST PUSH2 0x10E7 JUMP JUMPDEST PUSH1 0x40 MLOAD PUSH2 0x6D4 SWAP2 SWAP1 PUSH2 0x281A JUMP JUMPDEST PUSH1 0x40 MLOAD DUP1 SWAP2 SUB SWAP1 RETURN JUMPDEST CALLVALUE DUP1 ISZERO PUSH2 0x6E8 JUMPI PUSH0 DUP1 REVERT JUMPDEST POP PUSH2 0x703 PUSH1 0x4 DUP1 CALLDATASIZE SUB DUP2 ADD SWAP1 PUSH2 0x6FE SWAP2 SWAP1 PUSH2 0x2A73 JUMP JUMPDEST PUSH2 0x1175 JUMP JUMPDEST STOP JUMPDEST PUSH0 PUSH2 0x70F DUP3 PUSH2 0x11F9 JUMP JUMPDEST SWAP1 POP SWAP2 SWAP1 POP JUMP JUMPDEST PUSH1 0x60 PUSH0 DUP1 SLOAD PUSH2 0x724 SWAP1 PUSH2 0x2E03 JUMP JUMPDEST DUP1 PUSH1 0x1F ADD PUSH1 0x20 DUP1 SWAP2 DIV MUL PUSH1 0x20 ADD PUSH1 0x40 MLOAD SWAP1 DUP2 ADD PUSH1 0x40 MSTORE DUP1 SWAP3 SWAP2 SWAP1 DUP2 DUP2 MSTORE PUSH1 0x20 ADD DUP3 DUP1 SLOAD PUSH2 0x750 SWAP1 PUSH2 0x2E03 JUMP JUMPDEST DUP1 ISZERO PUSH2 0x79B JUMPI DUP1 PUSH1 0x1F LT PUSH2 0x772 JUMPI PUSH2 0x100 DUP1 DUP4 SLOAD DIV MUL DUP4 MSTORE SWAP2 PUSH1 0x20 ADD SWAP2 PUSH2 0x79B JUMP JUMPDEST DUP3 ADD SWAP2 SWAP1 PUSH0 MSTORE PUSH1 0x20 PUSH0 KECCAK256 SWAP1 JUMPDEST DUP2 SLOAD DUP2 MSTORE SWAP1 PUSH1 0x1 ADD SWAP1 PUSH1 0x20 ADD DUP1 DUP4 GT PUSH2 0x77E JUMPI DUP3 SWAP1 SUB PUSH1 0x1F AND DUP3 ADD SWAP2 JUMPDEST POP POP POP POP POP SWAP1 POP SWAP1 JUMP JUMPDEST PUSH0 PUSH2 0x7AF DUP3 PUSH2 0x1272 JUMP JUMPDEST POP PUSH2 0x7B9 DUP3 PUSH2 0x12F8 JUMP JUMPDEST SWAP1 POP SWAP2 SWAP1 POP JUMP JUMPDEST PUSH1 0xF PUSH1 0x1 SWAP1 SLOAD SWAP1 PUSH2 0x100 EXP SWAP1 DIV PUSH1 0xFF AND DUP2 JUMP JUMPDEST PUSH2 0x7E5 DUP3 DUP3 PUSH2 0x7E0 PUSH2 0x1331 JUMP JUMPDEST PUSH2 0x1338 JUMP JUMPDEST POP POP JUMP JUMPDEST PUSH1 0xE PUSH0 CALLER PUSH20 0xFFFFFFFFFFFFFFFFFFFFFFFFFFFFFFFFFFFFFFFF AND PUSH20 0xFFFFFFFFFFFFFFFFFFFFFFFFFFFFFFFFFFFFFFFF AND DUP2 MSTORE PUSH1 0x20 ADD SWAP1 DUP2 MSTORE PUSH1 0x20 ADD PUSH0 KECCAK256 PUSH0 SWAP1 SLOAD SWAP1 PUSH2 0x100 EXP SWAP1 DIV PUSH1 0xFF AND PUSH2 0x872 JUMPI PUSH1 0x40 MLOAD PUSH32 0x8C379A000000000000000000000000000000000000000000000000000000000 DUP2 MSTORE PUSH1 0x4 ADD PUSH2 0x869 SWAP1 PUSH2 0x2E7D JUMP JUMPDEST PUSH1 0x40 MLOAD DUP1 SWAP2 SUB SWAP1 REVERT JUMPDEST PUSH1 0xF PUSH1 0x1 SWAP1 SLOAD SWAP1 PUSH2 0x100 EXP SWAP1 DIV PUSH1 0xFF AND PUSH2 0x8C1 JUMPI PUSH1 0x40 MLOAD PUSH32 0x8C379A000000000000000000000000000000000000000000000000000000000 DUP2 MSTORE PUSH1 0x4 ADD PUSH2 0x8B8 SWAP1 PUSH2 0x2EE5 JUMP JUMPDEST PUSH1 0x40 MLOAD DUP1 SWAP2 SUB SWAP1 REVERT JUMPDEST PUSH7 0x38D7EA4C68000 CALLVALUE EQ PUSH2 0x90A JUMPI PUSH1 0x40 MLOAD PUSH32 0x8C379A000000000000000000000000000000000000000000000000000000000 DUP2 MSTORE PUSH1 0x4 ADD PUSH2 0x901 SWAP1 PUSH2 0x2F4D JUMP JUMPDEST PUSH1 0x40 MLOAD DUP1 SWAP2 SUB SWAP1 REVERT JUMPDEST PUSH1 0xD SLOAD PUSH2 0x915 PUSH2 0x95F JUMP JUMPDEST LT PUSH2 0x955 JUMPI PUSH1 0x40 MLOAD PUSH32 0x8C379A000000000000000000000000000000000000000000000000000000000 DUP2 MSTORE PUSH1 0x4 ADD PUSH2 0x94C SWAP1 PUSH2 0x2FB5 JUMP JUMPDEST PUSH1 0x40 MLOAD DUP1 SWAP2 SUB SWAP1 REVERT JUMPDEST PUSH2 0x95D PUSH2 0x134A JUMP JUMPDEST JUMP JUMPDEST PUSH0 PUSH1 0x8 DUP1 SLOAD SWAP1 POP SWAP1 POP SWAP1 JUMP JUMPDEST PUSH0 PUSH20 0xFFFFFFFFFFFFFFFFFFFFFFFFFFFFFFFFFFFFFFFF AND DUP3 PUSH20 0xFFFFFFFFFFFFFFFFFFFFFFFFFFFFFFFFFFFFFFFF AND SUB PUSH2 0x9DB JUMPI PUSH0 PUSH1 0x40 MLOAD PUSH32 0x64A0AE9200000000000000000000000000000000000000000000000000000000 DUP2 MSTORE PUSH1 0x4 ADD PUSH2 0x9D2 SWAP2 SWAP1 PUSH2 0x297A JUMP JUMPDEST PUSH1 0x40 MLOAD DUP1 SWAP2 SUB SWAP1 REVERT JUMPDEST PUSH0 PUSH2 0x9EE DUP4 DUP4 PUSH2 0x9E9 PUSH2 0x1331 JUMP JUMPDEST PUSH2 0x1370 JUMP JUMPDEST SWAP1 POP DUP4 PUSH20 0xFFFFFFFFFFFFFFFFFFFFFFFFFFFFFFFFFFFFFFFF AND DUP2 PUSH20 0xFFFFFFFFFFFFFFFFFFFFFFFFFFFFFFFFFFFFFFFF AND EQ PUSH2 0xA64 JUMPI DUP4 DUP3 DUP3 PUSH1 0x40 MLOAD PUSH32 0x64283D7B00000000000000000000000000000000000000000000000000000000 DUP2 MSTORE PUSH1 0x4 ADD PUSH2 0xA5B SWAP4 SWAP3 SWAP2 SWAP1 PUSH2 0x2FD3 JUMP JUMPDEST PUSH1 0x40 MLOAD DUP1 SWAP2 SUB SWAP1 REVERT JUMPDEST POP POP POP POP JUMP JUMPDEST PUSH1 0xF PUSH0 SWAP1 SLOAD SWAP1 PUSH2 0x100 EXP SWAP1 DIV PUSH1 0xFF AND PUSH2 0xAB8 JUMPI PUSH1 0x40 MLOAD PUSH32 0x8C379A000000000000000000000000000000000000000000000000000000000 DUP2 MSTORE PUSH1 0x4 ADD PUSH2 0xAAF SWAP1 PUSH2 0x3052 JUMP JUMPDEST PUSH1 0x40 MLOAD DUP1 SWAP2 SUB SWAP1 REVERT JUMPDEST PUSH7 0x38D7EA4C68000 CALLVALUE EQ PUSH2 0xB01 JUMPI PUSH1 0x40 MLOAD PUSH32 0x8C379A000000000000000000000000000000000000000000000000000000000 DUP2 MSTORE PUSH1 0x4 ADD PUSH2 0xAF8 SWAP1 PUSH2 0x2F4D JUMP JUMPDEST PUSH1 0x40 MLOAD DUP1 SWAP2 SUB SWAP1 REVERT JUMPDEST PUSH1 0xC SLOAD PUSH2 0xB0C PUSH2 0x95F JUMP JUMPDEST LT PUSH2 0xB4C JUMPI PUSH1 0x40 MLOAD PUSH32 0x8C379A000000000000000000000000000000000000000000000000000000000 DUP2 MSTORE PUSH1 0x4 ADD PUSH2 0xB43 SWAP1 PUSH2 0x2FB5 JUMP JUMPDEST PUSH1 0x40 MLOAD DUP1 SWAP2 SUB SWAP1 REVERT JUMPDEST PUSH2 0xB54 PUSH2 0x134A JUMP JUMPDEST JUMP JUMPDEST PUSH1 0xE PUSH1 0x20 MSTORE DUP1 PUSH0 MSTORE PUSH1 0x40 PUSH0 KECCAK256 PUSH0 SWAP2 POP SLOAD SWAP1 PUSH2 0x100 EXP SWAP1 DIV PUSH1 0xFF AND DUP2 JUMP JUMPDEST PUSH2 0xB7B PUSH2 0x1385 JUMP JUMPDEST DUP2 PUSH1 0xF PUSH0 PUSH2 0x100 EXP DUP2 SLOAD DUP2 PUSH1 0xFF MUL NOT AND SWAP1 DUP4 ISZERO ISZERO MUL OR SWAP1 SSTORE POP DUP1 PUSH1 0xF PUSH1 0x1 PUSH2 0x100 EXP DUP2 SLOAD DUP2 PUSH1 0xFF MUL NOT AND SWAP1 DUP4 ISZERO ISZERO MUL OR SWAP1 SSTORE POP POP POP JUMP JUMPDEST PUSH0 PUSH2 0xBBC DUP4 PUSH2 0xE1C JUMP JUMPDEST DUP3 LT PUSH2 0xC01 JUMPI DUP3 DUP3 PUSH1 0x40 MLOAD PUSH32 0xA57D13DC00000000000000000000000000000000000000000000000000000000 DUP2 MSTORE PUSH1 0x4 ADD PUSH2 0xBF8 SWAP3 SWAP2 SWAP1 PUSH2 0x3070 JUMP JUMPDEST PUSH1 0x40 MLOAD DUP1 SWAP2 SUB SWAP1 REVERT JUMPDEST PUSH1 0x6 PUSH0 DUP5 PUSH20 0xFFFFFFFFFFFFFFFFFFFFFFFFFFFFFFFFFFFFFFFF AND PUSH20 0xFFFFFFFFFFFFFFFFFFFFFFFFFFFFFFFFFFFFFFFF AND DUP2 MSTORE PUSH1 0x20 ADD SWAP1 DUP2 MSTORE PUSH1 0x20 ADD PUSH0 KECCAK256 PUSH0 DUP4 DUP2 MSTORE PUSH1 0x20 ADD SWAP1 DUP2 MSTORE PUSH1 0x20 ADD PUSH0 KECCAK256 SLOAD SWAP1 POP SWAP3 SWAP2 POP POP JUMP JUMPDEST PUSH2 0xC5E PUSH2 0x1385 JUMP JUMPDEST PUSH2 0xC66 PUSH2 0x140C JUMP JUMPDEST JUMP JUMPDEST PUSH2 0xC82 DUP4 DUP4 DUP4 PUSH1 0x40 MLOAD DUP1 PUSH1 0x20 ADD PUSH1 0x40 MSTORE DUP1 PUSH0 DUP2 MSTORE POP PUSH2 0x1052 JUMP JUMPDEST POP POP POP JUMP JUMPDEST PUSH0 PUSH2 0xC90 PUSH2 0x95F JUMP JUMPDEST DUP3 LT PUSH2 0xCD5 JUMPI PUSH0 DUP3 PUSH1 0x40 MLOAD PUSH32 0xA57D13DC00000000000000000000000000000000000000000000000000000000 DUP2 MSTORE PUSH1 0x4 ADD PUSH2 0xCCC SWAP3 SWAP2 SWAP1 PUSH2 0x3070 JUMP JUMPDEST PUSH1 0x40 MLOAD DUP1 SWAP2 SUB SWAP1 REVERT JUMPDEST PUSH1 0x8 DUP3 DUP2 SLOAD DUP2 LT PUSH2 0xCE9 JUMPI PUSH2 0xCE8 PUSH2 0x3097 JUMP JUMPDEST JUMPDEST SWAP1 PUSH0 MSTORE PUSH1 0x20 PUSH0 KECCAK256 ADD SLOAD SWAP1 POP SWAP2 SWAP1 POP JUMP JUMPDEST PUSH2 0xD01 PUSH2 0x1385 JUMP JUMPDEST PUSH0 JUMPDEST DUP3 DUP3 SWAP1 POP DUP2 LT ISZERO PUSH2 0xD9D JUMPI PUSH1 0x1 PUSH1 0xE PUSH0 DUP6 DUP6 DUP6 DUP2 DUP2 LT PUSH2 0xD26 JUMPI PUSH2 0xD25 PUSH2 0x3097 JUMP JUMPDEST JUMPDEST SWAP1 POP PUSH1 0x20 MUL ADD PUSH1 0x20 DUP2 ADD SWAP1 PUSH2 0xD3B SWAP2 SWAP1 PUSH2 0x2A73 JUMP JUMPDEST PUSH20 0xFFFFFFFFFFFFFFFFFFFFFFFFFFFFFFFFFFFFFFFF AND PUSH20 0xFFFFFFFFFFFFFFFFFFFFFFFFFFFFFFFFFFFFFFFF AND DUP2 MSTORE PUSH1 0x20 ADD SWAP1 DUP2 MSTORE PUSH1 0x20 ADD PUSH0 KECCAK256 PUSH0 PUSH2 0x100 EXP DUP2 SLOAD DUP2 PUSH1 0xFF MUL NOT AND SWAP1 DUP4 ISZERO ISZERO MUL OR SWAP1 SSTORE POP DUP1 DUP1 PUSH2 0xD95 SWAP1 PUSH2 0x30F1 JUMP JUMPDEST SWAP2 POP POP PUSH2 0xD03 JUMP JUMPDEST POP POP POP JUMP JUMPDEST PUSH0 PUSH1 0xA PUSH0 SWAP1 SLOAD SWAP1 PUSH2 0x100 EXP SWAP1 DIV PUSH1 0xFF AND SWAP1 POP SWAP1 JUMP JUMPDEST PUSH0 PUSH2 0xDC1 DUP3 PUSH2 0x1272 JUMP JUMPDEST SWAP1 POP SWAP2 SWAP1 POP JUMP JUMPDEST PUSH2 0xDD0 PUSH2 0x1385 JUMP JUMPDEST PUSH0 SELFBALANCE SWAP1 POP DUP2 PUSH20 0xFFFFFFFFFFFFFFFFFFFFFFFFFFFFFFFFFFFFFFFF AND PUSH2 0x8FC DUP3 SWAP1 DUP2 ISZERO MUL SWAP1 PUSH1 0x40 MLOAD PUSH0 PUSH1 0x40 MLOAD DUP1 DUP4 SUB DUP2 DUP6 DUP9 DUP9 CALL SWAP4 POP POP POP POP ISZERO DUP1 ISZERO PUSH2 0xE17 JUMPI RETURNDATASIZE PUSH0 DUP1 RETURNDATACOPY RETURNDATASIZE PUSH0 REVERT JUMPDEST POP POP POP JUMP JUMPDEST PUSH0 DUP1 PUSH20 0xFFFFFFFFFFFFFFFFFFFFFFFFFFFFFFFFFFFFFFFF AND DUP3 PUSH20 0xFFFFFFFFFFFFFFFFFFFFFFFFFFFFFFFFFFFFFFFF AND SUB PUSH2 0xE8D JUMPI PUSH0 PUSH1 0x40 MLOAD PUSH32 0x89C62B6400000000000000000000000000000000000000000000000000000000 DUP2 MSTORE PUSH1 0x4 ADD PUSH2 0xE84 SWAP2 SWAP1 PUSH2 0x297A JUMP JUMPDEST PUSH1 0x40 MLOAD DUP1 SWAP2 SUB SWAP1 REVERT JUMPDEST PUSH1 0x3 PUSH0 DUP4 PUSH20 0xFFFFFFFFFFFFFFFFFFFFFFFFFFFFFFFFFFFFFFFF AND PUSH20 0xFFFFFFFFFFFFFFFFFFFFFFFFFFFFFFFFFFFFFFFF AND DUP2 MSTORE PUSH1 0x20 ADD SWAP1 DUP2 MSTORE PUSH1 0x20 ADD PUSH0 KECCAK256 SLOAD SWAP1 POP SWAP2 SWAP1 POP JUMP JUMPDEST PUSH2 0xEDA PUSH2 0x1385 JUMP JUMPDEST PUSH2 0xEE3 PUSH0 PUSH2 0x146D JUMP JUMPDEST JUMP JUMPDEST PUSH2 0xEED PUSH2 0x1385 JUMP JUMPDEST PUSH2 0xEF5 PUSH2 0x1532 JUMP JUMPDEST JUMP JUMPDEST PUSH0 PUSH1 0xA PUSH1 0x1 SWAP1 SLOAD SWAP1 PUSH2 0x100 EXP SWAP1 DIV PUSH20 0xFFFFFFFFFFFFFFFFFFFFFFFFFFFFFFFFFFFFFFFF AND SWAP1 POP SWAP1 JUMP JUMPDEST PUSH1 0x10 DUP1 SLOAD PUSH2 0xF2D SWAP1 PUSH2 0x2E03 JUMP JUMPDEST DUP1 PUSH1 0x1F ADD PUSH1 0x20 DUP1 SWAP2 DIV MUL PUSH1 0x20 ADD PUSH1 0x40 MLOAD SWAP1 DUP2 ADD PUSH1 0x40 MSTORE DUP1 SWAP3 SWAP2 SWAP1 DUP2 DUP2 MSTORE PUSH1 0x20 ADD DUP3 DUP1 SLOAD PUSH2 0xF59 SWAP1 PUSH2 0x2E03 JUMP JUMPDEST DUP1 ISZERO PUSH2 0xFA4 JUMPI DUP1 PUSH1 0x1F LT PUSH2 0xF7B JUMPI PUSH2 0x100 DUP1 DUP4 SLOAD DIV MUL DUP4 MSTORE SWAP2 PUSH1 0x20 ADD SWAP2 PUSH2 0xFA4 JUMP JUMPDEST DUP3 ADD SWAP2 SWAP1 PUSH0 MSTORE PUSH1 0x20 PUSH0 KECCAK256 SWAP1 JUMPDEST DUP2 SLOAD DUP2 MSTORE SWAP1 PUSH1 0x1 ADD SWAP1 PUSH1 0x20 ADD DUP1 DUP4 GT PUSH2 0xF87 JUMPI DUP3 SWAP1 SUB PUSH1 0x1F AND DUP3 ADD SWAP2 JUMPDEST POP POP POP POP POP DUP2 JUMP JUMPDEST PUSH1 0x60 PUSH1 0x1 DUP1 SLOAD PUSH2 0xFBB SWAP1 PUSH2 0x2E03 JUMP JUMPDEST DUP1 PUSH1 0x1F ADD PUSH1 0x20 DUP1 SWAP2 DIV MUL PUSH1 0x20 ADD PUSH1 0x40 MLOAD SWAP1 DUP2 ADD PUSH1 0x40 MSTORE DUP1 SWAP3 SWAP2 SWAP1 DUP2 DUP2 MSTORE PUSH1 0x20 ADD DUP3 DUP1 SLOAD PUSH2 0xFE7 SWAP1 PUSH2 0x2E03 JUMP JUMPDEST DUP1 ISZERO PUSH2 0x1032 JUMPI DUP1 PUSH1 0x1F LT PUSH2 0x1009 JUMPI PUSH2 0x100 DUP1 DUP4 SLOAD DIV MUL DUP4 MSTORE SWAP2 PUSH1 0x20 ADD SWAP2 PUSH2 0x1032 JUMP JUMPDEST DUP3 ADD SWAP2 SWAP1 PUSH0 MSTORE PUSH1 0x20 PUSH0 KECCAK256 SWAP1 JUMPDEST DUP2 SLOAD DUP2 MSTORE SWAP1 PUSH1 0x1 ADD SWAP1 PUSH1 0x20 ADD DUP1 DUP4 GT PUSH2 0x1015 JUMPI DUP3 SWAP1 SUB PUSH1 0x1F AND DUP3 ADD SWAP2 JUMPDEST POP POP POP POP POP SWAP1 POP SWAP1 JUMP JUMPDEST PUSH2 0x104E PUSH2 0x1047 PUSH2 0x1331 JUMP JUMPDEST DUP4 DUP4 PUSH2 0x1594 JUMP JUMPDEST POP POP JUMP JUMPDEST PUSH2 0x105D DUP5 DUP5 DUP5 PUSH2 0x96B JUMP JUMPDEST PUSH2 0x1069 DUP5 DUP5 DUP5 DUP5 PUSH2 0x16FD JUMP JUMPDEST POP POP POP POP JUMP JUMPDEST PUSH1 0xF PUSH0 SWAP1 SLOAD SWAP1 PUSH2 0x100 EXP SWAP1 DIV PUSH1 0xFF AND DUP2 JUMP JUMPDEST PUSH1 0x60 PUSH2 0x108C DUP3 PUSH2 0x1272 JUMP JUMPDEST POP PUSH0 PUSH2 0x1096 PUSH2 0x18AF JUMP JUMPDEST SWAP1 POP PUSH0 DUP2 MLOAD GT PUSH2 0x10B4 JUMPI PUSH1 0x40 MLOAD DUP1 PUSH1 0x20 ADD PUSH1 0x40 MSTORE DUP1 PUSH0 DUP2 MSTORE POP PUSH2 0x10DF JUMP JUMPDEST DUP1 PUSH2 0x10BE DUP5 PUSH2 0x18CF JUMP JUMPDEST PUSH1 0x40 MLOAD PUSH1 0x20 ADD PUSH2 0x10CF SWAP3 SWAP2 SWAP1 PUSH2 0x3172 JUMP JUMPDEST PUSH1 0x40 MLOAD PUSH1 0x20 DUP2 DUP4 SUB SUB DUP2 MSTORE SWAP1 PUSH1 0x40 MSTORE JUMPDEST SWAP2 POP POP SWAP2 SWAP1 POP JUMP JUMPDEST PUSH0 PUSH1 0x5 PUSH0 DUP5 PUSH20 0xFFFFFFFFFFFFFFFFFFFFFFFFFFFFFFFFFFFFFFFF AND PUSH20 0xFFFFFFFFFFFFFFFFFFFFFFFFFFFFFFFFFFFFFFFF AND DUP2 MSTORE PUSH1 0x20 ADD SWAP1 DUP2 MSTORE PUSH1 0x20 ADD PUSH0 KECCAK256 PUSH0 DUP4 PUSH20 0xFFFFFFFFFFFFFFFFFFFFFFFFFFFFFFFFFFFFFFFF AND PUSH20 0xFFFFFFFFFFFFFFFFFFFFFFFFFFFFFFFFFFFFFFFF AND DUP2 MSTORE PUSH1 0x20 ADD SWAP1 DUP2 MSTORE PUSH1 0x20 ADD PUSH0 KECCAK256 PUSH0 SWAP1 SLOAD SWAP1 PUSH2 0x100 EXP SWAP1 DIV PUSH1 0xFF AND SWAP1 POP SWAP3 SWAP2 POP POP JUMP JUMPDEST PUSH2 0x117D PUSH2 0x1385 JUMP JUMPDEST PUSH0 PUSH20 0xFFFFFFFFFFFFFFFFFFFFFFFFFFFFFFFFFFFFFFFF AND DUP2 PUSH20 0xFFFFFFFFFFFFFFFFFFFFFFFFFFFFFFFFFFFFFFFF AND SUB PUSH2 0x11ED JUMPI PUSH0 PUSH1 0x40 MLOAD PUSH32 0x1E4FBDF700000000000000000000000000000000000000000000000000000000 DUP2 MSTORE PUSH1 0x4 ADD PUSH2 0x11E4 SWAP2 SWAP1 PUSH2 0x297A JUMP JUMPDEST PUSH1 0x40 MLOAD DUP1 SWAP2 SUB SWAP1 REVERT JUMPDEST PUSH2 0x11F6 DUP2 PUSH2 0x146D JUMP JUMPDEST POP JUMP JUMPDEST PUSH0 PUSH32 0x780E9D6300000000000000000000000000000000000000000000000000000000 PUSH28 0xFFFFFFFFFFFFFFFFFFFFFFFFFFFFFFFFFFFFFFFFFFFFFFFFFFFFFFFF NOT AND DUP3 PUSH28 0xFFFFFFFFFFFFFFFFFFFFFFFFFFFFFFFFFFFFFFFFFFFFFFFFFFFFFFFF NOT AND EQ DUP1 PUSH2 0x126B JUMPI POP PUSH2 0x126A DUP3 PUSH2 0x1999 JUMP JUMPDEST JUMPDEST SWAP1 POP SWAP2 SWAP1 POP JUMP JUMPDEST PUSH0 DUP1 PUSH2 0x127D DUP4 PUSH2 0x1A7A JUMP JUMPDEST SWAP1 POP PUSH0 PUSH20 0xFFFFFFFFFFFFFFFFFFFFFFFFFFFFFFFFFFFFFFFF AND DUP2 PUSH20 0xFFFFFFFFFFFFFFFFFFFFFFFFFFFFFFFFFFFFFFFF AND SUB PUSH2 0x12EF JUMPI DUP3 PUSH1 0x40 MLOAD PUSH32 0x7E27328900000000000000000000000000000000000000000000000000000000 DUP2 MSTORE PUSH1 0x4 ADD PUSH2 0x12E6 SWAP2 SWAP1 PUSH2 0x2A0A JUMP JUMPDEST PUSH1 0x40 MLOAD DUP1 SWAP2 SUB SWAP1 REVERT JUMPDEST DUP1 SWAP2 POP POP SWAP2 SWAP1 POP JUMP JUMPDEST PUSH0 PUSH1 0x4 PUSH0 DUP4 DUP2 MSTORE PUSH1 0x20 ADD SWAP1 DUP2 MSTORE PUSH1 0x20 ADD PUSH0 KECCAK256 PUSH0 SWAP1 SLOAD SWAP1 PUSH2 0x100 EXP SWAP1 DIV PUSH20 0xFFFFFFFFFFFFFFFFFFFFFFFFFFFFFFFFFFFFFFFF AND SWAP1 POP SWAP2 SWAP1 POP JUMP JUMPDEST PUSH0 CALLER SWAP1 POP SWAP1 JUMP JUMPDEST PUSH2 0x1345 DUP4 DUP4 DUP4 PUSH1 0x1 PUSH2 0x1AB3 JUMP JUMPDEST POP POP POP JUMP JUMPDEST PUSH0 PUSH1 0xB PUSH0 DUP2 SLOAD DUP1 SWAP3 SWAP2 SWAP1 PUSH2 0x135D SWAP1 PUSH2 0x30F1 JUMP JUMPDEST SWAP2 SWAP1 POP SSTORE SWAP1 POP PUSH2 0x136D CALLER DUP3 PUSH2 0x1C72 JUMP JUMPDEST POP JUMP JUMPDEST PUSH0 PUSH2 0x137C DUP5 DUP5 DUP5 PUSH2 0x1C8F JUMP JUMPDEST SWAP1 POP SWAP4 SWAP3 POP POP POP JUMP JUMPDEST PUSH2 0x138D PUSH2 0x1331 JUMP JUMPDEST PUSH20 0xFFFFFFFFFFFFFFFFFFFFFFFFFFFFFFFFFFFFFFFF AND PUSH2 0x13AB PUSH2 0xEF7 JUMP JUMPDEST PUSH20 0xFFFFFFFFFFFFFFFFFFFFFFFFFFFFFFFFFFFFFFFF AND EQ PUSH2 0x140A JUMPI PUSH2 0x13CE PUSH2 0x1331 JUMP JUMPDEST PUSH1 0x40 MLOAD PUSH32 0x118CDAA700000000000000000000000000000000000000000000000000000000 DUP2 MSTORE PUSH1 0x4 ADD PUSH2 0x1401 SWAP2 SWAP1 PUSH2 0x297A JUMP JUMPDEST PUSH1 0x40 MLOAD DUP1 SWAP2 SUB SWAP1 REVERT JUMPDEST JUMP JUMPDEST PUSH2 0x1414 PUSH2 0x1CAC JUMP JUMPDEST PUSH0 PUSH1 0xA PUSH0 PUSH2 0x100 EXP DUP2 SLOAD DUP2 PUSH1 0xFF MUL NOT AND SWAP1 DUP4 ISZERO ISZERO MUL OR SWAP1 SSTORE POP PUSH32 0x5DB9EE0A495BF2E6FF9C91A7834C1BA4FDD244A5E8AA4E537BD38AEAE4B073AA PUSH2 0x1456 PUSH2 0x1331 JUMP JUMPDEST PUSH1 0x40 MLOAD PUSH2 0x1463 SWAP2 SWAP1 PUSH2 0x297A JUMP JUMPDEST PUSH1 0x40 MLOAD DUP1 SWAP2 SUB SWAP1 LOG1 JUMP JUMPDEST PUSH0 PUSH1 0xA PUSH1 0x1 SWAP1 SLOAD SWAP1 PUSH2 0x100 EXP SWAP1 DIV PUSH20 0xFFFFFFFFFFFFFFFFFFFFFFFFFFFFFFFFFFFFFFFF AND SWAP1 POP DUP2 PUSH1 0xA PUSH1 0x1 PUSH2 0x100 EXP DUP2 SLOAD DUP2 PUSH20 0xFFFFFFFFFFFFFFFFFFFFFFFFFFFFFFFFFFFFFFFF MUL NOT AND SWAP1 DUP4 PUSH20 0xFFFFFFFFFFFFFFFFFFFFFFFFFFFFFFFFFFFFFFFF AND MUL OR SWAP1 SSTORE POP DUP2 PUSH20 0xFFFFFFFFFFFFFFFFFFFFFFFFFFFFFFFFFFFFFFFF AND DUP2 PUSH20 0xFFFFFFFFFFFFFFFFFFFFFFFFFFFFFFFFFFFFFFFF AND PUSH32 0x8BE0079C531659141344CD1FD0A4F28419497F9722A3DAAFE3B4186F6B6457E0 PUSH1 0x40 MLOAD PUSH1 0x40 MLOAD DUP1 SWAP2 SUB SWAP1 LOG3 POP POP JUMP JUMPDEST PUSH2 0x153A PUSH2 0x1CEC JUMP JUMPDEST PUSH1 0x1 PUSH1 0xA PUSH0 PUSH2 0x100 EXP DUP2 SLOAD DUP2 PUSH1 0xFF MUL NOT AND SWAP1 DUP4 ISZERO ISZERO MUL OR SWAP1 SSTORE POP PUSH32 0x62E78CEA01BEE320CD4E420270B5EA74000D11B0C9F74754EBDBFC544B05A258 PUSH2 0x157D PUSH2 0x1331 JUMP JUMPDEST PUSH1 0x40 MLOAD PUSH2 0x158A SWAP2 SWAP1 PUSH2 0x297A JUMP JUMPDEST PUSH1 0x40 MLOAD DUP1 SWAP2 SUB SWAP1 LOG1 JUMP JUMPDEST PUSH0 PUSH20 0xFFFFFFFFFFFFFFFFFFFFFFFFFFFFFFFFFFFFFFFF AND DUP3 PUSH20 0xFFFFFFFFFFFFFFFFFFFFFFFFFFFFFFFFFFFFFFFF AND SUB PUSH2 0x1604 JUMPI DUP2 PUSH1 0x40 MLOAD PUSH32 0x5B08BA1800000000000000000000000000000000000000000000000000000000 DUP2 MSTORE PUSH1 0x4 ADD PUSH2 0x15FB SWAP2 SWAP1 PUSH2 0x297A JUMP JUMPDEST PUSH1 0x40 MLOAD DUP1 SWAP2 SUB SWAP1 REVERT JUMPDEST DUP1 PUSH1 0x5 PUSH0 DUP6 PUSH20 0xFFFFFFFFFFFFFFFFFFFFFFFFFFFFFFFFFFFFFFFF AND PUSH20 0xFFFFFFFFFFFFFFFFFFFFFFFFFFFFFFFFFFFFFFFF AND DUP2 MSTORE PUSH1 0x20 ADD SWAP1 DUP2 MSTORE PUSH1 0x20 ADD PUSH0 KECCAK256 PUSH0 DUP5 PUSH20 0xFFFFFFFFFFFFFFFFFFFFFFFFFFFFFFFFFFFFFFFF AND PUSH20 0xFFFFFFFFFFFFFFFFFFFFFFFFFFFFFFFFFFFFFFFF AND DUP2 MSTORE PUSH1 0x20 ADD SWAP1 DUP2 MSTORE PUSH1 0x20 ADD PUSH0 KECCAK256 PUSH0 PUSH2 0x100 EXP DUP2 SLOAD DUP2 PUSH1 0xFF MUL NOT AND SWAP1 DUP4 ISZERO ISZERO MUL OR SWAP1 SSTORE POP DUP2 PUSH20 0xFFFFFFFFFFFFFFFFFFFFFFFFFFFFFFFFFFFFFFFF AND DUP4 PUSH20 0xFFFFFFFFFFFFFFFFFFFFFFFFFFFFFFFFFFFFFFFF AND PUSH32 0x17307EAB39AB6107E8899845AD3D59BD9653F200F220920489CA2B5937696C31 DUP4 PUSH1 0x40 MLOAD PUSH2 0x16F0 SWAP2 SWAP1 PUSH2 0x281A JUMP JUMPDEST PUSH1 0x40 MLOAD DUP1 SWAP2 SUB SWAP1 LOG3 POP POP POP JUMP JUMPDEST PUSH0 DUP4 PUSH20 0xFFFFFFFFFFFFFFFFFFFFFFFFFFFFFFFFFFFFFFFF AND EXTCODESIZE GT ISZERO PUSH2 0x18A9 JUMPI DUP3 PUSH20 0xFFFFFFFFFFFFFFFFFFFFFFFFFFFFFFFFFFFFFFFF AND PUSH4 0x150B7A02 PUSH2 0x1740 PUSH2 0x1331 JUMP JUMPDEST DUP7 DUP6 DUP6 PUSH1 0x40 MLOAD DUP6 PUSH4 0xFFFFFFFF AND PUSH1 0xE0 SHL DUP2 MSTORE PUSH1 0x4 ADD PUSH2 0x1762 SWAP5 SWAP4 SWAP3 SWAP2 SWAP1 PUSH2 0x31E7 JUMP JUMPDEST PUSH1 0x20 PUSH1 0x40 MLOAD DUP1 DUP4 SUB DUP2 PUSH0 DUP8 GAS CALL SWAP3 POP POP POP DUP1 ISZERO PUSH2 0x179D JUMPI POP PUSH1 0x40 MLOAD RETURNDATASIZE PUSH1 0x1F NOT PUSH1 0x1F DUP3 ADD AND DUP3 ADD DUP1 PUSH1 0x40 MSTORE POP DUP2 ADD SWAP1 PUSH2 0x179A SWAP2 SWAP1 PUSH2 0x3245 JUMP JUMPDEST PUSH1 0x1 JUMPDEST PUSH2 0x181E JUMPI RETURNDATASIZE DUP1 PUSH0 DUP2 EQ PUSH2 0x17CB JUMPI PUSH1 0x40 MLOAD SWAP2 POP PUSH1 0x1F NOT PUSH1 0x3F RETURNDATASIZE ADD AND DUP3 ADD PUSH1 0x40 MSTORE RETURNDATASIZE DUP3 MSTORE RETURNDATASIZE PUSH0 PUSH1 0x20 DUP5 ADD RETURNDATACOPY PUSH2 0x17D0 JUMP JUMPDEST PUSH1 0x60 SWAP2 POP JUMPDEST POP PUSH0 DUP2 MLOAD SUB PUSH2 0x1816 JUMPI DUP4 PUSH1 0x40 MLOAD PUSH32 0x64A0AE9200000000000000000000000000000000000000000000000000000000 DUP2 MSTORE PUSH1 0x4 ADD PUSH2 0x180D SWAP2 SWAP1 PUSH2 0x297A JUMP JUMPDEST PUSH1 0x40 MLOAD DUP1 SWAP2 SUB SWAP1 REVERT JUMPDEST DUP1 MLOAD DUP2 PUSH1 0x20 ADD REVERT JUMPDEST PUSH4 0x150B7A02 PUSH1 0xE0 SHL PUSH28 0xFFFFFFFFFFFFFFFFFFFFFFFFFFFFFFFFFFFFFFFFFFFFFFFFFFFFFFFF NOT AND DUP2 PUSH28 0xFFFFFFFFFFFFFFFFFFFFFFFFFFFFFFFFFFFFFFFFFFFFFFFFFFFFFFFF NOT AND EQ PUSH2 0x18A7 JUMPI DUP4 PUSH1 0x40 MLOAD PUSH32 0x64A0AE9200000000000000000000000000000000000000000000000000000000 DUP2 MSTORE PUSH1 0x4 ADD PUSH2 0x189E SWAP2 SWAP1 PUSH2 0x297A JUMP JUMPDEST PUSH1 0x40 MLOAD DUP1 SWAP2 SUB SWAP1 REVERT JUMPDEST POP JUMPDEST POP POP POP POP JUMP JUMPDEST PUSH1 0x60 PUSH1 0x40 MLOAD DUP1 PUSH1 0x60 ADD PUSH1 0x40 MSTORE DUP1 PUSH1 0x36 DUP2 MSTORE PUSH1 0x20 ADD PUSH2 0x32FE PUSH1 0x36 SWAP2 CODECOPY SWAP1 POP SWAP1 JUMP JUMPDEST PUSH1 0x60 PUSH0 PUSH1 0x1 PUSH2 0x18DD DUP5 PUSH2 0x1D2D JUMP JUMPDEST ADD SWAP1 POP PUSH0 DUP2 PUSH8 0xFFFFFFFFFFFFFFFF DUP2 GT ISZERO PUSH2 0x18FB JUMPI PUSH2 0x18FA PUSH2 0x2BF4 JUMP JUMPDEST JUMPDEST PUSH1 0x40 MLOAD SWAP1 DUP1 DUP3 MSTORE DUP1 PUSH1 0x1F ADD PUSH1 0x1F NOT AND PUSH1 0x20 ADD DUP3 ADD PUSH1 0x40 MSTORE DUP1 ISZERO PUSH2 0x192D JUMPI DUP2 PUSH1 0x20 ADD PUSH1 0x1 DUP3 MUL DUP1 CALLDATASIZE DUP4 CALLDATACOPY DUP1 DUP3 ADD SWAP2 POP POP SWAP1 POP JUMPDEST POP SWAP1 POP PUSH0 DUP3 PUSH1 0x20 ADD DUP3 ADD SWAP1 POP JUMPDEST PUSH1 0x1 ISZERO PUSH2 0x198E JUMPI DUP1 DUP1 PUSH1 0x1 SWAP1 SUB SWAP2 POP POP PUSH32 0x3031323334353637383961626364656600000000000000000000000000000000 PUSH1 0xA DUP7 MOD BYTE DUP2 MSTORE8 PUSH1 0xA DUP6 DUP2 PUSH2 0x1983 JUMPI PUSH2 0x1982 PUSH2 0x3270 JUMP JUMPDEST JUMPDEST DIV SWAP5 POP PUSH0 DUP6 SUB PUSH2 0x193A JUMPI JUMPDEST DUP2 SWAP4 POP POP POP POP SWAP2 SWAP1 POP JUMP JUMPDEST PUSH0 PUSH32 0x80AC58CD00000000000000000000000000000000000000000000000000000000 PUSH28 0xFFFFFFFFFFFFFFFFFFFFFFFFFFFFFFFFFFFFFFFFFFFFFFFFFFFFFFFF NOT AND DUP3 PUSH28 0xFFFFFFFFFFFFFFFFFFFFFFFFFFFFFFFFFFFFFFFFFFFFFFFFFFFFFFFF NOT AND EQ DUP1 PUSH2 0x1A63 JUMPI POP PUSH32 0x5B5E139F00000000000000000000000000000000000000000000000000000000 PUSH28 0xFFFFFFFFFFFFFFFFFFFFFFFFFFFFFFFFFFFFFFFFFFFFFFFFFFFFFFFF NOT AND DUP3 PUSH28 0xFFFFFFFFFFFFFFFFFFFFFFFFFFFFFFFFFFFFFFFFFFFFFFFFFFFFFFFF NOT AND EQ JUMPDEST DUP1 PUSH2 0x1A73 JUMPI POP PUSH2 0x1A72 DUP3 PUSH2 0x1E7E JUMP JUMPDEST JUMPDEST SWAP1 POP SWAP2 SWAP1 POP JUMP JUMPDEST PUSH0 PUSH1 0x2 PUSH0 DUP4 DUP2 MSTORE PUSH1 0x20 ADD SWAP1 DUP2 MSTORE PUSH1 0x20 ADD PUSH0 KECCAK256 PUSH0 SWAP1 SLOAD SWAP1 PUSH2 0x100 EXP SWAP1 DIV PUSH20 0xFFFFFFFFFFFFFFFFFFFFFFFFFFFFFFFFFFFFFFFF AND SWAP1 POP SWAP2 SWAP1 POP JUMP JUMPDEST DUP1 DUP1 PUSH2 0x1AEB JUMPI POP PUSH0 PUSH20 0xFFFFFFFFFFFFFFFFFFFFFFFFFFFFFFFFFFFFFFFF AND DUP3 PUSH20 0xFFFFFFFFFFFFFFFFFFFFFFFFFFFFFFFFFFFFFFFF AND EQ ISZERO JUMPDEST ISZERO PUSH2 0x1C1D JUMPI PUSH0 PUSH2 0x1AFA DUP5 PUSH2 0x1272 JUMP JUMPDEST SWAP1 POP PUSH0 PUSH20 0xFFFFFFFFFFFFFFFFFFFFFFFFFFFFFFFFFFFFFFFF AND DUP4 PUSH20 0xFFFFFFFFFFFFFFFFFFFFFFFFFFFFFFFFFFFFFFFF AND EQ ISZERO DUP1 ISZERO PUSH2 0x1B64 JUMPI POP DUP3 PUSH20 0xFFFFFFFFFFFFFFFFFFFFFFFFFFFFFFFFFFFFFFFF AND DUP2 PUSH20 0xFFFFFFFFFFFFFFFFFFFFFFFFFFFFFFFFFFFFFFFF AND EQ ISZERO JUMPDEST DUP1 ISZERO PUSH2 0x1B77 JUMPI POP PUSH2 0x1B75 DUP2 DUP5 PUSH2 0x10E7 JUMP JUMPDEST ISZERO JUMPDEST ISZERO PUSH2 0x1BB9 JUMPI DUP3 PUSH1 0x40 MLOAD PUSH32 0xA9FBF51F00000000000000000000000000000000000000000000000000000000 DUP2 MSTORE PUSH1 0x4 ADD PUSH2 0x1BB0 SWAP2 SWAP1 PUSH2 0x297A JUMP JUMPDEST PUSH1 0x40 MLOAD DUP1 SWAP2 SUB SWAP1 REVERT JUMPDEST DUP2 ISZERO PUSH2 0x1C1B JUMPI DUP4 DUP6 PUSH20 0xFFFFFFFFFFFFFFFFFFFFFFFFFFFFFFFFFFFFFFFF AND DUP3 PUSH20 0xFFFFFFFFFFFFFFFFFFFFFFFFFFFFFFFFFFFFFFFF AND PUSH32 0x8C5BE1E5EBEC7D5BD14F71427D1E84F3DD0314C0F7B2291E5B200AC8C7C3B925 PUSH1 0x40 MLOAD PUSH1 0x40 MLOAD DUP1 SWAP2 SUB SWAP1 LOG4 JUMPDEST POP JUMPDEST DUP4 PUSH1 0x4 PUSH0 DUP6 DUP2 MSTORE PUSH1 0x20 ADD SWAP1 DUP2 MSTORE PUSH1 0x20 ADD PUSH0 KECCAK256 PUSH0 PUSH2 0x100 EXP DUP2 SLOAD DUP2 PUSH20 0xFFFFFFFFFFFFFFFFFFFFFFFFFFFFFFFFFFFFFFFF MUL NOT AND SWAP1 DUP4 PUSH20 0xFFFFFFFFFFFFFFFFFFFFFFFFFFFFFFFFFFFFFFFF AND MUL OR SWAP1 SSTORE POP POP POP POP POP JUMP JUMPDEST PUSH2 0x1C8B DUP3 DUP3 PUSH1 0x40 MLOAD DUP1 PUSH1 0x20 ADD PUSH1 0x40 MSTORE DUP1 PUSH0 DUP2 MSTORE POP PUSH2 0x1EE7 JUMP JUMPDEST POP POP JUMP JUMPDEST PUSH0 PUSH2 0x1C98 PUSH2 0x1CEC JUMP JUMPDEST PUSH2 0x1CA3 DUP5 DUP5 DUP5 PUSH2 0x1F02 JUMP JUMPDEST SWAP1 POP SWAP4 SWAP3 POP POP POP JUMP JUMPDEST PUSH2 0x1CB4 PUSH2 0xDA2 JUMP JUMPDEST PUSH2 0x1CEA JUMPI PUSH1 0x40 MLOAD PUSH32 0x8DFC202B00000000000000000000000000000000000000000000000000000000 DUP2 MSTORE PUSH1 0x4 ADD PUSH1 0x40 MLOAD DUP1 SWAP2 SUB SWAP1 REVERT JUMPDEST JUMP JUMPDEST PUSH2 0x1CF4 PUSH2 0xDA2 JUMP JUMPDEST ISZERO PUSH2 0x1D2B JUMPI PUSH1 0x40 MLOAD PUSH32 0xD93C066500000000000000000000000000000000000000000000000000000000 DUP2 MSTORE PUSH1 0x4 ADD PUSH1 0x40 MLOAD DUP1 SWAP2 SUB SWAP1 REVERT JUMPDEST JUMP JUMPDEST PUSH0 DUP1 PUSH0 SWAP1 POP PUSH27 0x184F03E93FF9F4DAA797ED6E38ED64BF6A1F010000000000000000 DUP4 LT PUSH2 0x1D89 JUMPI PUSH27 0x184F03E93FF9F4DAA797ED6E38ED64BF6A1F010000000000000000 DUP4 DUP2 PUSH2 0x1D7F JUMPI PUSH2 0x1D7E PUSH2 0x3270 JUMP JUMPDEST JUMPDEST DIV SWAP3 POP PUSH1 0x40 DUP2 ADD SWAP1 POP JUMPDEST PUSH14 0x4EE2D6D415B85ACEF8100000000 DUP4 LT PUSH2 0x1DC6 JUMPI PUSH14 0x4EE2D6D415B85ACEF8100000000 DUP4 DUP2 PUSH2 0x1DBC JUMPI PUSH2 0x1DBB PUSH2 0x3270 JUMP JUMPDEST JUMPDEST DIV SWAP3 POP PUSH1 0x20 DUP2 ADD SWAP1 POP JUMPDEST PUSH7 0x2386F26FC10000 DUP4 LT PUSH2 0x1DF5 JUMPI PUSH7 0x2386F26FC10000 DUP4 DUP2 PUSH2 0x1DEB JUMPI PUSH2 0x1DEA PUSH2 0x3270 JUMP JUMPDEST JUMPDEST DIV SWAP3 POP PUSH1 0x10 DUP2 ADD SWAP1 POP JUMPDEST PUSH4 0x5F5E100 DUP4 LT PUSH2 0x1E1E JUMPI PUSH4 0x5F5E100 DUP4 DUP2 PUSH2 0x1E14 JUMPI PUSH2 0x1E13 PUSH2 0x3270 JUMP JUMPDEST JUMPDEST DIV SWAP3 POP PUSH1 0x8 DUP2 ADD SWAP1 POP JUMPDEST PUSH2 0x2710 DUP4 LT PUSH2 0x1E43 JUMPI PUSH2 0x2710 DUP4 DUP2 PUSH2 0x1E39 JUMPI PUSH2 0x1E38 PUSH2 0x3270 JUMP JUMPDEST JUMPDEST DIV SWAP3 POP PUSH1 0x4 DUP2 ADD SWAP1 POP JUMPDEST PUSH1 0x64 DUP4 LT PUSH2 0x1E66 JUMPI PUSH1 0x64 DUP4 DUP2 PUSH2 0x1E5C JUMPI PUSH2 0x1E5B PUSH2 0x3270 JUMP JUMPDEST JUMPDEST DIV SWAP3 POP PUSH1 0x2 DUP2 ADD SWAP1 POP JUMPDEST PUSH1 0xA DUP4 LT PUSH2 0x1E75 JUMPI PUSH1 0x1 DUP2 ADD SWAP1 POP JUMPDEST DUP1 SWAP2 POP POP SWAP2 SWAP1 POP JUMP JUMPDEST PUSH0 PUSH32 0x1FFC9A700000000000000000000000000000000000000000000000000000000 PUSH28 0xFFFFFFFFFFFFFFFFFFFFFFFFFFFFFFFFFFFFFFFFFFFFFFFFFFFFFFFF NOT AND DUP3 PUSH28 0xFFFFFFFFFFFFFFFFFFFFFFFFFFFFFFFFFFFFFFFFFFFFFFFFFFFFFFFF NOT AND EQ SWAP1 POP SWAP2 SWAP1 POP JUMP JUMPDEST PUSH2 0x1EF1 DUP4 DUP4 PUSH2 0x201C JUMP JUMPDEST PUSH2 0x1EFD PUSH0 DUP5 DUP5 DUP5 PUSH2 0x16FD JUMP JUMPDEST POP POP POP JUMP JUMPDEST PUSH0 DUP1 PUSH2 0x1F0F DUP6 DUP6 DUP6 PUSH2 0x210F JUMP JUMPDEST SWAP1 POP PUSH0 PUSH20 0xFFFFFFFFFFFFFFFFFFFFFFFFFFFFFFFFFFFFFFFF AND DUP2 PUSH20 0xFFFFFFFFFFFFFFFFFFFFFFFFFFFFFFFFFFFFFFFF AND SUB PUSH2 0x1F52 JUMPI PUSH2 0x1F4D DUP5 PUSH2 0x231A JUMP JUMPDEST PUSH2 0x1F91 JUMP JUMPDEST DUP5 PUSH20 0xFFFFFFFFFFFFFFFFFFFFFFFFFFFFFFFFFFFFFFFF AND DUP2 PUSH20 0xFFFFFFFFFFFFFFFFFFFFFFFFFFFFFFFFFFFFFFFF AND EQ PUSH2 0x1F90 JUMPI PUSH2 0x1F8F DUP2 DUP6 PUSH2 0x235E JUMP JUMPDEST JUMPDEST JUMPDEST PUSH0 PUSH20 0xFFFFFFFFFFFFFFFFFFFFFFFFFFFFFFFFFFFFFFFF AND DUP6 PUSH20 0xFFFFFFFFFFFFFFFFFFFFFFFFFFFFFFFFFFFFFFFF AND SUB PUSH2 0x1FD2 JUMPI PUSH2 0x1FCD DUP5 PUSH2 0x24A8 JUMP JUMPDEST PUSH2 0x2011 JUMP JUMPDEST DUP5 PUSH20 0xFFFFFFFFFFFFFFFFFFFFFFFFFFFFFFFFFFFFFFFF AND DUP2 PUSH20 0xFFFFFFFFFFFFFFFFFFFFFFFFFFFFFFFFFFFFFFFF AND EQ PUSH2 0x2010 JUMPI PUSH2 0x200F DUP6 DUP6 PUSH2 0x2568 JUMP JUMPDEST JUMPDEST JUMPDEST DUP1 SWAP2 POP POP SWAP4 SWAP3 POP POP POP JUMP JUMPDEST PUSH0 PUSH20 0xFFFFFFFFFFFFFFFFFFFFFFFFFFFFFFFFFFFFFFFF AND DUP3 PUSH20 0xFFFFFFFFFFFFFFFFFFFFFFFFFFFFFFFFFFFFFFFF AND SUB PUSH2 0x208C JUMPI PUSH0 PUSH1 0x40 MLOAD PUSH32 0x64A0AE9200000000000000000000000000000000000000000000000000000000 DUP2 MSTORE PUSH1 0x4 ADD PUSH2 0x2083 SWAP2 SWAP1 PUSH2 0x297A JUMP JUMPDEST PUSH1 0x40 MLOAD DUP1 SWAP2 SUB SWAP1 REVERT JUMPDEST PUSH0 PUSH2 0x2098 DUP4 DUP4 PUSH0 PUSH2 0x1370 JUMP JUMPDEST SWAP1 POP PUSH0 PUSH20 0xFFFFFFFFFFFFFFFFFFFFFFFFFFFFFFFFFFFFFFFF AND DUP2 PUSH20 0xFFFFFFFFFFFFFFFFFFFFFFFFFFFFFFFFFFFFFFFF AND EQ PUSH2 0x210A JUMPI PUSH0 PUSH1 0x40 MLOAD PUSH32 0x73C6AC6E00000000000000000000000000000000000000000000000000000000 DUP2 MSTORE PUSH1 0x4 ADD PUSH2 0x2101 SWAP2 SWAP1 PUSH2 0x297A JUMP JUMPDEST PUSH1 0x40 MLOAD DUP1 SWAP2 SUB SWAP1 REVERT JUMPDEST POP POP POP JUMP JUMPDEST PUSH0 DUP1 PUSH2 0x211A DUP5 PUSH2 0x1A7A JUMP JUMPDEST SWAP1 POP PUSH0 PUSH20 0xFFFFFFFFFFFFFFFFFFFFFFFFFFFFFFFFFFFFFFFF AND DUP4 PUSH20 0xFFFFFFFFFFFFFFFFFFFFFFFFFFFFFFFFFFFFFFFF AND EQ PUSH2 0x215B JUMPI PUSH2 0x215A DUP2 DUP5 DUP7 PUSH2 0x25EC JUMP JUMPDEST JUMPDEST PUSH0 PUSH20 0xFFFFFFFFFFFFFFFFFFFFFFFFFFFFFFFFFFFFFFFF AND DUP2 PUSH20 0xFFFFFFFFFFFFFFFFFFFFFFFFFFFFFFFFFFFFFFFF AND EQ PUSH2 0x21E6 JUMPI PUSH2 0x219A PUSH0 DUP6 PUSH0 DUP1 PUSH2 0x1AB3 JUMP JUMPDEST PUSH1 0x1 PUSH1 0x3 PUSH0 DUP4 PUSH20 0xFFFFFFFFFFFFFFFFFFFFFFFFFFFFFFFFFFFFFFFF AND PUSH20 0xFFFFFFFFFFFFFFFFFFFFFFFFFFFFFFFFFFFFFFFF AND DUP2 MSTORE PUSH1 0x20 ADD SWAP1 DUP2 MSTORE PUSH1 0x20 ADD PUSH0 KECCAK256 PUSH0 DUP3 DUP3 SLOAD SUB SWAP3 POP POP DUP2 SWAP1 SSTORE POP JUMPDEST PUSH0 PUSH20 0xFFFFFFFFFFFFFFFFFFFFFFFFFFFFFFFFFFFFFFFF AND DUP6 PUSH20 0xFFFFFFFFFFFFFFFFFFFFFFFFFFFFFFFFFFFFFFFF AND EQ PUSH2 0x2265 JUMPI PUSH1 0x1 PUSH1 0x3 PUSH0 DUP8 PUSH20 0xFFFFFFFFFFFFFFFFFFFFFFFFFFFFFFFFFFFFFFFF AND PUSH20 0xFFFFFFFFFFFFFFFFFFFFFFFFFFFFFFFFFFFFFFFF AND DUP2 MSTORE PUSH1 0x20 ADD SWAP1 DUP2 MSTORE PUSH1 0x20 ADD PUSH0 KECCAK256 PUSH0 DUP3 DUP3 SLOAD ADD SWAP3 POP POP DUP2 SWAP1 SSTORE POP JUMPDEST DUP5 PUSH1 0x2 PUSH0 DUP7 DUP2 MSTORE PUSH1 0x20 ADD SWAP1 DUP2 MSTORE PUSH1 0x20 ADD PUSH0 KECCAK256 PUSH0 PUSH2 0x100 EXP DUP2 SLOAD DUP2 PUSH20 0xFFFFFFFFFFFFFFFFFFFFFFFFFFFFFFFFFFFFFFFF MUL NOT AND SWAP1 DUP4 PUSH20 0xFFFFFFFFFFFFFFFFFFFFFFFFFFFFFFFFFFFFFFFF AND MUL OR SWAP1 SSTORE POP DUP4 DUP6 PUSH20 0xFFFFFFFFFFFFFFFFFFFFFFFFFFFFFFFFFFFFFFFF AND DUP3 PUSH20 0xFFFFFFFFFFFFFFFFFFFFFFFFFFFFFFFFFFFFFFFF AND PUSH32 0xDDF252AD1BE2C89B69C2B068FC378DAA952BA7F163C4A11628F55A4DF523B3EF PUSH1 0x40 MLOAD PUSH1 0x40 MLOAD DUP1 SWAP2 SUB SWAP1 LOG4 DUP1 SWAP2 POP POP SWAP4 SWAP3 POP POP POP JUMP JUMPDEST PUSH1 0x8 DUP1 SLOAD SWAP1 POP PUSH1 0x9 PUSH0 DUP4 DUP2 MSTORE PUSH1 0x20 ADD SWAP1 DUP2 MSTORE PUSH1 0x20 ADD PUSH0 KECCAK256 DUP2 SWAP1 SSTORE POP PUSH1 0x8 DUP2 SWAP1 DUP1 PUSH1 0x1 DUP2 SLOAD ADD DUP1 DUP3 SSTORE DUP1 SWAP2 POP POP PUSH1 0x1 SWAP1 SUB SWAP1 PUSH0 MSTORE PUSH1 0x20 PUSH0 KECCAK256 ADD PUSH0 SWAP1 SWAP2 SWAP1 SWAP2 SWAP1 SWAP2 POP SSTORE POP JUMP JUMPDEST PUSH0 PUSH2 0x2368 DUP4 PUSH2 0xE1C JUMP JUMPDEST SWAP1 POP PUSH0 PUSH1 0x7 PUSH0 DUP5 DUP2 MSTORE PUSH1 0x20 ADD SWAP1 DUP2 MSTORE PUSH1 0x20 ADD PUSH0 KECCAK256 SLOAD SWAP1 POP DUP2 DUP2 EQ PUSH2 0x243F JUMPI PUSH0 PUSH1 0x6 PUSH0 DUP7 PUSH20 0xFFFFFFFFFFFFFFFFFFFFFFFFFFFFFFFFFFFFFFFF AND PUSH20 0xFFFFFFFFFFFFFFFFFFFFFFFFFFFFFFFFFFFFFFFF AND DUP2 MSTORE PUSH1 0x20 ADD SWAP1 DUP2 MSTORE PUSH1 0x20 ADD PUSH0 KECCAK256 PUSH0 DUP5 DUP2 MSTORE PUSH1 0x20 ADD SWAP1 DUP2 MSTORE PUSH1 0x20 ADD PUSH0 KECCAK256 SLOAD SWAP1 POP DUP1 PUSH1 0x6 PUSH0 DUP8 PUSH20 0xFFFFFFFFFFFFFFFFFFFFFFFFFFFFFFFFFFFFFFFF AND PUSH20 0xFFFFFFFFFFFFFFFFFFFFFFFFFFFFFFFFFFFFFFFF AND DUP2 MSTORE PUSH1 0x20 ADD SWAP1 DUP2 MSTORE PUSH1 0x20 ADD PUSH0 KECCAK256 PUSH0 DUP5 DUP2 MSTORE PUSH1 0x20 ADD SWAP1 DUP2 MSTORE PUSH1 0x20 ADD PUSH0 KECCAK256 DUP2 SWAP1 SSTORE POP DUP2 PUSH1 0x7 PUSH0 DUP4 DUP2 MSTORE PUSH1 0x20 ADD SWAP1 DUP2 MSTORE PUSH1 0x20 ADD PUSH0 KECCAK256 DUP2 SWAP1 SSTORE POP POP JUMPDEST PUSH1 0x7 PUSH0 DUP5 DUP2 MSTORE PUSH1 0x20 ADD SWAP1 DUP2 MSTORE PUSH1 0x20 ADD PUSH0 KECCAK256 PUSH0 SWAP1 SSTORE PUSH1 0x6 PUSH0 DUP6 PUSH20 0xFFFFFFFFFFFFFFFFFFFFFFFFFFFFFFFFFFFFFFFF AND PUSH20 0xFFFFFFFFFFFFFFFFFFFFFFFFFFFFFFFFFFFFFFFF AND DUP2 MSTORE PUSH1 0x20 ADD SWAP1 DUP2 MSTORE PUSH1 0x20 ADD PUSH0 KECCAK256 PUSH0 DUP4 DUP2 MSTORE PUSH1 0x20 ADD SWAP1 DUP2 MSTORE PUSH1 0x20 ADD PUSH0 KECCAK256 PUSH0 SWAP1 SSTORE POP POP POP POP JUMP JUMPDEST PUSH0 PUSH1 0x1 PUSH1 0x8 DUP1 SLOAD SWAP1 POP PUSH2 0x24BB SWAP2 SWAP1 PUSH2 0x329D JUMP JUMPDEST SWAP1 POP PUSH0 PUSH1 0x9 PUSH0 DUP5 DUP2 MSTORE PUSH1 0x20 ADD SWAP1 DUP2 MSTORE PUSH1 0x20 ADD PUSH0 KECCAK256 SLOAD SWAP1 POP PUSH0 PUSH1 0x8 DUP4 DUP2 SLOAD DUP2 LT PUSH2 0x24E7 JUMPI PUSH2 0x24E6 PUSH2 0x3097 JUMP JUMPDEST JUMPDEST SWAP1 PUSH0 MSTORE PUSH1 0x20 PUSH0 KECCAK256 ADD SLOAD SWAP1 POP DUP1 PUSH1 0x8 DUP4 DUP2 SLOAD DUP2 LT PUSH2 0x2507 JUMPI PUSH2 0x2506 PUSH2 0x3097 JUMP JUMPDEST JUMPDEST SWAP1 PUSH0 MSTORE PUSH1 0x20 PUSH0 KECCAK256 ADD DUP2 SWAP1 SSTORE POP DUP2 PUSH1 0x9 PUSH0 DUP4 DUP2 MSTORE PUSH1 0x20 ADD SWAP1 DUP2 MSTORE PUSH1 0x20 ADD PUSH0 KECCAK256 DUP2 SWAP1 SSTORE POP PUSH1 0x9 PUSH0 DUP6 DUP2 MSTORE PUSH1 0x20 ADD SWAP1 DUP2 MSTORE PUSH1 0x20 ADD PUSH0 KECCAK256 PUSH0 SWAP1 SSTORE PUSH1 0x8 DUP1 SLOAD DUP1 PUSH2 0x254F JUMPI PUSH2 0x254E PUSH2 0x32D0 JUMP JUMPDEST JUMPDEST PUSH1 0x1 SWAP1 SUB DUP2 DUP2 SWAP1 PUSH0 MSTORE PUSH1 0x20 PUSH0 KECCAK256 ADD PUSH0 SWAP1 SSTORE SWAP1 SSTORE POP POP POP POP JUMP JUMPDEST PUSH0 PUSH1 0x1 PUSH2 0x2574 DUP5 PUSH2 0xE1C JUMP JUMPDEST PUSH2 0x257E SWAP2 SWAP1 PUSH2 0x329D JUMP JUMPDEST SWAP1 POP DUP2 PUSH1 0x6 PUSH0 DUP6 PUSH20 0xFFFFFFFFFFFFFFFFFFFFFFFFFFFFFFFFFFFFFFFF AND PUSH20 0xFFFFFFFFFFFFFFFFFFFFFFFFFFFFFFFFFFFFFFFF AND DUP2 MSTORE PUSH1 0x20 ADD SWAP1 DUP2 MSTORE PUSH1 0x20 ADD PUSH0 KECCAK256 PUSH0 DUP4 DUP2 MSTORE PUSH1 0x20 ADD SWAP1 DUP2 MSTORE PUSH1 0x20 ADD PUSH0 KECCAK256 DUP2 SWAP1 SSTORE POP DUP1 PUSH1 0x7 PUSH0 DUP5 DUP2 MSTORE PUSH1 0x20 ADD SWAP1 DUP2 MSTORE PUSH1 0x20 ADD PUSH0 KECCAK256 DUP2 SWAP1 SSTORE POP POP POP POP JUMP JUMPDEST PUSH2 0x25F7 DUP4 DUP4 DUP4 PUSH2 0x26AF JUMP JUMPDEST PUSH2 0x26AA JUMPI PUSH0 PUSH20 0xFFFFFFFFFFFFFFFFFFFFFFFFFFFFFFFFFFFFFFFF AND DUP4 PUSH20 0xFFFFFFFFFFFFFFFFFFFFFFFFFFFFFFFFFFFFFFFF AND SUB PUSH2 0x266B JUMPI DUP1 PUSH1 0x40 MLOAD PUSH32 0x7E27328900000000000000000000000000000000000000000000000000000000 DUP2 MSTORE PUSH1 0x4 ADD PUSH2 0x2662 SWAP2 SWAP1 PUSH2 0x2A0A JUMP JUMPDEST PUSH1 0x40 MLOAD DUP1 SWAP2 SUB SWAP1 REVERT JUMPDEST DUP2 DUP2 PUSH1 0x40 MLOAD PUSH32 0x177E802F00000000000000000000000000000000000000000000000000000000 DUP2 MSTORE PUSH1 0x4 ADD PUSH2 0x26A1 SWAP3 SWAP2 SWAP1 PUSH2 0x3070 JUMP JUMPDEST PUSH1 0x40 MLOAD DUP1 SWAP2 SUB SWAP1 REVERT JUMPDEST POP POP POP JUMP JUMPDEST PUSH0 DUP1 PUSH20 0xFFFFFFFFFFFFFFFFFFFFFFFFFFFFFFFFFFFFFFFF AND DUP4 PUSH20 0xFFFFFFFFFFFFFFFFFFFFFFFFFFFFFFFFFFFFFFFF AND EQ ISZERO DUP1 ISZERO PUSH2 0x2766 JUMPI POP DUP3 PUSH20 0xFFFFFFFFFFFFFFFFFFFFFFFFFFFFFFFFFFFFFFFF AND DUP5 PUSH20 0xFFFFFFFFFFFFFFFFFFFFFFFFFFFFFFFFFFFFFFFF AND EQ DUP1 PUSH2 0x2727 JUMPI POP PUSH2 0x2726 DUP5 DUP5 PUSH2 0x10E7 JUMP JUMPDEST JUMPDEST DUP1 PUSH2 0x2765 JUMPI POP DUP3 PUSH20 0xFFFFFFFFFFFFFFFFFFFFFFFFFFFFFFFFFFFFFFFF AND PUSH2 0x274D DUP4 PUSH2 0x12F8 JUMP JUMPDEST PUSH20 0xFFFFFFFFFFFFFFFFFFFFFFFFFFFFFFFFFFFFFFFF AND EQ JUMPDEST JUMPDEST SWAP1 POP SWAP4 SWAP3 POP POP POP JUMP JUMPDEST PUSH0 PUSH1 0x40 MLOAD SWAP1 POP SWAP1 JUMP JUMPDEST PUSH0 DUP1 REVERT JUMPDEST PUSH0 DUP1 REVERT JUMPDEST PUSH0 PUSH32 0xFFFFFFFF00000000000000000000000000000000000000000000000000000000 DUP3 AND SWAP1 POP SWAP2 SWAP1 POP JUMP JUMPDEST PUSH2 0x27B4 DUP2 PUSH2 0x2780 JUMP JUMPDEST DUP2 EQ PUSH2 0x27BE JUMPI PUSH0 DUP1 REVERT JUMPDEST POP JUMP JUMPDEST PUSH0 DUP2 CALLDATALOAD SWAP1 POP PUSH2 0x27CF DUP2 PUSH2 0x27AB JUMP JUMPDEST SWAP3 SWAP2 POP POP JUMP JUMPDEST PUSH0 PUSH1 0x20 DUP3 DUP5 SUB SLT ISZERO PUSH2 0x27EA JUMPI PUSH2 0x27E9 PUSH2 0x2778 JUMP JUMPDEST JUMPDEST PUSH0 PUSH2 0x27F7 DUP5 DUP3 DUP6 ADD PUSH2 0x27C1 JUMP JUMPDEST SWAP2 POP POP SWAP3 SWAP2 POP POP JUMP JUMPDEST PUSH0 DUP2 ISZERO ISZERO SWAP1 POP SWAP2 SWAP1 POP JUMP JUMPDEST PUSH2 0x2814 DUP2 PUSH2 0x2800 JUMP JUMPDEST DUP3 MSTORE POP POP JUMP JUMPDEST PUSH0 PUSH1 0x20 DUP3 ADD SWAP1 POP PUSH2 0x282D PUSH0 DUP4 ADD DUP5 PUSH2 0x280B JUMP JUMPDEST SWAP3 SWAP2 POP POP JUMP JUMPDEST PUSH0 DUP2 MLOAD SWAP1 POP SWAP2 SWAP1 POP JUMP JUMPDEST PUSH0 DUP3 DUP3 MSTORE PUSH1 0x20 DUP3 ADD SWAP1 POP SWAP3 SWAP2 POP POP JUMP JUMPDEST PUSH0 JUMPDEST DUP4 DUP2 LT ISZERO PUSH2 0x286A JUMPI DUP1 DUP3 ADD MLOAD DUP2 DUP5 ADD MSTORE PUSH1 0x20 DUP2 ADD SWAP1 POP PUSH2 0x284F JUMP JUMPDEST PUSH0 DUP5 DUP5 ADD MSTORE POP POP POP POP JUMP JUMPDEST PUSH0 PUSH1 0x1F NOT PUSH1 0x1F DUP4 ADD AND SWAP1 POP SWAP2 SWAP1 POP JUMP JUMPDEST PUSH0 PUSH2 0x288F DUP3 PUSH2 0x2833 JUMP JUMPDEST PUSH2 0x2899 DUP2 DUP6 PUSH2 0x283D JUMP JUMPDEST SWAP4 POP PUSH2 0x28A9 DUP2 DUP6 PUSH1 0x20 DUP7 ADD PUSH2 0x284D JUMP JUMPDEST PUSH2 0x28B2 DUP2 PUSH2 0x2875 JUMP JUMPDEST DUP5 ADD SWAP2 POP POP SWAP3 SWAP2 POP POP JUMP JUMPDEST PUSH0 PUSH1 0x20 DUP3 ADD SWAP1 POP DUP2 DUP2 SUB PUSH0 DUP4 ADD MSTORE PUSH2 0x28D5 DUP2 DUP5 PUSH2 0x2885 JUMP JUMPDEST SWAP1 POP SWAP3 SWAP2 POP POP JUMP JUMPDEST PUSH0 DUP2 SWAP1 POP SWAP2 SWAP1 POP JUMP JUMPDEST PUSH2 0x28EF DUP2 PUSH2 0x28DD JUMP JUMPDEST DUP2 EQ PUSH2 0x28F9 JUMPI PUSH0 DUP1 REVERT JUMPDEST POP JUMP JUMPDEST PUSH0 DUP2 CALLDATALOAD SWAP1 POP PUSH2 0x290A DUP2 PUSH2 0x28E6 JUMP JUMPDEST SWAP3 SWAP2 POP POP JUMP JUMPDEST PUSH0 PUSH1 0x20 DUP3 DUP5 SUB SLT ISZERO PUSH2 0x2925 JUMPI PUSH2 0x2924 PUSH2 0x2778 JUMP JUMPDEST JUMPDEST PUSH0 PUSH2 0x2932 DUP5 DUP3 DUP6 ADD PUSH2 0x28FC JUMP JUMPDEST SWAP2 POP POP SWAP3 SWAP2 POP POP JUMP JUMPDEST PUSH0 PUSH20 0xFFFFFFFFFFFFFFFFFFFFFFFFFFFFFFFFFFFFFFFF DUP3 AND SWAP1 POP SWAP2 SWAP1 POP JUMP JUMPDEST PUSH0 PUSH2 0x2964 DUP3 PUSH2 0x293B JUMP JUMPDEST SWAP1 POP SWAP2 SWAP1 POP JUMP JUMPDEST PUSH2 0x2974 DUP2 PUSH2 0x295A JUMP JUMPDEST DUP3 MSTORE POP POP JUMP JUMPDEST PUSH0 PUSH1 0x20 DUP3 ADD SWAP1 POP PUSH2 0x298D PUSH0 DUP4 ADD DUP5 PUSH2 0x296B JUMP JUMPDEST SWAP3 SWAP2 POP POP JUMP JUMPDEST PUSH2 0x299C DUP2 PUSH2 0x295A JUMP JUMPDEST DUP2 EQ PUSH2 0x29A6 JUMPI PUSH0 DUP1 REVERT JUMPDEST POP JUMP JUMPDEST PUSH0 DUP2 CALLDATALOAD SWAP1 POP PUSH2 0x29B7 DUP2 PUSH2 0x2993 JUMP JUMPDEST SWAP3 SWAP2 POP POP JUMP JUMPDEST PUSH0 DUP1 PUSH1 0x40 DUP4 DUP6 SUB SLT ISZERO PUSH2 0x29D3 JUMPI PUSH2 0x29D2 PUSH2 0x2778 JUMP JUMPDEST JUMPDEST PUSH0 PUSH2 0x29E0 DUP6 DUP3 DUP7 ADD PUSH2 0x29A9 JUMP JUMPDEST SWAP3 POP POP PUSH1 0x20 PUSH2 0x29F1 DUP6 DUP3 DUP7 ADD PUSH2 0x28FC JUMP JUMPDEST SWAP2 POP POP SWAP3 POP SWAP3 SWAP1 POP JUMP JUMPDEST PUSH2 0x2A04 DUP2 PUSH2 0x28DD JUMP JUMPDEST DUP3 MSTORE POP POP JUMP JUMPDEST PUSH0 PUSH1 0x20 DUP3 ADD SWAP1 POP PUSH2 0x2A1D PUSH0 DUP4 ADD DUP5 PUSH2 0x29FB JUMP JUMPDEST SWAP3 SWAP2 POP POP JUMP JUMPDEST PUSH0 DUP1 PUSH0 PUSH1 0x60 DUP5 DUP7 SUB SLT ISZERO PUSH2 0x2A3A JUMPI PUSH2 0x2A39 PUSH2 0x2778 JUMP JUMPDEST JUMPDEST PUSH0 PUSH2 0x2A47 DUP7 DUP3 DUP8 ADD PUSH2 0x29A9 JUMP JUMPDEST SWAP4 POP POP PUSH1 0x20 PUSH2 0x2A58 DUP7 DUP3 DUP8 ADD PUSH2 0x29A9 JUMP JUMPDEST SWAP3 POP POP PUSH1 0x40 PUSH2 0x2A69 DUP7 DUP3 DUP8 ADD PUSH2 0x28FC JUMP JUMPDEST SWAP2 POP POP SWAP3 POP SWAP3 POP SWAP3 JUMP JUMPDEST PUSH0 PUSH1 0x20 DUP3 DUP5 SUB SLT ISZERO PUSH2 0x2A88 JUMPI PUSH2 0x2A87 PUSH2 0x2778 JUMP JUMPDEST JUMPDEST PUSH0 PUSH2 0x2A95 DUP5 DUP3 DUP6 ADD PUSH2 0x29A9 JUMP JUMPDEST SWAP2 POP POP SWAP3 SWAP2 POP POP JUMP JUMPDEST PUSH2 0x2AA7 DUP2 PUSH2 0x2800 JUMP JUMPDEST DUP2 EQ PUSH2 0x2AB1 JUMPI PUSH0 DUP1 REVERT JUMPDEST POP JUMP JUMPDEST PUSH0 DUP2 CALLDATALOAD SWAP1 POP PUSH2 0x2AC2 DUP2 PUSH2 0x2A9E JUMP JUMPDEST SWAP3 SWAP2 POP POP JUMP JUMPDEST PUSH0 DUP1 PUSH1 0x40 DUP4 DUP6 SUB SLT ISZERO PUSH2 0x2ADE JUMPI PUSH2 0x2ADD PUSH2 0x2778 JUMP JUMPDEST JUMPDEST PUSH0 PUSH2 0x2AEB DUP6 DUP3 DUP7 ADD PUSH2 0x2AB4 JUMP JUMPDEST SWAP3 POP POP PUSH1 0x20 PUSH2 0x2AFC DUP6 DUP3 DUP7 ADD PUSH2 0x2AB4 JUMP JUMPDEST SWAP2 POP POP SWAP3 POP SWAP3 SWAP1 POP JUMP JUMPDEST PUSH0 DUP1 REVERT JUMPDEST PUSH0 DUP1 REVERT JUMPDEST PUSH0 DUP1 REVERT JUMPDEST PUSH0 DUP1 DUP4 PUSH1 0x1F DUP5 ADD SLT PUSH2 0x2B27 JUMPI PUSH2 0x2B26 PUSH2 0x2B06 JUMP JUMPDEST JUMPDEST DUP3 CALLDATALOAD SWAP1 POP PUSH8 0xFFFFFFFFFFFFFFFF DUP2 GT ISZERO PUSH2 0x2B44 JUMPI PUSH2 0x2B43 PUSH2 0x2B0A JUMP JUMPDEST JUMPDEST PUSH1 0x20 DUP4 ADD SWAP2 POP DUP4 PUSH1 0x20 DUP3 MUL DUP4 ADD GT ISZERO PUSH2 0x2B60 JUMPI PUSH2 0x2B5F PUSH2 0x2B0E JUMP JUMPDEST JUMPDEST SWAP3 POP SWAP3 SWAP1 POP JUMP JUMPDEST PUSH0 DUP1 PUSH1 0x20 DUP4 DUP6 SUB SLT ISZERO PUSH2 0x2B7D JUMPI PUSH2 0x2B7C PUSH2 0x2778 JUMP JUMPDEST JUMPDEST PUSH0 DUP4 ADD CALLDATALOAD PUSH8 0xFFFFFFFFFFFFFFFF DUP2 GT ISZERO PUSH2 0x2B9A JUMPI PUSH2 0x2B99 PUSH2 0x277C JUMP JUMPDEST JUMPDEST PUSH2 0x2BA6 DUP6 DUP3 DUP7 ADD PUSH2 0x2B12 JUMP JUMPDEST SWAP3 POP SWAP3 POP POP SWAP3 POP SWAP3 SWAP1 POP JUMP JUMPDEST PUSH0 DUP1 PUSH1 0x40 DUP4 DUP6 SUB SLT ISZERO PUSH2 0x2BC8 JUMPI PUSH2 0x2BC7 PUSH2 0x2778 JUMP JUMPDEST JUMPDEST PUSH0 PUSH2 0x2BD5 DUP6 DUP3 DUP7 ADD PUSH2 0x29A9 JUMP JUMPDEST SWAP3 POP POP PUSH1 0x20 PUSH2 0x2BE6 DUP6 DUP3 DUP7 ADD PUSH2 0x2AB4 JUMP JUMPDEST SWAP2 POP POP SWAP3 POP SWAP3 SWAP1 POP JUMP JUMPDEST PUSH0 DUP1 REVERT JUMPDEST PUSH32 0x4E487B7100000000000000000000000000000000000000000000000000000000 PUSH0 MSTORE PUSH1 0x41 PUSH1 0x4 MSTORE PUSH1 0x24 PUSH0 REVERT JUMPDEST PUSH2 0x2C2A DUP3 PUSH2 0x2875 JUMP JUMPDEST DUP2 ADD DUP2 DUP2 LT PUSH8 0xFFFFFFFFFFFFFFFF DUP3 GT OR ISZERO PUSH2 0x2C49 JUMPI PUSH2 0x2C48 PUSH2 0x2BF4 JUMP JUMPDEST JUMPDEST DUP1 PUSH1 0x40 MSTORE POP POP POP JUMP JUMPDEST PUSH0 PUSH2 0x2C5B PUSH2 0x276F JUMP JUMPDEST SWAP1 POP PUSH2 0x2C67 DUP3 DUP3 PUSH2 0x2C21 JUMP JUMPDEST SWAP2 SWAP1 POP JUMP JUMPDEST PUSH0 PUSH8 0xFFFFFFFFFFFFFFFF DUP3 GT ISZERO PUSH2 0x2C86 JUMPI PUSH2 0x2C85 PUSH2 0x2BF4 JUMP JUMPDEST JUMPDEST PUSH2 0x2C8F DUP3 PUSH2 0x2875 JUMP JUMPDEST SWAP1 POP PUSH1 0x20 DUP2 ADD SWAP1 POP SWAP2 SWAP1 POP JUMP JUMPDEST DUP3 DUP2 DUP4 CALLDATACOPY PUSH0 DUP4 DUP4 ADD MSTORE POP POP POP JUMP JUMPDEST PUSH0 PUSH2 0x2CBC PUSH2 0x2CB7 DUP5 PUSH2 0x2C6C JUMP JUMPDEST PUSH2 0x2C52 JUMP JUMPDEST SWAP1 POP DUP3 DUP2 MSTORE PUSH1 0x20 DUP2 ADD DUP5 DUP5 DUP5 ADD GT ISZERO PUSH2 0x2CD8 JUMPI PUSH2 0x2CD7 PUSH2 0x2BF0 JUMP JUMPDEST JUMPDEST PUSH2 0x2CE3 DUP5 DUP3 DUP6 PUSH2 0x2C9C JUMP JUMPDEST POP SWAP4 SWAP3 POP POP POP JUMP JUMPDEST PUSH0 DUP3 PUSH1 0x1F DUP4 ADD SLT PUSH2 0x2CFF JUMPI PUSH2 0x2CFE PUSH2 0x2B06 JUMP JUMPDEST JUMPDEST DUP2 CALLDATALOAD PUSH2 0x2D0F DUP5 DUP3 PUSH1 0x20 DUP7 ADD PUSH2 0x2CAA JUMP JUMPDEST SWAP2 POP POP SWAP3 SWAP2 POP POP JUMP JUMPDEST PUSH0 DUP1 PUSH0 DUP1 PUSH1 0x80 DUP6 DUP8 SUB SLT ISZERO PUSH2 0x2D30 JUMPI PUSH2 0x2D2F PUSH2 0x2778 JUMP JUMPDEST JUMPDEST PUSH0 PUSH2 0x2D3D DUP8 DUP3 DUP9 ADD PUSH2 0x29A9 JUMP JUMPDEST SWAP5 POP POP PUSH1 0x20 PUSH2 0x2D4E DUP8 DUP3 DUP9 ADD PUSH2 0x29A9 JUMP JUMPDEST SWAP4 POP POP PUSH1 0x40 PUSH2 0x2D5F DUP8 DUP3 DUP9 ADD PUSH2 0x28FC JUMP JUMPDEST SWAP3 POP POP PUSH1 0x60 DUP6 ADD CALLDATALOAD PUSH8 0xFFFFFFFFFFFFFFFF DUP2 GT ISZERO PUSH2 0x2D80 JUMPI PUSH2 0x2D7F PUSH2 0x277C JUMP JUMPDEST JUMPDEST PUSH2 0x2D8C DUP8 DUP3 DUP9 ADD PUSH2 0x2CEB JUMP JUMPDEST SWAP2 POP POP SWAP3 SWAP6 SWAP2 SWAP5 POP SWAP3 POP JUMP JUMPDEST PUSH0 DUP1 PUSH1 0x40 DUP4 DUP6 SUB SLT ISZERO PUSH2 0x2DAE JUMPI PUSH2 0x2DAD PUSH2 0x2778 JUMP JUMPDEST JUMPDEST PUSH0 PUSH2 0x2DBB DUP6 DUP3 DUP7 ADD PUSH2 0x29A9 JUMP JUMPDEST SWAP3 POP POP PUSH1 0x20 PUSH2 0x2DCC DUP6 DUP3 DUP7 ADD PUSH2 0x29A9 JUMP JUMPDEST SWAP2 POP POP SWAP3 POP SWAP3 SWAP1 POP JUMP JUMPDEST PUSH32 0x4E487B7100000000000000000000000000000000000000000000000000000000 PUSH0 MSTORE PUSH1 0x22 PUSH1 0x4 MSTORE PUSH1 0x24 PUSH0 REVERT JUMPDEST PUSH0 PUSH1 0x2 DUP3 DIV SWAP1 POP PUSH1 0x1 DUP3 AND DUP1 PUSH2 0x2E1A JUMPI PUSH1 0x7F DUP3 AND SWAP2 POP JUMPDEST PUSH1 0x20 DUP3 LT DUP2 SUB PUSH2 0x2E2D JUMPI PUSH2 0x2E2C PUSH2 0x2DD6 JUMP JUMPDEST JUMPDEST POP SWAP2 SWAP1 POP JUMP JUMPDEST PUSH32 0x596F752072206E6F74206F6E20746865206C6973740000000000000000000000 PUSH0 DUP3 ADD MSTORE POP JUMP JUMPDEST PUSH0 PUSH2 0x2E67 PUSH1 0x15 DUP4 PUSH2 0x283D JUMP JUMPDEST SWAP2 POP PUSH2 0x2E72 DUP3 PUSH2 0x2E33 JUMP JUMPDEST PUSH1 0x20 DUP3 ADD SWAP1 POP SWAP2 SWAP1 POP JUMP JUMPDEST PUSH0 PUSH1 0x20 DUP3 ADD SWAP1 POP DUP2 DUP2 SUB PUSH0 DUP4 ADD MSTORE PUSH2 0x2E94 DUP2 PUSH2 0x2E5B JUMP JUMPDEST SWAP1 POP SWAP2 SWAP1 POP JUMP JUMPDEST PUSH32 0x416C6C6F77206C697374204D696E74206E6F74206F70656E0000000000000000 PUSH0 DUP3 ADD MSTORE POP JUMP JUMPDEST PUSH0 PUSH2 0x2ECF PUSH1 0x18 DUP4 PUSH2 0x283D JUMP JUMPDEST SWAP2 POP PUSH2 0x2EDA DUP3 PUSH2 0x2E9B JUMP JUMPDEST PUSH1 0x20 DUP3 ADD SWAP1 POP SWAP2 SWAP1 POP JUMP JUMPDEST PUSH0 PUSH1 0x20 DUP3 ADD SWAP1 POP DUP2 DUP2 SUB PUSH0 DUP4 ADD MSTORE PUSH2 0x2EFC DUP2 PUSH2 0x2EC3 JUMP JUMPDEST SWAP1 POP SWAP2 SWAP1 POP JUMP JUMPDEST PUSH32 0x4E6F7420454E6F7567682046756E647300000000000000000000000000000000 PUSH0 DUP3 ADD MSTORE POP JUMP JUMPDEST PUSH0 PUSH2 0x2F37 PUSH1 0x10 DUP4 PUSH2 0x283D JUMP JUMPDEST SWAP2 POP PUSH2 0x2F42 DUP3 PUSH2 0x2F03 JUMP JUMPDEST PUSH1 0x20 DUP3 ADD SWAP1 POP SWAP2 SWAP1 POP JUMP JUMPDEST PUSH0 PUSH1 0x20 DUP3 ADD SWAP1 POP DUP2 DUP2 SUB PUSH0 DUP4 ADD MSTORE PUSH2 0x2F64 DUP2 PUSH2 0x2F2B JUMP JUMPDEST SWAP1 POP SWAP2 SWAP1 POP JUMP JUMPDEST PUSH32 0x536F6C64204F7574210000000000000000000000000000000000000000000000 PUSH0 DUP3 ADD MSTORE POP JUMP JUMPDEST PUSH0 PUSH2 0x2F9F PUSH1 0x9 DUP4 PUSH2 0x283D JUMP JUMPDEST SWAP2 POP PUSH2 0x2FAA DUP3 PUSH2 0x2F6B JUMP JUMPDEST PUSH1 0x20 DUP3 ADD SWAP1 POP SWAP2 SWAP1 POP JUMP JUMPDEST PUSH0 PUSH1 0x20 DUP3 ADD SWAP1 POP DUP2 DUP2 SUB PUSH0 DUP4 ADD MSTORE PUSH2 0x2FCC DUP2 PUSH2 0x2F93 JUMP JUMPDEST SWAP1 POP SWAP2 SWAP1 POP JUMP JUMPDEST PUSH0 PUSH1 0x60 DUP3 ADD SWAP1 POP PUSH2 0x2FE6 PUSH0 DUP4 ADD DUP7 PUSH2 0x296B JUMP JUMPDEST PUSH2 0x2FF3 PUSH1 0x20 DUP4 ADD DUP6 PUSH2 0x29FB JUMP JUMPDEST PUSH2 0x3000 PUSH1 0x40 DUP4 ADD DUP5 PUSH2 0x296B JUMP JUMPDEST SWAP5 SWAP4 POP POP POP POP JUMP JUMPDEST PUSH32 0x5075626C6963204D696E74204E6F74204F50656E000000000000000000000000 PUSH0 DUP3 ADD MSTORE POP JUMP JUMPDEST PUSH0 PUSH2 0x303C PUSH1 0x14 DUP4 PUSH2 0x283D JUMP JUMPDEST SWAP2 POP PUSH2 0x3047 DUP3 PUSH2 0x3008 JUMP JUMPDEST PUSH1 0x20 DUP3 ADD SWAP1 POP SWAP2 SWAP1 POP JUMP JUMPDEST PUSH0 PUSH1 0x20 DUP3 ADD SWAP1 POP DUP2 DUP2 SUB PUSH0 DUP4 ADD MSTORE PUSH2 0x3069 DUP2 PUSH2 0x3030 JUMP JUMPDEST SWAP1 POP SWAP2 SWAP1 POP JUMP JUMPDEST PUSH0 PUSH1 0x40 DUP3 ADD SWAP1 POP PUSH2 0x3083 PUSH0 DUP4 ADD DUP6 PUSH2 0x296B JUMP JUMPDEST PUSH2 0x3090 PUSH1 0x20 DUP4 ADD DUP5 PUSH2 0x29FB JUMP JUMPDEST SWAP4 SWAP3 POP POP POP JUMP JUMPDEST PUSH32 0x4E487B7100000000000000000000000000000000000000000000000000000000 PUSH0 MSTORE PUSH1 0x32 PUSH1 0x4 MSTORE PUSH1 0x24 PUSH0 REVERT JUMPDEST PUSH32 0x4E487B7100000000000000000000000000000000000000000000000000000000 PUSH0 MSTORE PUSH1 0x11 PUSH1 0x4 MSTORE PUSH1 0x24 PUSH0 REVERT JUMPDEST PUSH0 PUSH2 0x30FB DUP3 PUSH2 0x28DD JUMP JUMPDEST SWAP2 POP PUSH32 0xFFFFFFFFFFFFFFFFFFFFFFFFFFFFFFFFFFFFFFFFFFFFFFFFFFFFFFFFFFFFFFFF DUP3 SUB PUSH2 0x312D JUMPI PUSH2 0x312C PUSH2 0x30C4 JUMP JUMPDEST JUMPDEST PUSH1 0x1 DUP3 ADD SWAP1 POP SWAP2 SWAP1 POP JUMP JUMPDEST PUSH0 DUP2 SWAP1 POP SWAP3 SWAP2 POP POP JUMP JUMPDEST PUSH0 PUSH2 0x314C DUP3 PUSH2 0x2833 JUMP JUMPDEST PUSH2 0x3156 DUP2 DUP6 PUSH2 0x3138 JUMP JUMPDEST SWAP4 POP PUSH2 0x3166 DUP2 DUP6 PUSH1 0x20 DUP7 ADD PUSH2 0x284D JUMP JUMPDEST DUP1 DUP5 ADD SWAP2 POP POP SWAP3 SWAP2 POP POP JUMP JUMPDEST PUSH0 PUSH2 0x317D DUP3 DUP6 PUSH2 0x3142 JUMP JUMPDEST SWAP2 POP PUSH2 0x3189 DUP3 DUP5 PUSH2 0x3142 JUMP JUMPDEST SWAP2 POP DUP2 SWAP1 POP SWAP4 SWAP3 POP POP POP JUMP JUMPDEST PUSH0 DUP2 MLOAD SWAP1 POP SWAP2 SWAP1 POP JUMP JUMPDEST PUSH0 DUP3 DUP3 MSTORE PUSH1 0x20 DUP3 ADD SWAP1 POP SWAP3 SWAP2 POP POP JUMP JUMPDEST PUSH0 PUSH2 0x31B9 DUP3 PUSH2 0x3195 JUMP JUMPDEST PUSH2 0x31C3 DUP2 DUP6 PUSH2 0x319F JUMP JUMPDEST SWAP4 POP PUSH2 0x31D3 DUP2 DUP6 PUSH1 0x20 DUP7 ADD PUSH2 0x284D JUMP JUMPDEST PUSH2 0x31DC DUP2 PUSH2 0x2875 JUMP JUMPDEST DUP5 ADD SWAP2 POP POP SWAP3 SWAP2 POP POP JUMP JUMPDEST PUSH0 PUSH1 0x80 DUP3 ADD SWAP1 POP PUSH2 0x31FA PUSH0 DUP4 ADD DUP8 PUSH2 0x296B JUMP JUMPDEST PUSH2 0x3207 PUSH1 0x20 DUP4 ADD DUP7 PUSH2 0x296B JUMP JUMPDEST PUSH2 0x3214 PUSH1 0x40 DUP4 ADD DUP6 PUSH2 0x29FB JUMP JUMPDEST DUP2 DUP2 SUB PUSH1 0x60 DUP4 ADD MSTORE PUSH2 0x3226 DUP2 DUP5 PUSH2 0x31AF JUMP JUMPDEST SWAP1 POP SWAP6 SWAP5 POP POP POP POP POP JUMP JUMPDEST PUSH0 DUP2 MLOAD SWAP1 POP PUSH2 0x323F DUP2 PUSH2 0x27AB JUMP JUMPDEST SWAP3 SWAP2 POP POP JUMP JUMPDEST PUSH0 PUSH1 0x20 DUP3 DUP5 SUB SLT ISZERO PUSH2 0x325A JUMPI PUSH2 0x3259 PUSH2 0x2778 JUMP JUMPDEST JUMPDEST PUSH0 PUSH2 0x3267 DUP5 DUP3 DUP6 ADD PUSH2 0x3231 JUMP JUMPDEST SWAP2 POP POP SWAP3 SWAP2 POP POP JUMP JUMPDEST PUSH32 0x4E487B7100000000000000000000000000000000000000000000000000000000 PUSH0 MSTORE PUSH1 0x12 PUSH1 0x4 MSTORE PUSH1 0x24 PUSH0 REVERT JUMPDEST PUSH0 PUSH2 0x32A7 DUP3 PUSH2 0x28DD JUMP JUMPDEST SWAP2 POP PUSH2 0x32B2 DUP4 PUSH2 0x28DD JUMP JUMPDEST SWAP3 POP DUP3 DUP3 SUB SWAP1 POP DUP2 DUP2 GT ISZERO PUSH2 0x32CA JUMPI PUSH2 0x32C9 PUSH2 0x30C4 JUMP JUMPDEST JUMPDEST SWAP3 SWAP2 POP POP JUMP JUMPDEST PUSH32 0x4E487B7100000000000000000000000000000000000000000000000000000000 PUSH0 MSTORE PUSH1 0x31 PUSH1 0x4 MSTORE PUSH1 0x24 PUSH0 REVERT INVALID PUSH10 0x7066733A2F2F516D5358 MSTORE PUSH23 0x3476556554457034513345684E62706D58553942434335 JUMPI PUSH27 0x795933665A724B677779767753674B2FA26469706673582212209B EXTCODESIZE PUSH15 0x4B716430ECCDB8D1B451D0B72526E8 DUP14 POP DUP1 CODECOPY 0xE EXTCODECOPY 0xE8 PUSH28 0x48D87962924B64736F6C634300081400330000000000000000000000 "
				},
				"gasEstimates": {
					"creation": {
						"codeDepositCost": "2632200",
						"executionCost": "infinite",
						"totalCost": "infinite"
					},
					"external": {
						"allowList(address)": "2923",
						"allowListMint()": "infinite",
						"allowListMintOpen()": "2563",
						"approve(address,uint256)": "infinite",
						"balanceOf(address)": "infinite",
						"editMintWindows(bool,bool)": "infinite",
						"getApproved(uint256)": "infinite",
						"ipfsUri()": "infinite",
						"isApprovedForAll(address,address)": "infinite",
						"name()": "infinite",
						"owner()": "2677",
						"ownerOf(uint256)": "infinite",
						"pause()": "infinite",
						"paused()": "2541",
						"publicMint()": "infinite",
						"publicMintOpen()": "2510",
						"renounceOwnership()": "infinite",
						"safeTransferFrom(address,address,uint256)": "infinite",
						"safeTransferFrom(address,address,uint256,bytes)": "infinite",
						"setAllowlist(address[])": "infinite",
						"setApprovalForAll(address,bool)": "infinite",
						"supportsInterface(bytes4)": "940",
						"symbol()": "infinite",
						"tokenByIndex(uint256)": "infinite",
						"tokenOfOwnerByIndex(address,uint256)": "infinite",
						"tokenURI(uint256)": "infinite",
						"totalSupply()": "2552",
						"transferFrom(address,address,uint256)": "infinite",
						"transferOwnership(address)": "infinite",
						"unpause()": "infinite",
						"withdrawFunds(address)": "infinite"
					},
					"internal": {
						"_baseURI()": "infinite",
						"_increaseBalance(address,uint128)": "infinite",
						"_update(address,uint256,address)": "infinite",
						"internalMint()": "infinite"
					}
				},
				"methodIdentifiers": {
					"allowList(address)": "2848aeaf",
					"allowListMint()": "102a6a73",
					"allowListMintOpen()": "085c9bac",
					"approve(address,uint256)": "095ea7b3",
					"balanceOf(address)": "70a08231",
					"editMintWindows(bool,bool)": "2f48de79",
					"getApproved(uint256)": "081812fc",
					"ipfsUri()": "94b5cdec",
					"isApprovedForAll(address,address)": "e985e9c5",
					"name()": "06fdde03",
					"owner()": "8da5cb5b",
					"ownerOf(uint256)": "6352211e",
					"pause()": "8456cb59",
					"paused()": "5c975abb",
					"publicMint()": "26092b83",
					"publicMintOpen()": "bcc9ca5b",
					"renounceOwnership()": "715018a6",
					"safeTransferFrom(address,address,uint256)": "42842e0e",
					"safeTransferFrom(address,address,uint256,bytes)": "b88d4fde",
					"setAllowlist(address[])": "552b818b",
					"setApprovalForAll(address,bool)": "a22cb465",
					"supportsInterface(bytes4)": "01ffc9a7",
					"symbol()": "95d89b41",
					"tokenByIndex(uint256)": "4f6ccce7",
					"tokenOfOwnerByIndex(address,uint256)": "2f745c59",
					"tokenURI(uint256)": "c87b56dd",
					"totalSupply()": "18160ddd",
					"transferFrom(address,address,uint256)": "23b872dd",
					"transferOwnership(address)": "f2fde38b",
					"unpause()": "3f4ba83a",
					"withdrawFunds(address)": "68742da6"
				}
			},
			"storageLayout": {
				"storage": [
					{
						"astId": 317,
						"contract": "ERC721/ERC721SC1.sol:ERC721SC1",
						"label": "_name",
						"offset": 0,
						"slot": "0",
						"type": "t_string_storage"
					},
					{
						"astId": 319,
						"contract": "ERC721/ERC721SC1.sol:ERC721SC1",
						"label": "_symbol",
						"offset": 0,
						"slot": "1",
						"type": "t_string_storage"
					},
					{
						"astId": 323,
						"contract": "ERC721/ERC721SC1.sol:ERC721SC1",
						"label": "_owners",
						"offset": 0,
						"slot": "2",
						"type": "t_mapping(t_uint256,t_address)"
					},
					{
						"astId": 327,
						"contract": "ERC721/ERC721SC1.sol:ERC721SC1",
						"label": "_balances",
						"offset": 0,
						"slot": "3",
						"type": "t_mapping(t_address,t_uint256)"
					},
					{
						"astId": 331,
						"contract": "ERC721/ERC721SC1.sol:ERC721SC1",
						"label": "_tokenApprovals",
						"offset": 0,
						"slot": "4",
						"type": "t_mapping(t_uint256,t_address)"
					},
					{
						"astId": 337,
						"contract": "ERC721/ERC721SC1.sol:ERC721SC1",
						"label": "_operatorApprovals",
						"offset": 0,
						"slot": "5",
						"type": "t_mapping(t_address,t_mapping(t_address,t_bool))"
					},
					{
						"astId": 1447,
						"contract": "ERC721/ERC721SC1.sol:ERC721SC1",
						"label": "_ownedTokens",
						"offset": 0,
						"slot": "6",
						"type": "t_mapping(t_address,t_mapping(t_uint256,t_uint256))"
					},
					{
						"astId": 1451,
						"contract": "ERC721/ERC721SC1.sol:ERC721SC1",
						"label": "_ownedTokensIndex",
						"offset": 0,
						"slot": "7",
						"type": "t_mapping(t_uint256,t_uint256)"
					},
					{
						"astId": 1454,
						"contract": "ERC721/ERC721SC1.sol:ERC721SC1",
						"label": "_allTokens",
						"offset": 0,
						"slot": "8",
						"type": "t_array(t_uint256)dyn_storage"
					},
					{
						"astId": 1458,
						"contract": "ERC721/ERC721SC1.sol:ERC721SC1",
						"label": "_allTokensIndex",
						"offset": 0,
						"slot": "9",
						"type": "t_mapping(t_uint256,t_uint256)"
					},
					{
						"astId": 1938,
						"contract": "ERC721/ERC721SC1.sol:ERC721SC1",
						"label": "_paused",
						"offset": 0,
						"slot": "10",
						"type": "t_bool"
					},
					{
						"astId": 8,
						"contract": "ERC721/ERC721SC1.sol:ERC721SC1",
						"label": "_owner",
						"offset": 1,
						"slot": "10",
						"type": "t_address"
					},
					{
						"astId": 3512,
						"contract": "ERC721/ERC721SC1.sol:ERC721SC1",
						"label": "_nextTokenId",
						"offset": 0,
						"slot": "11",
						"type": "t_uint256"
					},
					{
						"astId": 3515,
						"contract": "ERC721/ERC721SC1.sol:ERC721SC1",
						"label": "maxSupply",
						"offset": 0,
						"slot": "12",
						"type": "t_uint256"
					},
					{
						"astId": 3518,
						"contract": "ERC721/ERC721SC1.sol:ERC721SC1",
						"label": "allowListMaxSupply",
						"offset": 0,
						"slot": "13",
						"type": "t_uint256"
					},
					{
						"astId": 3522,
						"contract": "ERC721/ERC721SC1.sol:ERC721SC1",
						"label": "allowList",
						"offset": 0,
						"slot": "14",
						"type": "t_mapping(t_address,t_bool)"
					},
					{
						"astId": 3525,
						"contract": "ERC721/ERC721SC1.sol:ERC721SC1",
						"label": "publicMintOpen",
						"offset": 0,
						"slot": "15",
						"type": "t_bool"
					},
					{
						"astId": 3528,
						"contract": "ERC721/ERC721SC1.sol:ERC721SC1",
						"label": "allowListMintOpen",
						"offset": 1,
						"slot": "15",
						"type": "t_bool"
					},
					{
						"astId": 3530,
						"contract": "ERC721/ERC721SC1.sol:ERC721SC1",
						"label": "ipfsUri",
						"offset": 0,
						"slot": "16",
						"type": "t_string_storage"
					}
				],
				"types": {
					"t_address": {
						"encoding": "inplace",
						"label": "address",
						"numberOfBytes": "20"
					},
					"t_array(t_uint256)dyn_storage": {
						"base": "t_uint256",
						"encoding": "dynamic_array",
						"label": "uint256[]",
						"numberOfBytes": "32"
					},
					"t_bool": {
						"encoding": "inplace",
						"label": "bool",
						"numberOfBytes": "1"
					},
					"t_mapping(t_address,t_bool)": {
						"encoding": "mapping",
						"key": "t_address",
						"label": "mapping(address => bool)",
						"numberOfBytes": "32",
						"value": "t_bool"
					},
					"t_mapping(t_address,t_mapping(t_address,t_bool))": {
						"encoding": "mapping",
						"key": "t_address",
						"label": "mapping(address => mapping(address => bool))",
						"numberOfBytes": "32",
						"value": "t_mapping(t_address,t_bool)"
					},
					"t_mapping(t_address,t_mapping(t_uint256,t_uint256))": {
						"encoding": "mapping",
						"key": "t_address",
						"label": "mapping(address => mapping(uint256 => uint256))",
						"numberOfBytes": "32",
						"value": "t_mapping(t_uint256,t_uint256)"
					},
					"t_mapping(t_address,t_uint256)": {
						"encoding": "mapping",
						"key": "t_address",
						"label": "mapping(address => uint256)",
						"numberOfBytes": "32",
						"value": "t_uint256"
					},
					"t_mapping(t_uint256,t_address)": {
						"encoding": "mapping",
						"key": "t_uint256",
						"label": "mapping(uint256 => address)",
						"numberOfBytes": "32",
						"value": "t_address"
					},
					"t_mapping(t_uint256,t_uint256)": {
						"encoding": "mapping",
						"key": "t_uint256",
						"label": "mapping(uint256 => uint256)",
						"numberOfBytes": "32",
						"value": "t_uint256"
					},
					"t_string_storage": {
						"encoding": "bytes",
						"label": "string",
						"numberOfBytes": "32"
					},
					"t_uint256": {
						"encoding": "inplace",
						"label": "uint256",
						"numberOfBytes": "32"
					}
				}
			},
			"userdoc": {
				"kind": "user",
				"methods": {},
				"version": 1
			}
		}
	}
}